{
  "abi": [
    {
      "inputs": [],
      "stateMutability": "nonpayable",
      "type": "constructor"
    },
    {
      "inputs": [],
      "name": "PROOF_VERIFICATION_FAILED",
      "type": "error"
    },
    {
      "inputs": [
        {
          "internalType": "bytes",
          "name": "reason",
          "type": "bytes"
        }
      ],
      "name": "RECOVER_FAILED",
      "type": "error"
    },
    {
      "anonymous": false,
      "inputs": [
        {
          "indexed": false,
          "internalType": "address",
          "name": "previousAdmin",
          "type": "address"
        },
        {
          "indexed": false,
          "internalType": "address",
          "name": "newAdmin",
          "type": "address"
        }
      ],
      "name": "AdminChanged",
      "type": "event"
    },
    {
      "anonymous": false,
      "inputs": [
        {
          "indexed": true,
          "internalType": "address",
          "name": "beacon",
          "type": "address"
        }
      ],
      "name": "BeaconUpgraded",
      "type": "event"
    },
    {
      "anonymous": false,
      "inputs": [
        {
          "indexed": false,
          "internalType": "uint8",
          "name": "version",
          "type": "uint8"
        }
      ],
      "name": "Initialized",
      "type": "event"
    },
    {
      "anonymous": false,
      "inputs": [
        {
          "indexed": true,
          "internalType": "bytes32",
          "name": "metadataHash",
          "type": "bytes32"
        },
        {
          "indexed": false,
          "internalType": "bytes",
          "name": "data",
          "type": "bytes"
        }
      ],
      "name": "Metadata",
      "type": "event"
    },
    {
      "anonymous": false,
      "inputs": [
        {
          "indexed": true,
          "internalType": "address",
          "name": "implementation",
          "type": "address"
        }
      ],
      "name": "Upgraded",
      "type": "event"
    },
    {
      "inputs": [],
      "name": "MIN_TIMELOCK",
      "outputs": [
        {
          "internalType": "uint256",
          "name": "",
          "type": "uint256"
        }
      ],
      "stateMutability": "view",
      "type": "function"
    },
    {
      "inputs": [
        {
          "internalType": "bytes32",
          "name": "value",
          "type": "bytes32"
        }
      ],
      "name": "_convertBytes32ToBytes32Array",
      "outputs": [
        {
          "internalType": "bytes32[32]",
          "name": "",
          "type": "bytes32[32]"
        }
      ],
      "stateMutability": "pure",
      "type": "function"
    },
    {
      "inputs": [
        {
          "internalType": "uint256",
          "name": "_recoveryTimeLock",
          "type": "uint256"
        },
        {
          "internalType": "bytes32[]",
          "name": "_hashed_address",
          "type": "bytes32[]"
        }
      ],
      "name": "addEcrecoverRecover",
      "outputs": [],
      "stateMutability": "nonpayable",
      "type": "function"
    },
    {
      "inputs": [
        {
          "internalType": "uint256",
          "name": "_recoveryTimeLock",
          "type": "uint256"
        },
        {
          "internalType": "bytes32",
          "name": "_hashed_secret",
          "type": "bytes32"
        }
      ],
      "name": "addSecretRecover",
      "outputs": [],
      "stateMutability": "nonpayable",
      "type": "function"
    },
    {
      "inputs": [
        {
          "internalType": "uint256",
          "name": "_recoveryTimeLock",
          "type": "uint256"
        },
        {
          "internalType": "bytes32[]",
          "name": "_pubkey",
          "type": "bytes32[]"
        },
        {
          "internalType": "string",
          "name": "_credentialId",
          "type": "string"
        }
      ],
      "name": "addWebAuthnRecover",
      "outputs": [],
      "stateMutability": "nonpayable",
      "type": "function"
    },
    {
      "inputs": [],
      "name": "credentialId",
      "outputs": [
        {
          "internalType": "string",
          "name": "",
          "type": "string"
        }
      ],
      "stateMutability": "view",
      "type": "function"
    },
    {
      "inputs": [],
      "name": "ecrecoverVerifier",
      "outputs": [
        {
          "internalType": "address",
          "name": "",
          "type": "address"
        }
      ],
      "stateMutability": "view",
      "type": "function"
    },
    {
      "inputs": [
        {
          "internalType": "uint256",
          "name": "_recoveryId",
          "type": "uint256"
        }
      ],
      "name": "execRecovery",
      "outputs": [
        {
          "internalType": "bool",
          "name": "",
          "type": "bool"
        }
      ],
      "stateMutability": "nonpayable",
      "type": "function"
    },
    {
      "inputs": [
        {
          "internalType": "uint256",
          "name": "",
          "type": "uint256"
        }
      ],
      "name": "hashed_address",
      "outputs": [
        {
          "internalType": "bytes32",
          "name": "",
          "type": "bytes32"
        }
      ],
      "stateMutability": "view",
      "type": "function"
    },
    {
      "inputs": [
        {
          "internalType": "uint256",
          "name": "",
          "type": "uint256"
        }
      ],
      "name": "hashed_secret",
      "outputs": [
        {
          "internalType": "bytes32",
          "name": "",
          "type": "bytes32"
        }
      ],
      "stateMutability": "view",
      "type": "function"
    },
    {
      "inputs": [
        {
          "internalType": "address",
          "name": "_safe",
          "type": "address"
        },
        {
          "internalType": "address",
          "name": "_safeProtocolManager",
          "type": "address"
        },
        {
          "internalType": "address",
          "name": "_webAuthnVerifier",
          "type": "address"
        },
        {
          "internalType": "address",
          "name": "_secretVerifier",
          "type": "address"
        },
        {
          "internalType": "address",
          "name": "_ecrecoverVerifier",
          "type": "address"
        }
      ],
      "name": "initialize",
      "outputs": [],
      "stateMutability": "nonpayable",
      "type": "function"
    },
    {
      "inputs": [],
      "name": "isEcrecoverRecoverEnabled",
      "outputs": [
        {
          "internalType": "bool",
          "name": "",
          "type": "bool"
        }
      ],
      "stateMutability": "view",
      "type": "function"
    },
    {
      "inputs": [],
      "name": "isSecretRecoverEnabled",
      "outputs": [
        {
          "internalType": "bool",
          "name": "",
          "type": "bool"
        }
      ],
      "stateMutability": "view",
      "type": "function"
    },
    {
      "inputs": [],
      "name": "isWebAuthnRecoverEnabled",
      "outputs": [
        {
          "internalType": "bool",
          "name": "",
          "type": "bool"
        }
      ],
      "stateMutability": "view",
      "type": "function"
    },
    {
      "inputs": [],
      "name": "metadataHash",
      "outputs": [
        {
          "internalType": "bytes32",
          "name": "",
          "type": "bytes32"
        }
      ],
      "stateMutability": "view",
      "type": "function"
    },
    {
      "inputs": [],
      "name": "metadataProvider",
      "outputs": [
        {
          "internalType": "uint256",
          "name": "providerType",
          "type": "uint256"
        },
        {
          "internalType": "bytes",
          "name": "location",
          "type": "bytes"
        }
      ],
      "stateMutability": "view",
      "type": "function"
    },
    {
      "inputs": [],
      "name": "name",
      "outputs": [
        {
          "internalType": "string",
          "name": "",
          "type": "string"
        }
      ],
      "stateMutability": "view",
      "type": "function"
    },
    {
      "inputs": [
        {
          "internalType": "address[]",
          "name": "_oldAddresses",
          "type": "address[]"
        },
        {
          "internalType": "address[]",
          "name": "_newAddresses",
          "type": "address[]"
        },
        {
          "internalType": "uint256",
          "name": "_newThreshold",
          "type": "uint256"
        },
        {
          "internalType": "bytes",
          "name": "_proof",
          "type": "bytes"
        },
        {
          "internalType": "bytes32[]",
          "name": "_message",
          "type": "bytes32[]"
        }
      ],
      "name": "proposeEcrecoverRecover",
      "outputs": [
        {
          "internalType": "uint256",
          "name": "",
          "type": "uint256"
        },
        {
          "internalType": "uint256",
          "name": "",
          "type": "uint256"
        }
      ],
      "stateMutability": "nonpayable",
      "type": "function"
    },
    {
      "inputs": [
        {
          "internalType": "address[]",
          "name": "_oldAddresses",
          "type": "address[]"
        },
        {
          "internalType": "address[]",
          "name": "_newAddresses",
          "type": "address[]"
        },
        {
          "internalType": "uint256",
          "name": "_newThreshold",
          "type": "uint256"
        },
        {
          "internalType": "bytes",
          "name": "_proof",
          "type": "bytes"
        }
      ],
      "name": "proposeSecretRecover",
      "outputs": [
        {
          "internalType": "uint256",
          "name": "",
          "type": "uint256"
        },
        {
          "internalType": "uint256",
          "name": "",
          "type": "uint256"
        }
      ],
      "stateMutability": "nonpayable",
      "type": "function"
    },
    {
      "inputs": [
        {
          "internalType": "address[]",
          "name": "_oldAddresses",
          "type": "address[]"
        },
        {
          "internalType": "address[]",
          "name": "_newAddresses",
          "type": "address[]"
        },
        {
          "internalType": "uint256",
          "name": "_newThreshold",
          "type": "uint256"
        },
        {
          "internalType": "bytes",
          "name": "_proof",
          "type": "bytes"
        },
        {
          "internalType": "bytes",
          "name": "_webAuthnInputs",
          "type": "bytes"
        }
      ],
      "name": "proposeWebAuthnRecover",
      "outputs": [
        {
          "internalType": "uint256",
          "name": "",
          "type": "uint256"
        },
        {
          "internalType": "uint256",
          "name": "",
          "type": "uint256"
        }
      ],
      "stateMutability": "nonpayable",
      "type": "function"
    },
    {
      "inputs": [],
      "name": "proxiableUUID",
      "outputs": [
        {
          "internalType": "bytes32",
          "name": "",
          "type": "bytes32"
        }
      ],
      "stateMutability": "view",
      "type": "function"
    },
    {
      "inputs": [
        {
          "internalType": "uint256",
          "name": "",
          "type": "uint256"
        }
      ],
      "name": "pubkey",
      "outputs": [
        {
          "internalType": "bytes32",
          "name": "",
          "type": "bytes32"
        }
      ],
      "stateMutability": "view",
      "type": "function"
    },
    {
      "inputs": [
        {
          "internalType": "uint256",
          "name": "",
          "type": "uint256"
        }
      ],
      "name": "recoveries",
      "outputs": [
        {
          "internalType": "uint256",
          "name": "newThreshold",
          "type": "uint256"
        },
        {
          "internalType": "uint256",
          "name": "deadline",
          "type": "uint256"
        },
        {
          "internalType": "bool",
          "name": "rejected",
          "type": "bool"
        }
      ],
      "stateMutability": "view",
      "type": "function"
    },
    {
      "inputs": [],
      "name": "recoveryCount",
      "outputs": [
        {
          "internalType": "uint256",
          "name": "",
          "type": "uint256"
        }
      ],
      "stateMutability": "view",
      "type": "function"
    },
    {
      "inputs": [],
      "name": "recoveryTimeLock",
      "outputs": [
        {
          "internalType": "uint256",
          "name": "",
          "type": "uint256"
        }
      ],
      "stateMutability": "view",
      "type": "function"
    },
    {
      "inputs": [
        {
          "internalType": "uint256",
          "name": "_recoveryId",
          "type": "uint256"
        }
      ],
      "name": "rejectRecovery",
      "outputs": [],
      "stateMutability": "nonpayable",
      "type": "function"
    },
    {
      "inputs": [],
      "name": "removeEcrecoverRecover",
      "outputs": [],
      "stateMutability": "nonpayable",
      "type": "function"
    },
    {
      "inputs": [],
      "name": "removeSecretRecover",
      "outputs": [],
      "stateMutability": "nonpayable",
      "type": "function"
    },
    {
      "inputs": [],
      "name": "removeWebAuthnRecover",
      "outputs": [],
      "stateMutability": "nonpayable",
      "type": "function"
    },
    {
      "inputs": [],
      "name": "requiresPermissions",
      "outputs": [
        {
          "internalType": "uint8",
          "name": "permissions",
          "type": "uint8"
        }
      ],
      "stateMutability": "view",
      "type": "function"
    },
    {
      "inputs": [],
      "name": "requiresRootAccess",
      "outputs": [
        {
          "internalType": "bool",
          "name": "",
          "type": "bool"
        }
      ],
      "stateMutability": "view",
      "type": "function"
    },
    {
      "inputs": [],
      "name": "safe",
      "outputs": [
        {
          "internalType": "address",
          "name": "",
          "type": "address"
        }
      ],
      "stateMutability": "view",
      "type": "function"
    },
    {
      "inputs": [],
      "name": "safeProtocolManager",
      "outputs": [
        {
          "internalType": "contract ISafeProtocolManager",
          "name": "",
          "type": "address"
        }
      ],
      "stateMutability": "view",
      "type": "function"
    },
    {
      "inputs": [],
      "name": "secretVerifier",
      "outputs": [
        {
          "internalType": "address",
          "name": "",
          "type": "address"
        }
      ],
      "stateMutability": "view",
      "type": "function"
    },
    {
      "inputs": [
        {
          "internalType": "bytes4",
          "name": "interfaceId",
          "type": "bytes4"
        }
      ],
      "name": "supportsInterface",
      "outputs": [
        {
          "internalType": "bool",
          "name": "",
          "type": "bool"
        }
      ],
      "stateMutability": "view",
      "type": "function"
    },
    {
      "inputs": [
        {
          "internalType": "address",
          "name": "newImplementation",
          "type": "address"
        }
      ],
      "name": "upgradeTo",
      "outputs": [],
      "stateMutability": "nonpayable",
      "type": "function"
    },
    {
      "inputs": [
        {
          "internalType": "address",
          "name": "newImplementation",
          "type": "address"
        },
        {
          "internalType": "bytes",
          "name": "data",
          "type": "bytes"
        }
      ],
      "name": "upgradeToAndCall",
      "outputs": [],
      "stateMutability": "payable",
      "type": "function"
    },
    {
      "inputs": [],
      "name": "version",
      "outputs": [
        {
          "internalType": "string",
          "name": "",
          "type": "string"
        }
      ],
      "stateMutability": "view",
      "type": "function"
    },
    {
      "inputs": [],
      "name": "webAuthnVerifier",
      "outputs": [
        {
          "internalType": "address",
          "name": "",
          "type": "address"
        }
      ],
      "stateMutability": "view",
      "type": "function"
    }
  ],
  "bytecode": {
    "object": "0x60a06040523060805234801561001457600080fd5b50608051613fc561004c60003960008181610c2d01528181610cc301528181610f0201528181610f98015261126d0152613fc56000f3fe6080604052600436106102a05760003560e01c80637a04c8651161016e578063c69f0f68116100cb578063e6e1247e1161007f578063f3d3f54911610064578063f3d3f54914610780578063f5120d62146107a0578063fb0c7549146107b557600080fd5b8063e6e1247e14610744578063e8e755b51461076457600080fd5b8063d3d72d2a116100b0578063d3d72d2a146106ca578063dada7ca21461070e578063e67953061461072357600080fd5b8063c69f0f681461068a578063cdb44775146106aa57600080fd5b80639a8f18f311610122578063a3c0f0b711610107578063a3c0f0b714610645578063be193d271461065a578063c5a1d7f01461067457600080fd5b80639a8f18f3146106055780639df5ead61461062557600080fd5b80637c64dd76116101535780637c64dd76146105a457806383b1a8c1146105c45780638e482341146105e557600080fd5b80637a04c865146105255780637b49fa191461058457600080fd5b80632e56f60d1161021c57806351a2f17a116101d057806354fd4d50116101b557806354fd4d50146104c357806357a60326146104d857806367a277a4146104f857600080fd5b806351a2f17a1461047957806352d1902d146104ae57600080fd5b8063403f69d211610201578063403f69d2146104265780634bc618d2146104465780634f1ef2861461046657600080fd5b80632e56f60d146103f15780633659cfe61461040657600080fd5b80630ce03f2d11610273578063186f035411610258578063186f03541461039057806323b26075146103b05780632cdfb6ae146103d157600080fd5b80630ce03f2d146103585780631459457a1461036e57600080fd5b8063010a623c146102a557806301ffc9a7146102ce578063024e5d15146102fe57806306fdde0314610336575b600080fd5b3480156102b157600080fd5b506102bb60075481565b6040519081526020015b60405180910390f35b3480156102da57600080fd5b506102ee6102e93660046132e4565b6107cc565b60405190151581526020016102c5565b34801561030a57600080fd5b50600c5461031e906001600160a01b031681565b6040516001600160a01b0390911681526020016102c5565b34801561034257600080fd5b5061034b610865565b6040516102c59190613376565b34801561036457600080fd5b506102bb60065481565b34801561037a57600080fd5b5061038e61038936600461339e565b6108f3565b005b34801561039c57600080fd5b5060055461031e906001600160a01b031681565b3480156103bc57600080fd5b506009546102ee90600160a01b900460ff1681565b3480156103dd57600080fd5b506102bb6103ec36600461340f565b610b7f565b3480156103fd57600080fd5b5061038e610ba0565b34801561041257600080fd5b5061038e610421366004613428565b610c23565b34801561043257600080fd5b506102bb61044136600461340f565b610db7565b34801561045257600080fd5b5061038e61046136600461358a565b610dc7565b61038e61047436600461362b565b610ef8565b34801561048557600080fd5b506104996104943660046136df565b61107d565b604080519283526020830191909152016102c5565b3480156104ba57600080fd5b506102bb611260565b3480156104cf57600080fd5b5061034b611325565b3480156104e457600080fd5b5061038e6104f3366004613796565b611332565b34801561050457600080fd5b5061051861051336600461340f565b61142c565b6040516102c591906137b8565b34801561053157600080fd5b5061056761054036600461340f565b60086020526000908152604090206002810154600382015460049092015490919060ff1683565b6040805193845260208401929092521515908201526060016102c5565b34801561059057600080fd5b5060095461031e906001600160a01b031681565b3480156105b057600080fd5b50600e5461031e906001600160a01b031681565b3480156105d057600080fd5b50600c546102ee90600160a01b900460ff1681565b3480156105f157600080fd5b5060105461031e906001600160a01b031681565b34801561061157600080fd5b5061038e61062036600461340f565b61148b565b34801561063157600080fd5b506102bb61064036600461340f565b611559565b34801561065157600080fd5b5061034b611569565b34801561066657600080fd5b506003546102ee9060ff1681565b34801561068057600080fd5b506102bb60045481565b34801561069657600080fd5b5061038e6106a53660046137ee565b611576565b3480156106b657600080fd5b506102ee6106c536600461340f565b611670565b3480156106d657600080fd5b50610700604080513060208201526003916060910160405160208183030381529060405290509091565b6040516102c592919061382b565b34801561071a57600080fd5b5061038e611db8565b34801561072f57600080fd5b50600e546102ee90600160a01b900460ff1681565b34801561075057600080fd5b5061049961075f366004613844565b611e95565b34801561077057600080fd5b50604051600281526020016102c5565b34801561078c57600080fd5b5061049961079b3660046138ee565b612068565b3480156107ac57600080fd5b5061038e61227e565b3480156107c157600080fd5b506102bb62278d0081565b60007fffffffff0000000000000000000000000000000000000000000000000000000082167f6930ebcc00000000000000000000000000000000000000000000000000000000148061085f57507f01ffc9a7000000000000000000000000000000000000000000000000000000007fffffffff000000000000000000000000000000000000000000000000000000008316145b92915050565b6001805461087290613980565b80601f016020809104026020016040519081016040528092919081815260200182805461089e90613980565b80156108eb5780601f106108c0576101008083540402835291602001916108eb565b820191906000526020600020905b8154815290600101906020018083116108ce57829003601f168201915b505050505081565b600054610100900460ff16158080156109135750600054600160ff909116105b8061092d5750303b15801561092d575060005460ff166001145b6109a45760405162461bcd60e51b815260206004820152602e60248201527f496e697469616c697a61626c653a20636f6e747261637420697320616c72656160448201527f647920696e697469616c697a656400000000000000000000000000000000000060648201526084015b60405180910390fd5b6000805460ff1916600117905580156109e457600080547fffffffffffffffffffffffffffffffffffffffffffffffffffffffffffff00ff166101001790555b610aa66040518060a001604052806040518060400160405280601481526020017f53616665205265636f7665727920506c7567696e00000000000000000000000081525081526020016040518060400160405280600581526020017f312e302e300000000000000000000000000000000000000000000000000000008152508152602001600115158152602001604051806020016040528060008152508152602001604051806060016040528060338152602001613f5d60339139905261235b565b600580547fffffffffffffffffffffffff00000000000000000000000000000000000000009081166001600160a01b0389811691909117909255601080548216888416179055600980548216878416179055600c80548216868416179055600e80549091169184169190911790558015610b7757600080547fffffffffffffffffffffffffffffffffffffffffffffffffffffffffffff00ff169055604051600181527f7f26b83ff96e1f2b6a682f133852f6798a09c465da95921460cefb38474024989060200160405180910390a15b505050505050565b600a8181548110610b8f57600080fd5b600091825260209091200154905081565b600954600160a01b900460ff16610bf95760405162461bcd60e51b815260206004820152600b60248201527f4e4f545f454e41424c4544000000000000000000000000000000000000000000604482015260640161099b565b600980547fffffffffffffffffffffff00ffffffffffffffffffffffffffffffffffffffff169055565b6001600160a01b037f0000000000000000000000000000000000000000000000000000000000000000163003610cc15760405162461bcd60e51b815260206004820152602c60248201527f46756e6374696f6e206d7573742062652063616c6c6564207468726f7567682060448201527f64656c656761746563616c6c0000000000000000000000000000000000000000606482015260840161099b565b7f00000000000000000000000000000000000000000000000000000000000000006001600160a01b0316610d1c7f360894a13ba1a3210667c828492db98dca3e2076cc3735a920a3ca505d382bbc546001600160a01b031690565b6001600160a01b031614610d985760405162461bcd60e51b815260206004820152602c60248201527f46756e6374696f6e206d7573742062652063616c6c6564207468726f7567682060448201527f6163746976652070726f78790000000000000000000000000000000000000000606482015260840161099b565b60408051600080825260208201909252610db4918391906123a6565b50565b600d8181548110610b8f57600080fd5b8151600003610e185760405162461bcd60e51b815260206004820152600e60248201527f494e56414c49445f5055424b4559000000000000000000000000000000000000604482015260640161099b565b6040805160008152602081018083528151902091610e38918491016139d3565b6040516020818303038152906040528051906020012003610e9b5760405162461bcd60e51b815260206004820152601560248201527f494e56414c49445f43524544454e5449414c5f49440000000000000000000000604482015260640161099b565b8151610eae90600a9060208501906131f8565b50600b610ebb8282613a35565b50610ec58361254b565b5050600980547fffffffffffffffffffffff00ffffffffffffffffffffffffffffffffffffffff16600160a01b17905550565b6001600160a01b037f0000000000000000000000000000000000000000000000000000000000000000163003610f965760405162461bcd60e51b815260206004820152602c60248201527f46756e6374696f6e206d7573742062652063616c6c6564207468726f7567682060448201527f64656c656761746563616c6c0000000000000000000000000000000000000000606482015260840161099b565b7f00000000000000000000000000000000000000000000000000000000000000006001600160a01b0316610ff17f360894a13ba1a3210667c828492db98dca3e2076cc3735a920a3ca505d382bbc546001600160a01b031690565b6001600160a01b03161461106d5760405162461bcd60e51b815260206004820152602c60248201527f46756e6374696f6e206d7573742062652063616c6c6564207468726f7567682060448201527f6163746976652070726f78790000000000000000000000000000000000000000606482015260840161099b565b611079828260016123a6565b5050565b60055460009081906001600160a01b031633036110dc5760405162461bcd60e51b815260206004820152600e60248201527f494e56414c49445f53454e444552000000000000000000000000000000000000604482015260640161099b565b600954600160a01b900460ff166111355760405162461bcd60e51b815260206004820152600b60248201527f4e4f545f454e41424c4544000000000000000000000000000000000000000000604482015260640161099b565b60006111428888886125a3565b9050600061114f85612a71565b604080516060808252610c2082019092529192506000919060208201610c008036833701905050905061118182612b05565b6009546040517fea50d0e40000000000000000000000000000000000000000000000000000000081529192506001600160a01b03169063ea50d0e4906111cd908a908590600401613af5565b602060405180830381865afa1580156111ea573d6000803e3d6000fd5b505050506040513d601f19601f8201168201806040525081019061120e9190613b4c565b611244576040517fff3ee09d00000000000000000000000000000000000000000000000000000000815260040160405180910390fd5b61124f8a8a85612c13565b945094505050509550959350505050565b6000306001600160a01b037f000000000000000000000000000000000000000000000000000000000000000016146113005760405162461bcd60e51b815260206004820152603860248201527f555550535570677261646561626c653a206d757374206e6f742062652063616c60448201527f6c6564207468726f7567682064656c656761746563616c6c0000000000000000606482015260840161099b565b507f360894a13ba1a3210667c828492db98dca3e2076cc3735a920a3ca505d382bbc90565b6002805461087290613980565b6005546001600160a01b0316331461138c5760405162461bcd60e51b815260206004820152600f60248201527f53454e4445525f4e4f545f534146450000000000000000000000000000000000604482015260640161099b565b806113d95760405162461bcd60e51b815260206004820152600c60248201527f494e56414c49445f484153480000000000000000000000000000000000000000604482015260640161099b565b6113e28161142c565b6113f090600d9060206131f8565b506113fa8261254b565b5050600c80547fffffffffffffffffffffff00ffffffffffffffffffffffffffffffffffffffff16600160a01b179055565b611434613243565b61143c613243565b60005b60208110156114845783816020811061145a5761145a613b6e565b1a82826020811061146d5761146d613b6e565b60200201528061147c81613bcc565b91505061143f565b5092915050565b6005546001600160a01b031633146114e55760405162461bcd60e51b815260206004820152600f60248201527f53454e4445525f4e4f545f534146450000000000000000000000000000000000604482015260640161099b565b6000818152600860205260409020600481015460ff16156115485760405162461bcd60e51b815260206004820152601060248201527f414c52454144595f52454a454354454400000000000000000000000000000000604482015260640161099b565b600401805460ff1916600117905550565b600f8181548110610b8f57600080fd5b600b805461087290613980565b6005546001600160a01b031633146115d05760405162461bcd60e51b815260206004820152600f60248201527f53454e4445525f4e4f545f534146450000000000000000000000000000000000604482015260640161099b565b80516000036116215760405162461bcd60e51b815260206004820152600c60248201527f494e56414c49445f484153480000000000000000000000000000000000000000604482015260640161099b565b805161163490600f9060208401906131f8565b5061163e8261254b565b5050600e80547fffffffffffffffffffffff00ffffffffffffffffffffffffffffffffffffffff16600160a01b179055565b6000816000036116c25760405162461bcd60e51b815260206004820152601360248201527f494e56414c49445f5245434f564552595f494400000000000000000000000000604482015260640161099b565b60008281526008602090815260408083208151815460c09481028201850190935260a0810183815290939192849284919084018282801561172c57602002820191906000526020600020905b81546001600160a01b0316815260019091019060200180831161170e575b505050505081526020016001820180548060200260200160405190810160405280929190818152602001828054801561178e57602002820191906000526020600020905b81546001600160a01b03168152600190910190602001808311611770575b5050509183525050600282015460208201526003820154604082015260049091015460ff1615156060909101526080810151909150156118105760405162461bcd60e51b815260206004820152601160248201527f50524f504f53414c5f52454a4543544544000000000000000000000000000000604482015260640161099b565b80606001514210156118645760405162461bcd60e51b815260206004820152601160248201527f44454c41595f4e4f545f45585049524544000000000000000000000000000000604482015260640161099b565b60008160400151600560009054906101000a90046001600160a01b03166001600160a01b031663e75235b86040518163ffffffff1660e01b8152600401602060405180830381865afa1580156118be573d6000803e3d6000fd5b505050506040513d601f19601f820116820180604052508101906118e29190613be6565b60208401515191141591506000826118fa5781611905565b611905826001613bff565b905060008167ffffffffffffffff81111561192257611922613445565b60405190808252806020026020018201604052801561196f57816020015b604080516060808201835260008083526020830152918101919091528152602001906001900390816119405790505b509050606060005b84811015611aff5763e318b52b60e01b6119b7886020015183815181106119a0576119a0613b6e565b602002602001015189602001518a60000151612c8d565b886020015183815181106119cd576119cd613b6e565b6020026020010151896000015184815181106119eb576119eb613b6e565b6020026020010151604051602401611a23939291906001600160a01b0393841681529183166020830152909116604082015260600190565b60408051601f198184030181529190526020810180517bffffffffffffffffffffffffffffffffffffffffffffffffffffffff167fffffffff000000000000000000000000000000000000000000000000000000009093169290921790915260055484519193506001600160a01b031690849083908110611aa657611aa6613b6e565b6020026020010151600001906001600160a01b031690816001600160a01b03168152505081838281518110611add57611add613b6e565b6020026020010151604001819052508080611af790613bcc565b915050611977565b508415611c0b576005546001600160a01b031682611b1e600186613c12565b81518110611b2e57611b2e613b6e565b60209081029190910101516001600160a01b03909116905260408087015190517f694e80c30000000000000000000000000000000000000000000000000000000091611b809160240190815260200190565b60408051601f198184030181529190526020810180517bffffffffffffffffffffffffffffffffffffffffffffffffffffffff167fffffffff000000000000000000000000000000000000000000000000000000009093169290921790915282611beb600186613c12565b81518110611bfb57611bfb613b6e565b6020026020010151604001819052505b6040805160608101825283815260055482517faffed0e000000000000000000000000000000000000000000000000000000000815292516000936020808501936001600160a01b03169263affed0e09260048082019392918290030181865afa158015611c7c573d6000803e3d6000fd5b505050506040513d601f19601f82011682018060405250810190611ca09190613be6565b8152600480546020909201919091526010546005546040517f0f9919150000000000000000000000000000000000000000000000000000000081529394506001600160a01b0391821693630f99191593611d009390921691869101613c25565b6000604051808303816000875af1925050508015611d4057506040513d6000823e601f3d908101601f19168201604052611d3d9190810190613cf4565b60015b611da8573d808015611d6e576040519150601f19603f3d011682016040523d82523d6000602084013e611d73565b606091505b50806040517f2e26885900000000000000000000000000000000000000000000000000000000815260040161099b9190613376565b5050600198975050505050505050565b6005546001600160a01b03163314611e125760405162461bcd60e51b815260206004820152600f60248201527f53454e4445525f4e4f545f534146450000000000000000000000000000000000604482015260640161099b565b600e54600160a01b900460ff16611e6b5760405162461bcd60e51b815260206004820152600b60248201527f4e4f545f454e41424c4544000000000000000000000000000000000000000000604482015260640161099b565b600e80547fffffffffffffffffffffff00ffffffffffffffffffffffffffffffffffffffff169055565b60055460009081906001600160a01b03163303611ef45760405162461bcd60e51b815260206004820152600e60248201527f494e56414c49445f53454e444552000000000000000000000000000000000000604482015260640161099b565b600e54600160a01b900460ff16611f4d5760405162461bcd60e51b815260206004820152600b60248201527f4e4f545f454e41424c4544000000000000000000000000000000000000000000604482015260640161099b565b6000611f5a8888886125a3565b6040805181815261082081018252919250600091906020820161080080368337019050509050611f8a8186612e19565b600e546040517fea50d0e40000000000000000000000000000000000000000000000000000000081529192506001600160a01b03169063ea50d0e490611fd69089908590600401613af5565b602060405180830381865afa158015611ff3573d6000803e3d6000fd5b505050506040513d601f19601f820116820180604052508101906120179190613b4c565b61204d576040517fff3ee09d00000000000000000000000000000000000000000000000000000000815260040160405180910390fd5b612058898984612c13565b9350935050509550959350505050565b60055460009081906001600160a01b031633036120c75760405162461bcd60e51b815260206004820152600e60248201527f494e56414c49445f53454e444552000000000000000000000000000000000000604482015260640161099b565b600c54600160a01b900460ff166121205760405162461bcd60e51b815260206004820152600b60248201527f4e4f545f454e41424c4544000000000000000000000000000000000000000000604482015260640161099b565b600061212d8787876125a3565b6040805160208082526104208201909252919250600091908082016104008036833701905050600d80546040805160208084028201810190925282815293945083018282801561219c57602002820191906000526020600020905b815481526020019060010190808311612188575b5050600c546040517fea50d0e40000000000000000000000000000000000000000000000000000000081529495506001600160a01b03169363ea50d0e493506121ed92508991508590600401613af5565b602060405180830381865afa15801561220a573d6000803e3d6000fd5b505050506040513d601f19601f8201168201806040525081019061222e9190613b4c565b612264576040517fff3ee09d00000000000000000000000000000000000000000000000000000000815260040160405180910390fd5b61226f888884612c13565b93509350505094509492505050565b6005546001600160a01b031633146122d85760405162461bcd60e51b815260206004820152600f60248201527f53454e4445525f4e4f545f534146450000000000000000000000000000000000604482015260640161099b565b600c54600160a01b900460ff166123315760405162461bcd60e51b815260206004820152600b60248201527f4e4f545f454e41424c4544000000000000000000000000000000000000000000604482015260640161099b565b600c80547fffffffffffffffffffffff00ffffffffffffffffffffffffffffffffffffffff169055565b6004547f522c683f99251eea7f3b027592e92a5398e7582983be1f7c0f33715ce025740f61238883612ec0565b6040516123959190613376565b60405180910390a2610db481612f27565b7f4910fdfa16fed3260ed0e7147f7cc6da11a60208b5b9406d12a635614ffd91435460ff16156123de576123d983612f77565b505050565b826001600160a01b03166352d1902d6040518163ffffffff1660e01b8152600401602060405180830381865afa925050508015612438575060408051601f3d908101601f1916820190925261243591810190613be6565b60015b6124aa5760405162461bcd60e51b815260206004820152602e60248201527f45524331393637557067726164653a206e657720696d706c656d656e7461746960448201527f6f6e206973206e6f742055555053000000000000000000000000000000000000606482015260840161099b565b7f360894a13ba1a3210667c828492db98dca3e2076cc3735a920a3ca505d382bbc811461253f5760405162461bcd60e51b815260206004820152602960248201527f45524331393637557067726164653a20756e737570706f727465642070726f7860448201527f6961626c65555549440000000000000000000000000000000000000000000000606482015260840161099b565b506123d983838361304d565b62278d0081101561259e5760405162461bcd60e51b815260206004820152600f60248201527f44454c41595f544f4f5f53484f52540000000000000000000000000000000000604482015260640161099b565b600655565b600082518451146125f65760405162461bcd60e51b815260206004820152600e60248201527f554e455155414c5f4c454e475448000000000000000000000000000000000000604482015260640161099b565b600554604080517fa0e67e2b00000000000000000000000000000000000000000000000000000000815290516000926001600160a01b03169163a0e67e2b91600480830192869291908290030181865afa158015612658573d6000803e3d6000fd5b505050506040513d6000823e601f3d908101601f191682016040526126809190810190613de1565b90508051855111156126d45760405162461bcd60e51b815260206004820152600e60248201527f494e56414c49445f4c454e475448000000000000000000000000000000000000604482015260640161099b565b60005b85518110156129795760055486516001600160a01b0390911690632f54bf6e9088908490811061270957612709613b6e565b60200260200101516040518263ffffffff1660e01b815260040161273c91906001600160a01b0391909116815260200190565b602060405180830381865afa158015612759573d6000803e3d6000fd5b505050506040513d601f19601f8201168201806040525081019061277d9190613b4c565b6127c95760405162461bcd60e51b815260206004820152600960248201527f4e4f545f4f574e45520000000000000000000000000000000000000000000000604482015260640161099b565b60055485516001600160a01b0390911690632f54bf6e908790849081106127f2576127f2613b6e565b60200260200101516040518263ffffffff1660e01b815260040161282591906001600160a01b0391909116815260200190565b602060405180830381865afa158015612842573d6000803e3d6000fd5b505050506040513d601f19601f820116820180604052508101906128669190613b4c565b156128b35760405162461bcd60e51b815260206004820152600d60248201527f414c44524544595f4f574e455200000000000000000000000000000000000000604482015260640161099b565b60006001600160a01b03168582815181106128d0576128d0613b6e565b60200260200101516001600160a01b03161415801561291b575060016001600160a01b031685828151811061290757612907613b6e565b60200260200101516001600160a01b031614155b6129675760405162461bcd60e51b815260206004820152600f60248201527f494e56414c49445f414444524553530000000000000000000000000000000000604482015260640161099b565b8061297181613bcc565b9150506126d7565b50600554604080517fe75235b800000000000000000000000000000000000000000000000000000000815290516000926001600160a01b03169163e75235b89160048083019260209291908290030181865afa1580156129dd573d6000803e3d6000fd5b505050506040513d601f19601f82011682018060405250810190612a019190613be6565b90506000818503612a125781612a14565b845b90508083511015612a675760405162461bcd60e51b815260206004820152601160248201527f494e56414c49445f5448524553484f4c44000000000000000000000000000000604482015260640161099b565b9695505050505050565b6040517ff8f5689c00000000000000000000000000000000000000000000000000000000815260009073__$6d399485da7ef05af8887e90c5d884cf80$__9063f8f5689c90612ac4908590600401613376565b602060405180830381865af4158015612ae1573d6000803e3d6000fd5b505050506040513d601f19601f8201168201806040525081019061085f9190613be6565b604080516060808252610c2082019092526000908260208201610c008036833701905050905060005b602081101561148457600a8181548110612b4a57612b4a613b6e565b9060005260206000200154828281518110612b6757612b67613b6e565b602002602001018181525050600a816020612b829190613bff565b81548110612b9257612b92613b6e565b906000526020600020015482826020612bab9190613bff565b81518110612bbb57612bbb613b6e565b602002602001018181525050838160208110612bd957612bd9613b6e565b1a82612be6836040613bff565b81518110612bf657612bf6613b6e565b602090810291909101015280612c0b81613bcc565b915050612b2e565b60008060006007546001612c279190613bff565b6000818152600860209081526040909120885192935091612c50916001840191908a0190613262565b508551612c639082906020890190613262565b5060028101859055600654612c789042613bff565b60039091018190559092509050935093915050565b600080600560009054906101000a90046001600160a01b03166001600160a01b031663a0e67e2b6040518163ffffffff1660e01b8152600401600060405180830381865afa158015612ce3573d6000803e3d6000fd5b505050506040513d6000823e601f3d908101601f19168201604052612d0b9190810190613de1565b90506000805b8251811015612d6657866001600160a01b0316838281518110612d3657612d36613b6e565b60200260200101516001600160a01b031603612d5457809150612d66565b80612d5e81613bcc565b915050612d11565b5060008115612d985782612d7b600184613c12565b81518110612d8b57612d8b613b6e565b6020026020010151612d9b565b60015b905060005b8651811015612e0e57816001600160a01b0316878281518110612dc557612dc5613b6e565b60200260200101516001600160a01b031603612dfc57858181518110612ded57612ded613b6e565b60200260200101519150612e0e565b80612e0681613bcc565b915050612da0565b509695505050505050565b606060005b6020811015612eb857600f8181548110612e3a57612e3a613b6e565b9060005260206000200154848281518110612e5757612e57613b6e565b602002602001018181525050828181518110612e7557612e75613b6e565b602002602001015184826020612e8b9190613bff565b81518110612e9b57612e9b613b6e565b602090810291909101015280612eb081613bcc565b915050612e1e565b509192915050565b606060008083600001518460200151856040015186606001518760800151604051602001612ef2959493929190613e7b565b60408051601f1981840301815290829052612f11939291602001613edc565b6040516020818303038152906040529050919050565b8051600190612f369082613a35565b506020810151600290612f499082613a35565b5060408101516003805460ff1916911515919091179055612f6981612ec0565b805160209091012060045550565b6001600160a01b0381163b612ff45760405162461bcd60e51b815260206004820152602d60248201527f455243313936373a206e657720696d706c656d656e746174696f6e206973206e60448201527f6f74206120636f6e747261637400000000000000000000000000000000000000606482015260840161099b565b7f360894a13ba1a3210667c828492db98dca3e2076cc3735a920a3ca505d382bbc80547fffffffffffffffffffffffff0000000000000000000000000000000000000000166001600160a01b0392909216919091179055565b61305683613078565b6000825111806130635750805b156123d95761307283836130b8565b50505050565b61308181612f77565b6040516001600160a01b038216907fbc7cd75a20ee27fd9adebab32041f755214dbc6bffa90cc0225b39da2e5c2d3b90600090a250565b60606130dd8383604051806060016040528060278152602001613f36602791396130e4565b9392505050565b6060600080856001600160a01b03168560405161310191906139d3565b600060405180830381855af49150503d806000811461313c576040519150601f19603f3d011682016040523d82523d6000602084013e613141565b606091505b5091509150612a6786838387606083156131bc5782516000036131b5576001600160a01b0385163b6131b55760405162461bcd60e51b815260206004820152601d60248201527f416464726573733a2063616c6c20746f206e6f6e2d636f6e7472616374000000604482015260640161099b565b50816131c6565b6131c683836131ce565b949350505050565b8151156131de5781518083602001fd5b8060405162461bcd60e51b815260040161099b9190613376565b828054828255906000526020600020908101928215613233579160200282015b82811115613233578251825591602001919060010190613218565b5061323f9291506132cf565b5090565b6040518061040001604052806020906020820280368337509192915050565b828054828255906000526020600020908101928215613233579160200282015b8281111561323357825182547fffffffffffffffffffffffff0000000000000000000000000000000000000000166001600160a01b03909116178255602090920191600190910190613282565b5b8082111561323f57600081556001016132d0565b6000602082840312156132f657600080fd5b81357fffffffff00000000000000000000000000000000000000000000000000000000811681146130dd57600080fd5b60005b83811015613341578181015183820152602001613329565b50506000910152565b60008151808452613362816020860160208601613326565b601f01601f19169290920160200192915050565b6020815260006130dd602083018461334a565b6001600160a01b0381168114610db457600080fd5b600080600080600060a086880312156133b657600080fd5b85356133c181613389565b945060208601356133d181613389565b935060408601356133e181613389565b925060608601356133f181613389565b9150608086013561340181613389565b809150509295509295909350565b60006020828403121561342157600080fd5b5035919050565b60006020828403121561343a57600080fd5b81356130dd81613389565b7f4e487b7100000000000000000000000000000000000000000000000000000000600052604160045260246000fd5b604051601f8201601f1916810167ffffffffffffffff8111828210171561349d5761349d613445565b604052919050565b600067ffffffffffffffff8211156134bf576134bf613445565b5060051b60200190565b600082601f8301126134da57600080fd5b813560206134ef6134ea836134a5565b613474565b82815260059290921b8401810191818101908684111561350e57600080fd5b8286015b84811015612e0e5780358352918301918301613512565b600067ffffffffffffffff82111561354357613543613445565b50601f01601f191660200190565b600061355f6134ea84613529565b905082815283838301111561357357600080fd5b828260208301376000602084830101529392505050565b60008060006060848603121561359f57600080fd5b83359250602084013567ffffffffffffffff808211156135be57600080fd5b6135ca878388016134c9565b935060408601359150808211156135e057600080fd5b508401601f810186136135f257600080fd5b61360186823560208401613551565b9150509250925092565b600082601f83011261361c57600080fd5b6130dd83833560208501613551565b6000806040838503121561363e57600080fd5b823561364981613389565b9150602083013567ffffffffffffffff81111561366557600080fd5b6136718582860161360b565b9150509250929050565b600082601f83011261368c57600080fd5b8135602061369c6134ea836134a5565b82815260059290921b840181019181810190868411156136bb57600080fd5b8286015b84811015612e0e5780356136d281613389565b83529183019183016136bf565b600080600080600060a086880312156136f757600080fd5b853567ffffffffffffffff8082111561370f57600080fd5b61371b89838a0161367b565b9650602088013591508082111561373157600080fd5b61373d89838a0161367b565b955060408801359450606088013591508082111561375a57600080fd5b61376689838a0161360b565b9350608088013591508082111561377c57600080fd5b506137898882890161360b565b9150509295509295909350565b600080604083850312156137a957600080fd5b50508035926020909101359150565b6104008101818360005b60208082106137d157506137e5565b8251845292830192909101906001016137c2565b50505092915050565b6000806040838503121561380157600080fd5b82359150602083013567ffffffffffffffff81111561381f57600080fd5b613671858286016134c9565b8281526040602082015260006131c6604083018461334a565b600080600080600060a0868803121561385c57600080fd5b853567ffffffffffffffff8082111561387457600080fd5b61388089838a0161367b565b9650602088013591508082111561389657600080fd5b6138a289838a0161367b565b95506040880135945060608801359150808211156138bf57600080fd5b6138cb89838a0161360b565b935060808801359150808211156138e157600080fd5b50613789888289016134c9565b6000806000806080858703121561390457600080fd5b843567ffffffffffffffff8082111561391c57600080fd5b6139288883890161367b565b9550602087013591508082111561393e57600080fd5b61394a8883890161367b565b945060408701359350606087013591508082111561396757600080fd5b506139748782880161360b565b91505092959194509250565b600181811c9082168061399457607f821691505b6020821081036139cd577f4e487b7100000000000000000000000000000000000000000000000000000000600052602260045260246000fd5b50919050565b600082516139e5818460208701613326565b9190910192915050565b601f8211156123d957600081815260208120601f850160051c81016020861015613a165750805b601f850160051c820191505b81811015610b7757828155600101613a22565b815167ffffffffffffffff811115613a4f57613a4f613445565b613a6381613a5d8454613980565b846139ef565b602080601f831160018114613a985760008415613a805750858301515b600019600386901b1c1916600185901b178555610b77565b600085815260208120601f198616915b82811015613ac757888601518255948401946001909101908401613aa8565b5085821015613ae55787850151600019600388901b60f8161c191681555b5050505050600190811b01905550565b604081526000613b08604083018561334a565b82810360208481019190915284518083528582019282019060005b81811015613b3f57845183529383019391830191600101613b23565b5090979650505050505050565b600060208284031215613b5e57600080fd5b815180151581146130dd57600080fd5b7f4e487b7100000000000000000000000000000000000000000000000000000000600052603260045260246000fd5b7f4e487b7100000000000000000000000000000000000000000000000000000000600052601160045260246000fd5b60006000198203613bdf57613bdf613b9d565b5060010190565b600060208284031215613bf857600080fd5b5051919050565b8082018082111561085f5761085f613b9d565b8181038181111561085f5761085f613b9d565b600060406001600160a01b0380861684526020828186015260a0850186516060808689015282825180855260c08a01915060c08160051b8b01019450858401935060005b81811015613cd0578a86037fffffffffffffffffffffffffffffffffffffffffffffffffffffffffffffff4001835284518051891687528781015188880152890151898701859052613cbd8588018261334a565b9650509386019391860191600101613c69565b50505083890151818901525050838701516080870152809450505050509392505050565b60006020808385031215613d0757600080fd5b825167ffffffffffffffff80821115613d1f57600080fd5b818501915085601f830112613d3357600080fd5b8151613d416134ea826134a5565b81815260059190911b83018401908481019088831115613d6057600080fd5b8585015b83811015613dd457805185811115613d7c5760008081fd5b8601603f81018b13613d8e5760008081fd5b878101516040613da06134ea83613529565b8281528d82848601011115613db55760008081fd5b613dc4838c8301848701613326565b8652505050918601918601613d64565b5098975050505050505050565b60006020808385031215613df457600080fd5b825167ffffffffffffffff811115613e0b57600080fd5b8301601f81018513613e1c57600080fd5b8051613e2a6134ea826134a5565b81815260059190911b82018301908381019087831115613e4957600080fd5b928401925b82841015613e70578351613e6181613389565b82529284019290840190613e4e565b979650505050505050565b60a081526000613e8e60a083018861334a565b8281036020840152613ea0818861334a565b905085151560408401528281036060840152613ebc818661334a565b90508281036080840152613ed0818561334a565b98975050505050505050565b60007fff00000000000000000000000000000000000000000000000000000000000000808660f81b168352808560f81b166001840152508251613f26816002850160208701613326565b9190910160020194935050505056fe416464726573733a206c6f772d6c6576656c2064656c65676174652063616c6c206661696c656468747470733a2f2f6769746875622e636f6d2f706f72636f2d726f73736f2d6a2f736166652d7265636f766572792d6e6f6972a26469706673582212205b40ba29d48f90dbf7d50403f75e8dda7f483593d2ac936e336f8e0b2b405a8c64736f6c63430008120033",
    "linkReferences": {
      "src/helper/WebAuthnHelper.sol": {
        "WebAuthnHelper": [
          {
            "start": 10984,
            "length": 20
          }
        ]
      }
    }
  },
  "methodIdentifiers": {
    "MIN_TIMELOCK()": "fb0c7549",
    "_convertBytes32ToBytes32Array(bytes32)": "67a277a4",
    "addEcrecoverRecover(uint256,bytes32[])": "c69f0f68",
    "addSecretRecover(uint256,bytes32)": "57a60326",
    "addWebAuthnRecover(uint256,bytes32[],string)": "4bc618d2",
    "credentialId()": "a3c0f0b7",
    "ecrecoverVerifier()": "7c64dd76",
    "execRecovery(uint256)": "cdb44775",
    "hashed_address(uint256)": "9df5ead6",
    "hashed_secret(uint256)": "403f69d2",
    "initialize(address,address,address,address,address)": "1459457a",
    "isEcrecoverRecoverEnabled()": "e6795306",
    "isSecretRecoverEnabled()": "83b1a8c1",
    "isWebAuthnRecoverEnabled()": "23b26075",
    "metadataHash()": "c5a1d7f0",
    "metadataProvider()": "d3d72d2a",
    "name()": "06fdde03",
    "proposeEcrecoverRecover(address[],address[],uint256,bytes,bytes32[])": "e6e1247e",
    "proposeSecretRecover(address[],address[],uint256,bytes)": "f3d3f549",
    "proposeWebAuthnRecover(address[],address[],uint256,bytes,bytes)": "51a2f17a",
    "proxiableUUID()": "52d1902d",
    "pubkey(uint256)": "2cdfb6ae",
    "recoveries(uint256)": "7a04c865",
    "recoveryCount()": "010a623c",
    "recoveryTimeLock()": "0ce03f2d",
    "rejectRecovery(uint256)": "9a8f18f3",
    "removeEcrecoverRecover()": "dada7ca2",
    "removeSecretRecover()": "f5120d62",
    "removeWebAuthnRecover()": "2e56f60d",
    "requiresPermissions()": "e8e755b5",
    "requiresRootAccess()": "be193d27",
    "safe()": "186f0354",
    "safeProtocolManager()": "8e482341",
    "secretVerifier()": "024e5d15",
    "supportsInterface(bytes4)": "01ffc9a7",
    "upgradeTo(address)": "3659cfe6",
    "upgradeToAndCall(address,bytes)": "4f1ef286",
    "version()": "54fd4d50",
    "webAuthnVerifier()": "7b49fa19"
  },
  "id": 80
}