{
  "abi": [
    {
      "inputs": [],
      "stateMutability": "nonpayable",
      "type": "constructor"
    },
    {
      "inputs": [
        {
          "internalType": "address",
          "name": "_safe",
          "type": "address"
        },
        {
          "internalType": "address",
          "name": "_safeProtocolManager",
          "type": "address"
        },
        {
          "internalType": "address",
          "name": "_webAuthnVerifier",
          "type": "address"
        },
        {
          "internalType": "address",
          "name": "_secretVerifier",
          "type": "address"
        },
        {
          "internalType": "address",
          "name": "_ecrecoverVerifier",
          "type": "address"
        },
        {
          "internalType": "uint256",
          "name": "_salt",
          "type": "uint256"
        }
      ],
      "name": "createRecoveryPluginNoir",
      "outputs": [
        {
          "internalType": "contract RecoveryPluginNoir",
          "name": "proxy",
          "type": "address"
        }
      ],
      "stateMutability": "nonpayable",
      "type": "function"
    },
    {
      "inputs": [
        {
          "internalType": "address",
          "name": "_safe",
          "type": "address"
        },
        {
          "internalType": "address",
          "name": "_safeProtocolManager",
          "type": "address"
        },
        {
          "internalType": "address",
          "name": "_webAuthnVerifier",
          "type": "address"
        },
        {
          "internalType": "address",
          "name": "_secretVerifier",
          "type": "address"
        },
        {
          "internalType": "address",
          "name": "_ecrecoverVerifier",
          "type": "address"
        },
        {
          "internalType": "uint256",
          "name": "_salt",
          "type": "uint256"
        }
      ],
      "name": "getAddress",
      "outputs": [
        {
          "internalType": "address",
          "name": "",
          "type": "address"
        }
      ],
      "stateMutability": "view",
      "type": "function"
    },
    {
      "inputs": [
        {
          "internalType": "address",
          "name": "_safe",
          "type": "address"
        }
      ],
      "name": "getPluginAddr",
      "outputs": [
        {
          "internalType": "address",
          "name": "",
          "type": "address"
        }
      ],
      "stateMutability": "view",
      "type": "function"
    },
    {
      "inputs": [],
      "name": "recoveryPluginNoirImp",
      "outputs": [
        {
          "internalType": "contract RecoveryPluginNoir",
          "name": "",
          "type": "address"
        }
      ],
      "stateMutability": "view",
      "type": "function"
    },
    {
      "inputs": [
        {
          "internalType": "address",
          "name": "",
          "type": "address"
        }
      ],
      "name": "safeToPlugins",
      "outputs": [
        {
          "internalType": "address",
          "name": "",
          "type": "address"
        }
      ],
      "stateMutability": "view",
      "type": "function"
    }
  ],
  "bytecode": {
    "object": "0x60a060405234801561001057600080fd5b5060405161001d9061004b565b604051809103906000f080158015610039573d6000803e3d6000fd5b506001600160a01b0316608052610058565b613fda80610e5f83390190565b608051610ddf61008060003960008181607a015281816101d7015261032c0152610ddf6000f3fe60806040523480156200001157600080fd5b50600436106200006f5760003560e01c80638432222311620000565780638432222314620000dc578063bbb76c1d1462000115578063e16d0950146200015157600080fd5b806338a73591146200007457806358af5e8d14620000c5575b600080fd5b6200009c7f000000000000000000000000000000000000000000000000000000000000000081565b60405173ffffffffffffffffffffffffffffffffffffffff909116815260200160405180910390f35b6200009c620000d6366004620004bb565b62000168565b6200009c620000ed36600462000533565b60006020819052908152604090205473ffffffffffffffffffffffffffffffffffffffff1681565b6200009c6200012636600462000533565b73ffffffffffffffffffffffffffffffffffffffff9081166000908152602081905260409020541690565b6200009c62000162366004620004bb565b620002ac565b60006200029f8260001b60405180602001620001849062000483565b601f1982820381018352601f90910116604081905273ffffffffffffffffffffffffffffffffffffffff808c166024830152808b166044830152808a1660648301528089166084830152871660a48201527f00000000000000000000000000000000000000000000000000000000000000009060c40160408051601f19818403018152918152602080830180517bffffffffffffffffffffffffffffffffffffffffffffffffffffffff167f1459457a000000000000000000000000000000000000000000000000000000001790529051620002639392910162000577565b60408051601f1981840301815290829052620002839291602001620005c9565b6040516020818303038152906040528051906020012062000443565b90505b9695505050505050565b600080620002bf88888888888862000168565b905073ffffffffffffffffffffffffffffffffffffffff81163b8015620002e957509050620002a2565b60405173ffffffffffffffffffffffffffffffffffffffff808b166024830152808a16604483015280891660648301528088166084830152861660a482015284907f00000000000000000000000000000000000000000000000000000000000000009060c40160408051601f198184030181529181526020820180517bffffffffffffffffffffffffffffffffffffffffffffffffffffffff167f1459457a0000000000000000000000000000000000000000000000000000000017905251620003b39062000483565b620003c092919062000577565b8190604051809103906000f5905080158015620003e1573d6000803e3d6000fd5b5073ffffffffffffffffffffffffffffffffffffffff998a16600090815260208190526040902080547fffffffffffffffffffffffff0000000000000000000000000000000000000000169a82169a909a179099555096979650505050505050565b60006200045283833062000459565b9392505050565b6000604051836040820152846020820152828152600b8101905060ff815360559020949350505050565b6107ad80620005fd83390190565b803573ffffffffffffffffffffffffffffffffffffffff81168114620004b657600080fd5b919050565b60008060008060008060c08789031215620004d557600080fd5b620004e08762000491565b9550620004f06020880162000491565b9450620005006040880162000491565b9350620005106060880162000491565b9250620005206080880162000491565b915060a087013590509295509295509295565b6000602082840312156200054657600080fd5b620004528262000491565b60005b838110156200056e57818101518382015260200162000554565b50506000910152565b73ffffffffffffffffffffffffffffffffffffffff831681526040602082015260008251806040840152620005b481606085016020870162000551565b601f01601f1916919091016060019392505050565b60008351620005dd81846020880162000551565b835190830190620005f381836020880162000551565b0194935050505056fe60806040526040516107ad3803806107ad83398101604081905261002291610319565b61002e82826000610035565b5050610436565b61003e8361006b565b60008251118061004b5750805b156100665761006483836100ab60201b6100291760201c565b505b505050565b610074816100d7565b6040516001600160a01b038216907fbc7cd75a20ee27fd9adebab32041f755214dbc6bffa90cc0225b39da2e5c2d3b90600090a250565b60606100d08383604051806060016040528060278152602001610786602791396101a9565b9392505050565b6100ea8161022260201b6100551760201c565b6101515760405162461bcd60e51b815260206004820152602d60248201527f455243313936373a206e657720696d706c656d656e746174696f6e206973206e60448201526c1bdd08184818dbdb9d1c9858dd609a1b60648201526084015b60405180910390fd5b806101887f360894a13ba1a3210667c828492db98dca3e2076cc3735a920a3ca505d382bbc60001b61023160201b6100711760201c565b80546001600160a01b0319166001600160a01b039290921691909117905550565b6060600080856001600160a01b0316856040516101c691906103e7565b600060405180830381855af49150503d8060008114610201576040519150601f19603f3d011682016040523d82523d6000602084013e610206565b606091505b50909250905061021886838387610234565b9695505050505050565b6001600160a01b03163b151590565b90565b606083156102a357825160000361029c576001600160a01b0385163b61029c5760405162461bcd60e51b815260206004820152601d60248201527f416464726573733a2063616c6c20746f206e6f6e2d636f6e74726163740000006044820152606401610148565b50816102ad565b6102ad83836102b5565b949350505050565b8151156102c55781518083602001fd5b8060405162461bcd60e51b81526004016101489190610403565b634e487b7160e01b600052604160045260246000fd5b60005b838110156103105781810151838201526020016102f8565b50506000910152565b6000806040838503121561032c57600080fd5b82516001600160a01b038116811461034357600080fd5b60208401519092506001600160401b038082111561036057600080fd5b818501915085601f83011261037457600080fd5b815181811115610386576103866102df565b604051601f8201601f19908116603f011681019083821181831017156103ae576103ae6102df565b816040528281528860208487010111156103c757600080fd5b6103d88360208301602088016102f5565b80955050505050509250929050565b600082516103f98184602087016102f5565b9190910192915050565b60208152600082518060208401526104228160408501602087016102f5565b601f01601f19169190910160400192915050565b610341806104456000396000f3fe60806040523661001357610011610017565b005b6100115b610027610022610074565b6100b9565b565b606061004e83836040518060600160405280602781526020016102e5602791396100dd565b9392505050565b73ffffffffffffffffffffffffffffffffffffffff163b151590565b90565b60006100b47f360894a13ba1a3210667c828492db98dca3e2076cc3735a920a3ca505d382bbc5473ffffffffffffffffffffffffffffffffffffffff1690565b905090565b3660008037600080366000845af43d6000803e8080156100d8573d6000f35b3d6000fd5b60606000808573ffffffffffffffffffffffffffffffffffffffff16856040516101079190610277565b600060405180830381855af49150503d8060008114610142576040519150601f19603f3d011682016040523d82523d6000602084013e610147565b606091505b509150915061015886838387610162565b9695505050505050565b606083156101fd5782516000036101f65773ffffffffffffffffffffffffffffffffffffffff85163b6101f6576040517f08c379a000000000000000000000000000000000000000000000000000000000815260206004820152601d60248201527f416464726573733a2063616c6c20746f206e6f6e2d636f6e747261637400000060448201526064015b60405180910390fd5b5081610207565b610207838361020f565b949350505050565b81511561021f5781518083602001fd5b806040517f08c379a00000000000000000000000000000000000000000000000000000000081526004016101ed9190610293565b60005b8381101561026e578181015183820152602001610256565b50506000910152565b60008251610289818460208701610253565b9190910192915050565b60208152600082518060208401526102b2816040850160208701610253565b601f017fffffffffffffffffffffffffffffffffffffffffffffffffffffffffffffffe016919091016040019291505056fe416464726573733a206c6f772d6c6576656c2064656c65676174652063616c6c206661696c6564a26469706673582212209708f75454895ecdaa2b7bdfd35fade6adecf066ff3d031ef59fb2392916208664736f6c63430008120033416464726573733a206c6f772d6c6576656c2064656c65676174652063616c6c206661696c6564a2646970667358221220491aaa1c04de3cc0bcb6dfbe58a929fef1fb80ba755f5462cad884c1917fc15164736f6c6343000812003360a06040523060805234801561001457600080fd5b50608051613f8e61004c60003960008181610bf601528181610c8c01528181610ecb01528181610f6101526112360152613f8e6000f3fe6080604052600436106102855760003560e01c80637a04c86511610153578063c5a1d7f0116100cb578063e67953061161007f578063f3d3f54911610064578063f3d3f54914610749578063f5120d6214610769578063fb0c75491461077e57600080fd5b8063e679530614610708578063e6e1247e1461072957600080fd5b8063cdb44775116100b0578063cdb447751461068f578063d3d72d2a146106af578063dada7ca2146106f357600080fd5b8063c5a1d7f014610659578063c69f0f681461066f57600080fd5b80638e482341116101225780639df5ead6116101075780639df5ead61461060a578063a3c0f0b71461062a578063be193d271461063f57600080fd5b80638e482341146105ca5780639a8f18f3146105ea57600080fd5b80637a04c8651461050a5780637b49fa19146105695780637c64dd761461058957806383b1a8c1146105a957600080fd5b80632e56f60d1161020157806351a2f17a116101b557806354fd4d501161019a57806354fd4d50146104a857806357a60326146104bd57806367a277a4146104dd57600080fd5b806351a2f17a1461045e57806352d1902d1461049357600080fd5b8063403f69d2116101e6578063403f69d21461040b5780634bc618d21461042b5780634f1ef2861461044b57600080fd5b80632e56f60d146103d65780633659cfe6146103eb57600080fd5b80630ce03f2d11610258578063186f03541161023d578063186f03541461037557806323b26075146103955780632cdfb6ae146103b657600080fd5b80630ce03f2d1461033d5780631459457a1461035357600080fd5b8063010a623c1461028a57806301ffc9a7146102b3578063024e5d15146102e357806306fdde031461031b575b600080fd5b34801561029657600080fd5b506102a060075481565b6040519081526020015b60405180910390f35b3480156102bf57600080fd5b506102d36102ce3660046132ad565b610795565b60405190151581526020016102aa565b3480156102ef57600080fd5b50600c54610303906001600160a01b031681565b6040516001600160a01b0390911681526020016102aa565b34801561032757600080fd5b5061033061082e565b6040516102aa919061333f565b34801561034957600080fd5b506102a060065481565b34801561035f57600080fd5b5061037361036e366004613367565b6108bc565b005b34801561038157600080fd5b50600554610303906001600160a01b031681565b3480156103a157600080fd5b506009546102d390600160a01b900460ff1681565b3480156103c257600080fd5b506102a06103d13660046133d8565b610b48565b3480156103e257600080fd5b50610373610b69565b3480156103f757600080fd5b506103736104063660046133f1565b610bec565b34801561041757600080fd5b506102a06104263660046133d8565b610d80565b34801561043757600080fd5b50610373610446366004613553565b610d90565b6103736104593660046135f4565b610ec1565b34801561046a57600080fd5b5061047e6104793660046136a8565b611046565b604080519283526020830191909152016102aa565b34801561049f57600080fd5b506102a0611229565b3480156104b457600080fd5b506103306112ee565b3480156104c957600080fd5b506103736104d836600461375f565b6112fb565b3480156104e957600080fd5b506104fd6104f83660046133d8565b6113f5565b6040516102aa9190613781565b34801561051657600080fd5b5061054c6105253660046133d8565b60086020526000908152604090206002810154600382015460049092015490919060ff1683565b6040805193845260208401929092521515908201526060016102aa565b34801561057557600080fd5b50600954610303906001600160a01b031681565b34801561059557600080fd5b50600e54610303906001600160a01b031681565b3480156105b557600080fd5b50600c546102d390600160a01b900460ff1681565b3480156105d657600080fd5b50601054610303906001600160a01b031681565b3480156105f657600080fd5b506103736106053660046133d8565b611454565b34801561061657600080fd5b506102a06106253660046133d8565b611522565b34801561063657600080fd5b50610330611532565b34801561064b57600080fd5b506003546102d39060ff1681565b34801561066557600080fd5b506102a060045481565b34801561067b57600080fd5b5061037361068a3660046137b7565b61153f565b34801561069b57600080fd5b506102d36106aa3660046133d8565b611639565b3480156106bb57600080fd5b506106e5604080513060208201526003916060910160405160208183030381529060405290509091565b6040516102aa9291906137f4565b3480156106ff57600080fd5b50610373611d81565b34801561071457600080fd5b50600e546102d390600160a01b900460ff1681565b34801561073557600080fd5b5061047e61074436600461380d565b611e5e565b34801561075557600080fd5b5061047e6107643660046138b7565b612031565b34801561077557600080fd5b50610373612247565b34801561078a57600080fd5b506102a062278d0081565b60007fffffffff0000000000000000000000000000000000000000000000000000000082167f3fce835e00000000000000000000000000000000000000000000000000000000148061082857507f01ffc9a7000000000000000000000000000000000000000000000000000000007fffffffff000000000000000000000000000000000000000000000000000000008316145b92915050565b6001805461083b90613949565b80601f016020809104026020016040519081016040528092919081815260200182805461086790613949565b80156108b45780601f10610889576101008083540402835291602001916108b4565b820191906000526020600020905b81548152906001019060200180831161089757829003601f168201915b505050505081565b600054610100900460ff16158080156108dc5750600054600160ff909116105b806108f65750303b1580156108f6575060005460ff166001145b61096d5760405162461bcd60e51b815260206004820152602e60248201527f496e697469616c697a61626c653a20636f6e747261637420697320616c72656160448201527f647920696e697469616c697a656400000000000000000000000000000000000060648201526084015b60405180910390fd5b6000805460ff1916600117905580156109ad57600080547fffffffffffffffffffffffffffffffffffffffffffffffffffffffffffff00ff166101001790555b610a6f6040518060a001604052806040518060400160405280601481526020017f53616665205265636f7665727920506c7567696e00000000000000000000000081525081526020016040518060400160405280600581526020017f312e302e300000000000000000000000000000000000000000000000000000008152508152602001600115158152602001604051806020016040528060008152508152602001604051806060016040528060338152602001613f26603391399052612324565b600580547fffffffffffffffffffffffff00000000000000000000000000000000000000009081166001600160a01b0389811691909117909255601080548216888416179055600980548216878416179055600c80548216868416179055600e80549091169184169190911790558015610b4057600080547fffffffffffffffffffffffffffffffffffffffffffffffffffffffffffff00ff169055604051600181527f7f26b83ff96e1f2b6a682f133852f6798a09c465da95921460cefb38474024989060200160405180910390a15b505050505050565b600a8181548110610b5857600080fd5b600091825260209091200154905081565b600954600160a01b900460ff16610bc25760405162461bcd60e51b815260206004820152600b60248201527f4e4f545f454e41424c45440000000000000000000000000000000000000000006044820152606401610964565b600980547fffffffffffffffffffffff00ffffffffffffffffffffffffffffffffffffffff169055565b6001600160a01b037f0000000000000000000000000000000000000000000000000000000000000000163003610c8a5760405162461bcd60e51b815260206004820152602c60248201527f46756e6374696f6e206d7573742062652063616c6c6564207468726f7567682060448201527f64656c656761746563616c6c00000000000000000000000000000000000000006064820152608401610964565b7f00000000000000000000000000000000000000000000000000000000000000006001600160a01b0316610ce57f360894a13ba1a3210667c828492db98dca3e2076cc3735a920a3ca505d382bbc546001600160a01b031690565b6001600160a01b031614610d615760405162461bcd60e51b815260206004820152602c60248201527f46756e6374696f6e206d7573742062652063616c6c6564207468726f7567682060448201527f6163746976652070726f787900000000000000000000000000000000000000006064820152608401610964565b60408051600080825260208201909252610d7d9183919061236f565b50565b600d8181548110610b5857600080fd5b8151600003610de15760405162461bcd60e51b815260206004820152600e60248201527f494e56414c49445f5055424b45590000000000000000000000000000000000006044820152606401610964565b6040805160008152602081018083528151902091610e019184910161399c565b6040516020818303038152906040528051906020012003610e645760405162461bcd60e51b815260206004820152601560248201527f494e56414c49445f43524544454e5449414c5f494400000000000000000000006044820152606401610964565b8151610e7790600a9060208501906131c1565b50600b610e8482826139fe565b50610e8e83612514565b5050600980547fffffffffffffffffffffff00ffffffffffffffffffffffffffffffffffffffff16600160a01b17905550565b6001600160a01b037f0000000000000000000000000000000000000000000000000000000000000000163003610f5f5760405162461bcd60e51b815260206004820152602c60248201527f46756e6374696f6e206d7573742062652063616c6c6564207468726f7567682060448201527f64656c656761746563616c6c00000000000000000000000000000000000000006064820152608401610964565b7f00000000000000000000000000000000000000000000000000000000000000006001600160a01b0316610fba7f360894a13ba1a3210667c828492db98dca3e2076cc3735a920a3ca505d382bbc546001600160a01b031690565b6001600160a01b0316146110365760405162461bcd60e51b815260206004820152602c60248201527f46756e6374696f6e206d7573742062652063616c6c6564207468726f7567682060448201527f6163746976652070726f787900000000000000000000000000000000000000006064820152608401610964565b6110428282600161236f565b5050565b60055460009081906001600160a01b031633036110a55760405162461bcd60e51b815260206004820152600e60248201527f494e56414c49445f53454e4445520000000000000000000000000000000000006044820152606401610964565b600954600160a01b900460ff166110fe5760405162461bcd60e51b815260206004820152600b60248201527f4e4f545f454e41424c45440000000000000000000000000000000000000000006044820152606401610964565b600061110b88888861256c565b9050600061111885612a3a565b604080516060808252610c2082019092529192506000919060208201610c008036833701905050905061114a82612ace565b6009546040517fea50d0e40000000000000000000000000000000000000000000000000000000081529192506001600160a01b03169063ea50d0e490611196908a908590600401613abe565b602060405180830381865afa1580156111b3573d6000803e3d6000fd5b505050506040513d601f19601f820116820180604052508101906111d79190613b15565b61120d576040517fff3ee09d00000000000000000000000000000000000000000000000000000000815260040160405180910390fd5b6112188a8a85612bdc565b945094505050509550959350505050565b6000306001600160a01b037f000000000000000000000000000000000000000000000000000000000000000016146112c95760405162461bcd60e51b815260206004820152603860248201527f555550535570677261646561626c653a206d757374206e6f742062652063616c60448201527f6c6564207468726f7567682064656c656761746563616c6c00000000000000006064820152608401610964565b507f360894a13ba1a3210667c828492db98dca3e2076cc3735a920a3ca505d382bbc90565b6002805461083b90613949565b6005546001600160a01b031633146113555760405162461bcd60e51b815260206004820152600f60248201527f53454e4445525f4e4f545f5341464500000000000000000000000000000000006044820152606401610964565b806113a25760405162461bcd60e51b815260206004820152600c60248201527f494e56414c49445f4841534800000000000000000000000000000000000000006044820152606401610964565b6113ab816113f5565b6113b990600d9060206131c1565b506113c382612514565b5050600c80547fffffffffffffffffffffff00ffffffffffffffffffffffffffffffffffffffff16600160a01b179055565b6113fd61320c565b61140561320c565b60005b602081101561144d5783816020811061142357611423613b37565b1a82826020811061143657611436613b37565b60200201528061144581613b95565b915050611408565b5092915050565b6005546001600160a01b031633146114ae5760405162461bcd60e51b815260206004820152600f60248201527f53454e4445525f4e4f545f5341464500000000000000000000000000000000006044820152606401610964565b6000818152600860205260409020600481015460ff16156115115760405162461bcd60e51b815260206004820152601060248201527f414c52454144595f52454a4543544544000000000000000000000000000000006044820152606401610964565b600401805460ff1916600117905550565b600f8181548110610b5857600080fd5b600b805461083b90613949565b6005546001600160a01b031633146115995760405162461bcd60e51b815260206004820152600f60248201527f53454e4445525f4e4f545f5341464500000000000000000000000000000000006044820152606401610964565b80516000036115ea5760405162461bcd60e51b815260206004820152600c60248201527f494e56414c49445f4841534800000000000000000000000000000000000000006044820152606401610964565b80516115fd90600f9060208401906131c1565b5061160782612514565b5050600e80547fffffffffffffffffffffff00ffffffffffffffffffffffffffffffffffffffff16600160a01b179055565b60008160000361168b5760405162461bcd60e51b815260206004820152601360248201527f494e56414c49445f5245434f564552595f4944000000000000000000000000006044820152606401610964565b60008281526008602090815260408083208151815460c09481028201850190935260a081018381529093919284928491908401828280156116f557602002820191906000526020600020905b81546001600160a01b031681526001909101906020018083116116d7575b505050505081526020016001820180548060200260200160405190810160405280929190818152602001828054801561175757602002820191906000526020600020905b81546001600160a01b03168152600190910190602001808311611739575b5050509183525050600282015460208201526003820154604082015260049091015460ff1615156060909101526080810151909150156117d95760405162461bcd60e51b815260206004820152601160248201527f50524f504f53414c5f52454a45435445440000000000000000000000000000006044820152606401610964565b806060015142101561182d5760405162461bcd60e51b815260206004820152601160248201527f44454c41595f4e4f545f455850495245440000000000000000000000000000006044820152606401610964565b60008160400151600560009054906101000a90046001600160a01b03166001600160a01b031663e75235b86040518163ffffffff1660e01b8152600401602060405180830381865afa158015611887573d6000803e3d6000fd5b505050506040513d601f19601f820116820180604052508101906118ab9190613baf565b60208401515191141591506000826118c357816118ce565b6118ce826001613bc8565b905060008167ffffffffffffffff8111156118eb576118eb61340e565b60405190808252806020026020018201604052801561193857816020015b604080516060808201835260008083526020830152918101919091528152602001906001900390816119095790505b509050606060005b84811015611ac85763e318b52b60e01b6119808860200151838151811061196957611969613b37565b602002602001015189602001518a60000151612c56565b8860200151838151811061199657611996613b37565b6020026020010151896000015184815181106119b4576119b4613b37565b60200260200101516040516024016119ec939291906001600160a01b0393841681529183166020830152909116604082015260600190565b60408051601f198184030181529190526020810180517bffffffffffffffffffffffffffffffffffffffffffffffffffffffff167fffffffff000000000000000000000000000000000000000000000000000000009093169290921790915260055484519193506001600160a01b031690849083908110611a6f57611a6f613b37565b6020026020010151600001906001600160a01b031690816001600160a01b03168152505081838281518110611aa657611aa6613b37565b6020026020010151604001819052508080611ac090613b95565b915050611940565b508415611bd4576005546001600160a01b031682611ae7600186613bdb565b81518110611af757611af7613b37565b60209081029190910101516001600160a01b03909116905260408087015190517f694e80c30000000000000000000000000000000000000000000000000000000091611b499160240190815260200190565b60408051601f198184030181529190526020810180517bffffffffffffffffffffffffffffffffffffffffffffffffffffffff167fffffffff000000000000000000000000000000000000000000000000000000009093169290921790915282611bb4600186613bdb565b81518110611bc457611bc4613b37565b6020026020010151604001819052505b6040805160608101825283815260055482517faffed0e000000000000000000000000000000000000000000000000000000000815292516000936020808501936001600160a01b03169263affed0e09260048082019392918290030181865afa158015611c45573d6000803e3d6000fd5b505050506040513d601f19601f82011682018060405250810190611c699190613baf565b8152600480546020909201919091526010546005546040517f0f9919150000000000000000000000000000000000000000000000000000000081529394506001600160a01b0391821693630f99191593611cc99390921691869101613bee565b6000604051808303816000875af1925050508015611d0957506040513d6000823e601f3d908101601f19168201604052611d069190810190613cbd565b60015b611d71573d808015611d37576040519150601f19603f3d011682016040523d82523d6000602084013e611d3c565b606091505b50806040517f2e268859000000000000000000000000000000000000000000000000000000008152600401610964919061333f565b5050600198975050505050505050565b6005546001600160a01b03163314611ddb5760405162461bcd60e51b815260206004820152600f60248201527f53454e4445525f4e4f545f5341464500000000000000000000000000000000006044820152606401610964565b600e54600160a01b900460ff16611e345760405162461bcd60e51b815260206004820152600b60248201527f4e4f545f454e41424c45440000000000000000000000000000000000000000006044820152606401610964565b600e80547fffffffffffffffffffffff00ffffffffffffffffffffffffffffffffffffffff169055565b60055460009081906001600160a01b03163303611ebd5760405162461bcd60e51b815260206004820152600e60248201527f494e56414c49445f53454e4445520000000000000000000000000000000000006044820152606401610964565b600e54600160a01b900460ff16611f165760405162461bcd60e51b815260206004820152600b60248201527f4e4f545f454e41424c45440000000000000000000000000000000000000000006044820152606401610964565b6000611f2388888861256c565b6040805181815261082081018252919250600091906020820161080080368337019050509050611f538186612de2565b600e546040517fea50d0e40000000000000000000000000000000000000000000000000000000081529192506001600160a01b03169063ea50d0e490611f9f9089908590600401613abe565b602060405180830381865afa158015611fbc573d6000803e3d6000fd5b505050506040513d601f19601f82011682018060405250810190611fe09190613b15565b612016576040517fff3ee09d00000000000000000000000000000000000000000000000000000000815260040160405180910390fd5b612021898984612bdc565b9350935050509550959350505050565b60055460009081906001600160a01b031633036120905760405162461bcd60e51b815260206004820152600e60248201527f494e56414c49445f53454e4445520000000000000000000000000000000000006044820152606401610964565b600c54600160a01b900460ff166120e95760405162461bcd60e51b815260206004820152600b60248201527f4e4f545f454e41424c45440000000000000000000000000000000000000000006044820152606401610964565b60006120f687878761256c565b6040805160208082526104208201909252919250600091908082016104008036833701905050600d80546040805160208084028201810190925282815293945083018282801561216557602002820191906000526020600020905b815481526020019060010190808311612151575b5050600c546040517fea50d0e40000000000000000000000000000000000000000000000000000000081529495506001600160a01b03169363ea50d0e493506121b692508991508590600401613abe565b602060405180830381865afa1580156121d3573d6000803e3d6000fd5b505050506040513d601f19601f820116820180604052508101906121f79190613b15565b61222d576040517fff3ee09d00000000000000000000000000000000000000000000000000000000815260040160405180910390fd5b612238888884612bdc565b93509350505094509492505050565b6005546001600160a01b031633146122a15760405162461bcd60e51b815260206004820152600f60248201527f53454e4445525f4e4f545f5341464500000000000000000000000000000000006044820152606401610964565b600c54600160a01b900460ff166122fa5760405162461bcd60e51b815260206004820152600b60248201527f4e4f545f454e41424c45440000000000000000000000000000000000000000006044820152606401610964565b600c80547fffffffffffffffffffffff00ffffffffffffffffffffffffffffffffffffffff169055565b6004547f522c683f99251eea7f3b027592e92a5398e7582983be1f7c0f33715ce025740f61235183612e89565b60405161235e919061333f565b60405180910390a2610d7d81612ef0565b7f4910fdfa16fed3260ed0e7147f7cc6da11a60208b5b9406d12a635614ffd91435460ff16156123a7576123a283612f40565b505050565b826001600160a01b03166352d1902d6040518163ffffffff1660e01b8152600401602060405180830381865afa925050508015612401575060408051601f3d908101601f191682019092526123fe91810190613baf565b60015b6124735760405162461bcd60e51b815260206004820152602e60248201527f45524331393637557067726164653a206e657720696d706c656d656e7461746960448201527f6f6e206973206e6f7420555550530000000000000000000000000000000000006064820152608401610964565b7f360894a13ba1a3210667c828492db98dca3e2076cc3735a920a3ca505d382bbc81146125085760405162461bcd60e51b815260206004820152602960248201527f45524331393637557067726164653a20756e737570706f727465642070726f7860448201527f6961626c655555494400000000000000000000000000000000000000000000006064820152608401610964565b506123a2838383613016565b62278d008110156125675760405162461bcd60e51b815260206004820152600f60248201527f44454c41595f544f4f5f53484f525400000000000000000000000000000000006044820152606401610964565b600655565b600082518451146125bf5760405162461bcd60e51b815260206004820152600e60248201527f554e455155414c5f4c454e4754480000000000000000000000000000000000006044820152606401610964565b600554604080517fa0e67e2b00000000000000000000000000000000000000000000000000000000815290516000926001600160a01b03169163a0e67e2b91600480830192869291908290030181865afa158015612621573d6000803e3d6000fd5b505050506040513d6000823e601f3d908101601f191682016040526126499190810190613daa565b905080518551111561269d5760405162461bcd60e51b815260206004820152600e60248201527f494e56414c49445f4c454e4754480000000000000000000000000000000000006044820152606401610964565b60005b85518110156129425760055486516001600160a01b0390911690632f54bf6e908890849081106126d2576126d2613b37565b60200260200101516040518263ffffffff1660e01b815260040161270591906001600160a01b0391909116815260200190565b602060405180830381865afa158015612722573d6000803e3d6000fd5b505050506040513d601f19601f820116820180604052508101906127469190613b15565b6127925760405162461bcd60e51b815260206004820152600960248201527f4e4f545f4f574e455200000000000000000000000000000000000000000000006044820152606401610964565b60055485516001600160a01b0390911690632f54bf6e908790849081106127bb576127bb613b37565b60200260200101516040518263ffffffff1660e01b81526004016127ee91906001600160a01b0391909116815260200190565b602060405180830381865afa15801561280b573d6000803e3d6000fd5b505050506040513d601f19601f8201168201806040525081019061282f9190613b15565b1561287c5760405162461bcd60e51b815260206004820152600d60248201527f414c44524544595f4f574e4552000000000000000000000000000000000000006044820152606401610964565b60006001600160a01b031685828151811061289957612899613b37565b60200260200101516001600160a01b0316141580156128e4575060016001600160a01b03168582815181106128d0576128d0613b37565b60200260200101516001600160a01b031614155b6129305760405162461bcd60e51b815260206004820152600f60248201527f494e56414c49445f4144445245535300000000000000000000000000000000006044820152606401610964565b8061293a81613b95565b9150506126a0565b50600554604080517fe75235b800000000000000000000000000000000000000000000000000000000815290516000926001600160a01b03169163e75235b89160048083019260209291908290030181865afa1580156129a6573d6000803e3d6000fd5b505050506040513d601f19601f820116820180604052508101906129ca9190613baf565b905060008185036129db57816129dd565b845b90508083511015612a305760405162461bcd60e51b815260206004820152601160248201527f494e56414c49445f5448524553484f4c440000000000000000000000000000006044820152606401610964565b9695505050505050565b6040517ff8f5689c00000000000000000000000000000000000000000000000000000000815260009073__$6d399485da7ef05af8887e90c5d884cf80$__9063f8f5689c90612a8d90859060040161333f565b602060405180830381865af4158015612aaa573d6000803e3d6000fd5b505050506040513d601f19601f820116820180604052508101906108289190613baf565b604080516060808252610c2082019092526000908260208201610c008036833701905050905060005b602081101561144d57600a8181548110612b1357612b13613b37565b9060005260206000200154828281518110612b3057612b30613b37565b602002602001018181525050600a816020612b4b9190613bc8565b81548110612b5b57612b5b613b37565b906000526020600020015482826020612b749190613bc8565b81518110612b8457612b84613b37565b602002602001018181525050838160208110612ba257612ba2613b37565b1a82612baf836040613bc8565b81518110612bbf57612bbf613b37565b602090810291909101015280612bd481613b95565b915050612af7565b60008060006007546001612bf09190613bc8565b6000818152600860209081526040909120885192935091612c19916001840191908a019061322b565b508551612c2c908290602089019061322b565b5060028101859055600654612c419042613bc8565b60039091018190559092509050935093915050565b600080600560009054906101000a90046001600160a01b03166001600160a01b031663a0e67e2b6040518163ffffffff1660e01b8152600401600060405180830381865afa158015612cac573d6000803e3d6000fd5b505050506040513d6000823e601f3d908101601f19168201604052612cd49190810190613daa565b90506000805b8251811015612d2f57866001600160a01b0316838281518110612cff57612cff613b37565b60200260200101516001600160a01b031603612d1d57809150612d2f565b80612d2781613b95565b915050612cda565b5060008115612d615782612d44600184613bdb565b81518110612d5457612d54613b37565b6020026020010151612d64565b60015b905060005b8651811015612dd757816001600160a01b0316878281518110612d8e57612d8e613b37565b60200260200101516001600160a01b031603612dc557858181518110612db657612db6613b37565b60200260200101519150612dd7565b80612dcf81613b95565b915050612d69565b509695505050505050565b606060005b6020811015612e8157600f8181548110612e0357612e03613b37565b9060005260206000200154848281518110612e2057612e20613b37565b602002602001018181525050828181518110612e3e57612e3e613b37565b602002602001015184826020612e549190613bc8565b81518110612e6457612e64613b37565b602090810291909101015280612e7981613b95565b915050612de7565b509192915050565b606060008083600001518460200151856040015186606001518760800151604051602001612ebb959493929190613e44565b60408051601f1981840301815290829052612eda939291602001613ea5565b6040516020818303038152906040529050919050565b8051600190612eff90826139fe565b506020810151600290612f1290826139fe565b5060408101516003805460ff1916911515919091179055612f3281612e89565b805160209091012060045550565b6001600160a01b0381163b612fbd5760405162461bcd60e51b815260206004820152602d60248201527f455243313936373a206e657720696d706c656d656e746174696f6e206973206e60448201527f6f74206120636f6e7472616374000000000000000000000000000000000000006064820152608401610964565b7f360894a13ba1a3210667c828492db98dca3e2076cc3735a920a3ca505d382bbc80547fffffffffffffffffffffffff0000000000000000000000000000000000000000166001600160a01b0392909216919091179055565b61301f83613041565b60008251118061302c5750805b156123a25761303b8383613081565b50505050565b61304a81612f40565b6040516001600160a01b038216907fbc7cd75a20ee27fd9adebab32041f755214dbc6bffa90cc0225b39da2e5c2d3b90600090a250565b60606130a68383604051806060016040528060278152602001613eff602791396130ad565b9392505050565b6060600080856001600160a01b0316856040516130ca919061399c565b600060405180830381855af49150503d8060008114613105576040519150601f19603f3d011682016040523d82523d6000602084013e61310a565b606091505b5091509150612a30868383876060831561318557825160000361317e576001600160a01b0385163b61317e5760405162461bcd60e51b815260206004820152601d60248201527f416464726573733a2063616c6c20746f206e6f6e2d636f6e74726163740000006044820152606401610964565b508161318f565b61318f8383613197565b949350505050565b8151156131a75781518083602001fd5b8060405162461bcd60e51b8152600401610964919061333f565b8280548282559060005260206000209081019282156131fc579160200282015b828111156131fc5782518255916020019190600101906131e1565b50613208929150613298565b5090565b6040518061040001604052806020906020820280368337509192915050565b8280548282559060005260206000209081019282156131fc579160200282015b828111156131fc57825182547fffffffffffffffffffffffff0000000000000000000000000000000000000000166001600160a01b0390911617825560209092019160019091019061324b565b5b808211156132085760008155600101613299565b6000602082840312156132bf57600080fd5b81357fffffffff00000000000000000000000000000000000000000000000000000000811681146130a657600080fd5b60005b8381101561330a5781810151838201526020016132f2565b50506000910152565b6000815180845261332b8160208601602086016132ef565b601f01601f19169290920160200192915050565b6020815260006130a66020830184613313565b6001600160a01b0381168114610d7d57600080fd5b600080600080600060a0868803121561337f57600080fd5b853561338a81613352565b9450602086013561339a81613352565b935060408601356133aa81613352565b925060608601356133ba81613352565b915060808601356133ca81613352565b809150509295509295909350565b6000602082840312156133ea57600080fd5b5035919050565b60006020828403121561340357600080fd5b81356130a681613352565b7f4e487b7100000000000000000000000000000000000000000000000000000000600052604160045260246000fd5b604051601f8201601f1916810167ffffffffffffffff811182821017156134665761346661340e565b604052919050565b600067ffffffffffffffff8211156134885761348861340e565b5060051b60200190565b600082601f8301126134a357600080fd5b813560206134b86134b38361346e565b61343d565b82815260059290921b840181019181810190868411156134d757600080fd5b8286015b84811015612dd757803583529183019183016134db565b600067ffffffffffffffff82111561350c5761350c61340e565b50601f01601f191660200190565b60006135286134b3846134f2565b905082815283838301111561353c57600080fd5b828260208301376000602084830101529392505050565b60008060006060848603121561356857600080fd5b83359250602084013567ffffffffffffffff8082111561358757600080fd5b61359387838801613492565b935060408601359150808211156135a957600080fd5b508401601f810186136135bb57600080fd5b6135ca8682356020840161351a565b9150509250925092565b600082601f8301126135e557600080fd5b6130a68383356020850161351a565b6000806040838503121561360757600080fd5b823561361281613352565b9150602083013567ffffffffffffffff81111561362e57600080fd5b61363a858286016135d4565b9150509250929050565b600082601f83011261365557600080fd5b813560206136656134b38361346e565b82815260059290921b8401810191818101908684111561368457600080fd5b8286015b84811015612dd757803561369b81613352565b8352918301918301613688565b600080600080600060a086880312156136c057600080fd5b853567ffffffffffffffff808211156136d857600080fd5b6136e489838a01613644565b965060208801359150808211156136fa57600080fd5b61370689838a01613644565b955060408801359450606088013591508082111561372357600080fd5b61372f89838a016135d4565b9350608088013591508082111561374557600080fd5b50613752888289016135d4565b9150509295509295909350565b6000806040838503121561377257600080fd5b50508035926020909101359150565b6104008101818360005b602080821061379a57506137ae565b82518452928301929091019060010161378b565b50505092915050565b600080604083850312156137ca57600080fd5b82359150602083013567ffffffffffffffff8111156137e857600080fd5b61363a85828601613492565b82815260406020820152600061318f6040830184613313565b600080600080600060a0868803121561382557600080fd5b853567ffffffffffffffff8082111561383d57600080fd5b61384989838a01613644565b9650602088013591508082111561385f57600080fd5b61386b89838a01613644565b955060408801359450606088013591508082111561388857600080fd5b61389489838a016135d4565b935060808801359150808211156138aa57600080fd5b5061375288828901613492565b600080600080608085870312156138cd57600080fd5b843567ffffffffffffffff808211156138e557600080fd5b6138f188838901613644565b9550602087013591508082111561390757600080fd5b61391388838901613644565b945060408701359350606087013591508082111561393057600080fd5b5061393d878288016135d4565b91505092959194509250565b600181811c9082168061395d57607f821691505b602082108103613996577f4e487b7100000000000000000000000000000000000000000000000000000000600052602260045260246000fd5b50919050565b600082516139ae8184602087016132ef565b9190910192915050565b601f8211156123a257600081815260208120601f850160051c810160208610156139df5750805b601f850160051c820191505b81811015610b40578281556001016139eb565b815167ffffffffffffffff811115613a1857613a1861340e565b613a2c81613a268454613949565b846139b8565b602080601f831160018114613a615760008415613a495750858301515b600019600386901b1c1916600185901b178555610b40565b600085815260208120601f198616915b82811015613a9057888601518255948401946001909101908401613a71565b5085821015613aae5787850151600019600388901b60f8161c191681555b5050505050600190811b01905550565b604081526000613ad16040830185613313565b82810360208481019190915284518083528582019282019060005b81811015613b0857845183529383019391830191600101613aec565b5090979650505050505050565b600060208284031215613b2757600080fd5b815180151581146130a657600080fd5b7f4e487b7100000000000000000000000000000000000000000000000000000000600052603260045260246000fd5b7f4e487b7100000000000000000000000000000000000000000000000000000000600052601160045260246000fd5b60006000198203613ba857613ba8613b66565b5060010190565b600060208284031215613bc157600080fd5b5051919050565b8082018082111561082857610828613b66565b8181038181111561082857610828613b66565b600060406001600160a01b0380861684526020828186015260a0850186516060808689015282825180855260c08a01915060c08160051b8b01019450858401935060005b81811015613c99578a86037fffffffffffffffffffffffffffffffffffffffffffffffffffffffffffffff4001835284518051891687528781015188880152890151898701859052613c8685880182613313565b9650509386019391860191600101613c32565b50505083890151818901525050838701516080870152809450505050509392505050565b60006020808385031215613cd057600080fd5b825167ffffffffffffffff80821115613ce857600080fd5b818501915085601f830112613cfc57600080fd5b8151613d0a6134b38261346e565b81815260059190911b83018401908481019088831115613d2957600080fd5b8585015b83811015613d9d57805185811115613d455760008081fd5b8601603f81018b13613d575760008081fd5b878101516040613d696134b3836134f2565b8281528d82848601011115613d7e5760008081fd5b613d8d838c83018487016132ef565b8652505050918601918601613d2d565b5098975050505050505050565b60006020808385031215613dbd57600080fd5b825167ffffffffffffffff811115613dd457600080fd5b8301601f81018513613de557600080fd5b8051613df36134b38261346e565b81815260059190911b82018301908381019087831115613e1257600080fd5b928401925b82841015613e39578351613e2a81613352565b82529284019290840190613e17565b979650505050505050565b60a081526000613e5760a0830188613313565b8281036020840152613e698188613313565b905085151560408401528281036060840152613e858186613313565b90508281036080840152613e998185613313565b98975050505050505050565b60007fff00000000000000000000000000000000000000000000000000000000000000808660f81b168352808560f81b166001840152508251613eef8160028501602087016132ef565b9190910160020194935050505056fe416464726573733a206c6f772d6c6576656c2064656c65676174652063616c6c206661696c656468747470733a2f2f6769746875622e636f6d2f706f72636f2d726f73736f2d6a2f736166652d7265636f766572792d6e6f6972a26469706673582212208842b3951c24bf70a6617794365f5af9270928906959b1850ddfdfb786026e7964736f6c63430008120033",
    "linkReferences": {
      "src/helper/WebAuthnHelper.sol": {
        "WebAuthnHelper": [
          {
            "start": 14608,
            "length": 20
          }
        ]
      }
    }
  },
  "methodIdentifiers": {
    "createRecoveryPluginNoir(address,address,address,address,address,uint256)": "e16d0950",
    "getAddress(address,address,address,address,address,uint256)": "58af5e8d",
    "getPluginAddr(address)": "bbb76c1d",
    "recoveryPluginNoirImp()": "38a73591",
    "safeToPlugins(address)": "84322223"
  },
  "id": 78
}