{
  "abi": [
    {
      "inputs": [
        {
          "internalType": "address",
          "name": "initialOwner",
          "type": "address"
        }
      ],
      "stateMutability": "nonpayable",
      "type": "constructor"
    },
    {
      "inputs": [
        {
          "internalType": "address",
          "name": "integration",
          "type": "address"
        }
      ],
      "name": "CannotAddIntegration",
      "type": "error"
    },
    {
      "inputs": [
        {
          "internalType": "address",
          "name": "integration",
          "type": "address"
        }
      ],
      "name": "CannotFlagIntegration",
      "type": "error"
    },
    {
      "inputs": [
        {
          "internalType": "address",
          "name": "integration",
          "type": "address"
        },
        {
          "internalType": "bytes4",
          "name": "expectedInterfaceId",
          "type": "bytes4"
        }
      ],
      "name": "IntegrationDoesNotSupportExpectedInterfaceId",
      "type": "error"
    },
    {
      "anonymous": false,
      "inputs": [
        {
          "indexed": true,
          "internalType": "address",
          "name": "integration",
          "type": "address"
        }
      ],
      "name": "IntegrationAdded",
      "type": "event"
    },
    {
      "anonymous": false,
      "inputs": [
        {
          "indexed": true,
          "internalType": "address",
          "name": "integration",
          "type": "address"
        }
      ],
      "name": "IntegrationFlagged",
      "type": "event"
    },
    {
      "anonymous": false,
      "inputs": [
        {
          "indexed": true,
          "internalType": "address",
          "name": "previousOwner",
          "type": "address"
        },
        {
          "indexed": true,
          "internalType": "address",
          "name": "newOwner",
          "type": "address"
        }
      ],
      "name": "OwnershipTransferStarted",
      "type": "event"
    },
    {
      "anonymous": false,
      "inputs": [
        {
          "indexed": true,
          "internalType": "address",
          "name": "previousOwner",
          "type": "address"
        },
        {
          "indexed": true,
          "internalType": "address",
          "name": "newOwner",
          "type": "address"
        }
      ],
      "name": "OwnershipTransferred",
      "type": "event"
    },
    {
      "inputs": [],
      "name": "acceptOwnership",
      "outputs": [],
      "stateMutability": "nonpayable",
      "type": "function"
    },
    {
      "inputs": [
        {
          "internalType": "address",
          "name": "integration",
          "type": "address"
        },
        {
          "internalType": "enum Enum.IntegrationType",
          "name": "integrationType",
          "type": "uint8"
        }
      ],
      "name": "addIntegration",
      "outputs": [],
      "stateMutability": "nonpayable",
      "type": "function"
    },
    {
      "inputs": [
        {
          "internalType": "address",
          "name": "integration",
          "type": "address"
        }
      ],
      "name": "check",
      "outputs": [
        {
          "internalType": "uint64",
          "name": "listedAt",
          "type": "uint64"
        },
        {
          "internalType": "uint64",
          "name": "flaggedAt",
          "type": "uint64"
        }
      ],
      "stateMutability": "view",
      "type": "function"
    },
    {
      "inputs": [
        {
          "internalType": "address",
          "name": "integration",
          "type": "address"
        }
      ],
      "name": "flagIntegration",
      "outputs": [],
      "stateMutability": "nonpayable",
      "type": "function"
    },
    {
      "inputs": [
        {
          "internalType": "address",
          "name": "",
          "type": "address"
        }
      ],
      "name": "listedIntegrations",
      "outputs": [
        {
          "internalType": "uint64",
          "name": "listedAt",
          "type": "uint64"
        },
        {
          "internalType": "uint64",
          "name": "flaggedAt",
          "type": "uint64"
        },
        {
          "internalType": "enum Enum.IntegrationType",
          "name": "integrationType",
          "type": "uint8"
        }
      ],
      "stateMutability": "view",
      "type": "function"
    },
    {
      "inputs": [],
      "name": "owner",
      "outputs": [
        {
          "internalType": "address",
          "name": "",
          "type": "address"
        }
      ],
      "stateMutability": "view",
      "type": "function"
    },
    {
      "inputs": [],
      "name": "pendingOwner",
      "outputs": [
        {
          "internalType": "address",
          "name": "",
          "type": "address"
        }
      ],
      "stateMutability": "view",
      "type": "function"
    },
    {
      "inputs": [],
      "name": "renounceOwnership",
      "outputs": [],
      "stateMutability": "nonpayable",
      "type": "function"
    },
    {
      "inputs": [
        {
          "internalType": "bytes4",
          "name": "interfaceId",
          "type": "bytes4"
        }
      ],
      "name": "supportsInterface",
      "outputs": [
        {
          "internalType": "bool",
          "name": "",
          "type": "bool"
        }
      ],
      "stateMutability": "view",
      "type": "function"
    },
    {
      "inputs": [
        {
          "internalType": "address",
          "name": "newOwner",
          "type": "address"
        }
      ],
      "name": "transferOwnership",
      "outputs": [],
      "stateMutability": "nonpayable",
      "type": "function"
    }
  ],
  "bytecode": {
    "object": "0x608060405234801561001057600080fd5b50604051610fef380380610fef83398101604081905261002f916100be565b61003833610047565b61004181610047565b506100ee565b600180546001600160a01b031916905561006b8161006e602090811b610c4517901c565b50565b600080546001600160a01b038381166001600160a01b0319831681178455604051919092169283917f8be0079c531659141344cd1fd0a4f28419497f9722a3daafe3b4186f6b6457e09190a35050565b6000602082840312156100d057600080fd5b81516001600160a01b03811681146100e757600080fd5b9392505050565b610ef2806100fd6000396000f3fe608060405234801561001057600080fd5b50600436106100be5760003560e01c8063c23697a811610076578063e71d097b1161005b578063e71d097b1461017a578063e8828ea31461018d578063f2fde38b146101f057600080fd5b8063c23697a814610135578063e30c39781461016957600080fd5b806377e41fe9116100a757806377e41fe9146100f557806379ba5097146101085780638da5cb5b1461011057600080fd5b806301ffc9a7146100c3578063715018a6146100eb575b600080fd5b6100d66100d1366004610d52565b610203565b60405190151581526020015b60405180910390f35b6100f361029c565b005b6100f3610103366004610db7565b6102b0565b6100f36104f0565b6000546001600160a01b03165b6040516001600160a01b0390911681526020016100e2565b610148610143366004610db7565b610598565b6040805167ffffffffffffffff9384168152929091166020830152016100e2565b6001546001600160a01b031661011d565b6100f3610188366004610dd2565b610636565b6101e161019b366004610db7565b60026020526000908152604090205467ffffffffffffffff8082169168010000000000000000810490911690700100000000000000000000000000000000900460ff1683565b6040516100e293929190610e3c565b6100f36101fe366004610db7565b610bbc565b60007fffffffff0000000000000000000000000000000000000000000000000000000082167fc23697a800000000000000000000000000000000000000000000000000000000148061029657507fffffffff0000000000000000000000000000000000000000000000000000000082167f01ffc9a700000000000000000000000000000000000000000000000000000000145b92915050565b6102a4610cad565b6102ae6000610d21565b565b6102b8610cad565b6001600160a01b03811660009081526002602081815260408084208151606081018352815467ffffffffffffffff8082168352680100000000000000008204169482019490945293909291840191700100000000000000000000000000000000900460ff169081111561032d5761032d610e0d565b600281111561033e5761033e610e0d565b905250805190915067ffffffffffffffff1615806103695750602081015167ffffffffffffffff1615155b156103b0576040517f3bee038a0000000000000000000000000000000000000000000000000000000081526001600160a01b03831660048201526024015b60405180910390fd5b6040518060600160405280826000015167ffffffffffffffff1681526020014267ffffffffffffffff168152602001826040015160028111156103f5576103f5610e0d565b90526001600160a01b038316600090815260026020818152604092839020845181549286015167ffffffffffffffff90811668010000000000000000027fffffffffffffffffffffffffffffffff0000000000000000000000000000000090941691161791909117808255928401519092909183917fffffffffffffffffffffffffffffff00ffffffffffffffffffffffffffffffff16907001000000000000000000000000000000009084908111156104b1576104b1610e0d565b0217905550506040516001600160a01b03841691507f7e4b225e43d112f7188b3064745a2e7988701d3816dee2b4613507ffaff6b30290600090a25050565b60015433906001600160a01b0316811461058c576040517f08c379a000000000000000000000000000000000000000000000000000000000815260206004820152602960248201527f4f776e61626c6532537465703a2063616c6c6572206973206e6f74207468652060448201527f6e6577206f776e6572000000000000000000000000000000000000000000000060648201526084016103a7565b61059581610d21565b50565b6001600160a01b03811660009081526002602081815260408084208151606081018352815467ffffffffffffffff80821683526801000000000000000082041694820194909452859485949193840191700100000000000000000000000000000000900460ff169081111561060f5761060f610e0d565b600281111561062057610620610e0d565b9052508051602090910151909590945092505050565b61063e610cad565b6001600160a01b03821660009081526002602081815260408084208151606081018352815467ffffffffffffffff8082168352680100000000000000008204169482019490945293909291840191700100000000000000000000000000000000900460ff16908111156106b3576106b3610e0d565b60028111156106c4576106c4610e0d565b905250805190915067ffffffffffffffff1615610718576040517f1bc90bc60000000000000000000000000000000000000000000000000000000081526001600160a01b03841660048201526024016103a7565b600182600281111561072c5761072c610e0d565b1480156107d757506040517f01ffc9a70000000000000000000000000000000000000000000000000000000081527f907e1c560000000000000000000000000000000000000000000000000000000060048201526001600160a01b038416906301ffc9a790602401602060405180830381865afa1580156107b1573d6000803e3d6000fd5b505050506040513d601f19601f820116820180604052508101906107d59190610e9a565b155b1561083f576040517fbe98cdba0000000000000000000000000000000000000000000000000000000081526001600160a01b03841660048201527f907e1c560000000000000000000000000000000000000000000000000000000060248201526044016103a7565b600082600281111561085357610853610e0d565b1480156108fe57506040517f01ffc9a70000000000000000000000000000000000000000000000000000000081527f3fce835e0000000000000000000000000000000000000000000000000000000060048201526001600160a01b038416906301ffc9a790602401602060405180830381865afa1580156108d8573d6000803e3d6000fd5b505050506040513d601f19601f820116820180604052508101906108fc9190610e9a565b155b15610966576040517fbe98cdba0000000000000000000000000000000000000000000000000000000081526001600160a01b03841660048201527f3fce835e0000000000000000000000000000000000000000000000000000000060248201526044016103a7565b600282600281111561097a5761097a610e0d565b148015610a2557506040517f01ffc9a70000000000000000000000000000000000000000000000000000000081527f25d6803f0000000000000000000000000000000000000000000000000000000060048201526001600160a01b038416906301ffc9a790602401602060405180830381865afa1580156109ff573d6000803e3d6000fd5b505050506040513d601f19601f82011682018060405250810190610a239190610e9a565b155b15610a8d576040517fbe98cdba0000000000000000000000000000000000000000000000000000000081526001600160a01b03841660048201527f25d6803f0000000000000000000000000000000000000000000000000000000060248201526044016103a7565b6040805160608101825267ffffffffffffffff4216815260006020820152908101836002811115610ac057610ac0610e0d565b90526001600160a01b038416600090815260026020818152604092839020845181549286015167ffffffffffffffff90811668010000000000000000027fffffffffffffffffffffffffffffffff0000000000000000000000000000000090941691161791909117808255928401519092909183917fffffffffffffffffffffffffffffff00ffffffffffffffffffffffffffffffff1690700100000000000000000000000000000000908490811115610b7c57610b7c610e0d565b0217905550506040516001600160a01b03851691507f94c109d6a0f9d39b37ec79aa4e627154250f2c29adaf10079a79e29e95fefd6290600090a2505050565b610bc4610cad565b600180546001600160a01b0383167fffffffffffffffffffffffff00000000000000000000000000000000000000009091168117909155610c0d6000546001600160a01b031690565b6001600160a01b03167f38d16b8cac22d99fc7c124b9cd0de2d3fa1faef420bfe791d8c362d765e2270060405160405180910390a350565b600080546001600160a01b038381167fffffffffffffffffffffffff0000000000000000000000000000000000000000831681178455604051919092169283917f8be0079c531659141344cd1fd0a4f28419497f9722a3daafe3b4186f6b6457e09190a35050565b6000546001600160a01b031633146102ae576040517f08c379a000000000000000000000000000000000000000000000000000000000815260206004820181905260248201527f4f776e61626c653a2063616c6c6572206973206e6f7420746865206f776e657260448201526064016103a7565b600180547fffffffffffffffffffffffff000000000000000000000000000000000000000016905561059581610c45565b600060208284031215610d6457600080fd5b81357fffffffff0000000000000000000000000000000000000000000000000000000081168114610d9457600080fd5b9392505050565b80356001600160a01b0381168114610db257600080fd5b919050565b600060208284031215610dc957600080fd5b610d9482610d9b565b60008060408385031215610de557600080fd5b610dee83610d9b565b9150602083013560038110610e0257600080fd5b809150509250929050565b7f4e487b7100000000000000000000000000000000000000000000000000000000600052602160045260246000fd5b67ffffffffffffffff8481168252831660208201526060810160038310610e8c577f4e487b7100000000000000000000000000000000000000000000000000000000600052602160045260246000fd5b826040830152949350505050565b600060208284031215610eac57600080fd5b81518015158114610d9457600080fdfea264697066735822122073868a0a6edfd0497f328dbe096193a28daa657fd82fb78c9aaf1529973e815964736f6c63430008120033",
    "linkReferences": {}
  },
  "methodIdentifiers": {
    "acceptOwnership()": "79ba5097",
    "addIntegration(address,uint8)": "e71d097b",
    "check(address)": "c23697a8",
    "flagIntegration(address)": "77e41fe9",
    "listedIntegrations(address)": "e8828ea3",
    "owner()": "8da5cb5b",
    "pendingOwner()": "e30c3978",
    "renounceOwnership()": "715018a6",
    "supportsInterface(bytes4)": "01ffc9a7",
    "transferOwnership(address)": "f2fde38b"
  },
  "id": 40
}