{
  "abi": [
    {
      "inputs": [
        {
          "internalType": "address",
          "name": "initialOwner",
          "type": "address"
        },
        {
          "internalType": "address",
          "name": "_registry",
          "type": "address"
        }
      ],
      "stateMutability": "nonpayable",
      "type": "constructor"
    },
    {
      "inputs": [
        {
          "internalType": "address",
          "name": "account",
          "type": "address"
        }
      ],
      "name": "AccountDoesNotImplementValidInterfaceId",
      "type": "error"
    },
    {
      "inputs": [
        {
          "internalType": "address",
          "name": "safe",
          "type": "address"
        },
        {
          "internalType": "bytes32",
          "name": "metadataHash",
          "type": "bytes32"
        },
        {
          "internalType": "uint256",
          "name": "index",
          "type": "uint256"
        }
      ],
      "name": "ActionExecutionFailed",
      "type": "error"
    },
    {
      "inputs": [
        {
          "internalType": "address",
          "name": "hooksAddress",
          "type": "address"
        }
      ],
      "name": "AddressDoesNotImplementHooksInterface",
      "type": "error"
    },
    {
      "inputs": [
        {
          "internalType": "address",
          "name": "plugin",
          "type": "address"
        }
      ],
      "name": "InvalidPluginAddress",
      "type": "error"
    },
    {
      "inputs": [
        {
          "internalType": "address",
          "name": "plugin",
          "type": "address"
        }
      ],
      "name": "InvalidPrevPluginAddress",
      "type": "error"
    },
    {
      "inputs": [
        {
          "internalType": "address",
          "name": "safe",
          "type": "address"
        },
        {
          "internalType": "bytes32",
          "name": "metadataHash",
          "type": "bytes32"
        },
        {
          "internalType": "uint256",
          "name": "index",
          "type": "uint256"
        }
      ],
      "name": "InvalidToFieldInSafeProtocolAction",
      "type": "error"
    },
    {
      "inputs": [
        {
          "internalType": "address",
          "name": "plugin",
          "type": "address"
        },
        {
          "internalType": "bool",
          "name": "requiresRootAccess",
          "type": "bool"
        },
        {
          "internalType": "bool",
          "name": "providedValue",
          "type": "bool"
        }
      ],
      "name": "PluginAccessMismatch",
      "type": "error"
    },
    {
      "inputs": [
        {
          "internalType": "address",
          "name": "safe",
          "type": "address"
        },
        {
          "internalType": "address",
          "name": "plugin",
          "type": "address"
        }
      ],
      "name": "PluginAlreadyEnabled",
      "type": "error"
    },
    {
      "inputs": [
        {
          "internalType": "address",
          "name": "plugin",
          "type": "address"
        }
      ],
      "name": "PluginEnabledOnlyForRootAccess",
      "type": "error"
    },
    {
      "inputs": [
        {
          "internalType": "address",
          "name": "plugin",
          "type": "address"
        }
      ],
      "name": "PluginNotEnabled",
      "type": "error"
    },
    {
      "inputs": [
        {
          "internalType": "address",
          "name": "plugin",
          "type": "address"
        },
        {
          "internalType": "uint64",
          "name": "listedAt",
          "type": "uint64"
        },
        {
          "internalType": "uint64",
          "name": "flaggedAt",
          "type": "uint64"
        }
      ],
      "name": "PluginNotPermitted",
      "type": "error"
    },
    {
      "inputs": [
        {
          "internalType": "address",
          "name": "sender",
          "type": "address"
        }
      ],
      "name": "PluginRequiresRootAccess",
      "type": "error"
    },
    {
      "inputs": [
        {
          "internalType": "address",
          "name": "safe",
          "type": "address"
        },
        {
          "internalType": "bytes32",
          "name": "metadataHash",
          "type": "bytes32"
        }
      ],
      "name": "RootAccessActionExecutionFailed",
      "type": "error"
    },
    {
      "inputs": [],
      "name": "ZeroPageSizeNotAllowed",
      "type": "error"
    },
    {
      "anonymous": false,
      "inputs": [
        {
          "indexed": true,
          "internalType": "address",
          "name": "safe",
          "type": "address"
        },
        {
          "indexed": false,
          "internalType": "bytes32",
          "name": "metadataHash",
          "type": "bytes32"
        },
        {
          "indexed": false,
          "internalType": "uint256",
          "name": "nonce",
          "type": "uint256"
        }
      ],
      "name": "ActionsExecuted",
      "type": "event"
    },
    {
      "anonymous": false,
      "inputs": [
        {
          "indexed": true,
          "internalType": "address",
          "name": "safe",
          "type": "address"
        },
        {
          "indexed": true,
          "internalType": "address",
          "name": "hooksAddress",
          "type": "address"
        }
      ],
      "name": "HooksChanged",
      "type": "event"
    },
    {
      "anonymous": false,
      "inputs": [
        {
          "indexed": true,
          "internalType": "address",
          "name": "previousOwner",
          "type": "address"
        },
        {
          "indexed": true,
          "internalType": "address",
          "name": "newOwner",
          "type": "address"
        }
      ],
      "name": "OwnershipTransferStarted",
      "type": "event"
    },
    {
      "anonymous": false,
      "inputs": [
        {
          "indexed": true,
          "internalType": "address",
          "name": "previousOwner",
          "type": "address"
        },
        {
          "indexed": true,
          "internalType": "address",
          "name": "newOwner",
          "type": "address"
        }
      ],
      "name": "OwnershipTransferred",
      "type": "event"
    },
    {
      "anonymous": false,
      "inputs": [
        {
          "indexed": true,
          "internalType": "address",
          "name": "safe",
          "type": "address"
        },
        {
          "indexed": true,
          "internalType": "address",
          "name": "plugin",
          "type": "address"
        }
      ],
      "name": "PluginDisabled",
      "type": "event"
    },
    {
      "anonymous": false,
      "inputs": [
        {
          "indexed": true,
          "internalType": "address",
          "name": "safe",
          "type": "address"
        },
        {
          "indexed": true,
          "internalType": "address",
          "name": "plugin",
          "type": "address"
        },
        {
          "indexed": false,
          "internalType": "bool",
          "name": "allowRootAccess",
          "type": "bool"
        }
      ],
      "name": "PluginEnabled",
      "type": "event"
    },
    {
      "anonymous": false,
      "inputs": [
        {
          "indexed": true,
          "internalType": "address",
          "name": "oldRegistry",
          "type": "address"
        },
        {
          "indexed": true,
          "internalType": "address",
          "name": "newRegistry",
          "type": "address"
        }
      ],
      "name": "RegistryChanged",
      "type": "event"
    },
    {
      "anonymous": false,
      "inputs": [
        {
          "indexed": true,
          "internalType": "address",
          "name": "safe",
          "type": "address"
        },
        {
          "indexed": false,
          "internalType": "bytes32",
          "name": "metadataHash",
          "type": "bytes32"
        }
      ],
      "name": "RootAccessActionExecuted",
      "type": "event"
    },
    {
      "inputs": [],
      "name": "acceptOwnership",
      "outputs": [],
      "stateMutability": "nonpayable",
      "type": "function"
    },
    {
      "inputs": [
        {
          "internalType": "bytes32",
          "name": "",
          "type": "bytes32"
        },
        {
          "internalType": "bool",
          "name": "success",
          "type": "bool"
        }
      ],
      "name": "checkAfterExecution",
      "outputs": [],
      "stateMutability": "nonpayable",
      "type": "function"
    },
    {
      "inputs": [
        {
          "internalType": "address",
          "name": "to",
          "type": "address"
        },
        {
          "internalType": "uint256",
          "name": "value",
          "type": "uint256"
        },
        {
          "internalType": "bytes",
          "name": "data",
          "type": "bytes"
        },
        {
          "internalType": "enum Enum.Operation",
          "name": "operation",
          "type": "uint8"
        },
        {
          "internalType": "address",
          "name": "module",
          "type": "address"
        }
      ],
      "name": "checkModuleTransaction",
      "outputs": [
        {
          "internalType": "bytes32",
          "name": "moduleTxHash",
          "type": "bytes32"
        }
      ],
      "stateMutability": "nonpayable",
      "type": "function"
    },
    {
      "inputs": [
        {
          "internalType": "address",
          "name": "to",
          "type": "address"
        },
        {
          "internalType": "uint256",
          "name": "value",
          "type": "uint256"
        },
        {
          "internalType": "bytes",
          "name": "data",
          "type": "bytes"
        },
        {
          "internalType": "enum Enum.Operation",
          "name": "operation",
          "type": "uint8"
        },
        {
          "internalType": "uint256",
          "name": "safeTxGas",
          "type": "uint256"
        },
        {
          "internalType": "uint256",
          "name": "baseGas",
          "type": "uint256"
        },
        {
          "internalType": "uint256",
          "name": "gasPrice",
          "type": "uint256"
        },
        {
          "internalType": "address",
          "name": "gasToken",
          "type": "address"
        },
        {
          "internalType": "address payable",
          "name": "refundReceiver",
          "type": "address"
        },
        {
          "internalType": "bytes",
          "name": "signatures",
          "type": "bytes"
        },
        {
          "internalType": "address",
          "name": "msgSender",
          "type": "address"
        }
      ],
      "name": "checkTransaction",
      "outputs": [],
      "stateMutability": "nonpayable",
      "type": "function"
    },
    {
      "inputs": [
        {
          "internalType": "address",
          "name": "prevPlugin",
          "type": "address"
        },
        {
          "internalType": "address",
          "name": "plugin",
          "type": "address"
        }
      ],
      "name": "disablePlugin",
      "outputs": [],
      "stateMutability": "nonpayable",
      "type": "function"
    },
    {
      "inputs": [
        {
          "internalType": "address",
          "name": "plugin",
          "type": "address"
        },
        {
          "internalType": "bool",
          "name": "allowRootAccess",
          "type": "bool"
        }
      ],
      "name": "enablePlugin",
      "outputs": [],
      "stateMutability": "nonpayable",
      "type": "function"
    },
    {
      "inputs": [
        {
          "internalType": "address",
          "name": "",
          "type": "address"
        }
      ],
      "name": "enabledHooks",
      "outputs": [
        {
          "internalType": "address",
          "name": "",
          "type": "address"
        }
      ],
      "stateMutability": "view",
      "type": "function"
    },
    {
      "inputs": [
        {
          "internalType": "address",
          "name": "",
          "type": "address"
        },
        {
          "internalType": "address",
          "name": "",
          "type": "address"
        }
      ],
      "name": "enabledPlugins",
      "outputs": [
        {
          "internalType": "bool",
          "name": "rootAddressGranted",
          "type": "bool"
        },
        {
          "internalType": "address",
          "name": "nextPluginPointer",
          "type": "address"
        }
      ],
      "stateMutability": "view",
      "type": "function"
    },
    {
      "inputs": [
        {
          "internalType": "contract ISafe",
          "name": "safe",
          "type": "address"
        },
        {
          "components": [
            {
              "components": [
                {
                  "internalType": "address payable",
                  "name": "to",
                  "type": "address"
                },
                {
                  "internalType": "uint256",
                  "name": "value",
                  "type": "uint256"
                },
                {
                  "internalType": "bytes",
                  "name": "data",
                  "type": "bytes"
                }
              ],
              "internalType": "struct SafeProtocolAction",
              "name": "action",
              "type": "tuple"
            },
            {
              "internalType": "uint256",
              "name": "nonce",
              "type": "uint256"
            },
            {
              "internalType": "bytes32",
              "name": "metadataHash",
              "type": "bytes32"
            }
          ],
          "internalType": "struct SafeRootAccess",
          "name": "rootAccess",
          "type": "tuple"
        }
      ],
      "name": "executeRootAccess",
      "outputs": [
        {
          "internalType": "bytes",
          "name": "data",
          "type": "bytes"
        }
      ],
      "stateMutability": "nonpayable",
      "type": "function"
    },
    {
      "inputs": [
        {
          "internalType": "contract ISafe",
          "name": "safe",
          "type": "address"
        },
        {
          "components": [
            {
              "components": [
                {
                  "internalType": "address payable",
                  "name": "to",
                  "type": "address"
                },
                {
                  "internalType": "uint256",
                  "name": "value",
                  "type": "uint256"
                },
                {
                  "internalType": "bytes",
                  "name": "data",
                  "type": "bytes"
                }
              ],
              "internalType": "struct SafeProtocolAction[]",
              "name": "actions",
              "type": "tuple[]"
            },
            {
              "internalType": "uint256",
              "name": "nonce",
              "type": "uint256"
            },
            {
              "internalType": "bytes32",
              "name": "metadataHash",
              "type": "bytes32"
            }
          ],
          "internalType": "struct SafeTransaction",
          "name": "transaction",
          "type": "tuple"
        }
      ],
      "name": "executeTransaction",
      "outputs": [
        {
          "internalType": "bytes[]",
          "name": "data",
          "type": "bytes[]"
        }
      ],
      "stateMutability": "nonpayable",
      "type": "function"
    },
    {
      "inputs": [
        {
          "internalType": "address",
          "name": "safe",
          "type": "address"
        }
      ],
      "name": "getEnabledHooks",
      "outputs": [
        {
          "internalType": "address",
          "name": "hooksAddress",
          "type": "address"
        }
      ],
      "stateMutability": "view",
      "type": "function"
    },
    {
      "inputs": [
        {
          "internalType": "address",
          "name": "safe",
          "type": "address"
        },
        {
          "internalType": "address",
          "name": "plugin",
          "type": "address"
        }
      ],
      "name": "getPluginInfo",
      "outputs": [
        {
          "components": [
            {
              "internalType": "bool",
              "name": "rootAddressGranted",
              "type": "bool"
            },
            {
              "internalType": "address",
              "name": "nextPluginPointer",
              "type": "address"
            }
          ],
          "internalType": "struct SafeProtocolManager.PluginAccessInfo",
          "name": "enabled",
          "type": "tuple"
        }
      ],
      "stateMutability": "view",
      "type": "function"
    },
    {
      "inputs": [
        {
          "internalType": "address",
          "name": "start",
          "type": "address"
        },
        {
          "internalType": "uint256",
          "name": "pageSize",
          "type": "uint256"
        },
        {
          "internalType": "address",
          "name": "safe",
          "type": "address"
        }
      ],
      "name": "getPluginsPaginated",
      "outputs": [
        {
          "internalType": "address[]",
          "name": "array",
          "type": "address[]"
        },
        {
          "internalType": "address",
          "name": "next",
          "type": "address"
        }
      ],
      "stateMutability": "view",
      "type": "function"
    },
    {
      "inputs": [
        {
          "internalType": "address",
          "name": "safe",
          "type": "address"
        },
        {
          "internalType": "address",
          "name": "plugin",
          "type": "address"
        }
      ],
      "name": "isPluginEnabled",
      "outputs": [
        {
          "internalType": "bool",
          "name": "",
          "type": "bool"
        }
      ],
      "stateMutability": "view",
      "type": "function"
    },
    {
      "inputs": [],
      "name": "owner",
      "outputs": [
        {
          "internalType": "address",
          "name": "",
          "type": "address"
        }
      ],
      "stateMutability": "view",
      "type": "function"
    },
    {
      "inputs": [],
      "name": "pendingOwner",
      "outputs": [
        {
          "internalType": "address",
          "name": "",
          "type": "address"
        }
      ],
      "stateMutability": "view",
      "type": "function"
    },
    {
      "inputs": [],
      "name": "registry",
      "outputs": [
        {
          "internalType": "address",
          "name": "",
          "type": "address"
        }
      ],
      "stateMutability": "view",
      "type": "function"
    },
    {
      "inputs": [],
      "name": "renounceOwnership",
      "outputs": [],
      "stateMutability": "nonpayable",
      "type": "function"
    },
    {
      "inputs": [
        {
          "internalType": "address",
          "name": "hooks",
          "type": "address"
        }
      ],
      "name": "setHooks",
      "outputs": [],
      "stateMutability": "nonpayable",
      "type": "function"
    },
    {
      "inputs": [
        {
          "internalType": "address",
          "name": "newRegistry",
          "type": "address"
        }
      ],
      "name": "setRegistry",
      "outputs": [],
      "stateMutability": "nonpayable",
      "type": "function"
    },
    {
      "inputs": [
        {
          "internalType": "bytes4",
          "name": "interfaceId",
          "type": "bytes4"
        }
      ],
      "name": "supportsInterface",
      "outputs": [
        {
          "internalType": "bool",
          "name": "",
          "type": "bool"
        }
      ],
      "stateMutability": "view",
      "type": "function"
    },
    {
      "inputs": [
        {
          "internalType": "address",
          "name": "",
          "type": "address"
        }
      ],
      "name": "tempHooksAddress",
      "outputs": [
        {
          "internalType": "address",
          "name": "",
          "type": "address"
        }
      ],
      "stateMutability": "view",
      "type": "function"
    },
    {
      "inputs": [
        {
          "internalType": "address",
          "name": "newOwner",
          "type": "address"
        }
      ],
      "name": "transferOwnership",
      "outputs": [],
      "stateMutability": "nonpayable",
      "type": "function"
    }
  ],
  "bytecode": {
    "object": "0x60806040523480156200001157600080fd5b5060405162003229380380620032298339810160408190526200003491620001ac565b8082620000413362000115565b6200004c8162000115565b6040516301ffc9a760e01b8152631846d2f560e31b60048201526001600160a01b038316906301ffc9a790602401602060405180830381865afa15801562000098573d6000803e3d6000fd5b505050506040513d601f19601f82011682018060405250810190620000be9190620001e4565b620000eb5760405163baf377c160e01b81526001600160a01b038316600482015260240160405180910390fd5b50600280546001600160a01b0319166001600160a01b0392909216919091179055506200020f9050565b600180546001600160a01b03191690556200013c816200013f602090811b620021de17901c565b50565b600080546001600160a01b038381166001600160a01b0319831681178455604051919092169283917f8be0079c531659141344cd1fd0a4f28419497f9722a3daafe3b4186f6b6457e09190a35050565b80516001600160a01b0381168114620001a757600080fd5b919050565b60008060408385031215620001c057600080fd5b620001cb836200018f565b9150620001db602084016200018f565b90509250929050565b600060208284031215620001f757600080fd5b815180151581146200020857600080fd5b9392505050565b61300a806200021f6000396000f3fe608060405234801561001057600080fd5b506004361061018d5760003560e01c80637b103999116100e3578063c703895c1161008c578063e30c397811610066578063e30c397814610461578063f2fde38b14610472578063fb63daa11461048557600080fd5b8063c703895c14610398578063d3ac5669146103c4578063df5236e11461044e57600080fd5b806393271368116100bd578063932713681461035f578063a0673f5c14610372578063a91ee0dc1461038557600080fd5b80637b1039991461031257806380479c34146103255780638da5cb5b1461034e57600080fd5b80633550b34411610145578063728c29721161011f578063728c2972146102d657806375f0bb52146102f757806379ba50971461030a57600080fd5b80633550b3441461026c57806358823f6d1461028d578063715018a6146102ce57600080fd5b80631f026c91116101765780631f026c91146101da578063250db3c01461023757806330f571f91461024c57600080fd5b806301ffc9a7146101925780630f991915146101ba575b600080fd5b6101a56101a03660046122d5565b610498565b60405190151581526020015b60405180910390f35b6101cd6101c8366004612344565b6105c9565b6040516101b191906123e4565b6102186101e8366004612474565b600560209081526000928352604080842090915290825290205460ff81169061010090046001600160a01b031682565b6040805192151583526001600160a01b039091166020830152016101b1565b61024a6102453660046124bb565b610b90565b005b61025f61025a366004612344565b610f36565b6040516101b191906124e9565b61027f61027a3660046124fc565b6113f4565b6040516101b192919061253e565b6102b661029b36600461259b565b6004602052600090815260409020546001600160a01b031681565b6040516001600160a01b0390911681526020016101b1565b61024a6115fe565b6102e96102e43660046126a5565b611612565b6040519081526020016101b1565b61024a610305366004612724565b6118e0565b61024a611b9c565b6002546102b6906001600160a01b031681565b6102b661033336600461259b565b6003602052600090815260409020546001600160a01b031681565b6000546001600160a01b03166102b6565b61024a61036d366004612809565b611c44565b6101a5610380366004612474565b611d1e565b61024a61039336600461259b565b611d6c565b6102b66103a636600461259b565b6001600160a01b039081166000908152600360205260409020541690565b6104286103d2366004612474565b604080518082018252600080825260209182018190526001600160a01b0394851681526005825282812093851681529281529181902081518083019092525460ff81161515825261010090049092169082015290565b604080518251151581526020928301516001600160a01b031692810192909252016101b1565b61024a61045c366004612474565b611ebf565b6001546001600160a01b03166102b6565b61024a61048036600461259b565b612004565b61024a61049336600461259b565b612082565b60007f945b8148000000000000000000000000000000000000000000000000000000007fffffffff000000000000000000000000000000000000000000000000000000008316148061052b57507fe6d7a83a000000000000000000000000000000000000000000000000000000007fffffffff000000000000000000000000000000000000000000000000000000008316145b8061057757507fffffffff0000000000000000000000000000000000000000000000000000000082167f3f6c68ec00000000000000000000000000000000000000000000000000000000145b806105c357507fffffffff0000000000000000000000000000000000000000000000000000000082167f01ffc9a700000000000000000000000000000000000000000000000000000000145b92915050565b6001600160a01b0380831660009081526005602090815260408083203384529091529020546060918491610100900416610636576040517f3c61b94d0000000000000000000000000000000000000000000000000000000081523360048201526024015b60405180910390fd5b6002546040517fc23697a800000000000000000000000000000000000000000000000000000000815233600482018190529160009182916001600160a01b03169063c23697a8906024016040805180830381865afa15801561069c573d6000803e3d6000fd5b505050506040513d601f19601f820116820180604052508101906106c09190612846565b915091508167ffffffffffffffff16600014806106e6575067ffffffffffffffff811615155b15610740576040517f674342130000000000000000000000000000000000000000000000000000000081526001600160a01b038416600482015267ffffffffffffffff80841660248301528216604482015260640161062d565b6001600160a01b03808816600090815260036020526040902054889116801580159060609061081a57604080513360208083019190915282518083039091018152818301928390527f176ae7b7000000000000000000000000000000000000000000000000000000009092526001600160a01b0385169163176ae7b7916107d0918f918f9160019160440161295d565b6000604051808303816000875af11580156107ef573d6000803e3d6000fd5b505050506040513d6000823e601f3d908101601f191682016040526108179190810190612a94565b90505b6108248a80612ac9565b905067ffffffffffffffff81111561083e5761083e6125b8565b60405190808252806020026020018201604052801561087157816020015b606081526020019060019003908161085c5790505b50985060006108808b80612ac9565b9050905060005b81811015610ab3573661089a8d80612ac9565b838181106108aa576108aa612b1a565b90506020028101906108bc9190612b49565b9050306108cc602083018361259b565b6001600160a01b0316148061092d57506001600160a01b0387166108f3602083018361259b565b6001600160a01b031614801561092d57506001600160a01b038716600090815260056020908152604080832033845290915290205460ff16155b1561098057604080517fe37e72ed0000000000000000000000000000000000000000000000000000000081526001600160a01b0389166004820152908e013560248201526044810183905260640161062d565b6000808f6001600160a01b0316635229073f8460000160208101906109a5919061259b565b60208601356109b76040880188612b87565b60006040518663ffffffff1660e01b81526004016109d9959493929190612bce565b6000604051808303816000875af11580156109f8573d6000803e3d6000fd5b505050506040513d6000823e601f3d908101601f19168201604052610a209190810190612c0c565b9150915081610a8157888f60400135856040517f65cba8d400000000000000000000000000000000000000000000000000000000815260040161062d939291906001600160a01b039390931683526020830191909152604082015260600190565b808e8581518110610a9457610a94612b1a565b602002602001018190525050505080610aac90612c82565b9050610887565b508215610b37576040517ff44d4ca30000000000000000000000000000000000000000000000000000000081526001600160a01b0385169063f44d4ca390610b04908f906001908790600401612cba565b600060405180830381600087803b158015610b1e57600080fd5b505af1158015610b32573d6000803e3d6000fd5b505050505b60408051818d013581526020808e0135908201526001600160a01b038716917fedcb3ca706897f189363c9f878c558b9b366bd39ce4727d8b9bfcef113be05df910160405180910390a250505050505050505092915050565b816001600160a01b0381161580610bb057506001600160a01b0381166001145b15610bf2576040517fc467af060000000000000000000000000000000000000000000000000000000081526001600160a01b038216600482015260240161062d565b6002546040517fc23697a80000000000000000000000000000000000000000000000000000000081526001600160a01b038086166004830152859260009283929091169063c23697a8906024016040805180830381865afa158015610c5b573d6000803e3d6000fd5b505050506040513d601f19601f82011682018060405250810190610c7f9190612846565b915091508167ffffffffffffffff1660001480610ca5575067ffffffffffffffff811615155b15610cff576040517f674342130000000000000000000000000000000000000000000000000000000081526001600160a01b038416600482015267ffffffffffffffff80841660248301528216604482015260640161062d565b336000908152600560209081526040808320600184529091528082206001600160a01b03898116845291909220805490916101009091041615610d7f576040517f0ed7370f0000000000000000000000000000000000000000000000000000000081523360048201526001600160a01b038916602482015260440161062d565b6000886001600160a01b031663be193d276040518163ffffffff1660e01b8152600401602060405180830381865afa158015610dbf573d6000803e3d6000fd5b505050506040513d601f19601f82011682018060405250810190610de39190612ce4565b905080151588151514610e3d576040517fbabe9a080000000000000000000000000000000000000000000000000000000081526001600160a01b038a1660048201528115156024820152881515604482015260640161062d565b825461010090046001600160a01b0316610e7c5782547fffffffffffffffffffffff000000000000000000000000000000000000000000166101001783555b825482547fffffffffffffffffffffff00000000000000000000000000000000000000000016610100918290046001600160a01b03908116830260ff1916919091178a1515908117855585547fffffffffffffffffffffff0000000000000000000000000000000000000000ff16918c1692830291909117855560405190815233907f6fe311c6a5f7f07524a87fff8a70bd70282e82364ec5bb98c8b1bf91518a4ad89060200160405180910390a3505050505050505050565b6001600160a01b0380831660009081526005602090815260408083203384529091529020546060918491610100900416610f9e576040517f3c61b94d00000000000000000000000000000000000000000000000000000000815233600482015260240161062d565b6002546040517fc23697a800000000000000000000000000000000000000000000000000000000815233600482018190529160009182916001600160a01b03169063c23697a8906024016040805180830381865afa158015611004573d6000803e3d6000fd5b505050506040513d601f19601f820116820180604052508101906110289190612846565b915091508167ffffffffffffffff166000148061104e575067ffffffffffffffff811615155b156110a8576040517f674342130000000000000000000000000000000000000000000000000000000081526001600160a01b038416600482015267ffffffffffffffff80841660248301528216604482015260640161062d565b366110b38780612b49565b6001600160a01b03808a16600090815260036020526040902054919250899116801580159060609061117a57604080513360208201526001600160a01b03851691637359b742918f918f91600191016040516020818303038152906040526040518563ffffffff1660e01b81526004016111309493929190612d01565b6000604051808303816000875af115801561114f573d6000803e3d6000fd5b505050506040513d6000823e601f3d908101601f191682016040526111779190810190612a94565b90505b336001600160a01b031663be193d276040518163ffffffff1660e01b8152600401602060405180830381865afa1580156111b8573d6000803e3d6000fd5b505050506040513d601f19601f820116820180604052508101906111dc9190612ce4565b158061120c57506001600160a01b038416600090815260056020908152604080832033845290915290205460ff16155b15611245576040517f497ede4900000000000000000000000000000000000000000000000000000000815233600482015260240161062d565b60006001600160a01b038d16635229073f611263602089018961259b565b602089013561127560408b018b612b87565b60016040518663ffffffff1660e01b8152600401611297959493929190612bce565b6000604051808303816000875af11580156112b6573d6000803e3d6000fd5b505050506040513d6000823e601f3d908101601f191682016040526112de9190810190612c0c565b9b509050821561134b57836001600160a01b031663f44d4ca38e83856040518463ffffffff1660e01b815260040161131893929190612cba565b600060405180830381600087803b15801561133257600080fd5b505af1158015611346573d6000803e3d6000fd5b505050505b801561139d57846001600160a01b03167f3afb8eada8f22d02ff94fbd523237fb70aa7e6b51ab68cbbe94a055de96479af8d6040013560405161139091815260200190565b60405180910390a26113e4565b604080517f82cc9f490000000000000000000000000000000000000000000000000000000081526001600160a01b0387166004820152908d0135602482015260440161062d565b5050505050505050505092915050565b6060600083600003611432576040517f6731d75200000000000000000000000000000000000000000000000000000000815260040160405180910390fd5b6001600160a01b0385166001148061144f575061144f8386611d1e565b611490576040517fc467af060000000000000000000000000000000000000000000000000000000081526001600160a01b038616600482015260240161062d565b8367ffffffffffffffff8111156114a9576114a96125b8565b6040519080825280602002602001820160405280156114d2578160200160208202803683370190505b506001600160a01b0380851660009081526005602090815260408083208a851684529091528120549294506101009092041691505b6001600160a01b0382161580159061152957506001600160a01b038216600114155b801561153457508481105b156115a0578183828151811061154c5761154c612b1a565b6001600160a01b03928316602091820292909201810191909152858216600090815260058252604080822095841682529490915292909220546101009004909116908061159881612c82565b915050611507565b806000036115ad57600191505b6001600160a01b0382166001148015906115c657508015155b156115f257826115d7600183612d6d565b815181106115e7576115e7612b1a565b602002602001015191505b80835250935093915050565b61160661223b565b61161060006122af565b565b3360009081526003602090815260408083205460048352818420805473ffffffffffffffffffffffffffffffffffffffff19166001600160a01b03929092169182179055905190918391611670918a918a918a918a918a9101612daf565b60408051601f1981840301815291905290506001600160a01b0382166116a1578080519060200120925050506118d7565b60008560018111156116b5576116b5612d80565b036117fc57604080516001808252818301909252600091816020015b604080516060808201835260008083526020830152918101919091528152602001906001900390816116d157905050905060405180606001604052808a6001600160a01b03168152602001898152602001888152508160008151811061173957611739612b1a565b60209081029190910181019190915260408051606081018252838152600092810183905280820183905290517f176ae7b700000000000000000000000000000000000000000000000000000000815290916001600160a01b0386169163176ae7b7916117ad91339186918990600401612e5c565b6000604051808303816000875af11580156117cc573d6000803e3d6000fd5b505050506040513d6000823e601f3d908101601f191682016040526117f49190810190612a94565b5050506118cb565b60408051606080820183526001600160a01b03808c16835260208084018c90528385018b905284519283018552838352600090830181905282850181905293517f7359b7420000000000000000000000000000000000000000000000000000000081529293919290861691637359b742916118809133918691908990600401612efe565b6000604051808303816000875af115801561189f573d6000803e3d6000fd5b505050506040513d6000823e601f3d908101601f191682016040526118c79190810190612a94565b5050505b80516020909101209150505b95945050505050565b336000908152600360209081526040808320546004909252909120805473ffffffffffffffffffffffffffffffffffffffff19166001600160a01b03929092169182179055806119305750611b8f565b60008c8c8c8b8b8b8b8b8b8b6040516020016119559a99989796959493929190612f57565b60408051601f19818403018152919052905060008a600181111561197b5761197b612d80565b03611ac257604080516001808252818301909252600091816020015b6040805160608082018352600080835260208301529181019190915281526020019060019003908161199757905050905060405180606001604052808f6001600160a01b031681526020018e81526020018d815250816000815181106119ff576119ff612b1a565b60209081029190910181019190915260408051606081018252838152600092810183905280820183905290517f176ae7b700000000000000000000000000000000000000000000000000000000815290916001600160a01b0386169163176ae7b791611a7391339186918990600401612e5c565b6000604051808303816000875af1158015611a92573d6000803e3d6000fd5b505050506040513d6000823e601f3d908101601f19168201604052611aba9190810190612a94565b505050611b8c565b600060405180606001604052808f6001600160a01b031681526020018e81526020018d8152509050600060405180606001604052808381526020016000815260200160008019168152509050836001600160a01b0316637359b74233836000876040518563ffffffff1660e01b8152600401611b419493929190612efe565b6000604051808303816000875af1158015611b60573d6000803e3d6000fd5b505050506040513d6000823e601f3d908101601f19168201604052611b889190810190612a94565b5050505b50505b5050505050505050505050565b60015433906001600160a01b03168114611c38576040517f08c379a000000000000000000000000000000000000000000000000000000000815260206004820152602960248201527f4f776e61626c6532537465703a2063616c6c6572206973206e6f74207468652060448201527f6e6577206f776e65720000000000000000000000000000000000000000000000606482015260840161062d565b611c41816122af565b50565b336000908152600460205260409020546001600160a01b031680611c6757505050565b6040517ff44d4ca3000000000000000000000000000000000000000000000000000000008152336004820152821515602482015260606044820152600060648201526001600160a01b0382169063f44d4ca390608401600060405180830381600087803b158015611cd757600080fd5b505af1158015611ceb573d6000803e3d6000fd5b5050336000908152600460205260409020805473ffffffffffffffffffffffffffffffffffffffff191690555050505050565b600060016001600160a01b03831614801590611d6557506001600160a01b038381166000908152600560209081526040808320868516845290915290205461010090041615155b9392505050565b611d7461223b565b6040517f01ffc9a70000000000000000000000000000000000000000000000000000000081527fc23697a80000000000000000000000000000000000000000000000000000000060048201526001600160a01b038216906301ffc9a790602401602060405180830381865afa158015611df1573d6000803e3d6000fd5b505050506040513d601f19601f82011682018060405250810190611e159190612ce4565b611e56576040517fbaf377c10000000000000000000000000000000000000000000000000000000081526001600160a01b038216600482015260240161062d565b6002546040516001600160a01b038084169216907f4803049971913703d2dd43c06110dc7fad451e4603e9f485cbeebdda11263ab090600090a36002805473ffffffffffffffffffffffffffffffffffffffff19166001600160a01b0392909216919091179055565b806001600160a01b0381161580611edf57506001600160a01b0381166001145b15611f21576040517fc467af060000000000000000000000000000000000000000000000000000000081526001600160a01b038216600482015260240161062d565b3360009081526005602090815260408083206001600160a01b038781168552925280832085831680855291909320835490926101009091041614611f9c576040517f9d9207af0000000000000000000000000000000000000000000000000000000081526001600160a01b038616600482015260240161062d565b80547fffffffffffffffffffffff00000000000000000000000000000000000000000016815560405190915081906001600160a01b0385169033907ffef2a54f476dede8e8f6ff5138b92d021b5e287e276e6e84ecbd7d18aed2262790600090a35050505050565b61200c61223b565b600180546001600160a01b03831673ffffffffffffffffffffffffffffffffffffffff19909116811790915561204a6000546001600160a01b031690565b6001600160a01b03167f38d16b8cac22d99fc7c124b9cd0de2d3fa1faef420bfe791d8c362d765e2270060405160405180910390a350565b6001600160a01b0381161580159061213857506040517f01ffc9a70000000000000000000000000000000000000000000000000000000081527f907e1c560000000000000000000000000000000000000000000000000000000060048201526001600160a01b038216906301ffc9a790602401602060405180830381865afa158015612112573d6000803e3d6000fd5b505050506040513d601f19601f820116820180604052508101906121369190612ce4565b155b1561217a576040517fd671fb660000000000000000000000000000000000000000000000000000000081526001600160a01b038216600482015260240161062d565b33600081815260036020526040808220805473ffffffffffffffffffffffffffffffffffffffff19166001600160a01b03861690811790915590519092917f4bdb0c6d693920823a574df92b20cb20886d27ac1e4e522e48f2e57bb668423b91a350565b600080546001600160a01b0383811673ffffffffffffffffffffffffffffffffffffffff19831681178455604051919092169283917f8be0079c531659141344cd1fd0a4f28419497f9722a3daafe3b4186f6b6457e09190a35050565b6000546001600160a01b03163314611610576040517f08c379a000000000000000000000000000000000000000000000000000000000815260206004820181905260248201527f4f776e61626c653a2063616c6c6572206973206e6f7420746865206f776e6572604482015260640161062d565b6001805473ffffffffffffffffffffffffffffffffffffffff19169055611c41816121de565b6000602082840312156122e757600080fd5b81357fffffffff0000000000000000000000000000000000000000000000000000000081168114611d6557600080fd5b6001600160a01b0381168114611c4157600080fd5b60006060828403121561233e57600080fd5b50919050565b6000806040838503121561235757600080fd5b823561236281612317565b9150602083013567ffffffffffffffff81111561237e57600080fd5b61238a8582860161232c565b9150509250929050565b60005b838110156123af578181015183820152602001612397565b50506000910152565b600081518084526123d0816020860160208601612394565b601f01601f19169290920160200192915050565b6000602080830181845280855180835260408601915060408160051b870101925083870160005b82811015612457577fffffffffffffffffffffffffffffffffffffffffffffffffffffffffffffffc08886030184526124458583516123b8565b9450928501929085019060010161240b565b5092979650505050505050565b803561246f81612317565b919050565b6000806040838503121561248757600080fd5b823561249281612317565b915060208301356124a281612317565b809150509250929050565b8015158114611c4157600080fd5b600080604083850312156124ce57600080fd5b82356124d981612317565b915060208301356124a2816124ad565b602081526000611d6560208301846123b8565b60008060006060848603121561251157600080fd5b833561251c81612317565b925060208401359150604084013561253381612317565b809150509250925092565b604080825283519082018190526000906020906060840190828701845b828110156125805781516001600160a01b03168452928401929084019060010161255b565b5050506001600160a01b039490941692019190915250919050565b6000602082840312156125ad57600080fd5b8135611d6581612317565b7f4e487b7100000000000000000000000000000000000000000000000000000000600052604160045260246000fd5b604051601f8201601f1916810167ffffffffffffffff81118282101715612610576126106125b8565b604052919050565b600067ffffffffffffffff821115612632576126326125b8565b50601f01601f191660200190565b600082601f83011261265157600080fd5b813561266461265f82612618565b6125e7565b81815284602083860101111561267957600080fd5b816020850160208301376000918101602001919091529392505050565b80356002811061246f57600080fd5b600080600080600060a086880312156126bd57600080fd5b85356126c881612317565b945060208601359350604086013567ffffffffffffffff8111156126eb57600080fd5b6126f788828901612640565b93505061270660608701612696565b9150608086013561271681612317565b809150509295509295909350565b60008060008060008060008060008060006101608c8e03121561274657600080fd5b61274f8c612464565b9a5060208c0135995067ffffffffffffffff8060408e0135111561277257600080fd5b6127828e60408f01358f01612640565b995061279060608e01612696565b985060808d0135975060a08d0135965060c08d013595506127b360e08e01612464565b94506127c26101008e01612464565b9350806101208e013511156127d657600080fd5b506127e88d6101208e01358e01612640565b91506127f76101408d01612464565b90509295989b509295989b9093969950565b6000806040838503121561281c57600080fd5b8235915060208301356124a2816124ad565b805167ffffffffffffffff8116811461246f57600080fd5b6000806040838503121561285957600080fd5b6128628361282e565b91506128706020840161282e565b90509250929050565b818352818160208501375060006020828401015260006020601f19601f840116840101905092915050565b600081356128b181612317565b6001600160a01b038116845250602082013560208401526040820135601e198336030181126128df57600080fd5b820160208101903567ffffffffffffffff8111156128fc57600080fd5b80360382131561290b57600080fd5b606060408601526118d7606086018284612879565b600082357fffffffffffffffffffffffffffffffffffffffffffffffffffffffffffffffa183360301811261295457600080fd5b90910192915050565b6001600160a01b03851681526000602060808184015260e083018635601e1988360301811261298b57600080fd5b8701828101903567ffffffffffffffff8111156129a757600080fd5b8060051b8036038313156129ba57600080fd5b60606080880152928190526101009286018301928290870160005b83811015612a0b5760ff198987030182526129f9866129f48588612920565b6128a4565b955091860191908601906001016129d5565b50505050508187013560a0850152604087013560c08501528560408501528381036060850152612a3b81866123b8565b98975050505050505050565b600082601f830112612a5857600080fd5b8151612a6661265f82612618565b818152846020838601011115612a7b57600080fd5b612a8c826020830160208701612394565b949350505050565b600060208284031215612aa657600080fd5b815167ffffffffffffffff811115612abd57600080fd5b612a8c84828501612a47565b6000808335601e19843603018112612ae057600080fd5b83018035915067ffffffffffffffff821115612afb57600080fd5b6020019150600581901b3603821315612b1357600080fd5b9250929050565b7f4e487b7100000000000000000000000000000000000000000000000000000000600052603260045260246000fd5b600082357fffffffffffffffffffffffffffffffffffffffffffffffffffffffffffffffa1833603018112612b7d57600080fd5b9190910192915050565b6000808335601e19843603018112612b9e57600080fd5b83018035915067ffffffffffffffff821115612bb957600080fd5b602001915036819003821315612b1357600080fd5b6001600160a01b0386168152846020820152608060408201526000612bf7608083018587612879565b905060ff831660608301529695505050505050565b60008060408385031215612c1f57600080fd5b8251612c2a816124ad565b602084015190925067ffffffffffffffff811115612c4757600080fd5b61238a85828601612a47565b7f4e487b7100000000000000000000000000000000000000000000000000000000600052601160045260246000fd5b60007fffffffffffffffffffffffffffffffffffffffffffffffffffffffffffffffff8203612cb357612cb3612c53565b5060010190565b6001600160a01b038416815282151560208201526060604082015260006118d760608301846123b8565b600060208284031215612cf657600080fd5b8151611d65816124ad565b6001600160a01b0385168152608060208201526000612d208586612920565b60606080840152612d3460e08401826128a4565b9050602086013560a0840152604086013560c08401528460408401528281036060840152612d6281856123b8565b979650505050505050565b818103818111156105c3576105c3612c53565b7f4e487b7100000000000000000000000000000000000000000000000000000000600052602160045260246000fd5b60006001600160a01b03808816835286602084015260a06040840152612dd860a08401876123b8565b915060028510612e11577f4e487b7100000000000000000000000000000000000000000000000000000000600052602160045260246000fd5b8460608401528084166080840152509695505050505050565b6001600160a01b038151168252602081015160208301526000604082015160606040850152612a8c60608501826123b8565b6001600160a01b03851681526000602060808184015260e0830186516060608086015281815180845261010093508387019150838160051b8801019350848301925060005b81811015612ecf5760ff19888603018352612ebd858551612e2a565b94509285019291850191600101612ea1565b505050508187015160a0850152604087015160c08501528560408501528381036060850152612a3b81866123b8565b6001600160a01b0385168152608060208201526000845160606080840152612f2960e0840182612e2a565b9050602086015160a0840152604086015160c08401528460408401528281036060840152612d6281856123b8565b60006101406001600160a01b03808e1684528c6020850152816040850152612f818285018d6123b8565b91508a60608501528960808501528860a085015280881660c085015280871660e0850152838203610100850152612fb882876123b8565b925080851661012085015250509b9a505050505050505050505056fea264697066735822122047a99b103f66e2f081eadab5e7539db9d1e58ea68717f003cc53c921f409ea9264736f6c63430008120033",
    "linkReferences": {}
  },
  "methodIdentifiers": {
    "acceptOwnership()": "79ba5097",
    "checkAfterExecution(bytes32,bool)": "93271368",
    "checkModuleTransaction(address,uint256,bytes,uint8,address)": "728c2972",
    "checkTransaction(address,uint256,bytes,uint8,uint256,uint256,uint256,address,address,bytes,address)": "75f0bb52",
    "disablePlugin(address,address)": "df5236e1",
    "enablePlugin(address,bool)": "250db3c0",
    "enabledHooks(address)": "80479c34",
    "enabledPlugins(address,address)": "1f026c91",
    "executeRootAccess(address,((address,uint256,bytes),uint256,bytes32))": "30f571f9",
    "executeTransaction(address,((address,uint256,bytes)[],uint256,bytes32))": "0f991915",
    "getEnabledHooks(address)": "c703895c",
    "getPluginInfo(address,address)": "d3ac5669",
    "getPluginsPaginated(address,uint256,address)": "3550b344",
    "isPluginEnabled(address,address)": "a0673f5c",
    "owner()": "8da5cb5b",
    "pendingOwner()": "e30c3978",
    "registry()": "7b103999",
    "renounceOwnership()": "715018a6",
    "setHooks(address)": "fb63daa1",
    "setRegistry(address)": "a91ee0dc",
    "supportsInterface(bytes4)": "01ffc9a7",
    "tempHooksAddress(address)": "58823f6d",
    "transferOwnership(address)": "f2fde38b"
  },
  "id": 39
}