{
  "abi": [
    {
      "inputs": [],
      "name": "PROOF_VERIFICATION_FAILED",
      "type": "error"
    },
    {
      "inputs": [
        {
          "internalType": "bytes",
          "name": "reason",
          "type": "bytes"
        }
      ],
      "name": "RECOVER_FAILED",
      "type": "error"
    },
    {
      "anonymous": false,
      "inputs": [
        {
          "indexed": false,
          "internalType": "address",
          "name": "previousAdmin",
          "type": "address"
        },
        {
          "indexed": false,
          "internalType": "address",
          "name": "newAdmin",
          "type": "address"
        }
      ],
      "name": "AdminChanged",
      "type": "event"
    },
    {
      "anonymous": false,
      "inputs": [
        {
          "indexed": true,
          "internalType": "address",
          "name": "beacon",
          "type": "address"
        }
      ],
      "name": "BeaconUpgraded",
      "type": "event"
    },
    {
      "anonymous": false,
      "inputs": [
        {
          "indexed": false,
          "internalType": "uint8",
          "name": "version",
          "type": "uint8"
        }
      ],
      "name": "Initialized",
      "type": "event"
    },
    {
      "anonymous": false,
      "inputs": [
        {
          "indexed": true,
          "internalType": "bytes32",
          "name": "metadataHash",
          "type": "bytes32"
        },
        {
          "indexed": false,
          "internalType": "bytes",
          "name": "data",
          "type": "bytes"
        }
      ],
      "name": "Metadata",
      "type": "event"
    },
    {
      "anonymous": false,
      "inputs": [
        {
          "indexed": true,
          "internalType": "address",
          "name": "implementation",
          "type": "address"
        }
      ],
      "name": "Upgraded",
      "type": "event"
    },
    {
      "inputs": [],
      "name": "MIN_TIMELOCK",
      "outputs": [
        {
          "internalType": "uint256",
          "name": "",
          "type": "uint256"
        }
      ],
      "stateMutability": "view",
      "type": "function"
    },
    {
      "inputs": [
        {
          "internalType": "bytes",
          "name": "_webAuthnInputs",
          "type": "bytes"
        }
      ],
      "name": "_computeMessage",
      "outputs": [
        {
          "internalType": "bytes32",
          "name": "",
          "type": "bytes32"
        }
      ],
      "stateMutability": "pure",
      "type": "function"
    },
    {
      "inputs": [
        {
          "internalType": "bytes32",
          "name": "value",
          "type": "bytes32"
        }
      ],
      "name": "_convertBytes32ToBytes32Array",
      "outputs": [
        {
          "internalType": "bytes32[32]",
          "name": "",
          "type": "bytes32[32]"
        }
      ],
      "stateMutability": "pure",
      "type": "function"
    },
    {
      "inputs": [
        {
          "internalType": "uint256",
          "name": "_recoveryTimeLock",
          "type": "uint256"
        },
        {
          "internalType": "bytes32",
          "name": "_hashed_address",
          "type": "bytes32"
        }
      ],
      "name": "addEcrecoverRecover",
      "outputs": [],
      "stateMutability": "nonpayable",
      "type": "function"
    },
    {
      "inputs": [
        {
          "internalType": "uint256",
          "name": "_recoveryTimeLock",
          "type": "uint256"
        },
        {
          "internalType": "bytes32",
          "name": "_hashed_secret",
          "type": "bytes32"
        }
      ],
      "name": "addSecretRecover",
      "outputs": [],
      "stateMutability": "nonpayable",
      "type": "function"
    },
    {
      "inputs": [
        {
          "internalType": "uint256",
          "name": "_recoveryTimeLock",
          "type": "uint256"
        },
        {
          "internalType": "uint256",
          "name": "_approvalThreshold",
          "type": "uint256"
        },
        {
          "internalType": "bytes32",
          "name": "_guardiansRoot",
          "type": "bytes32"
        }
      ],
      "name": "addSocialRecover",
      "outputs": [],
      "stateMutability": "nonpayable",
      "type": "function"
    },
    {
      "inputs": [
        {
          "internalType": "uint256",
          "name": "_recoveryTimeLock",
          "type": "uint256"
        },
        {
          "internalType": "bytes32",
          "name": "_pubkey_x",
          "type": "bytes32"
        },
        {
          "internalType": "bytes32",
          "name": "_pubkey_y",
          "type": "bytes32"
        },
        {
          "internalType": "string",
          "name": "_credentialId",
          "type": "string"
        }
      ],
      "name": "addWebAuthnRecover",
      "outputs": [],
      "stateMutability": "nonpayable",
      "type": "function"
    },
    {
      "inputs": [],
      "name": "approvalThreshold",
      "outputs": [
        {
          "internalType": "uint256",
          "name": "",
          "type": "uint256"
        }
      ],
      "stateMutability": "view",
      "type": "function"
    },
    {
      "inputs": [
        {
          "internalType": "uint256",
          "name": "_proposalId",
          "type": "uint256"
        },
        {
          "internalType": "bytes",
          "name": "_proof",
          "type": "bytes"
        },
        {
          "internalType": "bytes32",
          "name": "nullifierHash",
          "type": "bytes32"
        },
        {
          "internalType": "bytes32[]",
          "name": "_message",
          "type": "bytes32[]"
        }
      ],
      "name": "approveSocialRecovery",
      "outputs": [
        {
          "internalType": "uint256",
          "name": "",
          "type": "uint256"
        }
      ],
      "stateMutability": "nonpayable",
      "type": "function"
    },
    {
      "inputs": [],
      "name": "credentialId",
      "outputs": [
        {
          "internalType": "string",
          "name": "",
          "type": "string"
        }
      ],
      "stateMutability": "view",
      "type": "function"
    },
    {
      "inputs": [],
      "name": "ecrecoverVerifier",
      "outputs": [
        {
          "internalType": "address",
          "name": "",
          "type": "address"
        }
      ],
      "stateMutability": "view",
      "type": "function"
    },
    {
      "inputs": [
        {
          "internalType": "uint256",
          "name": "_proposalId",
          "type": "uint256"
        }
      ],
      "name": "execRecovery",
      "outputs": [
        {
          "internalType": "bool",
          "name": "",
          "type": "bool"
        }
      ],
      "stateMutability": "nonpayable",
      "type": "function"
    },
    {
      "inputs": [
        {
          "internalType": "uint256",
          "name": "_proposalId",
          "type": "uint256"
        }
      ],
      "name": "getIsRecoveryExecutable",
      "outputs": [
        {
          "internalType": "bool",
          "name": "",
          "type": "bool"
        }
      ],
      "stateMutability": "view",
      "type": "function"
    },
    {
      "inputs": [
        {
          "internalType": "uint256",
          "name": "_proposalId",
          "type": "uint256"
        }
      ],
      "name": "getPendingNewOwners",
      "outputs": [
        {
          "internalType": "address[]",
          "name": "",
          "type": "address[]"
        }
      ],
      "stateMutability": "view",
      "type": "function"
    },
    {
      "inputs": [],
      "name": "getPubkeyXY",
      "outputs": [
        {
          "internalType": "bytes32",
          "name": "",
          "type": "bytes32"
        },
        {
          "internalType": "bytes32",
          "name": "",
          "type": "bytes32"
        }
      ],
      "stateMutability": "view",
      "type": "function"
    },
    {
      "inputs": [
        {
          "internalType": "uint256",
          "name": "_proposalId",
          "type": "uint256"
        }
      ],
      "name": "getRecoveryByProposalId",
      "outputs": [
        {
          "internalType": "uint8",
          "name": "",
          "type": "uint8"
        },
        {
          "internalType": "address[]",
          "name": "",
          "type": "address[]"
        },
        {
          "internalType": "address[]",
          "name": "",
          "type": "address[]"
        },
        {
          "internalType": "uint256",
          "name": "",
          "type": "uint256"
        },
        {
          "internalType": "uint256",
          "name": "",
          "type": "uint256"
        },
        {
          "internalType": "uint256",
          "name": "",
          "type": "uint256"
        },
        {
          "internalType": "enum ProposalStatus",
          "name": "",
          "type": "uint8"
        },
        {
          "internalType": "uint256",
          "name": "",
          "type": "uint256"
        }
      ],
      "stateMutability": "view",
      "type": "function"
    },
    {
      "inputs": [],
      "name": "guardiansRoot",
      "outputs": [
        {
          "internalType": "bytes32",
          "name": "",
          "type": "bytes32"
        }
      ],
      "stateMutability": "view",
      "type": "function"
    },
    {
      "inputs": [],
      "name": "hashed_address",
      "outputs": [
        {
          "internalType": "bytes32",
          "name": "",
          "type": "bytes32"
        }
      ],
      "stateMutability": "view",
      "type": "function"
    },
    {
      "inputs": [],
      "name": "hashed_secret",
      "outputs": [
        {
          "internalType": "bytes32",
          "name": "",
          "type": "bytes32"
        }
      ],
      "stateMutability": "view",
      "type": "function"
    },
    {
      "inputs": [
        {
          "internalType": "address",
          "name": "_safe",
          "type": "address"
        },
        {
          "internalType": "address",
          "name": "_safeProtocolManager",
          "type": "address"
        },
        {
          "internalType": "address",
          "name": "_ecrecoverVerifier",
          "type": "address"
        },
        {
          "internalType": "address",
          "name": "_webAuthnVerifier",
          "type": "address"
        },
        {
          "internalType": "address",
          "name": "_secretVerifier",
          "type": "address"
        },
        {
          "internalType": "address",
          "name": "_socialRecoverVerifier",
          "type": "address"
        }
      ],
      "name": "initialize",
      "outputs": [],
      "stateMutability": "nonpayable",
      "type": "function"
    },
    {
      "inputs": [],
      "name": "isEcrecoverRecoverEnabled",
      "outputs": [
        {
          "internalType": "bool",
          "name": "",
          "type": "bool"
        }
      ],
      "stateMutability": "view",
      "type": "function"
    },
    {
      "inputs": [],
      "name": "isSecretRecoverEnabled",
      "outputs": [
        {
          "internalType": "bool",
          "name": "",
          "type": "bool"
        }
      ],
      "stateMutability": "view",
      "type": "function"
    },
    {
      "inputs": [],
      "name": "isSocialRecoverEnabled",
      "outputs": [
        {
          "internalType": "bool",
          "name": "",
          "type": "bool"
        }
      ],
      "stateMutability": "view",
      "type": "function"
    },
    {
      "inputs": [],
      "name": "isWebAuthnRecoverEnabled",
      "outputs": [
        {
          "internalType": "bool",
          "name": "",
          "type": "bool"
        }
      ],
      "stateMutability": "view",
      "type": "function"
    },
    {
      "inputs": [],
      "name": "lastExecutionTimestamp",
      "outputs": [
        {
          "internalType": "uint256",
          "name": "",
          "type": "uint256"
        }
      ],
      "stateMutability": "view",
      "type": "function"
    },
    {
      "inputs": [],
      "name": "metadataHash",
      "outputs": [
        {
          "internalType": "bytes32",
          "name": "",
          "type": "bytes32"
        }
      ],
      "stateMutability": "view",
      "type": "function"
    },
    {
      "inputs": [],
      "name": "metadataProvider",
      "outputs": [
        {
          "internalType": "uint256",
          "name": "providerType",
          "type": "uint256"
        },
        {
          "internalType": "bytes",
          "name": "location",
          "type": "bytes"
        }
      ],
      "stateMutability": "view",
      "type": "function"
    },
    {
      "inputs": [],
      "name": "name",
      "outputs": [
        {
          "internalType": "string",
          "name": "",
          "type": "string"
        }
      ],
      "stateMutability": "view",
      "type": "function"
    },
    {
      "inputs": [
        {
          "internalType": "address[]",
          "name": "_oldAddresses",
          "type": "address[]"
        },
        {
          "internalType": "address[]",
          "name": "_newAddresses",
          "type": "address[]"
        },
        {
          "internalType": "uint256",
          "name": "_newThreshold",
          "type": "uint256"
        },
        {
          "internalType": "bytes",
          "name": "_proof",
          "type": "bytes"
        },
        {
          "internalType": "bytes32[]",
          "name": "_message",
          "type": "bytes32[]"
        }
      ],
      "name": "proposeEcrecoverRecover",
      "outputs": [
        {
          "internalType": "uint256",
          "name": "",
          "type": "uint256"
        },
        {
          "internalType": "uint256",
          "name": "",
          "type": "uint256"
        }
      ],
      "stateMutability": "nonpayable",
      "type": "function"
    },
    {
      "inputs": [
        {
          "internalType": "address[]",
          "name": "_oldAddresses",
          "type": "address[]"
        },
        {
          "internalType": "address[]",
          "name": "_newAddresses",
          "type": "address[]"
        },
        {
          "internalType": "uint256",
          "name": "_newThreshold",
          "type": "uint256"
        },
        {
          "internalType": "bytes",
          "name": "_proof",
          "type": "bytes"
        }
      ],
      "name": "proposeSecretRecover",
      "outputs": [
        {
          "internalType": "uint256",
          "name": "",
          "type": "uint256"
        },
        {
          "internalType": "uint256",
          "name": "",
          "type": "uint256"
        }
      ],
      "stateMutability": "nonpayable",
      "type": "function"
    },
    {
      "inputs": [
        {
          "internalType": "address[]",
          "name": "_oldAddresses",
          "type": "address[]"
        },
        {
          "internalType": "address[]",
          "name": "_newAddresses",
          "type": "address[]"
        },
        {
          "internalType": "uint256",
          "name": "_newThreshold",
          "type": "uint256"
        },
        {
          "internalType": "bytes",
          "name": "_proof",
          "type": "bytes"
        },
        {
          "internalType": "bytes32",
          "name": "_nullifierHash",
          "type": "bytes32"
        },
        {
          "internalType": "bytes32[]",
          "name": "_message",
          "type": "bytes32[]"
        }
      ],
      "name": "proposeSocialRecover",
      "outputs": [
        {
          "internalType": "uint256",
          "name": "",
          "type": "uint256"
        },
        {
          "internalType": "uint256",
          "name": "",
          "type": "uint256"
        }
      ],
      "stateMutability": "nonpayable",
      "type": "function"
    },
    {
      "inputs": [
        {
          "internalType": "address[]",
          "name": "_oldAddresses",
          "type": "address[]"
        },
        {
          "internalType": "address[]",
          "name": "_newAddresses",
          "type": "address[]"
        },
        {
          "internalType": "uint256",
          "name": "_newThreshold",
          "type": "uint256"
        },
        {
          "internalType": "bytes",
          "name": "_proof",
          "type": "bytes"
        },
        {
          "internalType": "bytes",
          "name": "_webAuthnInputs",
          "type": "bytes"
        }
      ],
      "name": "proposeWebAuthnRecover",
      "outputs": [
        {
          "internalType": "uint256",
          "name": "",
          "type": "uint256"
        },
        {
          "internalType": "uint256",
          "name": "",
          "type": "uint256"
        }
      ],
      "stateMutability": "nonpayable",
      "type": "function"
    },
    {
      "inputs": [],
      "name": "proxiableUUID",
      "outputs": [
        {
          "internalType": "bytes32",
          "name": "",
          "type": "bytes32"
        }
      ],
      "stateMutability": "view",
      "type": "function"
    },
    {
      "inputs": [],
      "name": "pubkey_x",
      "outputs": [
        {
          "internalType": "bytes32",
          "name": "",
          "type": "bytes32"
        }
      ],
      "stateMutability": "view",
      "type": "function"
    },
    {
      "inputs": [],
      "name": "pubkey_y",
      "outputs": [
        {
          "internalType": "bytes32",
          "name": "",
          "type": "bytes32"
        }
      ],
      "stateMutability": "view",
      "type": "function"
    },
    {
      "inputs": [
        {
          "internalType": "uint256",
          "name": "",
          "type": "uint256"
        }
      ],
      "name": "recoveries",
      "outputs": [
        {
          "internalType": "uint8",
          "name": "recoveryType",
          "type": "uint8"
        },
        {
          "internalType": "uint256",
          "name": "newThreshold",
          "type": "uint256"
        },
        {
          "internalType": "uint256",
          "name": "proposedTimestamp",
          "type": "uint256"
        },
        {
          "internalType": "uint256",
          "name": "timeLockEnd",
          "type": "uint256"
        },
        {
          "internalType": "enum ProposalStatus",
          "name": "status",
          "type": "uint8"
        },
        {
          "internalType": "uint256",
          "name": "approvalCount",
          "type": "uint256"
        }
      ],
      "stateMutability": "view",
      "type": "function"
    },
    {
      "inputs": [],
      "name": "recoveryCount",
      "outputs": [
        {
          "internalType": "uint256",
          "name": "",
          "type": "uint256"
        }
      ],
      "stateMutability": "view",
      "type": "function"
    },
    {
      "inputs": [
        {
          "internalType": "uint8",
          "name": "",
          "type": "uint8"
        },
        {
          "internalType": "bytes32",
          "name": "",
          "type": "bytes32"
        }
      ],
      "name": "recoveryNullifiers",
      "outputs": [
        {
          "internalType": "bool",
          "name": "",
          "type": "bool"
        }
      ],
      "stateMutability": "view",
      "type": "function"
    },
    {
      "inputs": [],
      "name": "recoveryTimeLock",
      "outputs": [
        {
          "internalType": "uint256",
          "name": "",
          "type": "uint256"
        }
      ],
      "stateMutability": "view",
      "type": "function"
    },
    {
      "inputs": [
        {
          "internalType": "uint256",
          "name": "_proposalId",
          "type": "uint256"
        }
      ],
      "name": "rejectRecovery",
      "outputs": [],
      "stateMutability": "nonpayable",
      "type": "function"
    },
    {
      "inputs": [],
      "name": "removeEcrecoverRecover",
      "outputs": [],
      "stateMutability": "nonpayable",
      "type": "function"
    },
    {
      "inputs": [],
      "name": "removeSecretRecover",
      "outputs": [],
      "stateMutability": "nonpayable",
      "type": "function"
    },
    {
      "inputs": [],
      "name": "removeSocialRecover",
      "outputs": [],
      "stateMutability": "nonpayable",
      "type": "function"
    },
    {
      "inputs": [],
      "name": "removeWebAuthnRecover",
      "outputs": [],
      "stateMutability": "nonpayable",
      "type": "function"
    },
    {
      "inputs": [],
      "name": "requiresPermissions",
      "outputs": [
        {
          "internalType": "uint8",
          "name": "permissions",
          "type": "uint8"
        }
      ],
      "stateMutability": "view",
      "type": "function"
    },
    {
      "inputs": [],
      "name": "requiresRootAccess",
      "outputs": [
        {
          "internalType": "bool",
          "name": "",
          "type": "bool"
        }
      ],
      "stateMutability": "view",
      "type": "function"
    },
    {
      "inputs": [],
      "name": "safe",
      "outputs": [
        {
          "internalType": "address",
          "name": "",
          "type": "address"
        }
      ],
      "stateMutability": "view",
      "type": "function"
    },
    {
      "inputs": [],
      "name": "safeProtocolManager",
      "outputs": [
        {
          "internalType": "contract ISafeProtocolManager",
          "name": "",
          "type": "address"
        }
      ],
      "stateMutability": "view",
      "type": "function"
    },
    {
      "inputs": [],
      "name": "secretVerifier",
      "outputs": [
        {
          "internalType": "address",
          "name": "",
          "type": "address"
        }
      ],
      "stateMutability": "view",
      "type": "function"
    },
    {
      "inputs": [],
      "name": "socialRecoverVerifier",
      "outputs": [
        {
          "internalType": "address",
          "name": "",
          "type": "address"
        }
      ],
      "stateMutability": "view",
      "type": "function"
    },
    {
      "inputs": [
        {
          "internalType": "bytes4",
          "name": "interfaceId",
          "type": "bytes4"
        }
      ],
      "name": "supportsInterface",
      "outputs": [
        {
          "internalType": "bool",
          "name": "",
          "type": "bool"
        }
      ],
      "stateMutability": "view",
      "type": "function"
    },
    {
      "inputs": [
        {
          "internalType": "address",
          "name": "newImplementation",
          "type": "address"
        }
      ],
      "name": "upgradeTo",
      "outputs": [],
      "stateMutability": "nonpayable",
      "type": "function"
    },
    {
      "inputs": [
        {
          "internalType": "address",
          "name": "newImplementation",
          "type": "address"
        },
        {
          "internalType": "bytes",
          "name": "data",
          "type": "bytes"
        }
      ],
      "name": "upgradeToAndCall",
      "outputs": [],
      "stateMutability": "payable",
      "type": "function"
    },
    {
      "inputs": [],
      "name": "version",
      "outputs": [
        {
          "internalType": "string",
          "name": "",
          "type": "string"
        }
      ],
      "stateMutability": "view",
      "type": "function"
    },
    {
      "inputs": [],
      "name": "webAuthnVerifier",
      "outputs": [
        {
          "internalType": "address",
          "name": "",
          "type": "address"
        }
      ],
      "stateMutability": "view",
      "type": "function"
    }
  ],
  "bytecode": {
    "object": "0x60a06040523060805234801561001457600080fd5b506080516154eb61004c600039600081816116ab0152818161174101528181611911015281816119a70152611d4201526154eb6000f3fe6080604052600436106103605760003560e01c80637a04c865116101c6578063cd0a16a8116100f7578063e6e1247e11610095578063ec33ddb71161006f578063ec33ddb714610a0f578063f3d3f54914610a2f578063f5120d6214610a4f578063fb0c754914610a6457600080fd5b8063e6e1247e146109b2578063e6f352c9146109d2578063e8e755b5146109f357600080fd5b8063d3d72d2a116100d1578063d3d72d2a14610920578063d83dfc2614610964578063dada7ca21461097c578063e67953061461099157600080fd5b8063cd0a16a8146108af578063cd0ad3c1146108c5578063cdb447751461090057600080fd5b80638e48234111610164578063b38103401161013e578063b38103401461084a578063be193d271461085f578063c5a1d7f014610879578063cc2a9a5b1461088f57600080fd5b80638e482341146107f55780639a8f18f314610815578063a3c0f0b71461083557600080fd5b80637d0eef61116101a05780637d0eef61146107885780637d9e01411461079e57806383b1a8c1146107be57806387dee39f146107df57600080fd5b80637a04c865146106de5780637b49fa19146107485780637c64dd761461076857600080fd5b80632e56f60d116102a057806352d1902d1161023e57806357a603261161021857806357a603261461065b578063652b098a1461067b578063665caab71461069157806367a277a4146106b157600080fd5b806352d1902d1461061b57806354fd4d50146106305780635695f2921461064557600080fd5b80633659cfe61161027a5780633659cfe6146105865780634969ca3f146105a65780634f1ef286146105d357806351a2f17a146105e657600080fd5b80632e56f60d146105395780633189576714610550578063358d1fc61461057057600080fd5b806317f5705e1161030d57806323a6c20e116102e757806323a6c20e146104ae57806323b26075146104e25780632abcb3d8146105035780632da4e4201461051957600080fd5b806317f5705e1461044e578063186f03541461046e5780632152ab1b1461048e57600080fd5b806306fdde031161033e57806306fdde03146103f65780630ce03f2d146104185780631788430b1461042e57600080fd5b8063010a623c1461036557806301ffc9a71461038e578063024e5d15146103be575b600080fd5b34801561037157600080fd5b5061037b60085481565b6040519081526020015b60405180910390f35b34801561039a57600080fd5b506103ae6103a936600461452b565b610a79565b6040519015158152602001610385565b3480156103ca57600080fd5b50600f546103de906001600160a01b031681565b6040516001600160a01b039091168152602001610385565b34801561040257600080fd5b5061040b610b12565b60405161038591906145bd565b34801561042457600080fd5b5061037b60065481565b34801561043a57600080fd5b5061037b610449366004614735565b610ba0565b34801561045a57600080fd5b506013546103de906001600160a01b031681565b34801561047a57600080fd5b506005546103de906001600160a01b031681565b34801561049a57600080fd5b506103ae6104a93660046147ac565b610d78565b3480156104ba57600080fd5b506104ce6104c93660046147ac565b611240565b604051610385989796959493929190614873565b3480156104ee57600080fd5b50600b546103ae90600160a01b900460ff1681565b34801561050f57600080fd5b5061037b60105481565b34801561052557600080fd5b5061037b6105343660046148d9565b6113b9565b34801561054557600080fd5b5061054e61144d565b005b34801561055c57600080fd5b5061054e61056b36600461490e565b611520565b34801561057c57600080fd5b5061037b60075481565b34801561059257600080fd5b5061054e6105a1366004614985565b6116a1565b3480156105b257600080fd5b506105c66105c13660046147ac565b611835565b60405161038591906149a2565b61054e6105e13660046149b5565b611907565b3480156105f257600080fd5b50610606610601366004614a69565b611a8c565b60408051928352602083019190915201610385565b34801561062757600080fd5b5061037b611d35565b34801561063c57600080fd5b5061040b611dfa565b34801561065157600080fd5b5061037b60145481565b34801561066757600080fd5b5061054e610676366004614b20565b611e07565b34801561068757600080fd5b5061037b600c5481565b34801561069d57600080fd5b5061054e6106ac366004614b20565b611ee4565b3480156106bd57600080fd5b506106d16106cc3660046147ac565b611fc1565b6040516103859190614b42565b3480156106ea57600080fd5b506107366106f93660046147ac565b60096020526000908152604090208054600382015460048301546005840154600685015460079095015460ff948516959394929391929091169086565b60405161038596959493929190614b78565b34801561075457600080fd5b50600b546103de906001600160a01b031681565b34801561077457600080fd5b506011546103de906001600160a01b031681565b34801561079457600080fd5b5061037b60155481565b3480156107aa57600080fd5b5061054e6107b9366004614bb6565b612020565b3480156107ca57600080fd5b50600f546103ae90600160a01b900460ff1681565b3480156107eb57600080fd5b5061037b60125481565b34801561080157600080fd5b506016546103de906001600160a01b031681565b34801561082157600080fd5b5061054e6108303660046147ac565b612103565b34801561084157600080fd5b5061040b61224c565b34801561085657600080fd5b5061054e612259565b34801561086b57600080fd5b506003546103ae9060ff1681565b34801561088557600080fd5b5061037b60045481565b34801561089b57600080fd5b5061054e6108aa366004614be2565b612336565b3480156108bb57600080fd5b5061037b600d5481565b3480156108d157600080fd5b506103ae6108e0366004614c64565b600a60209081526000928352604080842090915290825290205460ff1681565b34801561090c57600080fd5b506103ae61091b3660046147ac565b6125ca565b34801561092c57600080fd5b50610956604080513060208201526003916060910160405160208183030381529060405290509091565b604051610385929190614c96565b34801561097057600080fd5b50600c54600d54610606565b34801561098857600080fd5b5061054e612c2a565b34801561099d57600080fd5b506011546103ae90600160a01b900460ff1681565b3480156109be57600080fd5b506106066109cd366004614caf565b612cfd565b3480156109de57600080fd5b506013546103ae90600160a01b900460ff1681565b3480156109ff57600080fd5b5060405160028152602001610385565b348015610a1b57600080fd5b50610606610a2a366004614d59565b612f97565b348015610a3b57600080fd5b50610606610a4a366004614e18565b613259565b348015610a5b57600080fd5b5061054e613506565b348015610a7057600080fd5b5061037b600081565b60007fffffffff0000000000000000000000000000000000000000000000000000000082167f6930ebcc000000000000000000000000000000000000000000000000000000001480610b0c57507f01ffc9a7000000000000000000000000000000000000000000000000000000007fffffffff000000000000000000000000000000000000000000000000000000008316145b92915050565b60018054610b1f90614e9e565b80601f0160208091040260200160405190810160405280929190818152602001828054610b4b90614e9e565b8015610b985780601f10610b6d57610100808354040283529160200191610b98565b820191906000526020600020905b815481529060010190602001808311610b7b57829003601f168201915b505050505081565b6040805160238082526104808201909252600091829190602082016104608036833701905050855160208088019190912060008181527fa856840544dc26124927add067d799967eac11be13e14d82cc281ea46fa397599092526040909120549192509060ff1615610c595760405162461bcd60e51b815260206004820152601060248201527f4455504c4943415445445f50524f4f460000000000000000000000000000000060448201526064015b60405180910390fd5b610c65878386886135d9565b6013546040517fea50d0e40000000000000000000000000000000000000000000000000000000081529193506001600160a01b03169063ea50d0e490610cb19089908690600401614ef1565b602060405180830381865afa158015610cce573d6000803e3d6000fd5b505050506040513d601f19601f82011682018060405250810190610cf29190614f48565b610d28576040517fff3ee09d00000000000000000000000000000000000000000000000000000000815260040160405180910390fd5b60008181527fa856840544dc26124927add067d799967eac11be13e14d82cc281ea46fa3975960205260408120805460ff19166001179055610d6a88876136ab565b93505050505b949350505050565b60008115801590610d8b57506008548211155b610dd75760405162461bcd60e51b815260206004820152600a60248201527f494e56414c49445f4944000000000000000000000000000000000000000000006044820152606401610c50565b6000828152600960205260409020805460ff16158015610e015750601154600160a01b900460ff16155b15610e4e5760405162461bcd60e51b815260206004820152601960248201527f4b3235365f5245434f564552595f4e4f545f454e41424c4544000000000000006044820152606401610c50565b805460ff166001148015610e6c5750600b54600160a01b900460ff16155b15610eb95760405162461bcd60e51b815260206004820152601960248201527f503235365f5245434f564552595f4e4f545f454e41424c4544000000000000006044820152606401610c50565b805460ff166002148015610ed75750600f54600160a01b900460ff16155b15610f245760405162461bcd60e51b815260206004820152601b60248201527f5345435245545f5245434f564552595f4e4f545f454e41424c454400000000006044820152606401610c50565b805460ff166003148015610f425750601354600160a01b900460ff16155b15610f8f5760405162461bcd60e51b815260206004820152601b60248201527f534f4349414c5f5245434f564552595f4e4f545f454e41424c454400000000006044820152606401610c50565b61105681600201805480602002602001604051908101604052809291908181526020018280548015610fea57602002820191906000526020600020905b81546001600160a01b03168152600190910190602001808311610fcc575b50505050508260010180548060200260200160405190810160405280929190818152602001828054801561104757602002820191906000526020600020905b81546001600160a01b03168152600190910190602001808311611029575b5050505050836003015461375c565b506002600682015460ff16600281111561107257611072614809565b036110bf5760405162461bcd60e51b815260206004820152601060248201527f414c52454144595f52454a4543544544000000000000000000000000000000006044820152606401610c50565b6001600682015460ff1660028111156110da576110da614809565b036111275760405162461bcd60e51b815260206004820152601060248201527f414c52454144595f4558454355544544000000000000000000000000000000006044820152606401610c50565b806005015442101561117b5760405162461bcd60e51b815260206004820152601260248201527f54494d454c4f434b5f4e4f545f454e44454400000000000000000000000000006044820152606401610c50565b600754816004015410156111d15760405162461bcd60e51b815260206004820152601060248201527f50524f504f53414c5f45585049524544000000000000000000000000000000006044820152606401610c50565b805460ff1660031480156111ea57506015548160070154105b156112375760405162461bcd60e51b815260206004820152601b60248201527f494e53554646494349454e545f415050524f56414c5f434f554e5400000000006044820152606401610c50565b50600192915050565b60006060808280808080881580159061125b57506008548911155b6112a75760405162461bcd60e51b815260206004820152600a60248201527f494e56414c49445f4944000000000000000000000000000000000000000000006044820152606401610c50565b6000898152600960209081526040918290208054600382015460058301546004840154600685015460078601546001870180548a51818b0281018b01909b52808b52979960ff97881699919860028c019890941693909189919083018282801561133a57602002820191906000526020600020905b81546001600160a01b0316815260019091019060200180831161131c575b505050505096508580548060200260200160405190810160405280929190818152602001828054801561139657602002820191906000526020600020905b81546001600160a01b03168152600190910190602001808311611378575b505050505095509850985098509850985098509850985050919395975091939597565b6040517ff8f5689c00000000000000000000000000000000000000000000000000000000815260009073__$6d399485da7ef05af8887e90c5d884cf80$__9063f8f5689c9061140c9085906004016145bd565b602060405180830381865af4158015611429573d6000803e3d6000fd5b505050506040513d601f19601f82011682018060405250810190610b0c9190614f6a565b6005546001600160a01b031633146114a75760405162461bcd60e51b815260206004820152600f60248201527f53454e4445525f4e4f545f5341464500000000000000000000000000000000006044820152606401610c50565b600b54600160a01b900460ff166115005760405162461bcd60e51b815260206004820152600b60248201527f4e4f545f454e41424c45440000000000000000000000000000000000000000006044820152606401610c50565b600b805474ff000000000000000000000000000000000000000019169055565b6005546001600160a01b0316331461157a5760405162461bcd60e51b815260206004820152600f60248201527f53454e4445525f4e4f545f5341464500000000000000000000000000000000006044820152606401610c50565b821580159061158857508115155b6115d45760405162461bcd60e51b815260206004820152600e60248201527f494e56414c49445f5055424b45590000000000000000000000000000000000006044820152606401610c50565b60408051600081526020810180835281519020916115f491849101614f83565b60405160208183030381529060405280519060200120036116575760405162461bcd60e51b815260206004820152601560248201527f494e56414c49445f43524544454e5449414c5f494400000000000000000000006044820152606401610c50565b600c839055600d829055600e61166d8282614fed565b5061167784600655565b5050600b805474ff00000000000000000000000000000000000000001916600160a01b1790555050565b6001600160a01b037f000000000000000000000000000000000000000000000000000000000000000016300361173f5760405162461bcd60e51b815260206004820152602c60248201527f46756e6374696f6e206d7573742062652063616c6c6564207468726f7567682060448201527f64656c656761746563616c6c00000000000000000000000000000000000000006064820152608401610c50565b7f00000000000000000000000000000000000000000000000000000000000000006001600160a01b031661179a7f360894a13ba1a3210667c828492db98dca3e2076cc3735a920a3ca505d382bbc546001600160a01b031690565b6001600160a01b0316146118165760405162461bcd60e51b815260206004820152602c60248201527f46756e6374696f6e206d7573742062652063616c6c6564207468726f7567682060448201527f6163746976652070726f787900000000000000000000000000000000000000006064820152608401610c50565b6040805160008082526020820190925261183291839190613c2a565b50565b6060811580159061184857506008548211155b6118945760405162461bcd60e51b815260206004820152600a60248201527f494e56414c49445f4944000000000000000000000000000000000000000000006044820152606401610c50565b6000828152600960209081526040918290206001810180548451818502810185019095528085529193929091908301828280156118fa57602002820191906000526020600020905b81546001600160a01b031681526001909101906020018083116118dc575b5050505050915050919050565b6001600160a01b037f00000000000000000000000000000000000000000000000000000000000000001630036119a55760405162461bcd60e51b815260206004820152602c60248201527f46756e6374696f6e206d7573742062652063616c6c6564207468726f7567682060448201527f64656c656761746563616c6c00000000000000000000000000000000000000006064820152608401610c50565b7f00000000000000000000000000000000000000000000000000000000000000006001600160a01b0316611a007f360894a13ba1a3210667c828492db98dca3e2076cc3735a920a3ca505d382bbc546001600160a01b031690565b6001600160a01b031614611a7c5760405162461bcd60e51b815260206004820152602c60248201527f46756e6374696f6e206d7573742062652063616c6c6564207468726f7567682060448201527f6163746976652070726f787900000000000000000000000000000000000000006064820152608401610c50565b611a8882826001613c2a565b5050565b60055460009081906001600160a01b03163303611aeb5760405162461bcd60e51b815260206004820152600e60248201527f494e56414c49445f53454e4445520000000000000000000000000000000000006044820152606401610c50565b600b54600160a01b900460ff16611b445760405162461bcd60e51b815260206004820152600b60248201527f4e4f545f454e41424c45440000000000000000000000000000000000000000006044820152606401610c50565b835160208086019190912060008181527fbbc70db1b6c7afd11e79c0fb0051300458f1a3acb8ee9789d9b6b26c61ad9bc790925260409091205460ff1615611bce5760405162461bcd60e51b815260206004820152601060248201527f4455504c4943415445445f50524f4f46000000000000000000000000000000006044820152606401610c50565b6000611bdb89898961375c565b90506000611be8866113b9565b60408051602080825261042082019092529192506000919080820161040080368337019050509050611c1982613dcf565b600b546040517fea50d0e40000000000000000000000000000000000000000000000000000000081529192506001600160a01b03169063ea50d0e490611c65908b908590600401614ef1565b602060405180830381865afa158015611c82573d6000803e3d6000fd5b505050506040513d601f19601f82011682018060405250810190611ca69190614f48565b611cdc576040517fff3ee09d00000000000000000000000000000000000000000000000000000000815260040160405180910390fd5b60008481527fbbc70db1b6c7afd11e79c0fb0051300458f1a3acb8ee9789d9b6b26c61ad9bc760205260409020805460ff19166001908117909155611d23908c8c86613e4a565b95509550505050509550959350505050565b6000306001600160a01b037f00000000000000000000000000000000000000000000000000000000000000001614611dd55760405162461bcd60e51b815260206004820152603860248201527f555550535570677261646561626c653a206d757374206e6f742062652063616c60448201527f6c6564207468726f7567682064656c656761746563616c6c00000000000000006064820152608401610c50565b507f360894a13ba1a3210667c828492db98dca3e2076cc3735a920a3ca505d382bbc90565b60028054610b1f90614e9e565b6005546001600160a01b03163314611e615760405162461bcd60e51b815260206004820152600f60248201527f53454e4445525f4e4f545f5341464500000000000000000000000000000000006044820152606401610c50565b80611eae5760405162461bcd60e51b815260206004820152600c60248201527f494e56414c49445f4841534800000000000000000000000000000000000000006044820152606401610c50565b6010819055611ebc82600655565b5050600f805474ff00000000000000000000000000000000000000001916600160a01b179055565b6005546001600160a01b03163314611f3e5760405162461bcd60e51b815260206004820152600f60248201527f53454e4445525f4e4f545f5341464500000000000000000000000000000000006044820152606401610c50565b80611f8b5760405162461bcd60e51b815260206004820152600c60248201527f494e56414c49445f4841534800000000000000000000000000000000000000006044820152606401610c50565b6012819055611f9982600655565b50506011805474ff00000000000000000000000000000000000000001916600160a01b179055565b611fc961447a565b611fd161447a565b60005b602081101561201957838160208110611fef57611fef6150ad565b1a828260208110612002576120026150ad565b6020020152806120118161510b565b915050611fd4565b5092915050565b6005546001600160a01b0316331461207a5760405162461bcd60e51b815260206004820152600f60248201527f53454e4445525f4e4f545f5341464500000000000000000000000000000000006044820152606401610c50565b806120c75760405162461bcd60e51b815260206004820152600c60248201527f494e56414c49445f4841534800000000000000000000000000000000000000006044820152606401610c50565b601481905560158290556120da83600655565b50506013805474ff00000000000000000000000000000000000000001916600160a01b17905550565b6005546001600160a01b0316331461215d5760405162461bcd60e51b815260206004820152600f60248201527f53454e4445525f4e4f545f5341464500000000000000000000000000000000006044820152606401610c50565b60008181526009602052604090206002600682015460ff16600281111561218657612186614809565b036121d35760405162461bcd60e51b815260206004820152601060248201527f414c52454144595f52454a4543544544000000000000000000000000000000006044820152606401610c50565b6001600682015460ff1660028111156121ee576121ee614809565b0361223b5760405162461bcd60e51b815260206004820152601060248201527f414c52454144595f4558454355544544000000000000000000000000000000006044820152606401610c50565b600601805460ff1916600217905550565b600e8054610b1f90614e9e565b6005546001600160a01b031633146122b35760405162461bcd60e51b815260206004820152600f60248201527f53454e4445525f4e4f545f5341464500000000000000000000000000000000006044820152606401610c50565b601354600160a01b900460ff1661230c5760405162461bcd60e51b815260206004820152600b60248201527f4e4f545f454e41424c45440000000000000000000000000000000000000000006044820152606401610c50565b600060148190556015556013805474ff000000000000000000000000000000000000000019169055565b600054610100900460ff16158080156123565750600054600160ff909116105b806123705750303b158015612370575060005460ff166001145b6123e25760405162461bcd60e51b815260206004820152602e60248201527f496e697469616c697a61626c653a20636f6e747261637420697320616c72656160448201527f647920696e697469616c697a65640000000000000000000000000000000000006064820152608401610c50565b6000805460ff19166001179055801561242257600080547fffffffffffffffffffffffffffffffffffffffffffffffffffffffffffff00ff166101001790555b6124e46040518060a001604052806040518060400160405280601481526020017f53616665205265636f7665727920506c7567696e00000000000000000000000081525081526020016040518060400160405280600581526020017f312e302e300000000000000000000000000000000000000000000000000000008152508152602001600115158152602001604051806020016040528060008152508152602001604051806060016040528060338152602001615483603391399052613eeb565b600580547fffffffffffffffffffffffff00000000000000000000000000000000000000009081166001600160a01b038a811691909117909255601680548216898416179055601180548216888416179055600b80548216878416179055600f805482168684161790556013805490911691841691909117905580156125c157600080547fffffffffffffffffffffffffffffffffffffffffffffffffffffffffffff00ff169055604051600181527f7f26b83ff96e1f2b6a682f133852f6798a09c465da95921460cefb38474024989060200160405180910390a15b50505050505050565b60006125d582610d78565b506000828152600960209081526040808320600381015460055483517fe75235b8000000000000000000000000000000000000000000000000000000008152935192959491936001600160a01b039091169263e75235b8926004808401939192918290030181865afa15801561264f573d6000803e3d6000fd5b505050506040513d601f19601f820116820180604052508101906126739190614f6a565b6002840154911415915060008261268a5781612695565b612695826001615125565b905060008167ffffffffffffffff8111156126b2576126b26145d0565b6040519080825280602002602001820160405280156126ff57816020015b604080516060808201835260008083526020830152918101919091528152602001906001900390816126d05790505b509050606060005b848110156129515763e318b52b60e01b6127ff88600201838154811061272f5761272f6150ad565b6000918252602091829020015460028b01805460408051828602810186019091528181526001600160a01b039093169383018282801561279857602002820191906000526020600020905b81546001600160a01b0316815260019091019060200180831161277a575b50505050508a6001018054806020026020016040519081016040528092919081815260200182805480156127f557602002820191906000526020600020905b81546001600160a01b031681526001909101906020018083116127d7575b5050505050613f36565b886002018381548110612814576128146150ad565b60009182526020909120015460018a0180546001600160a01b039092169185908110612842576128426150ad565b6000918252602090912001546040516001600160a01b039384166024820152918316604483015291909116606482015260840160408051601f198184030181529190526020810180517bffffffffffffffffffffffffffffffffffffffffffffffffffffffff167fffffffff000000000000000000000000000000000000000000000000000000009093169290921790915260055484519193506001600160a01b0316908490839081106128f8576128f86150ad565b6020026020010151600001906001600160a01b031690816001600160a01b0316815250508183828151811061292f5761292f6150ad565b60200260200101516040018190525080806129499061510b565b915050612707565b508415612a5d576005546001600160a01b031682612970600186615138565b81518110612980576129806150ad565b60209081029190910101516001600160a01b03909116905260038601546040517f694e80c300000000000000000000000000000000000000000000000000000000916129d29160240190815260200190565b60408051601f198184030181529190526020810180517bffffffffffffffffffffffffffffffffffffffffffffffffffffffff167fffffffff000000000000000000000000000000000000000000000000000000009093169290921790915282612a3d600186615138565b81518110612a4d57612a4d6150ad565b6020026020010151604001819052505b6040805160608101825283815260055482517faffed0e000000000000000000000000000000000000000000000000000000000815292516000936020808501936001600160a01b03169263affed0e09260048082019392918290030181865afa158015612ace573d6000803e3d6000fd5b505050506040513d601f19601f82011682018060405250810190612af29190614f6a565b612afd906001615125565b8152600480546020909201919091526016546005546040517f0f9919150000000000000000000000000000000000000000000000000000000081529394506001600160a01b0391821693630f99191593612b5d939092169186910161514b565b6000604051808303816000875af1925050508015612b9d57506040513d6000823e601f3d908101601f19168201604052612b9a919081019061521a565b60015b612c05573d808015612bcb576040519150601f19603f3d011682016040523d82523d6000602084013e612bd0565b606091505b50806040517f2e268859000000000000000000000000000000000000000000000000000000008152600401610c5091906145bd565b50504260075550505050600691909101805460ff191660019081179091559392505050565b6005546001600160a01b03163314612c845760405162461bcd60e51b815260206004820152600f60248201527f53454e4445525f4e4f545f5341464500000000000000000000000000000000006044820152606401610c50565b601154600160a01b900460ff16612cdd5760405162461bcd60e51b815260206004820152600b60248201527f4e4f545f454e41424c45440000000000000000000000000000000000000000006044820152606401610c50565b6011805474ff000000000000000000000000000000000000000019169055565b60055460009081906001600160a01b03163303612d5c5760405162461bcd60e51b815260206004820152600e60248201527f494e56414c49445f53454e4445520000000000000000000000000000000000006044820152606401610c50565b601154600160a01b900460ff16612db55760405162461bcd60e51b815260206004820152600b60248201527f4e4f545f454e41424c45440000000000000000000000000000000000000000006044820152606401610c50565b835160208086019190912060008181527f13da86008ba1c6922daee3e07db95305ef49ebced9f5467a0b8613fcc6b343e390925260409091205460ff1615612e3f5760405162461bcd60e51b815260206004820152601060248201527f4455504c4943415445445f50524f4f46000000000000000000000000000000006044820152606401610c50565b6000612e4c89898961375c565b6040805160218082526104408201909252919250600091906020820161042080368337019050509050612e7f81876140c2565b6011546040517fea50d0e40000000000000000000000000000000000000000000000000000000081529192506001600160a01b03169063ea50d0e490612ecb908a908590600401614ef1565b602060405180830381865afa158015612ee8573d6000803e3d6000fd5b505050506040513d601f19601f82011682018060405250810190612f0c9190614f48565b612f42576040517fff3ee09d00000000000000000000000000000000000000000000000000000000815260040160405180910390fd5b60008381527f13da86008ba1c6922daee3e07db95305ef49ebced9f5467a0b8613fcc6b343e360205260408120805460ff19166001179055612f86908b8b85613e4a565b945094505050509550959350505050565b60055460009081906001600160a01b03163303612ff65760405162461bcd60e51b815260206004820152600e60248201527f494e56414c49445f53454e4445520000000000000000000000000000000000006044820152606401610c50565b601354600160a01b900460ff1661304f5760405162461bcd60e51b815260206004820152600b60248201527f4e4f545f454e41424c45440000000000000000000000000000000000000000006044820152606401610c50565b845160208087019190912060008181527fa856840544dc26124927add067d799967eac11be13e14d82cc281ea46fa3975990925260409091205460ff16156130d95760405162461bcd60e51b815260206004820152601060248201527f4455504c4943415445445f50524f4f46000000000000000000000000000000006044820152606401610c50565b60006130e68a8a8a61375c565b6040805160238082526104808201909252919250600091906020820161046080368337019050509050600060085460016131209190615125565b905061312e8183898b6135d9565b6013546040517fea50d0e40000000000000000000000000000000000000000000000000000000081529193506001600160a01b03169063ea50d0e49061317a908c908690600401614ef1565b602060405180830381865afa158015613197573d6000803e3d6000fd5b505050506040513d601f19601f820116820180604052508101906131bb9190614f48565b6131f1576040517fff3ee09d00000000000000000000000000000000000000000000000000000000815260040160405180910390fd5b60008481527fa856840544dc26124927add067d799967eac11be13e14d82cc281ea46fa3975960205260408120805460ff191660011790558061323760038f8f88613e4a565b91509150613245828b6136ab565b50909d909c509a5050505050505050505050565b60055460009081906001600160a01b031633036132b85760405162461bcd60e51b815260206004820152600e60248201527f494e56414c49445f53454e4445520000000000000000000000000000000000006044820152606401610c50565b600f54600160a01b900460ff166133115760405162461bcd60e51b815260206004820152600b60248201527f4e4f545f454e41424c45440000000000000000000000000000000000000000006044820152606401610c50565b825160208085019190912060008181527fbff4442b8ed600beeb8e26b1279a0f0d14c6edfaec26d968ee13c86f7d4c2ba890925260409091205460ff161561339b5760405162461bcd60e51b815260206004820152601060248201527f4455504c4943415445445f50524f4f46000000000000000000000000000000006044820152606401610c50565b60006133a888888861375c565b6040805160018082528183019092529192506000919060208083019080368337019050509050601054816000815181106133e4576133e46150ad565b6020908102919091010152600f546040517fea50d0e40000000000000000000000000000000000000000000000000000000081526001600160a01b039091169063ea50d0e49061343a9089908590600401614ef1565b602060405180830381865afa158015613457573d6000803e3d6000fd5b505050506040513d601f19601f8201168201806040525081019061347b9190614f48565b6134b1576040517fff3ee09d00000000000000000000000000000000000000000000000000000000815260040160405180910390fd5b60008381527fbff4442b8ed600beeb8e26b1279a0f0d14c6edfaec26d968ee13c86f7d4c2ba860205260409020805460ff191660011790556134f660028a8a85613e4a565b9450945050505094509492505050565b6005546001600160a01b031633146135605760405162461bcd60e51b815260206004820152600f60248201527f53454e4445525f4e4f545f5341464500000000000000000000000000000000006044820152606401610c50565b600f54600160a01b900460ff166135b95760405162461bcd60e51b815260206004820152600b60248201527f4e4f545f454e41424c45440000000000000000000000000000000000000000006044820152606401610c50565b600f805474ff000000000000000000000000000000000000000019169055565b6060601454846000815181106135f1576135f16150ad565b6020026020010181815250508460001b84600181518110613614576136146150ad565b6020026020010181815250508184600281518110613634576136346150ad565b60200260200101818152505060005b60208110156136a15783818151811061365e5761365e6150ad565b6020026020010151858260036136749190615125565b81518110613684576136846150ad565b6020908102919091010152806136998161510b565b915050613643565b5092949350505050565b60008281526009602090815260408083208484526008810190925282205460ff16156137195760405162461bcd60e51b815260206004820152601160248201527f494e56414c49445f4e554c4c49464945520000000000000000000000000000006044820152606401610c50565b60008381526008820160205260408120805460ff191660019081179091556007830180549192909161374c908490615125565b9091555050600701549392505050565b600082518451146137af5760405162461bcd60e51b815260206004820152600e60248201527f554e455155414c5f4c454e4754480000000000000000000000000000000000006044820152606401610c50565b600554604080517fa0e67e2b00000000000000000000000000000000000000000000000000000000815290516000926001600160a01b03169163a0e67e2b91600480830192869291908290030181865afa158015613811573d6000803e3d6000fd5b505050506040513d6000823e601f3d908101601f191682016040526138399190810190615307565b905080518551111561388d5760405162461bcd60e51b815260206004820152600e60248201527f494e56414c49445f4c454e4754480000000000000000000000000000000000006044820152606401610c50565b60005b8551811015613b325760055486516001600160a01b0390911690632f54bf6e908890849081106138c2576138c26150ad565b60200260200101516040518263ffffffff1660e01b81526004016138f591906001600160a01b0391909116815260200190565b602060405180830381865afa158015613912573d6000803e3d6000fd5b505050506040513d601f19601f820116820180604052508101906139369190614f48565b6139825760405162461bcd60e51b815260206004820152600960248201527f4e4f545f4f574e455200000000000000000000000000000000000000000000006044820152606401610c50565b60055485516001600160a01b0390911690632f54bf6e908790849081106139ab576139ab6150ad565b60200260200101516040518263ffffffff1660e01b81526004016139de91906001600160a01b0391909116815260200190565b602060405180830381865afa1580156139fb573d6000803e3d6000fd5b505050506040513d601f19601f82011682018060405250810190613a1f9190614f48565b15613a6c5760405162461bcd60e51b815260206004820152600d60248201527f414c44524544595f4f574e4552000000000000000000000000000000000000006044820152606401610c50565b60006001600160a01b0316858281518110613a8957613a896150ad565b60200260200101516001600160a01b031614158015613ad4575060016001600160a01b0316858281518110613ac057613ac06150ad565b60200260200101516001600160a01b031614155b613b205760405162461bcd60e51b815260206004820152600f60248201527f494e56414c49445f4144445245535300000000000000000000000000000000006044820152606401610c50565b80613b2a8161510b565b915050613890565b50600554604080517fe75235b800000000000000000000000000000000000000000000000000000000815290516000926001600160a01b03169163e75235b89160048083019260209291908290030181865afa158015613b96573d6000803e3d6000fd5b505050506040513d601f19601f82011682018060405250810190613bba9190614f6a565b90506000818503613bcb5781613bcd565b845b90508083511015613c205760405162461bcd60e51b815260206004820152601160248201527f494e56414c49445f5448524553484f4c440000000000000000000000000000006044820152606401610c50565b9695505050505050565b7f4910fdfa16fed3260ed0e7147f7cc6da11a60208b5b9406d12a635614ffd91435460ff1615613c6257613c5d8361414f565b505050565b826001600160a01b03166352d1902d6040518163ffffffff1660e01b8152600401602060405180830381865afa925050508015613cbc575060408051601f3d908101601f19168201909252613cb991810190614f6a565b60015b613d2e5760405162461bcd60e51b815260206004820152602e60248201527f45524331393637557067726164653a206e657720696d706c656d656e7461746960448201527f6f6e206973206e6f7420555550530000000000000000000000000000000000006064820152608401610c50565b7f360894a13ba1a3210667c828492db98dca3e2076cc3735a920a3ca505d382bbc8114613dc35760405162461bcd60e51b815260206004820152602960248201527f45524331393637557067726164653a20756e737570706f727465642070726f7860448201527f6961626c655555494400000000000000000000000000000000000000000000006064820152608401610c50565b50613c5d838383614225565b6040805160208082526104208201909252606091600091908082016104008036833701905050905060005b602081101561201957838160208110613e1557613e156150ad565b835191901a90839083908110613e2d57613e2d6150ad565b602090810291909101015280613e428161510b565b915050613dfa565b60008060006008546001613e5e9190615125565b60088190556000818152600960209081526040909120805460ff191660ff8b16178155885192935091613e99916002840191908a0190614499565b508551613eaf9060018301906020890190614499565b5060038101859055600654613ec49042615125565b600582018190554260048301556006909101805460ff191690559097909650945050505050565b6004547f522c683f99251eea7f3b027592e92a5398e7582983be1f7c0f33715ce025740f613f1883614250565b604051613f2591906145bd565b60405180910390a2611832816142b7565b600080600560009054906101000a90046001600160a01b03166001600160a01b031663a0e67e2b6040518163ffffffff1660e01b8152600401600060405180830381865afa158015613f8c573d6000803e3d6000fd5b505050506040513d6000823e601f3d908101601f19168201604052613fb49190810190615307565b90506000805b825181101561400f57866001600160a01b0316838281518110613fdf57613fdf6150ad565b60200260200101516001600160a01b031603613ffd5780915061400f565b806140078161510b565b915050613fba565b50600081156140415782614024600184615138565b81518110614034576140346150ad565b6020026020010151614044565b60015b905060005b86518110156140b757816001600160a01b031687828151811061406e5761406e6150ad565b60200260200101516001600160a01b0316036140a557858181518110614096576140966150ad565b602002602001015191506140b7565b806140af8161510b565b915050614049565b509695505050505050565b6060601254836000815181106140da576140da6150ad565b60200260200101818152505060005b602081101561414757828181518110614104576141046150ad565b60200260200101518482600161411a9190615125565b8151811061412a5761412a6150ad565b60209081029190910101528061413f8161510b565b9150506140e9565b509192915050565b6001600160a01b0381163b6141cc5760405162461bcd60e51b815260206004820152602d60248201527f455243313936373a206e657720696d706c656d656e746174696f6e206973206e60448201527f6f74206120636f6e7472616374000000000000000000000000000000000000006064820152608401610c50565b7f360894a13ba1a3210667c828492db98dca3e2076cc3735a920a3ca505d382bbc80547fffffffffffffffffffffffff0000000000000000000000000000000000000000166001600160a01b0392909216919091179055565b61422e83614307565b60008251118061423b5750805b15613c5d5761424a8383614347565b50505050565b6060600080836000015184602001518560400151866060015187608001516040516020016142829594939291906153a1565b60408051601f19818403018152908290526142a1939291602001615402565b6040516020818303038152906040529050919050565b80516001906142c69082614fed565b5060208101516002906142d99082614fed565b5060408101516003805460ff19169115159190911790556142f981614250565b805160209091012060045550565b6143108161414f565b6040516001600160a01b038216907fbc7cd75a20ee27fd9adebab32041f755214dbc6bffa90cc0225b39da2e5c2d3b90600090a250565b606061436c838360405180606001604052806027815260200161545c60279139614373565b9392505050565b6060600080856001600160a01b0316856040516143909190614f83565b600060405180830381855af49150503d80600081146143cb576040519150601f19603f3d011682016040523d82523d6000602084013e6143d0565b606091505b5091509150613c20868383876060831561444b578251600003614444576001600160a01b0385163b6144445760405162461bcd60e51b815260206004820152601d60248201527f416464726573733a2063616c6c20746f206e6f6e2d636f6e74726163740000006044820152606401610c50565b5081610d70565b610d7083838151156144605781518083602001fd5b8060405162461bcd60e51b8152600401610c5091906145bd565b6040518061040001604052806020906020820280368337509192915050565b828054828255906000526020600020908101928215614506579160200282015b8281111561450657825182547fffffffffffffffffffffffff0000000000000000000000000000000000000000166001600160a01b039091161782556020909201916001909101906144b9565b50614512929150614516565b5090565b5b808211156145125760008155600101614517565b60006020828403121561453d57600080fd5b81357fffffffff000000000000000000000000000000000000000000000000000000008116811461436c57600080fd5b60005b83811015614588578181015183820152602001614570565b50506000910152565b600081518084526145a981602086016020860161456d565b601f01601f19169290920160200192915050565b60208152600061436c6020830184614591565b7f4e487b7100000000000000000000000000000000000000000000000000000000600052604160045260246000fd5b604051601f8201601f1916810167ffffffffffffffff81118282101715614628576146286145d0565b604052919050565b600067ffffffffffffffff82111561464a5761464a6145d0565b50601f01601f191660200190565b600061466b61466684614630565b6145ff565b905082815283838301111561467f57600080fd5b828260208301376000602084830101529392505050565b600082601f8301126146a757600080fd5b61436c83833560208501614658565b600067ffffffffffffffff8211156146d0576146d06145d0565b5060051b60200190565b600082601f8301126146eb57600080fd5b813560206146fb614666836146b6565b82815260059290921b8401810191818101908684111561471a57600080fd5b8286015b848110156140b7578035835291830191830161471e565b6000806000806080858703121561474b57600080fd5b84359350602085013567ffffffffffffffff8082111561476a57600080fd5b61477688838901614696565b945060408701359350606087013591508082111561479357600080fd5b506147a0878288016146da565b91505092959194509250565b6000602082840312156147be57600080fd5b5035919050565b600081518084526020808501945080840160005b838110156147fe5781516001600160a01b0316875295820195908201906001016147d9565b509495945050505050565b7f4e487b7100000000000000000000000000000000000000000000000000000000600052602160045260246000fd5b6003811061486f577f4e487b7100000000000000000000000000000000000000000000000000000000600052602160045260246000fd5b9052565b600061010060ff8b1683528060208401526148908184018b6147c5565b905082810360408401526148a4818a6147c5565b9150508660608301528560808301528460a08301526148c660c0830185614838565b8260e08301529998505050505050505050565b6000602082840312156148eb57600080fd5b813567ffffffffffffffff81111561490257600080fd5b610d7084828501614696565b6000806000806080858703121561492457600080fd5b843593506020850135925060408501359150606085013567ffffffffffffffff81111561495057600080fd5b8501601f8101871361496157600080fd5b6147a087823560208401614658565b6001600160a01b038116811461183257600080fd5b60006020828403121561499757600080fd5b813561436c81614970565b60208152600061436c60208301846147c5565b600080604083850312156149c857600080fd5b82356149d381614970565b9150602083013567ffffffffffffffff8111156149ef57600080fd5b6149fb85828601614696565b9150509250929050565b600082601f830112614a1657600080fd5b81356020614a26614666836146b6565b82815260059290921b84018101918181019086841115614a4557600080fd5b8286015b848110156140b7578035614a5c81614970565b8352918301918301614a49565b600080600080600060a08688031215614a8157600080fd5b853567ffffffffffffffff80821115614a9957600080fd5b614aa589838a01614a05565b96506020880135915080821115614abb57600080fd5b614ac789838a01614a05565b9550604088013594506060880135915080821115614ae457600080fd5b614af089838a01614696565b93506080880135915080821115614b0657600080fd5b50614b1388828901614696565b9150509295509295909350565b60008060408385031215614b3357600080fd5b50508035926020909101359150565b6104008101818360005b6020808210614b5b5750614b6f565b825184529283019290910190600101614b4c565b50505092915050565b600060c08201905060ff88168252866020830152856040830152846060830152614ba56080830185614838565b8260a0830152979650505050505050565b600080600060608486031215614bcb57600080fd5b505081359360208301359350604090920135919050565b60008060008060008060c08789031215614bfb57600080fd5b8635614c0681614970565b95506020870135614c1681614970565b94506040870135614c2681614970565b93506060870135614c3681614970565b92506080870135614c4681614970565b915060a0870135614c5681614970565b809150509295509295509295565b60008060408385031215614c7757600080fd5b823560ff81168114614c8857600080fd5b946020939093013593505050565b828152604060208201526000610d706040830184614591565b600080600080600060a08688031215614cc757600080fd5b853567ffffffffffffffff80821115614cdf57600080fd5b614ceb89838a01614a05565b96506020880135915080821115614d0157600080fd5b614d0d89838a01614a05565b9550604088013594506060880135915080821115614d2a57600080fd5b614d3689838a01614696565b93506080880135915080821115614d4c57600080fd5b50614b13888289016146da565b60008060008060008060c08789031215614d7257600080fd5b863567ffffffffffffffff80821115614d8a57600080fd5b614d968a838b01614a05565b97506020890135915080821115614dac57600080fd5b614db88a838b01614a05565b9650604089013595506060890135915080821115614dd557600080fd5b614de18a838b01614696565b94506080890135935060a0890135915080821115614dfe57600080fd5b50614e0b89828a016146da565b9150509295509295509295565b60008060008060808587031215614e2e57600080fd5b843567ffffffffffffffff80821115614e4657600080fd5b614e5288838901614a05565b95506020870135915080821115614e6857600080fd5b614e7488838901614a05565b9450604087013593506060870135915080821115614e9157600080fd5b506147a087828801614696565b600181811c90821680614eb257607f821691505b602082108103614eeb577f4e487b7100000000000000000000000000000000000000000000000000000000600052602260045260246000fd5b50919050565b604081526000614f046040830185614591565b82810360208481019190915284518083528582019282019060005b81811015614f3b57845183529383019391830191600101614f1f565b5090979650505050505050565b600060208284031215614f5a57600080fd5b8151801515811461436c57600080fd5b600060208284031215614f7c57600080fd5b5051919050565b60008251614f9581846020870161456d565b9190910192915050565b601f821115613c5d57600081815260208120601f850160051c81016020861015614fc65750805b601f850160051c820191505b81811015614fe557828155600101614fd2565b505050505050565b815167ffffffffffffffff811115615007576150076145d0565b61501b816150158454614e9e565b84614f9f565b602080601f83116001811461505057600084156150385750858301515b600019600386901b1c1916600185901b178555614fe5565b600085815260208120601f198616915b8281101561507f57888601518255948401946001909101908401615060565b508582101561509d5787850151600019600388901b60f8161c191681555b5050505050600190811b01905550565b7f4e487b7100000000000000000000000000000000000000000000000000000000600052603260045260246000fd5b7f4e487b7100000000000000000000000000000000000000000000000000000000600052601160045260246000fd5b6000600019820361511e5761511e6150dc565b5060010190565b80820180821115610b0c57610b0c6150dc565b81810381811115610b0c57610b0c6150dc565b600060406001600160a01b0380861684526020828186015260a0850186516060808689015282825180855260c08a01915060c08160051b8b01019450858401935060005b818110156151f6578a86037fffffffffffffffffffffffffffffffffffffffffffffffffffffffffffffff40018352845180518916875287810151888801528901518987018590526151e385880182614591565b965050938601939186019160010161518f565b50505083890151818901525050838701516080870152809450505050509392505050565b6000602080838503121561522d57600080fd5b825167ffffffffffffffff8082111561524557600080fd5b818501915085601f83011261525957600080fd5b8151615267614666826146b6565b81815260059190911b8301840190848101908883111561528657600080fd5b8585015b838110156152fa578051858111156152a25760008081fd5b8601603f81018b136152b45760008081fd5b8781015160406152c661466683614630565b8281528d828486010111156152db5760008081fd5b6152ea838c830184870161456d565b865250505091860191860161528a565b5098975050505050505050565b6000602080838503121561531a57600080fd5b825167ffffffffffffffff81111561533157600080fd5b8301601f8101851361534257600080fd5b8051615350614666826146b6565b81815260059190911b8201830190838101908783111561536f57600080fd5b928401925b8284101561539657835161538781614970565b82529284019290840190615374565b979650505050505050565b60a0815260006153b460a0830188614591565b82810360208401526153c68188614591565b9050851515604084015282810360608401526153e28186614591565b905082810360808401526153f68185614591565b98975050505050505050565b60007fff00000000000000000000000000000000000000000000000000000000000000808660f81b168352808560f81b16600184015250825161544c81600285016020870161456d565b9190910160020194935050505056fe416464726573733a206c6f772d6c6576656c2064656c65676174652063616c6c206661696c656468747470733a2f2f6769746875622e636f6d2f706f72636f2d726f73736f2d6a2f736166652d7265636f766572792d6e6f6972a264697066735822122074d1f303449c74becce79448a985087dc78d47e11965739549f1d5f644468d2e64736f6c63430008140033",
    "linkReferences": {
      "src/helper/WebAuthnHelper.sol": {
        "WebAuthnHelper": [
          {
            "start": 5168,
            "length": 20
          }
        ]
      }
    }
  },
  "methodIdentifiers": {
    "MIN_TIMELOCK()": "fb0c7549",
    "_computeMessage(bytes)": "2da4e420",
    "_convertBytes32ToBytes32Array(bytes32)": "67a277a4",
    "addEcrecoverRecover(uint256,bytes32)": "665caab7",
    "addSecretRecover(uint256,bytes32)": "57a60326",
    "addSocialRecover(uint256,uint256,bytes32)": "7d9e0141",
    "addWebAuthnRecover(uint256,bytes32,bytes32,string)": "31895767",
    "approvalThreshold()": "7d0eef61",
    "approveSocialRecovery(uint256,bytes,bytes32,bytes32[])": "1788430b",
    "credentialId()": "a3c0f0b7",
    "ecrecoverVerifier()": "7c64dd76",
    "execRecovery(uint256)": "cdb44775",
    "getIsRecoveryExecutable(uint256)": "2152ab1b",
    "getPendingNewOwners(uint256)": "4969ca3f",
    "getPubkeyXY()": "d83dfc26",
    "getRecoveryByProposalId(uint256)": "23a6c20e",
    "guardiansRoot()": "5695f292",
    "hashed_address()": "87dee39f",
    "hashed_secret()": "2abcb3d8",
    "initialize(address,address,address,address,address,address)": "cc2a9a5b",
    "isEcrecoverRecoverEnabled()": "e6795306",
    "isSecretRecoverEnabled()": "83b1a8c1",
    "isSocialRecoverEnabled()": "e6f352c9",
    "isWebAuthnRecoverEnabled()": "23b26075",
    "lastExecutionTimestamp()": "358d1fc6",
    "metadataHash()": "c5a1d7f0",
    "metadataProvider()": "d3d72d2a",
    "name()": "06fdde03",
    "proposeEcrecoverRecover(address[],address[],uint256,bytes,bytes32[])": "e6e1247e",
    "proposeSecretRecover(address[],address[],uint256,bytes)": "f3d3f549",
    "proposeSocialRecover(address[],address[],uint256,bytes,bytes32,bytes32[])": "ec33ddb7",
    "proposeWebAuthnRecover(address[],address[],uint256,bytes,bytes)": "51a2f17a",
    "proxiableUUID()": "52d1902d",
    "pubkey_x()": "652b098a",
    "pubkey_y()": "cd0a16a8",
    "recoveries(uint256)": "7a04c865",
    "recoveryCount()": "010a623c",
    "recoveryNullifiers(uint8,bytes32)": "cd0ad3c1",
    "recoveryTimeLock()": "0ce03f2d",
    "rejectRecovery(uint256)": "9a8f18f3",
    "removeEcrecoverRecover()": "dada7ca2",
    "removeSecretRecover()": "f5120d62",
    "removeSocialRecover()": "b3810340",
    "removeWebAuthnRecover()": "2e56f60d",
    "requiresPermissions()": "e8e755b5",
    "requiresRootAccess()": "be193d27",
    "safe()": "186f0354",
    "safeProtocolManager()": "8e482341",
    "secretVerifier()": "024e5d15",
    "socialRecoverVerifier()": "17f5705e",
    "supportsInterface(bytes4)": "01ffc9a7",
    "upgradeTo(address)": "3659cfe6",
    "upgradeToAndCall(address,bytes)": "4f1ef286",
    "version()": "54fd4d50",
    "webAuthnVerifier()": "7b49fa19"
  },
  "id": 82
}