{
  "abi": [
    {
      "inputs": [],
      "name": "PROOF_VERIFICATION_FAILED",
      "type": "error"
    },
    {
      "inputs": [
        {
          "internalType": "bytes",
          "name": "reason",
          "type": "bytes"
        }
      ],
      "name": "RECOVER_FAILED",
      "type": "error"
    },
    {
      "anonymous": false,
      "inputs": [
        {
          "indexed": false,
          "internalType": "address",
          "name": "previousAdmin",
          "type": "address"
        },
        {
          "indexed": false,
          "internalType": "address",
          "name": "newAdmin",
          "type": "address"
        }
      ],
      "name": "AdminChanged",
      "type": "event"
    },
    {
      "anonymous": false,
      "inputs": [
        {
          "indexed": true,
          "internalType": "address",
          "name": "beacon",
          "type": "address"
        }
      ],
      "name": "BeaconUpgraded",
      "type": "event"
    },
    {
      "anonymous": false,
      "inputs": [
        {
          "indexed": false,
          "internalType": "uint8",
          "name": "version",
          "type": "uint8"
        }
      ],
      "name": "Initialized",
      "type": "event"
    },
    {
      "anonymous": false,
      "inputs": [
        {
          "indexed": true,
          "internalType": "bytes32",
          "name": "metadataHash",
          "type": "bytes32"
        },
        {
          "indexed": false,
          "internalType": "bytes",
          "name": "data",
          "type": "bytes"
        }
      ],
      "name": "Metadata",
      "type": "event"
    },
    {
      "anonymous": false,
      "inputs": [
        {
          "indexed": true,
          "internalType": "address",
          "name": "implementation",
          "type": "address"
        }
      ],
      "name": "Upgraded",
      "type": "event"
    },
    {
      "inputs": [],
      "name": "MIN_TIMELOCK",
      "outputs": [
        {
          "internalType": "uint256",
          "name": "",
          "type": "uint256"
        }
      ],
      "stateMutability": "view",
      "type": "function"
    },
    {
      "inputs": [
        {
          "internalType": "bytes",
          "name": "_webAuthnInputs",
          "type": "bytes"
        }
      ],
      "name": "_computeMessage",
      "outputs": [
        {
          "internalType": "bytes32",
          "name": "",
          "type": "bytes32"
        }
      ],
      "stateMutability": "pure",
      "type": "function"
    },
    {
      "inputs": [
        {
          "internalType": "bytes32",
          "name": "value",
          "type": "bytes32"
        }
      ],
      "name": "_convertBytes32ToBytes32Array",
      "outputs": [
        {
          "internalType": "bytes32[32]",
          "name": "",
          "type": "bytes32[32]"
        }
      ],
      "stateMutability": "pure",
      "type": "function"
    },
    {
      "inputs": [],
      "name": "abc",
      "outputs": [],
      "stateMutability": "nonpayable",
      "type": "function"
    },
    {
      "inputs": [
        {
          "internalType": "uint256",
          "name": "_recoveryTimeLock",
          "type": "uint256"
        },
        {
          "internalType": "bytes32",
          "name": "_hashed_address",
          "type": "bytes32"
        }
      ],
      "name": "addEcrecoverRecover",
      "outputs": [],
      "stateMutability": "nonpayable",
      "type": "function"
    },
    {
      "inputs": [
        {
          "internalType": "uint256",
          "name": "_recoveryTimeLock",
          "type": "uint256"
        },
        {
          "internalType": "bytes32",
          "name": "_hashed_secret",
          "type": "bytes32"
        }
      ],
      "name": "addSecretRecover",
      "outputs": [],
      "stateMutability": "nonpayable",
      "type": "function"
    },
    {
      "inputs": [
        {
          "internalType": "uint256",
          "name": "_recoveryTimeLock",
          "type": "uint256"
        },
        {
          "internalType": "uint256",
          "name": "_threshold",
          "type": "uint256"
        },
        {
          "internalType": "bytes32",
          "name": "_guardiansRoot",
          "type": "bytes32"
        }
      ],
      "name": "addSocialRecover",
      "outputs": [],
      "stateMutability": "nonpayable",
      "type": "function"
    },
    {
      "inputs": [
        {
          "internalType": "uint256",
          "name": "_recoveryTimeLock",
          "type": "uint256"
        },
        {
          "internalType": "bytes32[]",
          "name": "_pubkeyForVerifier",
          "type": "bytes32[]"
        },
        {
          "internalType": "bytes32",
          "name": "_pubkey_x",
          "type": "bytes32"
        },
        {
          "internalType": "bytes32",
          "name": "_pubkey_y",
          "type": "bytes32"
        },
        {
          "internalType": "string",
          "name": "_credentialId",
          "type": "string"
        }
      ],
      "name": "addWebAuthnRecover",
      "outputs": [],
      "stateMutability": "nonpayable",
      "type": "function"
    },
    {
      "inputs": [
        {
          "internalType": "uint256",
          "name": "_recoveryId",
          "type": "uint256"
        },
        {
          "internalType": "bytes",
          "name": "_proof",
          "type": "bytes"
        },
        {
          "internalType": "bytes32",
          "name": "nullifierHash",
          "type": "bytes32"
        },
        {
          "internalType": "bytes32[]",
          "name": "_message",
          "type": "bytes32[]"
        }
      ],
      "name": "approveSocialRecovery",
      "outputs": [
        {
          "internalType": "uint256",
          "name": "",
          "type": "uint256"
        }
      ],
      "stateMutability": "nonpayable",
      "type": "function"
    },
    {
      "inputs": [],
      "name": "credentialId",
      "outputs": [
        {
          "internalType": "string",
          "name": "",
          "type": "string"
        }
      ],
      "stateMutability": "view",
      "type": "function"
    },
    {
      "inputs": [],
      "name": "ecrecoverVerifier",
      "outputs": [
        {
          "internalType": "address",
          "name": "",
          "type": "address"
        }
      ],
      "stateMutability": "view",
      "type": "function"
    },
    {
      "inputs": [
        {
          "internalType": "uint256",
          "name": "_recoveryId",
          "type": "uint256"
        }
      ],
      "name": "execRecovery",
      "outputs": [
        {
          "internalType": "bool",
          "name": "",
          "type": "bool"
        }
      ],
      "stateMutability": "nonpayable",
      "type": "function"
    },
    {
      "inputs": [
        {
          "internalType": "uint256",
          "name": "_proposalId",
          "type": "uint256"
        }
      ],
      "name": "getIsRecoveryExecutable",
      "outputs": [
        {
          "internalType": "bool",
          "name": "",
          "type": "bool"
        }
      ],
      "stateMutability": "view",
      "type": "function"
    },
    {
      "inputs": [
        {
          "internalType": "uint256",
          "name": "_proposalId",
          "type": "uint256"
        }
      ],
      "name": "getPendingNewOwners",
      "outputs": [
        {
          "internalType": "address[]",
          "name": "",
          "type": "address[]"
        }
      ],
      "stateMutability": "view",
      "type": "function"
    },
    {
      "inputs": [],
      "name": "getPubkeyXY",
      "outputs": [
        {
          "internalType": "bytes32",
          "name": "",
          "type": "bytes32"
        },
        {
          "internalType": "bytes32",
          "name": "",
          "type": "bytes32"
        }
      ],
      "stateMutability": "view",
      "type": "function"
    },
    {
      "inputs": [
        {
          "internalType": "uint256",
          "name": "_proposalId",
          "type": "uint256"
        }
      ],
      "name": "getRecoveryByProposalId",
      "outputs": [
        {
          "internalType": "uint8",
          "name": "",
          "type": "uint8"
        },
        {
          "internalType": "address[]",
          "name": "",
          "type": "address[]"
        },
        {
          "internalType": "address[]",
          "name": "",
          "type": "address[]"
        },
        {
          "internalType": "uint256",
          "name": "",
          "type": "uint256"
        },
        {
          "internalType": "uint256",
          "name": "",
          "type": "uint256"
        },
        {
          "internalType": "bool",
          "name": "",
          "type": "bool"
        },
        {
          "internalType": "uint256",
          "name": "",
          "type": "uint256"
        }
      ],
      "stateMutability": "view",
      "type": "function"
    },
    {
      "inputs": [],
      "name": "guardiansRoot",
      "outputs": [
        {
          "internalType": "bytes32",
          "name": "",
          "type": "bytes32"
        }
      ],
      "stateMutability": "view",
      "type": "function"
    },
    {
      "inputs": [],
      "name": "hashed_address",
      "outputs": [
        {
          "internalType": "bytes32",
          "name": "",
          "type": "bytes32"
        }
      ],
      "stateMutability": "view",
      "type": "function"
    },
    {
      "inputs": [
        {
          "internalType": "uint256",
          "name": "",
          "type": "uint256"
        }
      ],
      "name": "hashed_secret",
      "outputs": [
        {
          "internalType": "bytes32",
          "name": "",
          "type": "bytes32"
        }
      ],
      "stateMutability": "view",
      "type": "function"
    },
    {
      "inputs": [
        {
          "internalType": "address",
          "name": "_safe",
          "type": "address"
        },
        {
          "internalType": "address",
          "name": "_safeProtocolManager",
          "type": "address"
        },
        {
          "internalType": "address",
          "name": "_ecrecoverVerifier",
          "type": "address"
        },
        {
          "internalType": "address",
          "name": "_webAuthnVerifier",
          "type": "address"
        },
        {
          "internalType": "address",
          "name": "_secretVerifier",
          "type": "address"
        },
        {
          "internalType": "address",
          "name": "_socialRecoverVerifier",
          "type": "address"
        }
      ],
      "name": "initialize",
      "outputs": [],
      "stateMutability": "nonpayable",
      "type": "function"
    },
    {
      "inputs": [],
      "name": "isEcrecoverRecoverEnabled",
      "outputs": [
        {
          "internalType": "bool",
          "name": "",
          "type": "bool"
        }
      ],
      "stateMutability": "view",
      "type": "function"
    },
    {
      "inputs": [],
      "name": "isSecretRecoverEnabled",
      "outputs": [
        {
          "internalType": "bool",
          "name": "",
          "type": "bool"
        }
      ],
      "stateMutability": "view",
      "type": "function"
    },
    {
      "inputs": [],
      "name": "isSocialRecoverEnabled",
      "outputs": [
        {
          "internalType": "bool",
          "name": "",
          "type": "bool"
        }
      ],
      "stateMutability": "view",
      "type": "function"
    },
    {
      "inputs": [],
      "name": "isWebAuthnRecoverEnabled",
      "outputs": [
        {
          "internalType": "bool",
          "name": "",
          "type": "bool"
        }
      ],
      "stateMutability": "view",
      "type": "function"
    },
    {
      "inputs": [],
      "name": "metadataHash",
      "outputs": [
        {
          "internalType": "bytes32",
          "name": "",
          "type": "bytes32"
        }
      ],
      "stateMutability": "view",
      "type": "function"
    },
    {
      "inputs": [],
      "name": "metadataProvider",
      "outputs": [
        {
          "internalType": "uint256",
          "name": "providerType",
          "type": "uint256"
        },
        {
          "internalType": "bytes",
          "name": "location",
          "type": "bytes"
        }
      ],
      "stateMutability": "view",
      "type": "function"
    },
    {
      "inputs": [],
      "name": "name",
      "outputs": [
        {
          "internalType": "string",
          "name": "",
          "type": "string"
        }
      ],
      "stateMutability": "view",
      "type": "function"
    },
    {
      "inputs": [
        {
          "internalType": "address[]",
          "name": "_oldAddresses",
          "type": "address[]"
        },
        {
          "internalType": "address[]",
          "name": "_newAddresses",
          "type": "address[]"
        },
        {
          "internalType": "uint256",
          "name": "_newThreshold",
          "type": "uint256"
        },
        {
          "internalType": "bytes",
          "name": "_proof",
          "type": "bytes"
        },
        {
          "internalType": "bytes32[]",
          "name": "_message",
          "type": "bytes32[]"
        }
      ],
      "name": "proposeEcrecoverRecover",
      "outputs": [
        {
          "internalType": "uint256",
          "name": "",
          "type": "uint256"
        },
        {
          "internalType": "uint256",
          "name": "",
          "type": "uint256"
        }
      ],
      "stateMutability": "nonpayable",
      "type": "function"
    },
    {
      "inputs": [
        {
          "internalType": "address[]",
          "name": "_oldAddresses",
          "type": "address[]"
        },
        {
          "internalType": "address[]",
          "name": "_newAddresses",
          "type": "address[]"
        },
        {
          "internalType": "uint256",
          "name": "_newThreshold",
          "type": "uint256"
        },
        {
          "internalType": "bytes",
          "name": "_proof",
          "type": "bytes"
        }
      ],
      "name": "proposeSecretRecover",
      "outputs": [
        {
          "internalType": "uint256",
          "name": "",
          "type": "uint256"
        },
        {
          "internalType": "uint256",
          "name": "",
          "type": "uint256"
        }
      ],
      "stateMutability": "nonpayable",
      "type": "function"
    },
    {
      "inputs": [
        {
          "internalType": "address[]",
          "name": "_oldAddresses",
          "type": "address[]"
        },
        {
          "internalType": "address[]",
          "name": "_newAddresses",
          "type": "address[]"
        },
        {
          "internalType": "uint256",
          "name": "_newThreshold",
          "type": "uint256"
        },
        {
          "internalType": "bytes",
          "name": "_proof",
          "type": "bytes"
        },
        {
          "internalType": "bytes32",
          "name": "_nullifierHash",
          "type": "bytes32"
        },
        {
          "internalType": "bytes32[]",
          "name": "_message",
          "type": "bytes32[]"
        }
      ],
      "name": "proposeSocialRecover",
      "outputs": [
        {
          "internalType": "uint256",
          "name": "",
          "type": "uint256"
        },
        {
          "internalType": "uint256",
          "name": "",
          "type": "uint256"
        }
      ],
      "stateMutability": "nonpayable",
      "type": "function"
    },
    {
      "inputs": [
        {
          "internalType": "address[]",
          "name": "_oldAddresses",
          "type": "address[]"
        },
        {
          "internalType": "address[]",
          "name": "_newAddresses",
          "type": "address[]"
        },
        {
          "internalType": "uint256",
          "name": "_newThreshold",
          "type": "uint256"
        },
        {
          "internalType": "bytes",
          "name": "_proof",
          "type": "bytes"
        },
        {
          "internalType": "bytes",
          "name": "_webAuthnInputs",
          "type": "bytes"
        }
      ],
      "name": "proposeWebAuthnRecover",
      "outputs": [
        {
          "internalType": "uint256",
          "name": "",
          "type": "uint256"
        },
        {
          "internalType": "uint256",
          "name": "",
          "type": "uint256"
        }
      ],
      "stateMutability": "nonpayable",
      "type": "function"
    },
    {
      "inputs": [],
      "name": "proxiableUUID",
      "outputs": [
        {
          "internalType": "bytes32",
          "name": "",
          "type": "bytes32"
        }
      ],
      "stateMutability": "view",
      "type": "function"
    },
    {
      "inputs": [
        {
          "internalType": "uint256",
          "name": "",
          "type": "uint256"
        }
      ],
      "name": "pubkeyForVerifier",
      "outputs": [
        {
          "internalType": "bytes32",
          "name": "",
          "type": "bytes32"
        }
      ],
      "stateMutability": "view",
      "type": "function"
    },
    {
      "inputs": [],
      "name": "pubkey_x",
      "outputs": [
        {
          "internalType": "bytes32",
          "name": "",
          "type": "bytes32"
        }
      ],
      "stateMutability": "view",
      "type": "function"
    },
    {
      "inputs": [],
      "name": "pubkey_y",
      "outputs": [
        {
          "internalType": "bytes32",
          "name": "",
          "type": "bytes32"
        }
      ],
      "stateMutability": "view",
      "type": "function"
    },
    {
      "inputs": [
        {
          "internalType": "uint256",
          "name": "",
          "type": "uint256"
        }
      ],
      "name": "recoveries",
      "outputs": [
        {
          "internalType": "uint8",
          "name": "recoveryType",
          "type": "uint8"
        },
        {
          "internalType": "uint256",
          "name": "newThreshold",
          "type": "uint256"
        },
        {
          "internalType": "uint256",
          "name": "deadline",
          "type": "uint256"
        },
        {
          "internalType": "bool",
          "name": "rejected",
          "type": "bool"
        },
        {
          "internalType": "uint256",
          "name": "approvalCount",
          "type": "uint256"
        }
      ],
      "stateMutability": "view",
      "type": "function"
    },
    {
      "inputs": [],
      "name": "recoveryCount",
      "outputs": [
        {
          "internalType": "uint256",
          "name": "",
          "type": "uint256"
        }
      ],
      "stateMutability": "view",
      "type": "function"
    },
    {
      "inputs": [],
      "name": "recoveryTimeLock",
      "outputs": [
        {
          "internalType": "uint256",
          "name": "",
          "type": "uint256"
        }
      ],
      "stateMutability": "view",
      "type": "function"
    },
    {
      "inputs": [
        {
          "internalType": "uint256",
          "name": "_recoveryId",
          "type": "uint256"
        }
      ],
      "name": "rejectRecovery",
      "outputs": [],
      "stateMutability": "nonpayable",
      "type": "function"
    },
    {
      "inputs": [],
      "name": "removeEcrecoverRecover",
      "outputs": [],
      "stateMutability": "nonpayable",
      "type": "function"
    },
    {
      "inputs": [],
      "name": "removeSecretRecover",
      "outputs": [],
      "stateMutability": "nonpayable",
      "type": "function"
    },
    {
      "inputs": [],
      "name": "removeSocialRecover",
      "outputs": [],
      "stateMutability": "nonpayable",
      "type": "function"
    },
    {
      "inputs": [],
      "name": "removeWebAuthnRecover",
      "outputs": [],
      "stateMutability": "nonpayable",
      "type": "function"
    },
    {
      "inputs": [],
      "name": "requiresPermissions",
      "outputs": [
        {
          "internalType": "uint8",
          "name": "permissions",
          "type": "uint8"
        }
      ],
      "stateMutability": "view",
      "type": "function"
    },
    {
      "inputs": [],
      "name": "requiresRootAccess",
      "outputs": [
        {
          "internalType": "bool",
          "name": "",
          "type": "bool"
        }
      ],
      "stateMutability": "view",
      "type": "function"
    },
    {
      "inputs": [],
      "name": "safe",
      "outputs": [
        {
          "internalType": "address",
          "name": "",
          "type": "address"
        }
      ],
      "stateMutability": "view",
      "type": "function"
    },
    {
      "inputs": [],
      "name": "safeProtocolManager",
      "outputs": [
        {
          "internalType": "contract ISafeProtocolManager",
          "name": "",
          "type": "address"
        }
      ],
      "stateMutability": "view",
      "type": "function"
    },
    {
      "inputs": [],
      "name": "secretVerifier",
      "outputs": [
        {
          "internalType": "address",
          "name": "",
          "type": "address"
        }
      ],
      "stateMutability": "view",
      "type": "function"
    },
    {
      "inputs": [],
      "name": "socialRecoverVerifier",
      "outputs": [
        {
          "internalType": "address",
          "name": "",
          "type": "address"
        }
      ],
      "stateMutability": "view",
      "type": "function"
    },
    {
      "inputs": [
        {
          "internalType": "bytes4",
          "name": "interfaceId",
          "type": "bytes4"
        }
      ],
      "name": "supportsInterface",
      "outputs": [
        {
          "internalType": "bool",
          "name": "",
          "type": "bool"
        }
      ],
      "stateMutability": "view",
      "type": "function"
    },
    {
      "inputs": [],
      "name": "threshold",
      "outputs": [
        {
          "internalType": "uint256",
          "name": "",
          "type": "uint256"
        }
      ],
      "stateMutability": "view",
      "type": "function"
    },
    {
      "inputs": [
        {
          "internalType": "address",
          "name": "newImplementation",
          "type": "address"
        }
      ],
      "name": "upgradeTo",
      "outputs": [],
      "stateMutability": "nonpayable",
      "type": "function"
    },
    {
      "inputs": [
        {
          "internalType": "address",
          "name": "newImplementation",
          "type": "address"
        },
        {
          "internalType": "bytes",
          "name": "data",
          "type": "bytes"
        }
      ],
      "name": "upgradeToAndCall",
      "outputs": [],
      "stateMutability": "payable",
      "type": "function"
    },
    {
      "inputs": [],
      "name": "version",
      "outputs": [
        {
          "internalType": "string",
          "name": "",
          "type": "string"
        }
      ],
      "stateMutability": "view",
      "type": "function"
    },
    {
      "inputs": [],
      "name": "webAuthnVerifier",
      "outputs": [
        {
          "internalType": "address",
          "name": "",
          "type": "address"
        }
      ],
      "stateMutability": "view",
      "type": "function"
    }
  ],
  "bytecode": {
    "object": "0x60a06040523060805234801561001457600080fd5b50608051614b5961004c6000396000818161119d0152818161123301528181611424015281816114ba01526116d00152614b596000f3fe6080604052600436106103605760003560e01c80637a04c865116101c6578063cc2a9a5b116100f7578063e6e1247e11610095578063ec33ddb71161006f578063ec33ddb714610a08578063f3d3f54914610a28578063f5120d6214610a48578063fb0c754914610a5d57600080fd5b8063e6e1247e146109ab578063e6f352c9146109cb578063e8e755b5146109ec57600080fd5b8063d3d72d2a116100d1578063d3d72d2a14610919578063d83dfc261461095d578063dada7ca214610975578063e67953061461098a57600080fd5b8063cc2a9a5b146108c3578063cd0a16a8146108e3578063cdb44775146108f957600080fd5b80639227793311610164578063b38103401161013e578063b38103401461085e578063b8ee453d14610873578063be193d2714610893578063c5a1d7f0146108ad57600080fd5b8063922779331461081d5780639a8f18f314610829578063a3c0f0b71461084957600080fd5b80637d9e0141116101a05780637d9e0141146107a657806383b1a8c1146107c657806387dee39f146107e75780638e482341146107fd57600080fd5b80637a04c865146106e75780637b49fa19146107665780637c64dd761461078657600080fd5b80633563c034116102a057806352d1902d1161023e57806357a603261161021857806357a6032614610664578063652b098a14610684578063665caab71461069a57806367a277a4146106ba57600080fd5b806352d1902d1461062457806354fd4d50146106395780635695f2921461064e57600080fd5b806342cde4e81161027a57806342cde4e8146105995780634969ca3f146105af5780634f1ef286146105dc57806351a2f17a146105ef57600080fd5b80633563c034146105395780633659cfe614610559578063403f69d21461057957600080fd5b806317f5705e1161030d57806323a6c20e116102e757806323a6c20e146104ae57806323b26075146104e15780632da4e420146105025780632e56f60d1461052257600080fd5b806317f5705e1461044e578063186f03541461046e5780632152ab1b1461048e57600080fd5b806306fdde031161033e57806306fdde03146103f65780630ce03f2d146104185780631788430b1461042e57600080fd5b8063010a623c1461036557806301ffc9a71461038e578063024e5d15146103be575b600080fd5b34801561037157600080fd5b5061037b60075481565b6040519081526020015b60405180910390f35b34801561039a57600080fd5b506103ae6103a9366004613c5e565b610a72565b6040519015158152602001610385565b3480156103ca57600080fd5b50600e546103de906001600160a01b031681565b6040516001600160a01b039091168152602001610385565b34801561040257600080fd5b5061040b610b0b565b6040516103859190613cf0565b34801561042457600080fd5b5061037b60065481565b34801561043a57600080fd5b5061037b610449366004613e68565b610b99565b34801561045a57600080fd5b506012546103de906001600160a01b031681565b34801561047a57600080fd5b506005546103de906001600160a01b031681565b34801561049a57600080fd5b506103ae6104a9366004613edf565b610ca9565b3480156104ba57600080fd5b506104ce6104c9366004613edf565b610e33565b6040516103859796959493929190613f3c565b3480156104ed57600080fd5b506009546103ae90600160a01b900460ff1681565b34801561050e57600080fd5b5061037b61051d366004613f91565b610fa4565b34801561052e57600080fd5b50610537611038565b005b34801561054557600080fd5b50610537610554366004613fc6565b6110b1565b34801561056557600080fd5b50610537610574366004614070565b611193565b34801561058557600080fd5b5061037b610594366004613edf565b611327565b3480156105a557600080fd5b5061037b60145481565b3480156105bb57600080fd5b506105cf6105ca366004613edf565b611348565b604051610385919061408d565b6105376105ea3660046140a0565b61141a565b3480156105fb57600080fd5b5061060f61060a366004614154565b61159f565b60408051928352602083019190915201610385565b34801561063057600080fd5b5061037b6116c3565b34801561064557600080fd5b5061040b611788565b34801561065a57600080fd5b5061037b60135481565b34801561067057600080fd5b5061053761067f3660046141fe565b611795565b34801561069057600080fd5b5061037b600b5481565b3480156106a657600080fd5b506105376106b53660046141fe565b611885565b3480156106c657600080fd5b506106da6106d5366004613edf565b611962565b6040516103859190614220565b3480156106f357600080fd5b50610738610702366004613edf565b6008602052600090815260409020805460038201546004830154600584015460069094015460ff93841694929391929091169085565b6040805160ff909616865260208601949094529284019190915215156060830152608082015260a001610385565b34801561077257600080fd5b506009546103de906001600160a01b031681565b34801561079257600080fd5b506010546103de906001600160a01b031681565b3480156107b257600080fd5b506105376107c1366004614256565b6119c1565b3480156107d257600080fd5b50600e546103ae90600160a01b900460ff1681565b3480156107f357600080fd5b5061037b60115481565b34801561080957600080fd5b506015546103de906001600160a01b031681565b34801561053757600080fd5b34801561083557600080fd5b50610537610844366004613edf565b611aa4565b34801561085557600080fd5b5061040b611b72565b34801561086a57600080fd5b50610537611b7f565b34801561087f57600080fd5b5061037b61088e366004613edf565b611c5c565b34801561089f57600080fd5b506003546103ae9060ff1681565b3480156108b957600080fd5b5061037b60045481565b3480156108cf57600080fd5b506105376108de366004614282565b611c6c565b3480156108ef57600080fd5b5061037b600c5481565b34801561090557600080fd5b506103ae610914366004613edf565b611f00565b34801561092557600080fd5b5061094f604080513060208201526003916060910160405160208183030381529060405290509091565b604051610385929190614304565b34801561096957600080fd5b50600b54600c5461060f565b34801561098157600080fd5b506105376126ab565b34801561099657600080fd5b506010546103ae90600160a01b900460ff1681565b3480156109b757600080fd5b5061060f6109c636600461431d565b61277e565b3480156109d757600080fd5b506012546103ae90600160a01b900460ff1681565b3480156109f857600080fd5b5060405160028152602001610385565b348015610a1457600080fd5b5061060f610a233660046143c7565b612895565b348015610a3457600080fd5b5061060f610a43366004614486565b6129cf565b348015610a5457600080fd5b50610537612b26565b348015610a6957600080fd5b5061037b600a81565b60007fffffffff0000000000000000000000000000000000000000000000000000000082167f6930ebcc000000000000000000000000000000000000000000000000000000001480610b0557507f01ffc9a7000000000000000000000000000000000000000000000000000000007fffffffff000000000000000000000000000000000000000000000000000000008316145b92915050565b60018054610b189061450c565b80601f0160208091040260200160405190810160405280929190818152602001828054610b449061450c565b8015610b915780601f10610b6657610100808354040283529160200191610b91565b820191906000526020600020905b815481529060010190602001808311610b7457829003601f168201915b505050505081565b60408051602380825261048082019092526000918291906020820161046080368337019050509050610bcd86828587612bf9565b6012546040517fea50d0e40000000000000000000000000000000000000000000000000000000081529192506001600160a01b03169063ea50d0e490610c19908890859060040161455f565b602060405180830381865afa158015610c36573d6000803e3d6000fd5b505050506040513d601f19601f82011682018060405250810190610c5a91906145b6565b610c90576040517fff3ee09d00000000000000000000000000000000000000000000000000000000815260040160405180910390fd5b6000610c9c8786612ccb565b925050505b949350505050565b60008115801590610cbc57506007548211155b610d0d5760405162461bcd60e51b815260206004820152600a60248201527f494e56414c49445f49440000000000000000000000000000000000000000000060448201526064015b60405180910390fd5b6000828152600860205260409020600581015460ff1615610d705760405162461bcd60e51b815260206004820152601160248201527f50524f504f53414c5f52454a45435445440000000000000000000000000000006044820152606401610d04565b8060040154421015610dc45760405162461bcd60e51b815260206004820152601160248201527f44454c41595f4e4f545f455850495245440000000000000000000000000000006044820152606401610d04565b805460ff166003148015610ddd57506014548160060154105b15610e2a5760405162461bcd60e51b815260206004820152601560248201527f494e53554646494349454e545f415050524f56414c00000000000000000000006044820152606401610d04565b50600192915050565b6000606080828080808715801590610e4d57506007548811155b610e995760405162461bcd60e51b815260206004820152600a60248201527f494e56414c49445f4944000000000000000000000000000000000000000000006044820152606401610d04565b600088815260086020908152604091829020805460038201546004830154600584015460068501546001860180548951818a0281018a01909a52808a52969860ff96871698919760028b0197909416939091889190830182828015610f2757602002820191906000526020600020905b81546001600160a01b03168152600190910190602001808311610f09575b5050505050955084805480602002602001604051908101604052809291908181526020018280548015610f8357602002820191906000526020600020905b81546001600160a01b03168152600190910190602001808311610f65575b50505050509450975097509750975097509750975050919395979092949650565b6040517ff8f5689c00000000000000000000000000000000000000000000000000000000815260009073__$6d399485da7ef05af8887e90c5d884cf80$__9063f8f5689c90610ff7908590600401613cf0565b602060405180830381865af4158015611014573d6000803e3d6000fd5b505050506040513d601f19601f82011682018060405250810190610b0591906145d8565b600954600160a01b900460ff166110915760405162461bcd60e51b815260206004820152600b60248201527f4e4f545f454e41424c45440000000000000000000000000000000000000000006044820152606401610d04565b6009805474ff000000000000000000000000000000000000000019169055565b60408051600081526020810180835281519020916110d1918491016145f1565b60405160208183030381529060405280519060200120036111345760405162461bcd60e51b815260206004820152601560248201527f494e56414c49445f43524544454e5449414c5f494400000000000000000000006044820152606401610d04565b835161114790600a906020870190613b72565b50600b839055600c829055600d61115e828261465b565b5061116885612d7c565b50506009805474ff00000000000000000000000000000000000000001916600160a01b179055505050565b6001600160a01b037f00000000000000000000000000000000000000000000000000000000000000001630036112315760405162461bcd60e51b815260206004820152602c60248201527f46756e6374696f6e206d7573742062652063616c6c6564207468726f7567682060448201527f64656c656761746563616c6c00000000000000000000000000000000000000006064820152608401610d04565b7f00000000000000000000000000000000000000000000000000000000000000006001600160a01b031661128c7f360894a13ba1a3210667c828492db98dca3e2076cc3735a920a3ca505d382bbc546001600160a01b031690565b6001600160a01b0316146113085760405162461bcd60e51b815260206004820152602c60248201527f46756e6374696f6e206d7573742062652063616c6c6564207468726f7567682060448201527f6163746976652070726f787900000000000000000000000000000000000000006064820152608401610d04565b6040805160008082526020820190925261132491839190612dd2565b50565b600f818154811061133757600080fd5b600091825260209091200154905081565b6060811580159061135b57506007548211155b6113a75760405162461bcd60e51b815260206004820152600a60248201527f494e56414c49445f4944000000000000000000000000000000000000000000006044820152606401610d04565b60008281526008602090815260409182902060018101805484518185028101850190955280855291939290919083018282801561140d57602002820191906000526020600020905b81546001600160a01b031681526001909101906020018083116113ef575b5050505050915050919050565b6001600160a01b037f00000000000000000000000000000000000000000000000000000000000000001630036114b85760405162461bcd60e51b815260206004820152602c60248201527f46756e6374696f6e206d7573742062652063616c6c6564207468726f7567682060448201527f64656c656761746563616c6c00000000000000000000000000000000000000006064820152608401610d04565b7f00000000000000000000000000000000000000000000000000000000000000006001600160a01b03166115137f360894a13ba1a3210667c828492db98dca3e2076cc3735a920a3ca505d382bbc546001600160a01b031690565b6001600160a01b03161461158f5760405162461bcd60e51b815260206004820152602c60248201527f46756e6374696f6e206d7573742062652063616c6c6564207468726f7567682060448201527f6163746976652070726f787900000000000000000000000000000000000000006064820152608401610d04565b61159b82826001612dd2565b5050565b60055460009081906001600160a01b031633036115fe5760405162461bcd60e51b815260206004820152600e60248201527f494e56414c49445f53454e4445520000000000000000000000000000000000006044820152606401610d04565b600954600160a01b900460ff166116575760405162461bcd60e51b815260206004820152600b60248201527f4e4f545f454e41424c45440000000000000000000000000000000000000000006044820152606401610d04565b6000611664888888612f77565b9050600061167185610fa4565b604080516060808252610c2082019092529192506000919060208201610c00803683370190505090506116a382613445565b90506116b260018b8b86613553565b945094505050509550959350505050565b6000306001600160a01b037f000000000000000000000000000000000000000000000000000000000000000016146117635760405162461bcd60e51b815260206004820152603860248201527f555550535570677261646561626c653a206d757374206e6f742062652063616c60448201527f6c6564207468726f7567682064656c656761746563616c6c00000000000000006064820152608401610d04565b507f360894a13ba1a3210667c828492db98dca3e2076cc3735a920a3ca505d382bbc90565b60028054610b189061450c565b6005546001600160a01b031633146117ef5760405162461bcd60e51b815260206004820152600f60248201527f53454e4445525f4e4f545f5341464500000000000000000000000000000000006044820152606401610d04565b8061183c5760405162461bcd60e51b815260206004820152600c60248201527f494e56414c49445f4841534800000000000000000000000000000000000000006044820152606401610d04565b61184581611962565b61185390600f906020613b72565b5061185d82612d7c565b5050600e805474ff00000000000000000000000000000000000000001916600160a01b179055565b6005546001600160a01b031633146118df5760405162461bcd60e51b815260206004820152600f60248201527f53454e4445525f4e4f545f5341464500000000000000000000000000000000006044820152606401610d04565b8061192c5760405162461bcd60e51b815260206004820152600c60248201527f494e56414c49445f4841534800000000000000000000000000000000000000006044820152606401610d04565b601181905561193a82612d7c565b50506010805474ff00000000000000000000000000000000000000001916600160a01b179055565b61196a613bbd565b611972613bbd565b60005b60208110156119ba578381602081106119905761199061471b565b1a8282602081106119a3576119a361471b565b6020020152806119b281614779565b915050611975565b5092915050565b6005546001600160a01b03163314611a1b5760405162461bcd60e51b815260206004820152600f60248201527f53454e4445525f4e4f545f5341464500000000000000000000000000000000006044820152606401610d04565b80611a685760405162461bcd60e51b815260206004820152600c60248201527f494e56414c49445f4841534800000000000000000000000000000000000000006044820152606401610d04565b60138190556014829055611a7b83612d7c565b50506012805474ff00000000000000000000000000000000000000001916600160a01b17905550565b6005546001600160a01b03163314611afe5760405162461bcd60e51b815260206004820152600f60248201527f53454e4445525f4e4f545f5341464500000000000000000000000000000000006044820152606401610d04565b6000818152600860205260409020600581015460ff1615611b615760405162461bcd60e51b815260206004820152601060248201527f414c52454144595f52454a4543544544000000000000000000000000000000006044820152606401610d04565b600501805460ff1916600117905550565b600d8054610b189061450c565b6005546001600160a01b03163314611bd95760405162461bcd60e51b815260206004820152600f60248201527f53454e4445525f4e4f545f5341464500000000000000000000000000000000006044820152606401610d04565b601254600160a01b900460ff16611c325760405162461bcd60e51b815260206004820152600b60248201527f4e4f545f454e41424c45440000000000000000000000000000000000000000006044820152606401610d04565b600060138190556014556012805474ff000000000000000000000000000000000000000019169055565b600a818154811061133757600080fd5b600054610100900460ff1615808015611c8c5750600054600160ff909116105b80611ca65750303b158015611ca6575060005460ff166001145b611d185760405162461bcd60e51b815260206004820152602e60248201527f496e697469616c697a61626c653a20636f6e747261637420697320616c72656160448201527f647920696e697469616c697a65640000000000000000000000000000000000006064820152608401610d04565b6000805460ff191660011790558015611d5857600080547fffffffffffffffffffffffffffffffffffffffffffffffffffffffffffff00ff166101001790555b611e1a6040518060a001604052806040518060400160405280601481526020017f53616665205265636f7665727920506c7567696e00000000000000000000000081525081526020016040518060400160405280600581526020017f312e302e300000000000000000000000000000000000000000000000000000008152508152602001600115158152602001604051806020016040528060008152508152602001604051806060016040528060338152602001614af16033913990526135e3565b600580547fffffffffffffffffffffffff00000000000000000000000000000000000000009081166001600160a01b038a811691909117909255601580548216898416179055601080548216888416179055600980548216878416179055600e80548216868416179055601280549091169184169190911790558015611ef757600080547fffffffffffffffffffffffffffffffffffffffffffffffffffffffffffff00ff169055604051600181527f7f26b83ff96e1f2b6a682f133852f6798a09c465da95921460cefb38474024989060200160405180910390a15b50505050505050565b60008115801590611f1357506007548211155b611f5f5760405162461bcd60e51b815260206004820152600a60248201527f494e56414c49445f4944000000000000000000000000000000000000000000006044820152606401610d04565b6000828152600860205260409020600581015460ff1615611fc25760405162461bcd60e51b815260206004820152601160248201527f50524f504f53414c5f52454a45435445440000000000000000000000000000006044820152606401610d04565b80600401544210156120165760405162461bcd60e51b815260206004820152601160248201527f44454c41595f4e4f545f455850495245440000000000000000000000000000006044820152606401610d04565b805460ff16600314801561202f57506014548160060154105b1561207c5760405162461bcd60e51b815260206004820152601560248201527f494e53554646494349454e545f415050524f56414c00000000000000000000006044820152606401610d04565b6003810154600554604080517fe75235b80000000000000000000000000000000000000000000000000000000081529051600093926001600160a01b03169163e75235b89160048083019260209291908290030181865afa1580156120e5573d6000803e3d6000fd5b505050506040513d601f19601f8201168201806040525081019061210991906145d8565b60028401549114159150600082612120578161212b565b61212b826001614793565b905060008167ffffffffffffffff81111561214857612148613d03565b60405190808252806020026020018201604052801561219557816020015b604080516060808201835260008083526020830152918101919091528152602001906001900390816121665790505b509050606060005b848110156123e75763e318b52b60e01b6122958860020183815481106121c5576121c561471b565b6000918252602091829020015460028b01805460408051828602810186019091528181526001600160a01b039093169383018282801561222e57602002820191906000526020600020905b81546001600160a01b03168152600190910190602001808311612210575b50505050508a60010180548060200260200160405190810160405280929190818152602001828054801561228b57602002820191906000526020600020905b81546001600160a01b0316815260019091019060200180831161226d575b505050505061362e565b8860020183815481106122aa576122aa61471b565b60009182526020909120015460018a0180546001600160a01b0390921691859081106122d8576122d861471b565b6000918252602090912001546040516001600160a01b039384166024820152918316604483015291909116606482015260840160408051601f198184030181529190526020810180517bffffffffffffffffffffffffffffffffffffffffffffffffffffffff167fffffffff000000000000000000000000000000000000000000000000000000009093169290921790915260055484519193506001600160a01b03169084908390811061238e5761238e61471b565b6020026020010151600001906001600160a01b031690816001600160a01b031681525050818382815181106123c5576123c561471b565b60200260200101516040018190525080806123df90614779565b91505061219d565b5084156124f3576005546001600160a01b0316826124066001866147a6565b815181106124165761241661471b565b60209081029190910101516001600160a01b03909116905260038601546040517f694e80c300000000000000000000000000000000000000000000000000000000916124689160240190815260200190565b60408051601f198184030181529190526020810180517bffffffffffffffffffffffffffffffffffffffffffffffffffffffff167fffffffff0000000000000000000000000000000000000000000000000000000090931692909217909152826124d36001866147a6565b815181106124e3576124e361471b565b6020026020010151604001819052505b6040805160608101825283815260055482517faffed0e000000000000000000000000000000000000000000000000000000000815292516000936020808501936001600160a01b03169263affed0e09260048082019392918290030181865afa158015612564573d6000803e3d6000fd5b505050506040513d601f19601f8201168201806040525081019061258891906145d8565b612593906001614793565b8152600480546020909201919091526015546005546040517f0f9919150000000000000000000000000000000000000000000000000000000081529394506001600160a01b0391821693630f991915936125f393909216918691016147b9565b6000604051808303816000875af192505050801561263357506040513d6000823e601f3d908101601f191682016040526126309190810190614888565b60015b61269b573d808015612661576040519150601f19603f3d011682016040523d82523d6000602084013e612666565b606091505b50806040517f2e268859000000000000000000000000000000000000000000000000000000008152600401610d049190613cf0565b5050600198975050505050505050565b6005546001600160a01b031633146127055760405162461bcd60e51b815260206004820152600f60248201527f53454e4445525f4e4f545f5341464500000000000000000000000000000000006044820152606401610d04565b601054600160a01b900460ff1661275e5760405162461bcd60e51b815260206004820152600b60248201527f4e4f545f454e41424c45440000000000000000000000000000000000000000006044820152606401610d04565b6010805474ff000000000000000000000000000000000000000019169055565b60055460009081906001600160a01b031633036127dd5760405162461bcd60e51b815260206004820152600e60248201527f494e56414c49445f53454e4445520000000000000000000000000000000000006044820152606401610d04565b601054600160a01b900460ff166128365760405162461bcd60e51b815260206004820152600b60248201527f4e4f545f454e41424c45440000000000000000000000000000000000000000006044820152606401610d04565b6000612843888888612f77565b604080516021808252610440820190925291925060009190602082016104208036833701905050905061287681866137ba565b905061288560008a8a85613553565b9350935050509550959350505050565b60055460009081906001600160a01b031633036128f45760405162461bcd60e51b815260206004820152600e60248201527f494e56414c49445f53454e4445520000000000000000000000000000000000006044820152606401610d04565b601254600160a01b900460ff1661294d5760405162461bcd60e51b815260206004820152600b60248201527f4e4f545f454e41424c45440000000000000000000000000000000000000000006044820152606401610d04565b600061295a898989612f77565b604080516023808252610480820190925291925060009190602082016104608036833701905050905061299d60075460016129959190614793565b828789612bf9565b90506000806129af60038d8d87613553565b915091506129bd8289612ccb565b50909b909a5098505050505050505050565b60055460009081906001600160a01b03163303612a2e5760405162461bcd60e51b815260206004820152600e60248201527f494e56414c49445f53454e4445520000000000000000000000000000000000006044820152606401610d04565b600e54600160a01b900460ff16612a875760405162461bcd60e51b815260206004820152600b60248201527f4e4f545f454e41424c45440000000000000000000000000000000000000000006044820152606401610d04565b6000612a94878787612f77565b6040805160208082526104208201909252919250600091908082016104008036833701905050600f805460408051602080840282018101909252828152939450830182828015612b0357602002820191906000526020600020905b815481526020019060010190808311612aef575b50505050509050612b176002898985613553565b93509350505094509492505050565b6005546001600160a01b03163314612b805760405162461bcd60e51b815260206004820152600f60248201527f53454e4445525f4e4f545f5341464500000000000000000000000000000000006044820152606401610d04565b600e54600160a01b900460ff16612bd95760405162461bcd60e51b815260206004820152600b60248201527f4e4f545f454e41424c45440000000000000000000000000000000000000000006044820152606401610d04565b600e805474ff000000000000000000000000000000000000000019169055565b606060135484600081518110612c1157612c1161471b565b6020026020010181815250508460001b84600181518110612c3457612c3461471b565b6020026020010181815250508184600281518110612c5457612c5461471b565b60200260200101818152505060005b6020811015612cc157838181518110612c7e57612c7e61471b565b602002602001015185826003612c949190614793565b81518110612ca457612ca461471b565b602090810291909101015280612cb981614779565b915050612c63565b5092949350505050565b60008281526008602090815260408083208484526007810190925282205460ff1615612d395760405162461bcd60e51b815260206004820152601160248201527f494e56414c49445f4e554c4c49464945520000000000000000000000000000006044820152606401610d04565b60008381526007820160205260408120805460ff1916600190811790915560068301805491929091612d6c908490614793565b9091555050600601549392505050565b600a811015612dcd5760405162461bcd60e51b815260206004820152600f60248201527f44454c41595f544f4f5f53484f525400000000000000000000000000000000006044820152606401610d04565b600655565b7f4910fdfa16fed3260ed0e7147f7cc6da11a60208b5b9406d12a635614ffd91435460ff1615612e0a57612e0583613847565b505050565b826001600160a01b03166352d1902d6040518163ffffffff1660e01b8152600401602060405180830381865afa925050508015612e64575060408051601f3d908101601f19168201909252612e61918101906145d8565b60015b612ed65760405162461bcd60e51b815260206004820152602e60248201527f45524331393637557067726164653a206e657720696d706c656d656e7461746960448201527f6f6e206973206e6f7420555550530000000000000000000000000000000000006064820152608401610d04565b7f360894a13ba1a3210667c828492db98dca3e2076cc3735a920a3ca505d382bbc8114612f6b5760405162461bcd60e51b815260206004820152602960248201527f45524331393637557067726164653a20756e737570706f727465642070726f7860448201527f6961626c655555494400000000000000000000000000000000000000000000006064820152608401610d04565b50612e0583838361391d565b60008251845114612fca5760405162461bcd60e51b815260206004820152600e60248201527f554e455155414c5f4c454e4754480000000000000000000000000000000000006044820152606401610d04565b600554604080517fa0e67e2b00000000000000000000000000000000000000000000000000000000815290516000926001600160a01b03169163a0e67e2b91600480830192869291908290030181865afa15801561302c573d6000803e3d6000fd5b505050506040513d6000823e601f3d908101601f191682016040526130549190810190614975565b90508051855111156130a85760405162461bcd60e51b815260206004820152600e60248201527f494e56414c49445f4c454e4754480000000000000000000000000000000000006044820152606401610d04565b60005b855181101561334d5760055486516001600160a01b0390911690632f54bf6e908890849081106130dd576130dd61471b565b60200260200101516040518263ffffffff1660e01b815260040161311091906001600160a01b0391909116815260200190565b602060405180830381865afa15801561312d573d6000803e3d6000fd5b505050506040513d601f19601f8201168201806040525081019061315191906145b6565b61319d5760405162461bcd60e51b815260206004820152600960248201527f4e4f545f4f574e455200000000000000000000000000000000000000000000006044820152606401610d04565b60055485516001600160a01b0390911690632f54bf6e908790849081106131c6576131c661471b565b60200260200101516040518263ffffffff1660e01b81526004016131f991906001600160a01b0391909116815260200190565b602060405180830381865afa158015613216573d6000803e3d6000fd5b505050506040513d601f19601f8201168201806040525081019061323a91906145b6565b156132875760405162461bcd60e51b815260206004820152600d60248201527f414c44524544595f4f574e4552000000000000000000000000000000000000006044820152606401610d04565b60006001600160a01b03168582815181106132a4576132a461471b565b60200260200101516001600160a01b0316141580156132ef575060016001600160a01b03168582815181106132db576132db61471b565b60200260200101516001600160a01b031614155b61333b5760405162461bcd60e51b815260206004820152600f60248201527f494e56414c49445f4144445245535300000000000000000000000000000000006044820152606401610d04565b8061334581614779565b9150506130ab565b50600554604080517fe75235b800000000000000000000000000000000000000000000000000000000815290516000926001600160a01b03169163e75235b89160048083019260209291908290030181865afa1580156133b1573d6000803e3d6000fd5b505050506040513d601f19601f820116820180604052508101906133d591906145d8565b905060008185036133e657816133e8565b845b9050808351101561343b5760405162461bcd60e51b815260206004820152601160248201527f494e56414c49445f5448524553484f4c440000000000000000000000000000006044820152606401610d04565b9695505050505050565b604080516060808252610c2082019092526000908260208201610c008036833701905050905060005b60208110156119ba57600a818154811061348a5761348a61471b565b90600052602060002001548282815181106134a7576134a761471b565b602002602001018181525050600a8160206134c29190614793565b815481106134d2576134d261471b565b9060005260206000200154828260206134eb9190614793565b815181106134fb576134fb61471b565b6020026020010181815250508381602081106135195761351961471b565b1a82613526836040614793565b815181106135365761353661471b565b60209081029190910101528061354b81614779565b91505061346e565b600080600060075460016135679190614793565b60078190556000818152600860209081526040909120805460ff191660ff8b161781558851929350916135a2916002840191908a0190613bdc565b5085516135b89060018301906020890190613bdc565b50600381018590556006546135cd9042614793565b6004909101819055909250905094509492505050565b6004547f522c683f99251eea7f3b027592e92a5398e7582983be1f7c0f33715ce025740f61361083613948565b60405161361d9190613cf0565b60405180910390a2611324816139af565b600080600560009054906101000a90046001600160a01b03166001600160a01b031663a0e67e2b6040518163ffffffff1660e01b8152600401600060405180830381865afa158015613684573d6000803e3d6000fd5b505050506040513d6000823e601f3d908101601f191682016040526136ac9190810190614975565b90506000805b825181101561370757866001600160a01b03168382815181106136d7576136d761471b565b60200260200101516001600160a01b0316036136f557809150613707565b806136ff81614779565b9150506136b2565b5060008115613739578261371c6001846147a6565b8151811061372c5761372c61471b565b602002602001015161373c565b60015b905060005b86518110156137af57816001600160a01b03168782815181106137665761376661471b565b60200260200101516001600160a01b03160361379d5785818151811061378e5761378e61471b565b602002602001015191506137af565b806137a781614779565b915050613741565b509695505050505050565b6060601154836000815181106137d2576137d261471b565b60200260200101818152505060005b602081101561383f578281815181106137fc576137fc61471b565b6020026020010151848260016138129190614793565b815181106138225761382261471b565b60209081029190910101528061383781614779565b9150506137e1565b509192915050565b6001600160a01b0381163b6138c45760405162461bcd60e51b815260206004820152602d60248201527f455243313936373a206e657720696d706c656d656e746174696f6e206973206e60448201527f6f74206120636f6e7472616374000000000000000000000000000000000000006064820152608401610d04565b7f360894a13ba1a3210667c828492db98dca3e2076cc3735a920a3ca505d382bbc80547fffffffffffffffffffffffff0000000000000000000000000000000000000000166001600160a01b0392909216919091179055565b613926836139ff565b6000825111806139335750805b15612e05576139428383613a3f565b50505050565b60606000808360000151846020015185604001518660600151876080015160405160200161397a959493929190614a0f565b60408051601f1981840301815290829052613999939291602001614a70565b6040516020818303038152906040529050919050565b80516001906139be908261465b565b5060208101516002906139d1908261465b565b5060408101516003805460ff19169115159190911790556139f181613948565b805160209091012060045550565b613a0881613847565b6040516001600160a01b038216907fbc7cd75a20ee27fd9adebab32041f755214dbc6bffa90cc0225b39da2e5c2d3b90600090a250565b6060613a648383604051806060016040528060278152602001614aca60279139613a6b565b9392505050565b6060600080856001600160a01b031685604051613a8891906145f1565b600060405180830381855af49150503d8060008114613ac3576040519150601f19603f3d011682016040523d82523d6000602084013e613ac8565b606091505b509150915061343b8683838760608315613b43578251600003613b3c576001600160a01b0385163b613b3c5760405162461bcd60e51b815260206004820152601d60248201527f416464726573733a2063616c6c20746f206e6f6e2d636f6e74726163740000006044820152606401610d04565b5081610ca1565b610ca18383815115613b585781518083602001fd5b8060405162461bcd60e51b8152600401610d049190613cf0565b828054828255906000526020600020908101928215613bad579160200282015b82811115613bad578251825591602001919060010190613b92565b50613bb9929150613c49565b5090565b6040518061040001604052806020906020820280368337509192915050565b828054828255906000526020600020908101928215613bad579160200282015b82811115613bad57825182547fffffffffffffffffffffffff0000000000000000000000000000000000000000166001600160a01b03909116178255602090920191600190910190613bfc565b5b80821115613bb95760008155600101613c4a565b600060208284031215613c7057600080fd5b81357fffffffff0000000000000000000000000000000000000000000000000000000081168114613a6457600080fd5b60005b83811015613cbb578181015183820152602001613ca3565b50506000910152565b60008151808452613cdc816020860160208601613ca0565b601f01601f19169290920160200192915050565b602081526000613a646020830184613cc4565b7f4e487b7100000000000000000000000000000000000000000000000000000000600052604160045260246000fd5b604051601f8201601f1916810167ffffffffffffffff81118282101715613d5b57613d5b613d03565b604052919050565b600067ffffffffffffffff821115613d7d57613d7d613d03565b50601f01601f191660200190565b6000613d9e613d9984613d63565b613d32565b9050828152838383011115613db257600080fd5b828260208301376000602084830101529392505050565b600082601f830112613dda57600080fd5b613a6483833560208501613d8b565b600067ffffffffffffffff821115613e0357613e03613d03565b5060051b60200190565b600082601f830112613e1e57600080fd5b81356020613e2e613d9983613de9565b82815260059290921b84018101918181019086841115613e4d57600080fd5b8286015b848110156137af5780358352918301918301613e51565b60008060008060808587031215613e7e57600080fd5b84359350602085013567ffffffffffffffff80821115613e9d57600080fd5b613ea988838901613dc9565b9450604087013593506060870135915080821115613ec657600080fd5b50613ed387828801613e0d565b91505092959194509250565b600060208284031215613ef157600080fd5b5035919050565b600081518084526020808501945080840160005b83811015613f315781516001600160a01b031687529582019590820190600101613f0c565b509495945050505050565b60ff8816815260e060208201526000613f5860e0830189613ef8565b8281036040840152613f6a8189613ef8565b60608401979097525050608081019390935290151560a083015260c0909101529392505050565b600060208284031215613fa357600080fd5b813567ffffffffffffffff811115613fba57600080fd5b610ca184828501613dc9565b600080600080600060a08688031215613fde57600080fd5b85359450602086013567ffffffffffffffff80821115613ffd57600080fd5b61400989838a01613e0d565b95506040880135945060608801359350608088013591508082111561402d57600080fd5b508601601f8101881361403f57600080fd5b61404e88823560208401613d8b565b9150509295509295909350565b6001600160a01b038116811461132457600080fd5b60006020828403121561408257600080fd5b8135613a648161405b565b602081526000613a646020830184613ef8565b600080604083850312156140b357600080fd5b82356140be8161405b565b9150602083013567ffffffffffffffff8111156140da57600080fd5b6140e685828601613dc9565b9150509250929050565b600082601f83011261410157600080fd5b81356020614111613d9983613de9565b82815260059290921b8401810191818101908684111561413057600080fd5b8286015b848110156137af5780356141478161405b565b8352918301918301614134565b600080600080600060a0868803121561416c57600080fd5b853567ffffffffffffffff8082111561418457600080fd5b61419089838a016140f0565b965060208801359150808211156141a657600080fd5b6141b289838a016140f0565b95506040880135945060608801359150808211156141cf57600080fd5b6141db89838a01613dc9565b935060808801359150808211156141f157600080fd5b5061404e88828901613dc9565b6000806040838503121561421157600080fd5b50508035926020909101359150565b6104008101818360005b6020808210614239575061424d565b82518452928301929091019060010161422a565b50505092915050565b60008060006060848603121561426b57600080fd5b505081359360208301359350604090920135919050565b60008060008060008060c0878903121561429b57600080fd5b86356142a68161405b565b955060208701356142b68161405b565b945060408701356142c68161405b565b935060608701356142d68161405b565b925060808701356142e68161405b565b915060a08701356142f68161405b565b809150509295509295509295565b828152604060208201526000610ca16040830184613cc4565b600080600080600060a0868803121561433557600080fd5b853567ffffffffffffffff8082111561434d57600080fd5b61435989838a016140f0565b9650602088013591508082111561436f57600080fd5b61437b89838a016140f0565b955060408801359450606088013591508082111561439857600080fd5b6143a489838a01613dc9565b935060808801359150808211156143ba57600080fd5b5061404e88828901613e0d565b60008060008060008060c087890312156143e057600080fd5b863567ffffffffffffffff808211156143f857600080fd5b6144048a838b016140f0565b9750602089013591508082111561441a57600080fd5b6144268a838b016140f0565b965060408901359550606089013591508082111561444357600080fd5b61444f8a838b01613dc9565b94506080890135935060a089013591508082111561446c57600080fd5b5061447989828a01613e0d565b9150509295509295509295565b6000806000806080858703121561449c57600080fd5b843567ffffffffffffffff808211156144b457600080fd5b6144c0888389016140f0565b955060208701359150808211156144d657600080fd5b6144e2888389016140f0565b94506040870135935060608701359150808211156144ff57600080fd5b50613ed387828801613dc9565b600181811c9082168061452057607f821691505b602082108103614559577f4e487b7100000000000000000000000000000000000000000000000000000000600052602260045260246000fd5b50919050565b6040815260006145726040830185613cc4565b82810360208481019190915284518083528582019282019060005b818110156145a95784518352938301939183019160010161458d565b5090979650505050505050565b6000602082840312156145c857600080fd5b81518015158114613a6457600080fd5b6000602082840312156145ea57600080fd5b5051919050565b60008251614603818460208701613ca0565b9190910192915050565b601f821115612e0557600081815260208120601f850160051c810160208610156146345750805b601f850160051c820191505b8181101561465357828155600101614640565b505050505050565b815167ffffffffffffffff81111561467557614675613d03565b61468981614683845461450c565b8461460d565b602080601f8311600181146146be57600084156146a65750858301515b600019600386901b1c1916600185901b178555614653565b600085815260208120601f198616915b828110156146ed578886015182559484019460019091019084016146ce565b508582101561470b5787850151600019600388901b60f8161c191681555b5050505050600190811b01905550565b7f4e487b7100000000000000000000000000000000000000000000000000000000600052603260045260246000fd5b7f4e487b7100000000000000000000000000000000000000000000000000000000600052601160045260246000fd5b6000600019820361478c5761478c61474a565b5060010190565b80820180821115610b0557610b0561474a565b81810381811115610b0557610b0561474a565b600060406001600160a01b0380861684526020828186015260a0850186516060808689015282825180855260c08a01915060c08160051b8b01019450858401935060005b81811015614864578a86037fffffffffffffffffffffffffffffffffffffffffffffffffffffffffffffff400183528451805189168752878101518888015289015189870185905261485185880182613cc4565b96505093860193918601916001016147fd565b50505083890151818901525050838701516080870152809450505050509392505050565b6000602080838503121561489b57600080fd5b825167ffffffffffffffff808211156148b357600080fd5b818501915085601f8301126148c757600080fd5b81516148d5613d9982613de9565b81815260059190911b830184019084810190888311156148f457600080fd5b8585015b83811015614968578051858111156149105760008081fd5b8601603f81018b136149225760008081fd5b878101516040614934613d9983613d63565b8281528d828486010111156149495760008081fd5b614958838c8301848701613ca0565b86525050509186019186016148f8565b5098975050505050505050565b6000602080838503121561498857600080fd5b825167ffffffffffffffff81111561499f57600080fd5b8301601f810185136149b057600080fd5b80516149be613d9982613de9565b81815260059190911b820183019083810190878311156149dd57600080fd5b928401925b82841015614a045783516149f58161405b565b825292840192908401906149e2565b979650505050505050565b60a081526000614a2260a0830188613cc4565b8281036020840152614a348188613cc4565b905085151560408401528281036060840152614a508186613cc4565b90508281036080840152614a648185613cc4565b98975050505050505050565b60007fff00000000000000000000000000000000000000000000000000000000000000808660f81b168352808560f81b166001840152508251614aba816002850160208701613ca0565b9190910160020194935050505056fe416464726573733a206c6f772d6c6576656c2064656c65676174652063616c6c206661696c656468747470733a2f2f6769746875622e636f6d2f706f72636f2d726f73736f2d6a2f736166652d7265636f766572792d6e6f6972a2646970667358221220bd092bd8d752ac2240aa5292543a2515e3f640ee3b5c70c2258e6d42c3181c6264736f6c63430008120033",
    "linkReferences": {
      "src/helper/WebAuthnHelper.sol": {
        "WebAuthnHelper": [
          {
            "start": 4123,
            "length": 20
          }
        ]
      }
    }
  },
  "methodIdentifiers": {
    "MIN_TIMELOCK()": "fb0c7549",
    "_computeMessage(bytes)": "2da4e420",
    "_convertBytes32ToBytes32Array(bytes32)": "67a277a4",
    "abc()": "92277933",
    "addEcrecoverRecover(uint256,bytes32)": "665caab7",
    "addSecretRecover(uint256,bytes32)": "57a60326",
    "addSocialRecover(uint256,uint256,bytes32)": "7d9e0141",
    "addWebAuthnRecover(uint256,bytes32[],bytes32,bytes32,string)": "3563c034",
    "approveSocialRecovery(uint256,bytes,bytes32,bytes32[])": "1788430b",
    "credentialId()": "a3c0f0b7",
    "ecrecoverVerifier()": "7c64dd76",
    "execRecovery(uint256)": "cdb44775",
    "getIsRecoveryExecutable(uint256)": "2152ab1b",
    "getPendingNewOwners(uint256)": "4969ca3f",
    "getPubkeyXY()": "d83dfc26",
    "getRecoveryByProposalId(uint256)": "23a6c20e",
    "guardiansRoot()": "5695f292",
    "hashed_address()": "87dee39f",
    "hashed_secret(uint256)": "403f69d2",
    "initialize(address,address,address,address,address,address)": "cc2a9a5b",
    "isEcrecoverRecoverEnabled()": "e6795306",
    "isSecretRecoverEnabled()": "83b1a8c1",
    "isSocialRecoverEnabled()": "e6f352c9",
    "isWebAuthnRecoverEnabled()": "23b26075",
    "metadataHash()": "c5a1d7f0",
    "metadataProvider()": "d3d72d2a",
    "name()": "06fdde03",
    "proposeEcrecoverRecover(address[],address[],uint256,bytes,bytes32[])": "e6e1247e",
    "proposeSecretRecover(address[],address[],uint256,bytes)": "f3d3f549",
    "proposeSocialRecover(address[],address[],uint256,bytes,bytes32,bytes32[])": "ec33ddb7",
    "proposeWebAuthnRecover(address[],address[],uint256,bytes,bytes)": "51a2f17a",
    "proxiableUUID()": "52d1902d",
    "pubkeyForVerifier(uint256)": "b8ee453d",
    "pubkey_x()": "652b098a",
    "pubkey_y()": "cd0a16a8",
    "recoveries(uint256)": "7a04c865",
    "recoveryCount()": "010a623c",
    "recoveryTimeLock()": "0ce03f2d",
    "rejectRecovery(uint256)": "9a8f18f3",
    "removeEcrecoverRecover()": "dada7ca2",
    "removeSecretRecover()": "f5120d62",
    "removeSocialRecover()": "b3810340",
    "removeWebAuthnRecover()": "2e56f60d",
    "requiresPermissions()": "e8e755b5",
    "requiresRootAccess()": "be193d27",
    "safe()": "186f0354",
    "safeProtocolManager()": "8e482341",
    "secretVerifier()": "024e5d15",
    "socialRecoverVerifier()": "17f5705e",
    "supportsInterface(bytes4)": "01ffc9a7",
    "threshold()": "42cde4e8",
    "upgradeTo(address)": "3659cfe6",
    "upgradeToAndCall(address,bytes)": "4f1ef286",
    "version()": "54fd4d50",
    "webAuthnVerifier()": "7b49fa19"
  },
  "id": 79
}