{
  "abi": [
    {
      "inputs": [],
      "name": "PROOF_VERIFICATION_FAILED",
      "type": "error"
    },
    {
      "inputs": [
        {
          "internalType": "bytes",
          "name": "reason",
          "type": "bytes"
        }
      ],
      "name": "RECOVER_FAILED",
      "type": "error"
    },
    {
      "anonymous": false,
      "inputs": [
        {
          "indexed": false,
          "internalType": "address",
          "name": "previousAdmin",
          "type": "address"
        },
        {
          "indexed": false,
          "internalType": "address",
          "name": "newAdmin",
          "type": "address"
        }
      ],
      "name": "AdminChanged",
      "type": "event"
    },
    {
      "anonymous": false,
      "inputs": [
        {
          "indexed": true,
          "internalType": "address",
          "name": "beacon",
          "type": "address"
        }
      ],
      "name": "BeaconUpgraded",
      "type": "event"
    },
    {
      "anonymous": false,
      "inputs": [
        {
          "indexed": false,
          "internalType": "uint8",
          "name": "version",
          "type": "uint8"
        }
      ],
      "name": "Initialized",
      "type": "event"
    },
    {
      "anonymous": false,
      "inputs": [
        {
          "indexed": true,
          "internalType": "bytes32",
          "name": "metadataHash",
          "type": "bytes32"
        },
        {
          "indexed": false,
          "internalType": "bytes",
          "name": "data",
          "type": "bytes"
        }
      ],
      "name": "Metadata",
      "type": "event"
    },
    {
      "anonymous": false,
      "inputs": [
        {
          "indexed": true,
          "internalType": "address",
          "name": "implementation",
          "type": "address"
        }
      ],
      "name": "Upgraded",
      "type": "event"
    },
    {
      "inputs": [],
      "name": "MIN_TIMELOCK",
      "outputs": [
        {
          "internalType": "uint256",
          "name": "",
          "type": "uint256"
        }
      ],
      "stateMutability": "view",
      "type": "function"
    },
    {
      "inputs": [
        {
          "internalType": "bytes",
          "name": "_webAuthnInputs",
          "type": "bytes"
        }
      ],
      "name": "_computeMessage",
      "outputs": [
        {
          "internalType": "bytes32",
          "name": "",
          "type": "bytes32"
        }
      ],
      "stateMutability": "pure",
      "type": "function"
    },
    {
      "inputs": [
        {
          "internalType": "bytes32",
          "name": "value",
          "type": "bytes32"
        }
      ],
      "name": "_convertBytes32ToBytes32Array",
      "outputs": [
        {
          "internalType": "bytes32[32]",
          "name": "",
          "type": "bytes32[32]"
        }
      ],
      "stateMutability": "pure",
      "type": "function"
    },
    {
      "inputs": [
        {
          "internalType": "uint256",
          "name": "_recoveryTimeLock",
          "type": "uint256"
        },
        {
          "internalType": "bytes32",
          "name": "_hashed_address",
          "type": "bytes32"
        }
      ],
      "name": "addEcrecoverRecover",
      "outputs": [],
      "stateMutability": "nonpayable",
      "type": "function"
    },
    {
      "inputs": [
        {
          "internalType": "uint256",
          "name": "_recoveryTimeLock",
          "type": "uint256"
        },
        {
          "internalType": "bytes32",
          "name": "_hashed_secret",
          "type": "bytes32"
        }
      ],
      "name": "addSecretRecover",
      "outputs": [],
      "stateMutability": "nonpayable",
      "type": "function"
    },
    {
      "inputs": [
        {
          "internalType": "uint256",
          "name": "_recoveryTimeLock",
          "type": "uint256"
        },
        {
          "internalType": "uint256",
          "name": "_approvalThreshold",
          "type": "uint256"
        },
        {
          "internalType": "bytes32",
          "name": "_guardiansRoot",
          "type": "bytes32"
        }
      ],
      "name": "addSocialRecover",
      "outputs": [],
      "stateMutability": "nonpayable",
      "type": "function"
    },
    {
      "inputs": [
        {
          "internalType": "uint256",
          "name": "_recoveryTimeLock",
          "type": "uint256"
        },
        {
          "internalType": "bytes32",
          "name": "_pubkey_x",
          "type": "bytes32"
        },
        {
          "internalType": "bytes32",
          "name": "_pubkey_y",
          "type": "bytes32"
        },
        {
          "internalType": "string",
          "name": "_credentialId",
          "type": "string"
        }
      ],
      "name": "addWebAuthnRecover",
      "outputs": [],
      "stateMutability": "nonpayable",
      "type": "function"
    },
    {
      "inputs": [],
      "name": "approvalThreshold",
      "outputs": [
        {
          "internalType": "uint256",
          "name": "",
          "type": "uint256"
        }
      ],
      "stateMutability": "view",
      "type": "function"
    },
    {
      "inputs": [
        {
          "internalType": "uint256",
          "name": "_proposalId",
          "type": "uint256"
        },
        {
          "internalType": "bytes",
          "name": "_proof",
          "type": "bytes"
        },
        {
          "internalType": "bytes32",
          "name": "nullifierHash",
          "type": "bytes32"
        },
        {
          "internalType": "bytes32[]",
          "name": "_message",
          "type": "bytes32[]"
        }
      ],
      "name": "approveSocialRecovery",
      "outputs": [
        {
          "internalType": "uint256",
          "name": "",
          "type": "uint256"
        }
      ],
      "stateMutability": "nonpayable",
      "type": "function"
    },
    {
      "inputs": [],
      "name": "credentialId",
      "outputs": [
        {
          "internalType": "string",
          "name": "",
          "type": "string"
        }
      ],
      "stateMutability": "view",
      "type": "function"
    },
    {
      "inputs": [],
      "name": "ecrecoverVerifier",
      "outputs": [
        {
          "internalType": "address",
          "name": "",
          "type": "address"
        }
      ],
      "stateMutability": "view",
      "type": "function"
    },
    {
      "inputs": [
        {
          "internalType": "uint256",
          "name": "_proposalId",
          "type": "uint256"
        }
      ],
      "name": "execRecovery",
      "outputs": [
        {
          "internalType": "bool",
          "name": "",
          "type": "bool"
        }
      ],
      "stateMutability": "nonpayable",
      "type": "function"
    },
    {
      "inputs": [
        {
          "internalType": "uint256",
          "name": "_proposalId",
          "type": "uint256"
        }
      ],
      "name": "getIsRecoveryExecutable",
      "outputs": [
        {
          "internalType": "bool",
          "name": "",
          "type": "bool"
        }
      ],
      "stateMutability": "view",
      "type": "function"
    },
    {
      "inputs": [
        {
          "internalType": "uint256",
          "name": "_proposalId",
          "type": "uint256"
        }
      ],
      "name": "getPendingNewOwners",
      "outputs": [
        {
          "internalType": "address[]",
          "name": "",
          "type": "address[]"
        }
      ],
      "stateMutability": "view",
      "type": "function"
    },
    {
      "inputs": [],
      "name": "getPubkeyXY",
      "outputs": [
        {
          "internalType": "bytes32",
          "name": "",
          "type": "bytes32"
        },
        {
          "internalType": "bytes32",
          "name": "",
          "type": "bytes32"
        }
      ],
      "stateMutability": "view",
      "type": "function"
    },
    {
      "inputs": [
        {
          "internalType": "uint256",
          "name": "_proposalId",
          "type": "uint256"
        }
      ],
      "name": "getRecoveryByProposalId",
      "outputs": [
        {
          "internalType": "uint8",
          "name": "",
          "type": "uint8"
        },
        {
          "internalType": "address[]",
          "name": "",
          "type": "address[]"
        },
        {
          "internalType": "address[]",
          "name": "",
          "type": "address[]"
        },
        {
          "internalType": "uint256",
          "name": "",
          "type": "uint256"
        },
        {
          "internalType": "uint256",
          "name": "",
          "type": "uint256"
        },
        {
          "internalType": "uint256",
          "name": "",
          "type": "uint256"
        },
        {
          "internalType": "bool",
          "name": "",
          "type": "bool"
        },
        {
          "internalType": "uint256",
          "name": "",
          "type": "uint256"
        }
      ],
      "stateMutability": "view",
      "type": "function"
    },
    {
      "inputs": [],
      "name": "guardiansRoot",
      "outputs": [
        {
          "internalType": "bytes32",
          "name": "",
          "type": "bytes32"
        }
      ],
      "stateMutability": "view",
      "type": "function"
    },
    {
      "inputs": [],
      "name": "hashed_address",
      "outputs": [
        {
          "internalType": "bytes32",
          "name": "",
          "type": "bytes32"
        }
      ],
      "stateMutability": "view",
      "type": "function"
    },
    {
      "inputs": [],
      "name": "hashed_secret",
      "outputs": [
        {
          "internalType": "bytes32",
          "name": "",
          "type": "bytes32"
        }
      ],
      "stateMutability": "view",
      "type": "function"
    },
    {
      "inputs": [
        {
          "internalType": "address",
          "name": "_safe",
          "type": "address"
        },
        {
          "internalType": "address",
          "name": "_safeProtocolManager",
          "type": "address"
        },
        {
          "internalType": "address",
          "name": "_ecrecoverVerifier",
          "type": "address"
        },
        {
          "internalType": "address",
          "name": "_webAuthnVerifier",
          "type": "address"
        },
        {
          "internalType": "address",
          "name": "_secretVerifier",
          "type": "address"
        },
        {
          "internalType": "address",
          "name": "_socialRecoverVerifier",
          "type": "address"
        }
      ],
      "name": "initialize",
      "outputs": [],
      "stateMutability": "nonpayable",
      "type": "function"
    },
    {
      "inputs": [],
      "name": "isEcrecoverRecoverEnabled",
      "outputs": [
        {
          "internalType": "bool",
          "name": "",
          "type": "bool"
        }
      ],
      "stateMutability": "view",
      "type": "function"
    },
    {
      "inputs": [],
      "name": "isSecretRecoverEnabled",
      "outputs": [
        {
          "internalType": "bool",
          "name": "",
          "type": "bool"
        }
      ],
      "stateMutability": "view",
      "type": "function"
    },
    {
      "inputs": [],
      "name": "isSocialRecoverEnabled",
      "outputs": [
        {
          "internalType": "bool",
          "name": "",
          "type": "bool"
        }
      ],
      "stateMutability": "view",
      "type": "function"
    },
    {
      "inputs": [],
      "name": "isWebAuthnRecoverEnabled",
      "outputs": [
        {
          "internalType": "bool",
          "name": "",
          "type": "bool"
        }
      ],
      "stateMutability": "view",
      "type": "function"
    },
    {
      "inputs": [],
      "name": "lastExecutionTimestamp",
      "outputs": [
        {
          "internalType": "uint256",
          "name": "",
          "type": "uint256"
        }
      ],
      "stateMutability": "view",
      "type": "function"
    },
    {
      "inputs": [],
      "name": "metadataHash",
      "outputs": [
        {
          "internalType": "bytes32",
          "name": "",
          "type": "bytes32"
        }
      ],
      "stateMutability": "view",
      "type": "function"
    },
    {
      "inputs": [],
      "name": "metadataProvider",
      "outputs": [
        {
          "internalType": "uint256",
          "name": "providerType",
          "type": "uint256"
        },
        {
          "internalType": "bytes",
          "name": "location",
          "type": "bytes"
        }
      ],
      "stateMutability": "view",
      "type": "function"
    },
    {
      "inputs": [],
      "name": "name",
      "outputs": [
        {
          "internalType": "string",
          "name": "",
          "type": "string"
        }
      ],
      "stateMutability": "view",
      "type": "function"
    },
    {
      "inputs": [
        {
          "internalType": "address[]",
          "name": "_oldAddresses",
          "type": "address[]"
        },
        {
          "internalType": "address[]",
          "name": "_newAddresses",
          "type": "address[]"
        },
        {
          "internalType": "uint256",
          "name": "_newThreshold",
          "type": "uint256"
        },
        {
          "internalType": "bytes",
          "name": "_proof",
          "type": "bytes"
        },
        {
          "internalType": "bytes32[]",
          "name": "_message",
          "type": "bytes32[]"
        }
      ],
      "name": "proposeEcrecoverRecover",
      "outputs": [
        {
          "internalType": "uint256",
          "name": "",
          "type": "uint256"
        },
        {
          "internalType": "uint256",
          "name": "",
          "type": "uint256"
        }
      ],
      "stateMutability": "nonpayable",
      "type": "function"
    },
    {
      "inputs": [
        {
          "internalType": "address[]",
          "name": "_oldAddresses",
          "type": "address[]"
        },
        {
          "internalType": "address[]",
          "name": "_newAddresses",
          "type": "address[]"
        },
        {
          "internalType": "uint256",
          "name": "_newThreshold",
          "type": "uint256"
        },
        {
          "internalType": "bytes",
          "name": "_proof",
          "type": "bytes"
        }
      ],
      "name": "proposeSecretRecover",
      "outputs": [
        {
          "internalType": "uint256",
          "name": "",
          "type": "uint256"
        },
        {
          "internalType": "uint256",
          "name": "",
          "type": "uint256"
        }
      ],
      "stateMutability": "nonpayable",
      "type": "function"
    },
    {
      "inputs": [
        {
          "internalType": "address[]",
          "name": "_oldAddresses",
          "type": "address[]"
        },
        {
          "internalType": "address[]",
          "name": "_newAddresses",
          "type": "address[]"
        },
        {
          "internalType": "uint256",
          "name": "_newThreshold",
          "type": "uint256"
        },
        {
          "internalType": "bytes",
          "name": "_proof",
          "type": "bytes"
        },
        {
          "internalType": "bytes32",
          "name": "_nullifierHash",
          "type": "bytes32"
        },
        {
          "internalType": "bytes32[]",
          "name": "_message",
          "type": "bytes32[]"
        }
      ],
      "name": "proposeSocialRecover",
      "outputs": [
        {
          "internalType": "uint256",
          "name": "",
          "type": "uint256"
        },
        {
          "internalType": "uint256",
          "name": "",
          "type": "uint256"
        }
      ],
      "stateMutability": "nonpayable",
      "type": "function"
    },
    {
      "inputs": [
        {
          "internalType": "address[]",
          "name": "_oldAddresses",
          "type": "address[]"
        },
        {
          "internalType": "address[]",
          "name": "_newAddresses",
          "type": "address[]"
        },
        {
          "internalType": "uint256",
          "name": "_newThreshold",
          "type": "uint256"
        },
        {
          "internalType": "bytes",
          "name": "_proof",
          "type": "bytes"
        },
        {
          "internalType": "bytes",
          "name": "_webAuthnInputs",
          "type": "bytes"
        }
      ],
      "name": "proposeWebAuthnRecover",
      "outputs": [
        {
          "internalType": "uint256",
          "name": "",
          "type": "uint256"
        },
        {
          "internalType": "uint256",
          "name": "",
          "type": "uint256"
        }
      ],
      "stateMutability": "nonpayable",
      "type": "function"
    },
    {
      "inputs": [],
      "name": "proxiableUUID",
      "outputs": [
        {
          "internalType": "bytes32",
          "name": "",
          "type": "bytes32"
        }
      ],
      "stateMutability": "view",
      "type": "function"
    },
    {
      "inputs": [],
      "name": "pubkey_x",
      "outputs": [
        {
          "internalType": "bytes32",
          "name": "",
          "type": "bytes32"
        }
      ],
      "stateMutability": "view",
      "type": "function"
    },
    {
      "inputs": [],
      "name": "pubkey_y",
      "outputs": [
        {
          "internalType": "bytes32",
          "name": "",
          "type": "bytes32"
        }
      ],
      "stateMutability": "view",
      "type": "function"
    },
    {
      "inputs": [
        {
          "internalType": "uint256",
          "name": "",
          "type": "uint256"
        }
      ],
      "name": "recoveries",
      "outputs": [
        {
          "internalType": "uint8",
          "name": "recoveryType",
          "type": "uint8"
        },
        {
          "internalType": "uint256",
          "name": "newThreshold",
          "type": "uint256"
        },
        {
          "internalType": "uint256",
          "name": "proposedTimestamp",
          "type": "uint256"
        },
        {
          "internalType": "uint256",
          "name": "timeLockEnd",
          "type": "uint256"
        },
        {
          "internalType": "bool",
          "name": "rejected",
          "type": "bool"
        },
        {
          "internalType": "uint256",
          "name": "approvalCount",
          "type": "uint256"
        }
      ],
      "stateMutability": "view",
      "type": "function"
    },
    {
      "inputs": [],
      "name": "recoveryCount",
      "outputs": [
        {
          "internalType": "uint256",
          "name": "",
          "type": "uint256"
        }
      ],
      "stateMutability": "view",
      "type": "function"
    },
    {
      "inputs": [
        {
          "internalType": "uint8",
          "name": "",
          "type": "uint8"
        },
        {
          "internalType": "bytes32",
          "name": "",
          "type": "bytes32"
        }
      ],
      "name": "recoveryNullifiers",
      "outputs": [
        {
          "internalType": "bool",
          "name": "",
          "type": "bool"
        }
      ],
      "stateMutability": "view",
      "type": "function"
    },
    {
      "inputs": [],
      "name": "recoveryTimeLock",
      "outputs": [
        {
          "internalType": "uint256",
          "name": "",
          "type": "uint256"
        }
      ],
      "stateMutability": "view",
      "type": "function"
    },
    {
      "inputs": [
        {
          "internalType": "uint256",
          "name": "_proposalId",
          "type": "uint256"
        }
      ],
      "name": "rejectRecovery",
      "outputs": [],
      "stateMutability": "nonpayable",
      "type": "function"
    },
    {
      "inputs": [],
      "name": "removeEcrecoverRecover",
      "outputs": [],
      "stateMutability": "nonpayable",
      "type": "function"
    },
    {
      "inputs": [],
      "name": "removeSecretRecover",
      "outputs": [],
      "stateMutability": "nonpayable",
      "type": "function"
    },
    {
      "inputs": [],
      "name": "removeSocialRecover",
      "outputs": [],
      "stateMutability": "nonpayable",
      "type": "function"
    },
    {
      "inputs": [],
      "name": "removeWebAuthnRecover",
      "outputs": [],
      "stateMutability": "nonpayable",
      "type": "function"
    },
    {
      "inputs": [],
      "name": "requiresPermissions",
      "outputs": [
        {
          "internalType": "uint8",
          "name": "permissions",
          "type": "uint8"
        }
      ],
      "stateMutability": "view",
      "type": "function"
    },
    {
      "inputs": [],
      "name": "requiresRootAccess",
      "outputs": [
        {
          "internalType": "bool",
          "name": "",
          "type": "bool"
        }
      ],
      "stateMutability": "view",
      "type": "function"
    },
    {
      "inputs": [],
      "name": "safe",
      "outputs": [
        {
          "internalType": "address",
          "name": "",
          "type": "address"
        }
      ],
      "stateMutability": "view",
      "type": "function"
    },
    {
      "inputs": [],
      "name": "safeProtocolManager",
      "outputs": [
        {
          "internalType": "contract ISafeProtocolManager",
          "name": "",
          "type": "address"
        }
      ],
      "stateMutability": "view",
      "type": "function"
    },
    {
      "inputs": [],
      "name": "secretVerifier",
      "outputs": [
        {
          "internalType": "address",
          "name": "",
          "type": "address"
        }
      ],
      "stateMutability": "view",
      "type": "function"
    },
    {
      "inputs": [],
      "name": "socialRecoverVerifier",
      "outputs": [
        {
          "internalType": "address",
          "name": "",
          "type": "address"
        }
      ],
      "stateMutability": "view",
      "type": "function"
    },
    {
      "inputs": [
        {
          "internalType": "bytes4",
          "name": "interfaceId",
          "type": "bytes4"
        }
      ],
      "name": "supportsInterface",
      "outputs": [
        {
          "internalType": "bool",
          "name": "",
          "type": "bool"
        }
      ],
      "stateMutability": "view",
      "type": "function"
    },
    {
      "inputs": [
        {
          "internalType": "address",
          "name": "newImplementation",
          "type": "address"
        }
      ],
      "name": "upgradeTo",
      "outputs": [],
      "stateMutability": "nonpayable",
      "type": "function"
    },
    {
      "inputs": [
        {
          "internalType": "address",
          "name": "newImplementation",
          "type": "address"
        },
        {
          "internalType": "bytes",
          "name": "data",
          "type": "bytes"
        }
      ],
      "name": "upgradeToAndCall",
      "outputs": [],
      "stateMutability": "payable",
      "type": "function"
    },
    {
      "inputs": [],
      "name": "version",
      "outputs": [
        {
          "internalType": "string",
          "name": "",
          "type": "string"
        }
      ],
      "stateMutability": "view",
      "type": "function"
    },
    {
      "inputs": [],
      "name": "webAuthnVerifier",
      "outputs": [
        {
          "internalType": "address",
          "name": "",
          "type": "address"
        }
      ],
      "stateMutability": "view",
      "type": "function"
    }
  ],
  "bytecode": {
    "object": "0x60a06040523060805234801561001457600080fd5b5060805161534d61004c60003960008181611651015281816116e7015281816118b70152818161194d0152611ce8015261534d6000f3fe6080604052600436106103605760003560e01c80637a04c865116101c6578063cd0a16a8116100f7578063e6e1247e11610095578063ec33ddb71161006f578063ec33ddb714610a30578063f3d3f54914610a50578063f5120d6214610a70578063fb0c754914610a8557600080fd5b8063e6e1247e146109d3578063e6f352c9146109f3578063e8e755b514610a1457600080fd5b8063d3d72d2a116100d1578063d3d72d2a14610941578063d83dfc2614610985578063dada7ca21461099d578063e6795306146109b257600080fd5b8063cd0a16a8146108d0578063cd0ad3c1146108e6578063cdb447751461092157600080fd5b80638e48234111610164578063b38103401161013e578063b38103401461086b578063be193d2714610880578063c5a1d7f01461089a578063cc2a9a5b146108b057600080fd5b80638e482341146108165780639a8f18f314610836578063a3c0f0b71461085657600080fd5b80637d0eef61116101a05780637d0eef61146107a95780637d9e0141146107bf57806383b1a8c1146107df57806387dee39f1461080057600080fd5b80637a04c865146106de5780637b49fa19146107695780637c64dd761461078957600080fd5b80632e56f60d116102a057806352d1902d1161023e57806357a603261161021857806357a603261461065b578063652b098a1461067b578063665caab71461069157806367a277a4146106b157600080fd5b806352d1902d1461061b57806354fd4d50146106305780635695f2921461064557600080fd5b80633659cfe61161027a5780633659cfe6146105865780634969ca3f146105a65780634f1ef286146105d357806351a2f17a146105e657600080fd5b80632e56f60d146105395780633189576714610550578063358d1fc61461057057600080fd5b806317f5705e1161030d57806323a6c20e116102e757806323a6c20e146104ae57806323b26075146104e25780632abcb3d8146105035780632da4e4201461051957600080fd5b806317f5705e1461044e578063186f03541461046e5780632152ab1b1461048e57600080fd5b806306fdde031161033e57806306fdde03146103f65780630ce03f2d146104185780631788430b1461042e57600080fd5b8063010a623c1461036557806301ffc9a71461038e578063024e5d15146103be575b600080fd5b34801561037157600080fd5b5061037b60085481565b6040519081526020015b60405180910390f35b34801561039a57600080fd5b506103ae6103a936600461443c565b610a9a565b6040519015158152602001610385565b3480156103ca57600080fd5b50600f546103de906001600160a01b031681565b6040516001600160a01b039091168152602001610385565b34801561040257600080fd5b5061040b610b33565b60405161038591906144ce565b34801561042457600080fd5b5061037b60065481565b34801561043a57600080fd5b5061037b610449366004614646565b610bc1565b34801561045a57600080fd5b506013546103de906001600160a01b031681565b34801561047a57600080fd5b506005546103de906001600160a01b031681565b34801561049a57600080fd5b506103ae6104a93660046146bd565b610d99565b3480156104ba57600080fd5b506104ce6104c93660046146bd565b6111e6565b60405161038598979695949392919061471a565b3480156104ee57600080fd5b50600b546103ae90600160a01b900460ff1681565b34801561050f57600080fd5b5061037b60105481565b34801561052557600080fd5b5061037b610534366004614779565b61135f565b34801561054557600080fd5b5061054e6113f3565b005b34801561055c57600080fd5b5061054e61056b3660046147ae565b6114c6565b34801561057c57600080fd5b5061037b60075481565b34801561059257600080fd5b5061054e6105a1366004614825565b611647565b3480156105b257600080fd5b506105c66105c13660046146bd565b6117db565b6040516103859190614842565b61054e6105e1366004614855565b6118ad565b3480156105f257600080fd5b50610606610601366004614909565b611a32565b60408051928352602083019190915201610385565b34801561062757600080fd5b5061037b611cdb565b34801561063c57600080fd5b5061040b611da0565b34801561065157600080fd5b5061037b60145481565b34801561066757600080fd5b5061054e6106763660046149c0565b611dad565b34801561068757600080fd5b5061037b600c5481565b34801561069d57600080fd5b5061054e6106ac3660046149c0565b611e8a565b3480156106bd57600080fd5b506106d16106cc3660046146bd565b611f67565b60405161038591906149e2565b3480156106ea57600080fd5b506107366106f93660046146bd565b60096020526000908152604090208054600382015460048301546005840154600685015460079095015460ff948516959394929391929091169086565b6040805160ff909716875260208701959095529385019290925260608401521515608083015260a082015260c001610385565b34801561077557600080fd5b50600b546103de906001600160a01b031681565b34801561079557600080fd5b506011546103de906001600160a01b031681565b3480156107b557600080fd5b5061037b60155481565b3480156107cb57600080fd5b5061054e6107da366004614a18565b611fc6565b3480156107eb57600080fd5b50600f546103ae90600160a01b900460ff1681565b34801561080c57600080fd5b5061037b60125481565b34801561082257600080fd5b506016546103de906001600160a01b031681565b34801561084257600080fd5b5061054e6108513660046146bd565b6120a9565b34801561086257600080fd5b5061040b612177565b34801561087757600080fd5b5061054e612184565b34801561088c57600080fd5b506003546103ae9060ff1681565b3480156108a657600080fd5b5061037b60045481565b3480156108bc57600080fd5b5061054e6108cb366004614a44565b612261565b3480156108dc57600080fd5b5061037b600d5481565b3480156108f257600080fd5b506103ae610901366004614ac6565b600a60209081526000928352604080842090915290825290205460ff1681565b34801561092d57600080fd5b506103ae61093c3660046146bd565b6124f5565b34801561094d57600080fd5b50610977604080513060208201526003916060910160405160208183030381529060405290509091565b604051610385929190614af8565b34801561099157600080fd5b50600c54600d54610606565b3480156109a957600080fd5b5061054e612b44565b3480156109be57600080fd5b506011546103ae90600160a01b900460ff1681565b3480156109df57600080fd5b506106066109ee366004614b11565b612c17565b3480156109ff57600080fd5b506013546103ae90600160a01b900460ff1681565b348015610a2057600080fd5b5060405160028152602001610385565b348015610a3c57600080fd5b50610606610a4b366004614bbb565b612eb1565b348015610a5c57600080fd5b50610606610a6b366004614c7a565b613173565b348015610a7c57600080fd5b5061054e613420565b348015610a9157600080fd5b5061037b600081565b60007fffffffff0000000000000000000000000000000000000000000000000000000082167f6930ebcc000000000000000000000000000000000000000000000000000000001480610b2d57507f01ffc9a7000000000000000000000000000000000000000000000000000000007fffffffff000000000000000000000000000000000000000000000000000000008316145b92915050565b60018054610b4090614d00565b80601f0160208091040260200160405190810160405280929190818152602001828054610b6c90614d00565b8015610bb95780601f10610b8e57610100808354040283529160200191610bb9565b820191906000526020600020905b815481529060010190602001808311610b9c57829003601f168201915b505050505081565b6040805160238082526104808201909252600091829190602082016104608036833701905050855160208088019190912060008181527fa856840544dc26124927add067d799967eac11be13e14d82cc281ea46fa397599092526040909120549192509060ff1615610c7a5760405162461bcd60e51b815260206004820152601060248201527f4455504c4943415445445f50524f4f460000000000000000000000000000000060448201526064015b60405180910390fd5b610c86878386886134f3565b6013546040517fea50d0e40000000000000000000000000000000000000000000000000000000081529193506001600160a01b03169063ea50d0e490610cd29089908690600401614d53565b602060405180830381865afa158015610cef573d6000803e3d6000fd5b505050506040513d601f19601f82011682018060405250810190610d139190614daa565b610d49576040517fff3ee09d00000000000000000000000000000000000000000000000000000000815260040160405180910390fd5b60008181527fa856840544dc26124927add067d799967eac11be13e14d82cc281ea46fa3975960205260408120805460ff19166001179055610d8b88876135c5565b93505050505b949350505050565b60008115801590610dac57506008548211155b610df85760405162461bcd60e51b815260206004820152600a60248201527f494e56414c49445f4944000000000000000000000000000000000000000000006044820152606401610c71565b6000828152600960205260409020805460ff16158015610e225750601154600160a01b900460ff16155b15610e6f5760405162461bcd60e51b815260206004820152601960248201527f4b3235365f5245434f564552595f4e4f545f454e41424c4544000000000000006044820152606401610c71565b805460ff166001148015610e8d5750600b54600160a01b900460ff16155b15610eda5760405162461bcd60e51b815260206004820152601960248201527f503235365f5245434f564552595f4e4f545f454e41424c4544000000000000006044820152606401610c71565b805460ff166002148015610ef85750600f54600160a01b900460ff16155b15610f455760405162461bcd60e51b815260206004820152601b60248201527f5345435245545f5245434f564552595f4e4f545f454e41424c454400000000006044820152606401610c71565b805460ff166003148015610f635750601354600160a01b900460ff16155b15610fb05760405162461bcd60e51b815260206004820152601b60248201527f534f4349414c5f5245434f564552595f4e4f545f454e41424c454400000000006044820152606401610c71565b6110778160020180548060200260200160405190810160405280929190818152602001828054801561100b57602002820191906000526020600020905b81546001600160a01b03168152600190910190602001808311610fed575b50505050508260010180548060200260200160405190810160405280929190818152602001828054801561106857602002820191906000526020600020905b81546001600160a01b0316815260019091019060200180831161104a575b50505050508360030154613676565b50600681015460ff16156110cd5760405162461bcd60e51b815260206004820152601160248201527f50524f504f53414c5f52454a45435445440000000000000000000000000000006044820152606401610c71565b80600501544210156111215760405162461bcd60e51b815260206004820152601260248201527f54494d454c4f434b5f4e4f545f454e44454400000000000000000000000000006044820152606401610c71565b600754816004015410156111775760405162461bcd60e51b815260206004820152601060248201527f50524f504f53414c5f45585049524544000000000000000000000000000000006044820152606401610c71565b805460ff16600314801561119057506015548160070154105b156111dd5760405162461bcd60e51b815260206004820152601b60248201527f494e53554646494349454e545f415050524f56414c5f434f554e5400000000006044820152606401610c71565b50600192915050565b60006060808280808080881580159061120157506008548911155b61124d5760405162461bcd60e51b815260206004820152600a60248201527f494e56414c49445f4944000000000000000000000000000000000000000000006044820152606401610c71565b6000898152600960209081526040918290208054600382015460058301546004840154600685015460078601546001870180548a51818b0281018b01909b52808b52979960ff97881699919860028c01989094169390918991908301828280156112e057602002820191906000526020600020905b81546001600160a01b031681526001909101906020018083116112c2575b505050505096508580548060200260200160405190810160405280929190818152602001828054801561133c57602002820191906000526020600020905b81546001600160a01b0316815260019091019060200180831161131e575b505050505095509850985098509850985098509850985050919395975091939597565b6040517ff8f5689c00000000000000000000000000000000000000000000000000000000815260009073__$6d399485da7ef05af8887e90c5d884cf80$__9063f8f5689c906113b29085906004016144ce565b602060405180830381865af41580156113cf573d6000803e3d6000fd5b505050506040513d601f19601f82011682018060405250810190610b2d9190614dcc565b6005546001600160a01b0316331461144d5760405162461bcd60e51b815260206004820152600f60248201527f53454e4445525f4e4f545f5341464500000000000000000000000000000000006044820152606401610c71565b600b54600160a01b900460ff166114a65760405162461bcd60e51b815260206004820152600b60248201527f4e4f545f454e41424c45440000000000000000000000000000000000000000006044820152606401610c71565b600b805474ff000000000000000000000000000000000000000019169055565b6005546001600160a01b031633146115205760405162461bcd60e51b815260206004820152600f60248201527f53454e4445525f4e4f545f5341464500000000000000000000000000000000006044820152606401610c71565b821580159061152e57508115155b61157a5760405162461bcd60e51b815260206004820152600e60248201527f494e56414c49445f5055424b45590000000000000000000000000000000000006044820152606401610c71565b604080516000815260208101808352815190209161159a91849101614de5565b60405160208183030381529060405280519060200120036115fd5760405162461bcd60e51b815260206004820152601560248201527f494e56414c49445f43524544454e5449414c5f494400000000000000000000006044820152606401610c71565b600c839055600d829055600e6116138282614e4f565b5061161d84600655565b5050600b805474ff00000000000000000000000000000000000000001916600160a01b1790555050565b6001600160a01b037f00000000000000000000000000000000000000000000000000000000000000001630036116e55760405162461bcd60e51b815260206004820152602c60248201527f46756e6374696f6e206d7573742062652063616c6c6564207468726f7567682060448201527f64656c656761746563616c6c00000000000000000000000000000000000000006064820152608401610c71565b7f00000000000000000000000000000000000000000000000000000000000000006001600160a01b03166117407f360894a13ba1a3210667c828492db98dca3e2076cc3735a920a3ca505d382bbc546001600160a01b031690565b6001600160a01b0316146117bc5760405162461bcd60e51b815260206004820152602c60248201527f46756e6374696f6e206d7573742062652063616c6c6564207468726f7567682060448201527f6163746976652070726f787900000000000000000000000000000000000000006064820152608401610c71565b604080516000808252602082019092526117d891839190613b44565b50565b606081158015906117ee57506008548211155b61183a5760405162461bcd60e51b815260206004820152600a60248201527f494e56414c49445f4944000000000000000000000000000000000000000000006044820152606401610c71565b6000828152600960209081526040918290206001810180548451818502810185019095528085529193929091908301828280156118a057602002820191906000526020600020905b81546001600160a01b03168152600190910190602001808311611882575b5050505050915050919050565b6001600160a01b037f000000000000000000000000000000000000000000000000000000000000000016300361194b5760405162461bcd60e51b815260206004820152602c60248201527f46756e6374696f6e206d7573742062652063616c6c6564207468726f7567682060448201527f64656c656761746563616c6c00000000000000000000000000000000000000006064820152608401610c71565b7f00000000000000000000000000000000000000000000000000000000000000006001600160a01b03166119a67f360894a13ba1a3210667c828492db98dca3e2076cc3735a920a3ca505d382bbc546001600160a01b031690565b6001600160a01b031614611a225760405162461bcd60e51b815260206004820152602c60248201527f46756e6374696f6e206d7573742062652063616c6c6564207468726f7567682060448201527f6163746976652070726f787900000000000000000000000000000000000000006064820152608401610c71565b611a2e82826001613b44565b5050565b60055460009081906001600160a01b03163303611a915760405162461bcd60e51b815260206004820152600e60248201527f494e56414c49445f53454e4445520000000000000000000000000000000000006044820152606401610c71565b600b54600160a01b900460ff16611aea5760405162461bcd60e51b815260206004820152600b60248201527f4e4f545f454e41424c45440000000000000000000000000000000000000000006044820152606401610c71565b835160208086019190912060008181527fbbc70db1b6c7afd11e79c0fb0051300458f1a3acb8ee9789d9b6b26c61ad9bc790925260409091205460ff1615611b745760405162461bcd60e51b815260206004820152601060248201527f4455504c4943415445445f50524f4f46000000000000000000000000000000006044820152606401610c71565b6000611b81898989613676565b90506000611b8e8661135f565b60408051602080825261042082019092529192506000919080820161040080368337019050509050611bbf82613ce9565b600b546040517fea50d0e40000000000000000000000000000000000000000000000000000000081529192506001600160a01b03169063ea50d0e490611c0b908b908590600401614d53565b602060405180830381865afa158015611c28573d6000803e3d6000fd5b505050506040513d601f19601f82011682018060405250810190611c4c9190614daa565b611c82576040517fff3ee09d00000000000000000000000000000000000000000000000000000000815260040160405180910390fd5b60008481527fbbc70db1b6c7afd11e79c0fb0051300458f1a3acb8ee9789d9b6b26c61ad9bc760205260409020805460ff19166001908117909155611cc9908c8c86613d64565b95509550505050509550959350505050565b6000306001600160a01b037f00000000000000000000000000000000000000000000000000000000000000001614611d7b5760405162461bcd60e51b815260206004820152603860248201527f555550535570677261646561626c653a206d757374206e6f742062652063616c60448201527f6c6564207468726f7567682064656c656761746563616c6c00000000000000006064820152608401610c71565b507f360894a13ba1a3210667c828492db98dca3e2076cc3735a920a3ca505d382bbc90565b60028054610b4090614d00565b6005546001600160a01b03163314611e075760405162461bcd60e51b815260206004820152600f60248201527f53454e4445525f4e4f545f5341464500000000000000000000000000000000006044820152606401610c71565b80611e545760405162461bcd60e51b815260206004820152600c60248201527f494e56414c49445f4841534800000000000000000000000000000000000000006044820152606401610c71565b6010819055611e6282600655565b5050600f805474ff00000000000000000000000000000000000000001916600160a01b179055565b6005546001600160a01b03163314611ee45760405162461bcd60e51b815260206004820152600f60248201527f53454e4445525f4e4f545f5341464500000000000000000000000000000000006044820152606401610c71565b80611f315760405162461bcd60e51b815260206004820152600c60248201527f494e56414c49445f4841534800000000000000000000000000000000000000006044820152606401610c71565b6012819055611f3f82600655565b50506011805474ff00000000000000000000000000000000000000001916600160a01b179055565b611f6f61438b565b611f7761438b565b60005b6020811015611fbf57838160208110611f9557611f95614f0f565b1a828260208110611fa857611fa8614f0f565b602002015280611fb781614f6d565b915050611f7a565b5092915050565b6005546001600160a01b031633146120205760405162461bcd60e51b815260206004820152600f60248201527f53454e4445525f4e4f545f5341464500000000000000000000000000000000006044820152606401610c71565b8061206d5760405162461bcd60e51b815260206004820152600c60248201527f494e56414c49445f4841534800000000000000000000000000000000000000006044820152606401610c71565b6014819055601582905561208083600655565b50506013805474ff00000000000000000000000000000000000000001916600160a01b17905550565b6005546001600160a01b031633146121035760405162461bcd60e51b815260206004820152600f60248201527f53454e4445525f4e4f545f5341464500000000000000000000000000000000006044820152606401610c71565b6000818152600960205260409020600681015460ff16156121665760405162461bcd60e51b815260206004820152601060248201527f414c52454144595f52454a4543544544000000000000000000000000000000006044820152606401610c71565b600601805460ff1916600117905550565b600e8054610b4090614d00565b6005546001600160a01b031633146121de5760405162461bcd60e51b815260206004820152600f60248201527f53454e4445525f4e4f545f5341464500000000000000000000000000000000006044820152606401610c71565b601354600160a01b900460ff166122375760405162461bcd60e51b815260206004820152600b60248201527f4e4f545f454e41424c45440000000000000000000000000000000000000000006044820152606401610c71565b600060148190556015556013805474ff000000000000000000000000000000000000000019169055565b600054610100900460ff16158080156122815750600054600160ff909116105b8061229b5750303b15801561229b575060005460ff166001145b61230d5760405162461bcd60e51b815260206004820152602e60248201527f496e697469616c697a61626c653a20636f6e747261637420697320616c72656160448201527f647920696e697469616c697a65640000000000000000000000000000000000006064820152608401610c71565b6000805460ff19166001179055801561234d57600080547fffffffffffffffffffffffffffffffffffffffffffffffffffffffffffff00ff166101001790555b61240f6040518060a001604052806040518060400160405280601481526020017f53616665205265636f7665727920506c7567696e00000000000000000000000081525081526020016040518060400160405280600581526020017f312e302e3000000000000000000000000000000000000000000000000000000081525081526020016001151581526020016040518060200160405280600081525081526020016040518060600160405280603381526020016152e5603391399052613dfc565b600580547fffffffffffffffffffffffff00000000000000000000000000000000000000009081166001600160a01b038a811691909117909255601680548216898416179055601180548216888416179055600b80548216878416179055600f805482168684161790556013805490911691841691909117905580156124ec57600080547fffffffffffffffffffffffffffffffffffffffffffffffffffffffffffff00ff169055604051600181527f7f26b83ff96e1f2b6a682f133852f6798a09c465da95921460cefb38474024989060200160405180910390a15b50505050505050565b600061250082610d99565b506000828152600960209081526040808320600381015460055483517fe75235b8000000000000000000000000000000000000000000000000000000008152935192959491936001600160a01b039091169263e75235b8926004808401939192918290030181865afa15801561257a573d6000803e3d6000fd5b505050506040513d601f19601f8201168201806040525081019061259e9190614dcc565b600284015491141591506000826125b557816125c0565b6125c0826001614f87565b905060008167ffffffffffffffff8111156125dd576125dd6144e1565b60405190808252806020026020018201604052801561262a57816020015b604080516060808201835260008083526020830152918101919091528152602001906001900390816125fb5790505b509050606060005b8481101561287c5763e318b52b60e01b61272a88600201838154811061265a5761265a614f0f565b6000918252602091829020015460028b01805460408051828602810186019091528181526001600160a01b03909316938301828280156126c357602002820191906000526020600020905b81546001600160a01b031681526001909101906020018083116126a5575b50505050508a60010180548060200260200160405190810160405280929190818152602001828054801561272057602002820191906000526020600020905b81546001600160a01b03168152600190910190602001808311612702575b5050505050613e47565b88600201838154811061273f5761273f614f0f565b60009182526020909120015460018a0180546001600160a01b03909216918590811061276d5761276d614f0f565b6000918252602090912001546040516001600160a01b039384166024820152918316604483015291909116606482015260840160408051601f198184030181529190526020810180517bffffffffffffffffffffffffffffffffffffffffffffffffffffffff167fffffffff000000000000000000000000000000000000000000000000000000009093169290921790915260055484519193506001600160a01b03169084908390811061282357612823614f0f565b6020026020010151600001906001600160a01b031690816001600160a01b0316815250508183828151811061285a5761285a614f0f565b602002602001015160400181905250808061287490614f6d565b915050612632565b508415612988576005546001600160a01b03168261289b600186614f9a565b815181106128ab576128ab614f0f565b60209081029190910101516001600160a01b03909116905260038601546040517f694e80c300000000000000000000000000000000000000000000000000000000916128fd9160240190815260200190565b60408051601f198184030181529190526020810180517bffffffffffffffffffffffffffffffffffffffffffffffffffffffff167fffffffff000000000000000000000000000000000000000000000000000000009093169290921790915282612968600186614f9a565b8151811061297857612978614f0f565b6020026020010151604001819052505b6040805160608101825283815260055482517faffed0e000000000000000000000000000000000000000000000000000000000815292516000936020808501936001600160a01b03169263affed0e09260048082019392918290030181865afa1580156129f9573d6000803e3d6000fd5b505050506040513d601f19601f82011682018060405250810190612a1d9190614dcc565b612a28906001614f87565b8152600480546020909201919091526016546005546040517f0f9919150000000000000000000000000000000000000000000000000000000081529394506001600160a01b0391821693630f99191593612a889390921691869101614fad565b6000604051808303816000875af1925050508015612ac857506040513d6000823e601f3d908101601f19168201604052612ac5919081019061507c565b60015b612b30573d808015612af6576040519150601f19603f3d011682016040523d82523d6000602084013e612afb565b606091505b50806040517f2e268859000000000000000000000000000000000000000000000000000000008152600401610c7191906144ce565b505050426007555060019695505050505050565b6005546001600160a01b03163314612b9e5760405162461bcd60e51b815260206004820152600f60248201527f53454e4445525f4e4f545f5341464500000000000000000000000000000000006044820152606401610c71565b601154600160a01b900460ff16612bf75760405162461bcd60e51b815260206004820152600b60248201527f4e4f545f454e41424c45440000000000000000000000000000000000000000006044820152606401610c71565b6011805474ff000000000000000000000000000000000000000019169055565b60055460009081906001600160a01b03163303612c765760405162461bcd60e51b815260206004820152600e60248201527f494e56414c49445f53454e4445520000000000000000000000000000000000006044820152606401610c71565b601154600160a01b900460ff16612ccf5760405162461bcd60e51b815260206004820152600b60248201527f4e4f545f454e41424c45440000000000000000000000000000000000000000006044820152606401610c71565b835160208086019190912060008181527f13da86008ba1c6922daee3e07db95305ef49ebced9f5467a0b8613fcc6b343e390925260409091205460ff1615612d595760405162461bcd60e51b815260206004820152601060248201527f4455504c4943415445445f50524f4f46000000000000000000000000000000006044820152606401610c71565b6000612d66898989613676565b6040805160218082526104408201909252919250600091906020820161042080368337019050509050612d998187613fd3565b6011546040517fea50d0e40000000000000000000000000000000000000000000000000000000081529192506001600160a01b03169063ea50d0e490612de5908a908590600401614d53565b602060405180830381865afa158015612e02573d6000803e3d6000fd5b505050506040513d601f19601f82011682018060405250810190612e269190614daa565b612e5c576040517fff3ee09d00000000000000000000000000000000000000000000000000000000815260040160405180910390fd5b60008381527f13da86008ba1c6922daee3e07db95305ef49ebced9f5467a0b8613fcc6b343e360205260408120805460ff19166001179055612ea0908b8b85613d64565b945094505050509550959350505050565b60055460009081906001600160a01b03163303612f105760405162461bcd60e51b815260206004820152600e60248201527f494e56414c49445f53454e4445520000000000000000000000000000000000006044820152606401610c71565b601354600160a01b900460ff16612f695760405162461bcd60e51b815260206004820152600b60248201527f4e4f545f454e41424c45440000000000000000000000000000000000000000006044820152606401610c71565b845160208087019190912060008181527fa856840544dc26124927add067d799967eac11be13e14d82cc281ea46fa3975990925260409091205460ff1615612ff35760405162461bcd60e51b815260206004820152601060248201527f4455504c4943415445445f50524f4f46000000000000000000000000000000006044820152606401610c71565b60006130008a8a8a613676565b60408051602380825261048082019092529192506000919060208201610460803683370190505090506000600854600161303a9190614f87565b90506130488183898b6134f3565b6013546040517fea50d0e40000000000000000000000000000000000000000000000000000000081529193506001600160a01b03169063ea50d0e490613094908c908690600401614d53565b602060405180830381865afa1580156130b1573d6000803e3d6000fd5b505050506040513d601f19601f820116820180604052508101906130d59190614daa565b61310b576040517fff3ee09d00000000000000000000000000000000000000000000000000000000815260040160405180910390fd5b60008481527fa856840544dc26124927add067d799967eac11be13e14d82cc281ea46fa3975960205260408120805460ff191660011790558061315160038f8f88613d64565b9150915061315f828b6135c5565b50909d909c509a5050505050505050505050565b60055460009081906001600160a01b031633036131d25760405162461bcd60e51b815260206004820152600e60248201527f494e56414c49445f53454e4445520000000000000000000000000000000000006044820152606401610c71565b600f54600160a01b900460ff1661322b5760405162461bcd60e51b815260206004820152600b60248201527f4e4f545f454e41424c45440000000000000000000000000000000000000000006044820152606401610c71565b825160208085019190912060008181527fbff4442b8ed600beeb8e26b1279a0f0d14c6edfaec26d968ee13c86f7d4c2ba890925260409091205460ff16156132b55760405162461bcd60e51b815260206004820152601060248201527f4455504c4943415445445f50524f4f46000000000000000000000000000000006044820152606401610c71565b60006132c2888888613676565b6040805160018082528183019092529192506000919060208083019080368337019050509050601054816000815181106132fe576132fe614f0f565b6020908102919091010152600f546040517fea50d0e40000000000000000000000000000000000000000000000000000000081526001600160a01b039091169063ea50d0e4906133549089908590600401614d53565b602060405180830381865afa158015613371573d6000803e3d6000fd5b505050506040513d601f19601f820116820180604052508101906133959190614daa565b6133cb576040517fff3ee09d00000000000000000000000000000000000000000000000000000000815260040160405180910390fd5b60008381527fbff4442b8ed600beeb8e26b1279a0f0d14c6edfaec26d968ee13c86f7d4c2ba860205260409020805460ff1916600117905561341060028a8a85613d64565b9450945050505094509492505050565b6005546001600160a01b0316331461347a5760405162461bcd60e51b815260206004820152600f60248201527f53454e4445525f4e4f545f5341464500000000000000000000000000000000006044820152606401610c71565b600f54600160a01b900460ff166134d35760405162461bcd60e51b815260206004820152600b60248201527f4e4f545f454e41424c45440000000000000000000000000000000000000000006044820152606401610c71565b600f805474ff000000000000000000000000000000000000000019169055565b60606014548460008151811061350b5761350b614f0f565b6020026020010181815250508460001b8460018151811061352e5761352e614f0f565b602002602001018181525050818460028151811061354e5761354e614f0f565b60200260200101818152505060005b60208110156135bb5783818151811061357857613578614f0f565b60200260200101518582600361358e9190614f87565b8151811061359e5761359e614f0f565b6020908102919091010152806135b381614f6d565b91505061355d565b5092949350505050565b60008281526009602090815260408083208484526008810190925282205460ff16156136335760405162461bcd60e51b815260206004820152601160248201527f494e56414c49445f4e554c4c49464945520000000000000000000000000000006044820152606401610c71565b60008381526008820160205260408120805460ff1916600190811790915560078301805491929091613666908490614f87565b9091555050600701549392505050565b600082518451146136c95760405162461bcd60e51b815260206004820152600e60248201527f554e455155414c5f4c454e4754480000000000000000000000000000000000006044820152606401610c71565b600554604080517fa0e67e2b00000000000000000000000000000000000000000000000000000000815290516000926001600160a01b03169163a0e67e2b91600480830192869291908290030181865afa15801561372b573d6000803e3d6000fd5b505050506040513d6000823e601f3d908101601f191682016040526137539190810190615169565b90508051855111156137a75760405162461bcd60e51b815260206004820152600e60248201527f494e56414c49445f4c454e4754480000000000000000000000000000000000006044820152606401610c71565b60005b8551811015613a4c5760055486516001600160a01b0390911690632f54bf6e908890849081106137dc576137dc614f0f565b60200260200101516040518263ffffffff1660e01b815260040161380f91906001600160a01b0391909116815260200190565b602060405180830381865afa15801561382c573d6000803e3d6000fd5b505050506040513d601f19601f820116820180604052508101906138509190614daa565b61389c5760405162461bcd60e51b815260206004820152600960248201527f4e4f545f4f574e455200000000000000000000000000000000000000000000006044820152606401610c71565b60055485516001600160a01b0390911690632f54bf6e908790849081106138c5576138c5614f0f565b60200260200101516040518263ffffffff1660e01b81526004016138f891906001600160a01b0391909116815260200190565b602060405180830381865afa158015613915573d6000803e3d6000fd5b505050506040513d601f19601f820116820180604052508101906139399190614daa565b156139865760405162461bcd60e51b815260206004820152600d60248201527f414c44524544595f4f574e4552000000000000000000000000000000000000006044820152606401610c71565b60006001600160a01b03168582815181106139a3576139a3614f0f565b60200260200101516001600160a01b0316141580156139ee575060016001600160a01b03168582815181106139da576139da614f0f565b60200260200101516001600160a01b031614155b613a3a5760405162461bcd60e51b815260206004820152600f60248201527f494e56414c49445f4144445245535300000000000000000000000000000000006044820152606401610c71565b80613a4481614f6d565b9150506137aa565b50600554604080517fe75235b800000000000000000000000000000000000000000000000000000000815290516000926001600160a01b03169163e75235b89160048083019260209291908290030181865afa158015613ab0573d6000803e3d6000fd5b505050506040513d601f19601f82011682018060405250810190613ad49190614dcc565b90506000818503613ae55781613ae7565b845b90508083511015613b3a5760405162461bcd60e51b815260206004820152601160248201527f494e56414c49445f5448524553484f4c440000000000000000000000000000006044820152606401610c71565b9695505050505050565b7f4910fdfa16fed3260ed0e7147f7cc6da11a60208b5b9406d12a635614ffd91435460ff1615613b7c57613b7783614060565b505050565b826001600160a01b03166352d1902d6040518163ffffffff1660e01b8152600401602060405180830381865afa925050508015613bd6575060408051601f3d908101601f19168201909252613bd391810190614dcc565b60015b613c485760405162461bcd60e51b815260206004820152602e60248201527f45524331393637557067726164653a206e657720696d706c656d656e7461746960448201527f6f6e206973206e6f7420555550530000000000000000000000000000000000006064820152608401610c71565b7f360894a13ba1a3210667c828492db98dca3e2076cc3735a920a3ca505d382bbc8114613cdd5760405162461bcd60e51b815260206004820152602960248201527f45524331393637557067726164653a20756e737570706f727465642070726f7860448201527f6961626c655555494400000000000000000000000000000000000000000000006064820152608401610c71565b50613b77838383614136565b6040805160208082526104208201909252606091600091908082016104008036833701905050905060005b6020811015611fbf57838160208110613d2f57613d2f614f0f565b835191901a90839083908110613d4757613d47614f0f565b602090810291909101015280613d5c81614f6d565b915050613d14565b60008060006008546001613d789190614f87565b60088190556000818152600960209081526040909120805460ff191660ff8b16178155885192935091613db3916002840191908a01906143aa565b508551613dc990600183019060208901906143aa565b5060038101859055600654613dde9042614f87565b60058201819055426004909201919091559097909650945050505050565b6004547f522c683f99251eea7f3b027592e92a5398e7582983be1f7c0f33715ce025740f613e2983614161565b604051613e3691906144ce565b60405180910390a26117d8816141c8565b600080600560009054906101000a90046001600160a01b03166001600160a01b031663a0e67e2b6040518163ffffffff1660e01b8152600401600060405180830381865afa158015613e9d573d6000803e3d6000fd5b505050506040513d6000823e601f3d908101601f19168201604052613ec59190810190615169565b90506000805b8251811015613f2057866001600160a01b0316838281518110613ef057613ef0614f0f565b60200260200101516001600160a01b031603613f0e57809150613f20565b80613f1881614f6d565b915050613ecb565b5060008115613f525782613f35600184614f9a565b81518110613f4557613f45614f0f565b6020026020010151613f55565b60015b905060005b8651811015613fc857816001600160a01b0316878281518110613f7f57613f7f614f0f565b60200260200101516001600160a01b031603613fb657858181518110613fa757613fa7614f0f565b60200260200101519150613fc8565b80613fc081614f6d565b915050613f5a565b509695505050505050565b606060125483600081518110613feb57613feb614f0f565b60200260200101818152505060005b60208110156140585782818151811061401557614015614f0f565b60200260200101518482600161402b9190614f87565b8151811061403b5761403b614f0f565b60209081029190910101528061405081614f6d565b915050613ffa565b509192915050565b6001600160a01b0381163b6140dd5760405162461bcd60e51b815260206004820152602d60248201527f455243313936373a206e657720696d706c656d656e746174696f6e206973206e60448201527f6f74206120636f6e7472616374000000000000000000000000000000000000006064820152608401610c71565b7f360894a13ba1a3210667c828492db98dca3e2076cc3735a920a3ca505d382bbc80547fffffffffffffffffffffffff0000000000000000000000000000000000000000166001600160a01b0392909216919091179055565b61413f83614218565b60008251118061414c5750805b15613b775761415b8383614258565b50505050565b606060008083600001518460200151856040015186606001518760800151604051602001614193959493929190615203565b60408051601f19818403018152908290526141b2939291602001615264565b6040516020818303038152906040529050919050565b80516001906141d79082614e4f565b5060208101516002906141ea9082614e4f565b5060408101516003805460ff191691151591909117905561420a81614161565b805160209091012060045550565b61422181614060565b6040516001600160a01b038216907fbc7cd75a20ee27fd9adebab32041f755214dbc6bffa90cc0225b39da2e5c2d3b90600090a250565b606061427d83836040518060600160405280602781526020016152be60279139614284565b9392505050565b6060600080856001600160a01b0316856040516142a19190614de5565b600060405180830381855af49150503d80600081146142dc576040519150601f19603f3d011682016040523d82523d6000602084013e6142e1565b606091505b5091509150613b3a868383876060831561435c578251600003614355576001600160a01b0385163b6143555760405162461bcd60e51b815260206004820152601d60248201527f416464726573733a2063616c6c20746f206e6f6e2d636f6e74726163740000006044820152606401610c71565b5081610d91565b610d9183838151156143715781518083602001fd5b8060405162461bcd60e51b8152600401610c7191906144ce565b6040518061040001604052806020906020820280368337509192915050565b828054828255906000526020600020908101928215614417579160200282015b8281111561441757825182547fffffffffffffffffffffffff0000000000000000000000000000000000000000166001600160a01b039091161782556020909201916001909101906143ca565b50614423929150614427565b5090565b5b808211156144235760008155600101614428565b60006020828403121561444e57600080fd5b81357fffffffff000000000000000000000000000000000000000000000000000000008116811461427d57600080fd5b60005b83811015614499578181015183820152602001614481565b50506000910152565b600081518084526144ba81602086016020860161447e565b601f01601f19169290920160200192915050565b60208152600061427d60208301846144a2565b7f4e487b7100000000000000000000000000000000000000000000000000000000600052604160045260246000fd5b604051601f8201601f1916810167ffffffffffffffff81118282101715614539576145396144e1565b604052919050565b600067ffffffffffffffff82111561455b5761455b6144e1565b50601f01601f191660200190565b600061457c61457784614541565b614510565b905082815283838301111561459057600080fd5b828260208301376000602084830101529392505050565b600082601f8301126145b857600080fd5b61427d83833560208501614569565b600067ffffffffffffffff8211156145e1576145e16144e1565b5060051b60200190565b600082601f8301126145fc57600080fd5b8135602061460c614577836145c7565b82815260059290921b8401810191818101908684111561462b57600080fd5b8286015b84811015613fc8578035835291830191830161462f565b6000806000806080858703121561465c57600080fd5b84359350602085013567ffffffffffffffff8082111561467b57600080fd5b614687888389016145a7565b94506040870135935060608701359150808211156146a457600080fd5b506146b1878288016145eb565b91505092959194509250565b6000602082840312156146cf57600080fd5b5035919050565b600081518084526020808501945080840160005b8381101561470f5781516001600160a01b0316875295820195908201906001016146ea565b509495945050505050565b600061010060ff8b1683528060208401526147378184018b6146d6565b9050828103604084015261474b818a6146d6565b60608401989098525050608081019490945260a0840192909252151560c083015260e0909101529392505050565b60006020828403121561478b57600080fd5b813567ffffffffffffffff8111156147a257600080fd5b610d91848285016145a7565b600080600080608085870312156147c457600080fd5b843593506020850135925060408501359150606085013567ffffffffffffffff8111156147f057600080fd5b8501601f8101871361480157600080fd5b6146b187823560208401614569565b6001600160a01b03811681146117d857600080fd5b60006020828403121561483757600080fd5b813561427d81614810565b60208152600061427d60208301846146d6565b6000806040838503121561486857600080fd5b823561487381614810565b9150602083013567ffffffffffffffff81111561488f57600080fd5b61489b858286016145a7565b9150509250929050565b600082601f8301126148b657600080fd5b813560206148c6614577836145c7565b82815260059290921b840181019181810190868411156148e557600080fd5b8286015b84811015613fc85780356148fc81614810565b83529183019183016148e9565b600080600080600060a0868803121561492157600080fd5b853567ffffffffffffffff8082111561493957600080fd5b61494589838a016148a5565b9650602088013591508082111561495b57600080fd5b61496789838a016148a5565b955060408801359450606088013591508082111561498457600080fd5b61499089838a016145a7565b935060808801359150808211156149a657600080fd5b506149b3888289016145a7565b9150509295509295909350565b600080604083850312156149d357600080fd5b50508035926020909101359150565b6104008101818360005b60208082106149fb5750614a0f565b8251845292830192909101906001016149ec565b50505092915050565b600080600060608486031215614a2d57600080fd5b505081359360208301359350604090920135919050565b60008060008060008060c08789031215614a5d57600080fd5b8635614a6881614810565b95506020870135614a7881614810565b94506040870135614a8881614810565b93506060870135614a9881614810565b92506080870135614aa881614810565b915060a0870135614ab881614810565b809150509295509295509295565b60008060408385031215614ad957600080fd5b823560ff81168114614aea57600080fd5b946020939093013593505050565b828152604060208201526000610d9160408301846144a2565b600080600080600060a08688031215614b2957600080fd5b853567ffffffffffffffff80821115614b4157600080fd5b614b4d89838a016148a5565b96506020880135915080821115614b6357600080fd5b614b6f89838a016148a5565b9550604088013594506060880135915080821115614b8c57600080fd5b614b9889838a016145a7565b93506080880135915080821115614bae57600080fd5b506149b3888289016145eb565b60008060008060008060c08789031215614bd457600080fd5b863567ffffffffffffffff80821115614bec57600080fd5b614bf88a838b016148a5565b97506020890135915080821115614c0e57600080fd5b614c1a8a838b016148a5565b9650604089013595506060890135915080821115614c3757600080fd5b614c438a838b016145a7565b94506080890135935060a0890135915080821115614c6057600080fd5b50614c6d89828a016145eb565b9150509295509295509295565b60008060008060808587031215614c9057600080fd5b843567ffffffffffffffff80821115614ca857600080fd5b614cb4888389016148a5565b95506020870135915080821115614cca57600080fd5b614cd6888389016148a5565b9450604087013593506060870135915080821115614cf357600080fd5b506146b1878288016145a7565b600181811c90821680614d1457607f821691505b602082108103614d4d577f4e487b7100000000000000000000000000000000000000000000000000000000600052602260045260246000fd5b50919050565b604081526000614d6660408301856144a2565b82810360208481019190915284518083528582019282019060005b81811015614d9d57845183529383019391830191600101614d81565b5090979650505050505050565b600060208284031215614dbc57600080fd5b8151801515811461427d57600080fd5b600060208284031215614dde57600080fd5b5051919050565b60008251614df781846020870161447e565b9190910192915050565b601f821115613b7757600081815260208120601f850160051c81016020861015614e285750805b601f850160051c820191505b81811015614e4757828155600101614e34565b505050505050565b815167ffffffffffffffff811115614e6957614e696144e1565b614e7d81614e778454614d00565b84614e01565b602080601f831160018114614eb25760008415614e9a5750858301515b600019600386901b1c1916600185901b178555614e47565b600085815260208120601f198616915b82811015614ee157888601518255948401946001909101908401614ec2565b5085821015614eff5787850151600019600388901b60f8161c191681555b5050505050600190811b01905550565b7f4e487b7100000000000000000000000000000000000000000000000000000000600052603260045260246000fd5b7f4e487b7100000000000000000000000000000000000000000000000000000000600052601160045260246000fd5b60006000198203614f8057614f80614f3e565b5060010190565b80820180821115610b2d57610b2d614f3e565b81810381811115610b2d57610b2d614f3e565b600060406001600160a01b0380861684526020828186015260a0850186516060808689015282825180855260c08a01915060c08160051b8b01019450858401935060005b81811015615058578a86037fffffffffffffffffffffffffffffffffffffffffffffffffffffffffffffff4001835284518051891687528781015188880152890151898701859052615045858801826144a2565b9650509386019391860191600101614ff1565b50505083890151818901525050838701516080870152809450505050509392505050565b6000602080838503121561508f57600080fd5b825167ffffffffffffffff808211156150a757600080fd5b818501915085601f8301126150bb57600080fd5b81516150c9614577826145c7565b81815260059190911b830184019084810190888311156150e857600080fd5b8585015b8381101561515c578051858111156151045760008081fd5b8601603f81018b136151165760008081fd5b87810151604061512861457783614541565b8281528d8284860101111561513d5760008081fd5b61514c838c830184870161447e565b86525050509186019186016150ec565b5098975050505050505050565b6000602080838503121561517c57600080fd5b825167ffffffffffffffff81111561519357600080fd5b8301601f810185136151a457600080fd5b80516151b2614577826145c7565b81815260059190911b820183019083810190878311156151d157600080fd5b928401925b828410156151f85783516151e981614810565b825292840192908401906151d6565b979650505050505050565b60a08152600061521660a08301886144a2565b828103602084015261522881886144a2565b90508515156040840152828103606084015261524481866144a2565b9050828103608084015261525881856144a2565b98975050505050505050565b60007fff00000000000000000000000000000000000000000000000000000000000000808660f81b168352808560f81b1660018401525082516152ae81600285016020870161447e565b9190910160020194935050505056fe416464726573733a206c6f772d6c6576656c2064656c65676174652063616c6c206661696c656468747470733a2f2f6769746875622e636f6d2f706f72636f2d726f73736f2d6a2f736166652d7265636f766572792d6e6f6972a26469706673582212204575baa80c63256edee8606cdd2f37dd7eff4bf842a024ac4f9e09c6d2852c7364736f6c63430008140033",
    "linkReferences": {
      "src/helper/WebAuthnHelper.sol": {
        "WebAuthnHelper": [
          {
            "start": 5078,
            "length": 20
          }
        ]
      }
    }
  },
  "methodIdentifiers": {
    "MIN_TIMELOCK()": "fb0c7549",
    "_computeMessage(bytes)": "2da4e420",
    "_convertBytes32ToBytes32Array(bytes32)": "67a277a4",
    "addEcrecoverRecover(uint256,bytes32)": "665caab7",
    "addSecretRecover(uint256,bytes32)": "57a60326",
    "addSocialRecover(uint256,uint256,bytes32)": "7d9e0141",
    "addWebAuthnRecover(uint256,bytes32,bytes32,string)": "31895767",
    "approvalThreshold()": "7d0eef61",
    "approveSocialRecovery(uint256,bytes,bytes32,bytes32[])": "1788430b",
    "credentialId()": "a3c0f0b7",
    "ecrecoverVerifier()": "7c64dd76",
    "execRecovery(uint256)": "cdb44775",
    "getIsRecoveryExecutable(uint256)": "2152ab1b",
    "getPendingNewOwners(uint256)": "4969ca3f",
    "getPubkeyXY()": "d83dfc26",
    "getRecoveryByProposalId(uint256)": "23a6c20e",
    "guardiansRoot()": "5695f292",
    "hashed_address()": "87dee39f",
    "hashed_secret()": "2abcb3d8",
    "initialize(address,address,address,address,address,address)": "cc2a9a5b",
    "isEcrecoverRecoverEnabled()": "e6795306",
    "isSecretRecoverEnabled()": "83b1a8c1",
    "isSocialRecoverEnabled()": "e6f352c9",
    "isWebAuthnRecoverEnabled()": "23b26075",
    "lastExecutionTimestamp()": "358d1fc6",
    "metadataHash()": "c5a1d7f0",
    "metadataProvider()": "d3d72d2a",
    "name()": "06fdde03",
    "proposeEcrecoverRecover(address[],address[],uint256,bytes,bytes32[])": "e6e1247e",
    "proposeSecretRecover(address[],address[],uint256,bytes)": "f3d3f549",
    "proposeSocialRecover(address[],address[],uint256,bytes,bytes32,bytes32[])": "ec33ddb7",
    "proposeWebAuthnRecover(address[],address[],uint256,bytes,bytes)": "51a2f17a",
    "proxiableUUID()": "52d1902d",
    "pubkey_x()": "652b098a",
    "pubkey_y()": "cd0a16a8",
    "recoveries(uint256)": "7a04c865",
    "recoveryCount()": "010a623c",
    "recoveryNullifiers(uint8,bytes32)": "cd0ad3c1",
    "recoveryTimeLock()": "0ce03f2d",
    "rejectRecovery(uint256)": "9a8f18f3",
    "removeEcrecoverRecover()": "dada7ca2",
    "removeSecretRecover()": "f5120d62",
    "removeSocialRecover()": "b3810340",
    "removeWebAuthnRecover()": "2e56f60d",
    "requiresPermissions()": "e8e755b5",
    "requiresRootAccess()": "be193d27",
    "safe()": "186f0354",
    "safeProtocolManager()": "8e482341",
    "secretVerifier()": "024e5d15",
    "socialRecoverVerifier()": "17f5705e",
    "supportsInterface(bytes4)": "01ffc9a7",
    "upgradeTo(address)": "3659cfe6",
    "upgradeToAndCall(address,bytes)": "4f1ef286",
    "version()": "54fd4d50",
    "webAuthnVerifier()": "7b49fa19"
  },
  "id": 82
}