{
  "abi": [
    {
      "inputs": [],
      "name": "PROOF_VERIFICATION_FAILED",
      "type": "error"
    },
    {
      "inputs": [
        {
          "internalType": "bytes",
          "name": "reason",
          "type": "bytes"
        }
      ],
      "name": "RECOVER_FAILED",
      "type": "error"
    },
    {
      "anonymous": false,
      "inputs": [
        {
          "indexed": false,
          "internalType": "address",
          "name": "previousAdmin",
          "type": "address"
        },
        {
          "indexed": false,
          "internalType": "address",
          "name": "newAdmin",
          "type": "address"
        }
      ],
      "name": "AdminChanged",
      "type": "event"
    },
    {
      "anonymous": false,
      "inputs": [
        {
          "indexed": true,
          "internalType": "address",
          "name": "beacon",
          "type": "address"
        }
      ],
      "name": "BeaconUpgraded",
      "type": "event"
    },
    {
      "anonymous": false,
      "inputs": [
        {
          "indexed": false,
          "internalType": "uint8",
          "name": "version",
          "type": "uint8"
        }
      ],
      "name": "Initialized",
      "type": "event"
    },
    {
      "anonymous": false,
      "inputs": [
        {
          "indexed": true,
          "internalType": "bytes32",
          "name": "metadataHash",
          "type": "bytes32"
        },
        {
          "indexed": false,
          "internalType": "bytes",
          "name": "data",
          "type": "bytes"
        }
      ],
      "name": "Metadata",
      "type": "event"
    },
    {
      "anonymous": false,
      "inputs": [
        {
          "indexed": true,
          "internalType": "address",
          "name": "implementation",
          "type": "address"
        }
      ],
      "name": "Upgraded",
      "type": "event"
    },
    {
      "inputs": [],
      "name": "MIN_TIMELOCK",
      "outputs": [
        {
          "internalType": "uint256",
          "name": "",
          "type": "uint256"
        }
      ],
      "stateMutability": "view",
      "type": "function"
    },
    {
      "inputs": [
        {
          "internalType": "bytes32",
          "name": "value",
          "type": "bytes32"
        }
      ],
      "name": "_convertBytes32ToBytes32Array",
      "outputs": [
        {
          "internalType": "bytes32[32]",
          "name": "",
          "type": "bytes32[32]"
        }
      ],
      "stateMutability": "pure",
      "type": "function"
    },
    {
      "inputs": [
        {
          "internalType": "uint256",
          "name": "_recoveryTimeLock",
          "type": "uint256"
        },
        {
          "internalType": "bytes32",
          "name": "_hashed_address",
          "type": "bytes32"
        }
      ],
      "name": "addEcrecoverRecover",
      "outputs": [],
      "stateMutability": "nonpayable",
      "type": "function"
    },
    {
      "inputs": [
        {
          "internalType": "uint256",
          "name": "_recoveryTimeLock",
          "type": "uint256"
        },
        {
          "internalType": "bytes32",
          "name": "_hashed_secret",
          "type": "bytes32"
        }
      ],
      "name": "addSecretRecover",
      "outputs": [],
      "stateMutability": "nonpayable",
      "type": "function"
    },
    {
      "inputs": [
        {
          "internalType": "uint256",
          "name": "_recoveryTimeLock",
          "type": "uint256"
        },
        {
          "internalType": "uint256",
          "name": "_threshold",
          "type": "uint256"
        },
        {
          "internalType": "bytes32",
          "name": "_guardiansRoot",
          "type": "bytes32"
        }
      ],
      "name": "addSocialRecover",
      "outputs": [],
      "stateMutability": "nonpayable",
      "type": "function"
    },
    {
      "inputs": [
        {
          "internalType": "uint256",
          "name": "_recoveryTimeLock",
          "type": "uint256"
        },
        {
          "internalType": "bytes32[]",
          "name": "_pubkey",
          "type": "bytes32[]"
        },
        {
          "internalType": "string",
          "name": "_credentialId",
          "type": "string"
        }
      ],
      "name": "addWebAuthnRecover",
      "outputs": [],
      "stateMutability": "nonpayable",
      "type": "function"
    },
    {
      "inputs": [
        {
          "internalType": "uint256",
          "name": "_recoveryId",
          "type": "uint256"
        },
        {
          "internalType": "bytes",
          "name": "_proof",
          "type": "bytes"
        },
        {
          "internalType": "bytes32",
          "name": "nullifierHash",
          "type": "bytes32"
        },
        {
          "internalType": "bytes32[]",
          "name": "_message",
          "type": "bytes32[]"
        }
      ],
      "name": "approveSocialRecovery",
      "outputs": [
        {
          "internalType": "uint256",
          "name": "",
          "type": "uint256"
        }
      ],
      "stateMutability": "nonpayable",
      "type": "function"
    },
    {
      "inputs": [],
      "name": "credentialId",
      "outputs": [
        {
          "internalType": "string",
          "name": "",
          "type": "string"
        }
      ],
      "stateMutability": "view",
      "type": "function"
    },
    {
      "inputs": [],
      "name": "ecrecoverVerifier",
      "outputs": [
        {
          "internalType": "address",
          "name": "",
          "type": "address"
        }
      ],
      "stateMutability": "view",
      "type": "function"
    },
    {
      "inputs": [
        {
          "internalType": "uint256",
          "name": "_recoveryId",
          "type": "uint256"
        }
      ],
      "name": "execRecovery",
      "outputs": [
        {
          "internalType": "bool",
          "name": "",
          "type": "bool"
        }
      ],
      "stateMutability": "nonpayable",
      "type": "function"
    },
    {
      "inputs": [
        {
          "internalType": "uint256",
          "name": "_proposalId",
          "type": "uint256"
        }
      ],
      "name": "getIsRecoveryExecutable",
      "outputs": [
        {
          "internalType": "bool",
          "name": "",
          "type": "bool"
        }
      ],
      "stateMutability": "view",
      "type": "function"
    },
    {
      "inputs": [
        {
          "internalType": "uint256",
          "name": "_proposalId",
          "type": "uint256"
        }
      ],
      "name": "getPendingNewOwners",
      "outputs": [
        {
          "internalType": "address[]",
          "name": "",
          "type": "address[]"
        }
      ],
      "stateMutability": "view",
      "type": "function"
    },
    {
      "inputs": [
        {
          "internalType": "uint256",
          "name": "_proposalId",
          "type": "uint256"
        }
      ],
      "name": "getRecoveryByProposalId",
      "outputs": [
        {
          "internalType": "uint8",
          "name": "",
          "type": "uint8"
        },
        {
          "internalType": "address[]",
          "name": "",
          "type": "address[]"
        },
        {
          "internalType": "uint256",
          "name": "",
          "type": "uint256"
        }
      ],
      "stateMutability": "view",
      "type": "function"
    },
    {
      "inputs": [],
      "name": "guardiansRoot",
      "outputs": [
        {
          "internalType": "bytes32",
          "name": "",
          "type": "bytes32"
        }
      ],
      "stateMutability": "view",
      "type": "function"
    },
    {
      "inputs": [],
      "name": "hashed_address",
      "outputs": [
        {
          "internalType": "bytes32",
          "name": "",
          "type": "bytes32"
        }
      ],
      "stateMutability": "view",
      "type": "function"
    },
    {
      "inputs": [
        {
          "internalType": "uint256",
          "name": "",
          "type": "uint256"
        }
      ],
      "name": "hashed_secret",
      "outputs": [
        {
          "internalType": "bytes32",
          "name": "",
          "type": "bytes32"
        }
      ],
      "stateMutability": "view",
      "type": "function"
    },
    {
      "inputs": [
        {
          "internalType": "address",
          "name": "_safe",
          "type": "address"
        },
        {
          "internalType": "address",
          "name": "_safeProtocolManager",
          "type": "address"
        },
        {
          "internalType": "address",
          "name": "_ecrecoverVerifier",
          "type": "address"
        },
        {
          "internalType": "address",
          "name": "_webAuthnVerifier",
          "type": "address"
        },
        {
          "internalType": "address",
          "name": "_secretVerifier",
          "type": "address"
        },
        {
          "internalType": "address",
          "name": "_socialRecoverVerifier",
          "type": "address"
        }
      ],
      "name": "initialize",
      "outputs": [],
      "stateMutability": "nonpayable",
      "type": "function"
    },
    {
      "inputs": [],
      "name": "isEcrecoverRecoverEnabled",
      "outputs": [
        {
          "internalType": "bool",
          "name": "",
          "type": "bool"
        }
      ],
      "stateMutability": "view",
      "type": "function"
    },
    {
      "inputs": [],
      "name": "isSecretRecoverEnabled",
      "outputs": [
        {
          "internalType": "bool",
          "name": "",
          "type": "bool"
        }
      ],
      "stateMutability": "view",
      "type": "function"
    },
    {
      "inputs": [],
      "name": "isSocialRecoverEnabled",
      "outputs": [
        {
          "internalType": "bool",
          "name": "",
          "type": "bool"
        }
      ],
      "stateMutability": "view",
      "type": "function"
    },
    {
      "inputs": [],
      "name": "isWebAuthnRecoverEnabled",
      "outputs": [
        {
          "internalType": "bool",
          "name": "",
          "type": "bool"
        }
      ],
      "stateMutability": "view",
      "type": "function"
    },
    {
      "inputs": [],
      "name": "metadataHash",
      "outputs": [
        {
          "internalType": "bytes32",
          "name": "",
          "type": "bytes32"
        }
      ],
      "stateMutability": "view",
      "type": "function"
    },
    {
      "inputs": [],
      "name": "metadataProvider",
      "outputs": [
        {
          "internalType": "uint256",
          "name": "providerType",
          "type": "uint256"
        },
        {
          "internalType": "bytes",
          "name": "location",
          "type": "bytes"
        }
      ],
      "stateMutability": "view",
      "type": "function"
    },
    {
      "inputs": [],
      "name": "name",
      "outputs": [
        {
          "internalType": "string",
          "name": "",
          "type": "string"
        }
      ],
      "stateMutability": "view",
      "type": "function"
    },
    {
      "inputs": [
        {
          "internalType": "address[]",
          "name": "_oldAddresses",
          "type": "address[]"
        },
        {
          "internalType": "address[]",
          "name": "_newAddresses",
          "type": "address[]"
        },
        {
          "internalType": "uint256",
          "name": "_newThreshold",
          "type": "uint256"
        },
        {
          "internalType": "bytes",
          "name": "_proof",
          "type": "bytes"
        },
        {
          "internalType": "bytes32[]",
          "name": "_message",
          "type": "bytes32[]"
        }
      ],
      "name": "proposeEcrecoverRecover",
      "outputs": [
        {
          "internalType": "uint256",
          "name": "",
          "type": "uint256"
        },
        {
          "internalType": "uint256",
          "name": "",
          "type": "uint256"
        }
      ],
      "stateMutability": "nonpayable",
      "type": "function"
    },
    {
      "inputs": [
        {
          "internalType": "address[]",
          "name": "_oldAddresses",
          "type": "address[]"
        },
        {
          "internalType": "address[]",
          "name": "_newAddresses",
          "type": "address[]"
        },
        {
          "internalType": "uint256",
          "name": "_newThreshold",
          "type": "uint256"
        },
        {
          "internalType": "bytes",
          "name": "_proof",
          "type": "bytes"
        }
      ],
      "name": "proposeSecretRecover",
      "outputs": [
        {
          "internalType": "uint256",
          "name": "",
          "type": "uint256"
        },
        {
          "internalType": "uint256",
          "name": "",
          "type": "uint256"
        }
      ],
      "stateMutability": "nonpayable",
      "type": "function"
    },
    {
      "inputs": [
        {
          "internalType": "address[]",
          "name": "_oldAddresses",
          "type": "address[]"
        },
        {
          "internalType": "address[]",
          "name": "_newAddresses",
          "type": "address[]"
        },
        {
          "internalType": "uint256",
          "name": "_newThreshold",
          "type": "uint256"
        },
        {
          "internalType": "bytes",
          "name": "_proof",
          "type": "bytes"
        },
        {
          "internalType": "bytes32",
          "name": "_nullifierHash",
          "type": "bytes32"
        },
        {
          "internalType": "bytes32[]",
          "name": "_message",
          "type": "bytes32[]"
        }
      ],
      "name": "proposeSocialRecover",
      "outputs": [
        {
          "internalType": "uint256",
          "name": "",
          "type": "uint256"
        },
        {
          "internalType": "uint256",
          "name": "",
          "type": "uint256"
        }
      ],
      "stateMutability": "nonpayable",
      "type": "function"
    },
    {
      "inputs": [
        {
          "internalType": "address[]",
          "name": "_oldAddresses",
          "type": "address[]"
        },
        {
          "internalType": "address[]",
          "name": "_newAddresses",
          "type": "address[]"
        },
        {
          "internalType": "uint256",
          "name": "_newThreshold",
          "type": "uint256"
        },
        {
          "internalType": "bytes",
          "name": "_proof",
          "type": "bytes"
        },
        {
          "internalType": "bytes",
          "name": "_webAuthnInputs",
          "type": "bytes"
        }
      ],
      "name": "proposeWebAuthnRecover",
      "outputs": [
        {
          "internalType": "uint256",
          "name": "",
          "type": "uint256"
        },
        {
          "internalType": "uint256",
          "name": "",
          "type": "uint256"
        }
      ],
      "stateMutability": "nonpayable",
      "type": "function"
    },
    {
      "inputs": [],
      "name": "proxiableUUID",
      "outputs": [
        {
          "internalType": "bytes32",
          "name": "",
          "type": "bytes32"
        }
      ],
      "stateMutability": "view",
      "type": "function"
    },
    {
      "inputs": [
        {
          "internalType": "uint256",
          "name": "",
          "type": "uint256"
        }
      ],
      "name": "pubkey",
      "outputs": [
        {
          "internalType": "bytes32",
          "name": "",
          "type": "bytes32"
        }
      ],
      "stateMutability": "view",
      "type": "function"
    },
    {
      "inputs": [
        {
          "internalType": "uint256",
          "name": "",
          "type": "uint256"
        }
      ],
      "name": "recoveries",
      "outputs": [
        {
          "internalType": "uint8",
          "name": "recoveryType",
          "type": "uint8"
        },
        {
          "internalType": "uint256",
          "name": "newThreshold",
          "type": "uint256"
        },
        {
          "internalType": "uint256",
          "name": "deadline",
          "type": "uint256"
        },
        {
          "internalType": "bool",
          "name": "rejected",
          "type": "bool"
        },
        {
          "internalType": "uint256",
          "name": "approvalCount",
          "type": "uint256"
        }
      ],
      "stateMutability": "view",
      "type": "function"
    },
    {
      "inputs": [],
      "name": "recoveryCount",
      "outputs": [
        {
          "internalType": "uint256",
          "name": "",
          "type": "uint256"
        }
      ],
      "stateMutability": "view",
      "type": "function"
    },
    {
      "inputs": [],
      "name": "recoveryTimeLock",
      "outputs": [
        {
          "internalType": "uint256",
          "name": "",
          "type": "uint256"
        }
      ],
      "stateMutability": "view",
      "type": "function"
    },
    {
      "inputs": [
        {
          "internalType": "uint256",
          "name": "_recoveryId",
          "type": "uint256"
        }
      ],
      "name": "rejectRecovery",
      "outputs": [],
      "stateMutability": "nonpayable",
      "type": "function"
    },
    {
      "inputs": [],
      "name": "removeEcrecoverRecover",
      "outputs": [],
      "stateMutability": "nonpayable",
      "type": "function"
    },
    {
      "inputs": [],
      "name": "removeSecretRecover",
      "outputs": [],
      "stateMutability": "nonpayable",
      "type": "function"
    },
    {
      "inputs": [],
      "name": "removeSocialRecover",
      "outputs": [],
      "stateMutability": "nonpayable",
      "type": "function"
    },
    {
      "inputs": [],
      "name": "removeWebAuthnRecover",
      "outputs": [],
      "stateMutability": "nonpayable",
      "type": "function"
    },
    {
      "inputs": [],
      "name": "requiresPermissions",
      "outputs": [
        {
          "internalType": "uint8",
          "name": "permissions",
          "type": "uint8"
        }
      ],
      "stateMutability": "view",
      "type": "function"
    },
    {
      "inputs": [],
      "name": "requiresRootAccess",
      "outputs": [
        {
          "internalType": "bool",
          "name": "",
          "type": "bool"
        }
      ],
      "stateMutability": "view",
      "type": "function"
    },
    {
      "inputs": [],
      "name": "safe",
      "outputs": [
        {
          "internalType": "address",
          "name": "",
          "type": "address"
        }
      ],
      "stateMutability": "view",
      "type": "function"
    },
    {
      "inputs": [],
      "name": "safeProtocolManager",
      "outputs": [
        {
          "internalType": "contract ISafeProtocolManager",
          "name": "",
          "type": "address"
        }
      ],
      "stateMutability": "view",
      "type": "function"
    },
    {
      "inputs": [],
      "name": "secretVerifier",
      "outputs": [
        {
          "internalType": "address",
          "name": "",
          "type": "address"
        }
      ],
      "stateMutability": "view",
      "type": "function"
    },
    {
      "inputs": [],
      "name": "socialRecoverVerifier",
      "outputs": [
        {
          "internalType": "address",
          "name": "",
          "type": "address"
        }
      ],
      "stateMutability": "view",
      "type": "function"
    },
    {
      "inputs": [
        {
          "internalType": "bytes4",
          "name": "interfaceId",
          "type": "bytes4"
        }
      ],
      "name": "supportsInterface",
      "outputs": [
        {
          "internalType": "bool",
          "name": "",
          "type": "bool"
        }
      ],
      "stateMutability": "view",
      "type": "function"
    },
    {
      "inputs": [],
      "name": "threshold",
      "outputs": [
        {
          "internalType": "uint256",
          "name": "",
          "type": "uint256"
        }
      ],
      "stateMutability": "view",
      "type": "function"
    },
    {
      "inputs": [
        {
          "internalType": "address",
          "name": "newImplementation",
          "type": "address"
        }
      ],
      "name": "upgradeTo",
      "outputs": [],
      "stateMutability": "nonpayable",
      "type": "function"
    },
    {
      "inputs": [
        {
          "internalType": "address",
          "name": "newImplementation",
          "type": "address"
        },
        {
          "internalType": "bytes",
          "name": "data",
          "type": "bytes"
        }
      ],
      "name": "upgradeToAndCall",
      "outputs": [],
      "stateMutability": "payable",
      "type": "function"
    },
    {
      "inputs": [],
      "name": "version",
      "outputs": [
        {
          "internalType": "string",
          "name": "",
          "type": "string"
        }
      ],
      "stateMutability": "view",
      "type": "function"
    },
    {
      "inputs": [],
      "name": "webAuthnVerifier",
      "outputs": [
        {
          "internalType": "address",
          "name": "",
          "type": "address"
        }
      ],
      "stateMutability": "view",
      "type": "function"
    }
  ],
  "bytecode": {
    "object": "0x60a06040523060805234801561001457600080fd5b50608051614b7d61004c60003960008181610e5a01528181610ef0015281816111f60152818161128c01526115630152614b7d6000f3fe6080604052600436106103295760003560e01c806367a277a4116101a5578063c5a1d7f0116100ec578063e6e1247e11610095578063ec33ddb71161006f578063ec33ddb71461095d578063f3d3f5491461097d578063f5120d621461099d578063fb0c7549146109b257600080fd5b8063e6e1247e14610900578063e6f352c914610920578063e8e755b51461094157600080fd5b8063d3d72d2a116100c6578063d3d72d2a14610886578063dada7ca2146108ca578063e6795306146108df57600080fd5b8063c5a1d7f014610830578063cc2a9a5b14610846578063cdb447751461086657600080fd5b806387dee39f1161014e578063a3c0f0b711610128578063a3c0f0b7146107ec578063b381034014610801578063be193d271461081657600080fd5b806387dee39f146107965780638e482341146107ac5780639a8f18f3146107cc57600080fd5b80637c64dd761161017f5780637c64dd76146107355780637d9e01411461075557806383b1a8c11461077557600080fd5b806367a277a4146106695780637a04c865146106965780637b49fa191461071557600080fd5b80632e56f60d116102745780634f1ef2861161021d57806354fd4d50116101f757806354fd4d50146105fe5780635695f2921461061357806357a6032614610629578063665caab71461064957600080fd5b80634f1ef286146105a157806351a2f17a146105b457806352d1902d146105e957600080fd5b806342cde4e81161024e57806342cde4e81461053e5780634969ca3f146105545780634bc618d21461058157600080fd5b80632e56f60d146104e75780633659cfe6146104fe578063403f69d21461051e57600080fd5b806317f5705e116102d657806323a6c20e116102b057806323a6c20e1461047757806323b26075146104a65780632cdfb6ae146104c757600080fd5b806317f5705e14610417578063186f0354146104375780632152ab1b1461045757600080fd5b806306fdde031161030757806306fdde03146103bf5780630ce03f2d146103e15780631788430b146103f757600080fd5b8063010a623c1461032e57806301ffc9a714610357578063024e5d1514610387575b600080fd5b34801561033a57600080fd5b5061034460075481565b6040519081526020015b60405180910390f35b34801561036357600080fd5b50610377610372366004613ce7565b6109c7565b604051901515815260200161034e565b34801561039357600080fd5b50600c546103a7906001600160a01b031681565b6040516001600160a01b03909116815260200161034e565b3480156103cb57600080fd5b506103d4610a60565b60405161034e9190613d79565b3480156103ed57600080fd5b5061034460065481565b34801561040357600080fd5b50610344610412366004613ef1565b610aee565b34801561042357600080fd5b506010546103a7906001600160a01b031681565b34801561044357600080fd5b506005546103a7906001600160a01b031681565b34801561046357600080fd5b50610377610472366004613f68565b610bfe565b34801561048357600080fd5b50610497610492366004613f68565b610cca565b60405161034e93929190613fc5565b3480156104b257600080fd5b5060095461037790600160a01b900460ff1681565b3480156104d357600080fd5b506103446104e2366004613f68565b610db6565b3480156104f357600080fd5b506104fc610dd7565b005b34801561050a57600080fd5b506104fc610519366004614006565b610e50565b34801561052a57600080fd5b50610344610539366004613f68565b610fe4565b34801561054a57600080fd5b5061034460125481565b34801561056057600080fd5b5061057461056f366004613f68565b610ff4565b60405161034e9190614023565b34801561058d57600080fd5b506104fc61059c366004614036565b6110c5565b6104fc6105af3660046140b7565b6111ec565b3480156105c057600080fd5b506105d46105cf36600461416b565b611371565b6040805192835260208301919091520161034e565b3480156105f557600080fd5b50610344611556565b34801561060a57600080fd5b506103d461161b565b34801561061f57600080fd5b5061034460115481565b34801561063557600080fd5b506104fc610644366004614222565b611628565b34801561065557600080fd5b506104fc610664366004614222565b611718565b34801561067557600080fd5b50610689610684366004613f68565b6117f5565b60405161034e9190614244565b3480156106a257600080fd5b506106e76106b1366004613f68565b6008602052600090815260409020805460038201546004830154600584015460069094015460ff93841694929391929091169085565b6040805160ff909616865260208601949094529284019190915215156060830152608082015260a00161034e565b34801561072157600080fd5b506009546103a7906001600160a01b031681565b34801561074157600080fd5b50600e546103a7906001600160a01b031681565b34801561076157600080fd5b506104fc61077036600461427a565b611854565b34801561078157600080fd5b50600c5461037790600160a01b900460ff1681565b3480156107a257600080fd5b50610344600f5481565b3480156107b857600080fd5b506013546103a7906001600160a01b031681565b3480156107d857600080fd5b506104fc6107e7366004613f68565b611937565b3480156107f857600080fd5b506103d4611a05565b34801561080d57600080fd5b506104fc611a12565b34801561082257600080fd5b506003546103779060ff1681565b34801561083c57600080fd5b5061034460045481565b34801561085257600080fd5b506104fc6108613660046142a6565b611aef565b34801561087257600080fd5b50610377610881366004613f68565b611d83565b34801561089257600080fd5b506108bc604080513060208201526003916060910160405160208183030381529060405290509091565b60405161034e929190614328565b3480156108d657600080fd5b506104fc612523565b3480156108eb57600080fd5b50600e5461037790600160a01b900460ff1681565b34801561090c57600080fd5b506105d461091b366004614341565b6125f6565b34801561092c57600080fd5b5060105461037790600160a01b900460ff1681565b34801561094d57600080fd5b506040516002815260200161034e565b34801561096957600080fd5b506105d46109783660046143eb565b61270d565b34801561098957600080fd5b506105d46109983660046144aa565b612908565b3480156109a957600080fd5b506104fc612b20565b3480156109be57600080fd5b50610344600a81565b60007fffffffff0000000000000000000000000000000000000000000000000000000082167f6930ebcc000000000000000000000000000000000000000000000000000000001480610a5a57507f01ffc9a7000000000000000000000000000000000000000000000000000000007fffffffff000000000000000000000000000000000000000000000000000000008316145b92915050565b60018054610a6d90614530565b80601f0160208091040260200160405190810160405280929190818152602001828054610a9990614530565b8015610ae65780601f10610abb57610100808354040283529160200191610ae6565b820191906000526020600020905b815481529060010190602001808311610ac957829003601f168201915b505050505081565b60408051602380825261048082019092526000918291906020820161046080368337019050509050610b2286828587612bf3565b6010546040517fea50d0e40000000000000000000000000000000000000000000000000000000081529192506001600160a01b03169063ea50d0e490610b6e9088908590600401614583565b602060405180830381865afa158015610b8b573d6000803e3d6000fd5b505050506040513d601f19601f82011682018060405250810190610baf91906145da565b610be5576040517fff3ee09d00000000000000000000000000000000000000000000000000000000815260040160405180910390fd5b6000610bf18786612cc5565b925050505b949350505050565b60008115801590610c1157506007548211155b610c625760405162461bcd60e51b815260206004820152600a60248201527f494e56414c49445f49440000000000000000000000000000000000000000000060448201526064015b60405180910390fd5b6000828152600860205260409020600581015460ff1615610c865750600092915050565b80600401544211610c9a5750600092915050565b805460ff166003148015610cb357506012548160060154105b15610cc15750600092915050565b50600192915050565b60006060818315801590610cdf575060075484105b610d2b5760405162461bcd60e51b815260206004820152600a60248201527f494e56414c49445f4944000000000000000000000000000000000000000000006044820152606401610c59565b60008481526008602090815260409182902080546003820154600183018054865181870281018701909752808752939560ff9093169490939192918491830182828015610da157602002820191906000526020600020905b81546001600160a01b03168152600190910190602001808311610d83575b50505050509150935093509350509193909250565b600a8181548110610dc657600080fd5b600091825260209091200154905081565b600954600160a01b900460ff16610e305760405162461bcd60e51b815260206004820152600b60248201527f4e4f545f454e41424c45440000000000000000000000000000000000000000006044820152606401610c59565b6009805474ff000000000000000000000000000000000000000019169055565b6001600160a01b037f0000000000000000000000000000000000000000000000000000000000000000163003610eee5760405162461bcd60e51b815260206004820152602c60248201527f46756e6374696f6e206d7573742062652063616c6c6564207468726f7567682060448201527f64656c656761746563616c6c00000000000000000000000000000000000000006064820152608401610c59565b7f00000000000000000000000000000000000000000000000000000000000000006001600160a01b0316610f497f360894a13ba1a3210667c828492db98dca3e2076cc3735a920a3ca505d382bbc546001600160a01b031690565b6001600160a01b031614610fc55760405162461bcd60e51b815260206004820152602c60248201527f46756e6374696f6e206d7573742062652063616c6c6564207468726f7567682060448201527f6163746976652070726f787900000000000000000000000000000000000000006064820152608401610c59565b60408051600080825260208201909252610fe191839190612d76565b50565b600d8181548110610dc657600080fd5b60608115801590611006575060075482105b6110525760405162461bcd60e51b815260206004820152600a60248201527f494e56414c49445f4944000000000000000000000000000000000000000000006044820152606401610c59565b6000828152600860209081526040918290206001810180548451818502810185019095528085529193929091908301828280156110b857602002820191906000526020600020905b81546001600160a01b0316815260019091019060200180831161109a575b5050505050915050919050565b81516000036111165760405162461bcd60e51b815260206004820152600e60248201527f494e56414c49445f5055424b45590000000000000000000000000000000000006044820152606401610c59565b6040805160008152602081018083528151902091611136918491016145fc565b60405160208183030381529060405280519060200120036111995760405162461bcd60e51b815260206004820152601560248201527f494e56414c49445f43524544454e5449414c5f494400000000000000000000006044820152606401610c59565b81516111ac90600a906020850190613bfb565b50600b6111b98282614666565b506111c383612f1b565b50506009805474ff00000000000000000000000000000000000000001916600160a01b17905550565b6001600160a01b037f000000000000000000000000000000000000000000000000000000000000000016300361128a5760405162461bcd60e51b815260206004820152602c60248201527f46756e6374696f6e206d7573742062652063616c6c6564207468726f7567682060448201527f64656c656761746563616c6c00000000000000000000000000000000000000006064820152608401610c59565b7f00000000000000000000000000000000000000000000000000000000000000006001600160a01b03166112e57f360894a13ba1a3210667c828492db98dca3e2076cc3735a920a3ca505d382bbc546001600160a01b031690565b6001600160a01b0316146113615760405162461bcd60e51b815260206004820152602c60248201527f46756e6374696f6e206d7573742062652063616c6c6564207468726f7567682060448201527f6163746976652070726f787900000000000000000000000000000000000000006064820152608401610c59565b61136d82826001612d76565b5050565b60055460009081906001600160a01b031633036113d05760405162461bcd60e51b815260206004820152600e60248201527f494e56414c49445f53454e4445520000000000000000000000000000000000006044820152606401610c59565b600954600160a01b900460ff166114295760405162461bcd60e51b815260206004820152600b60248201527f4e4f545f454e41424c45440000000000000000000000000000000000000000006044820152606401610c59565b6000611436888888612f71565b905060006114438561343f565b604080516060808252610c2082019092529192506000919060208201610c0080368337019050509050611475826134d3565b6009546040517fea50d0e40000000000000000000000000000000000000000000000000000000081529192506001600160a01b03169063ea50d0e4906114c1908a908590600401614583565b602060405180830381865afa1580156114de573d6000803e3d6000fd5b505050506040513d601f19601f8201168201806040525081019061150291906145da565b611538576040517fff3ee09d00000000000000000000000000000000000000000000000000000000815260040160405180910390fd5b61154560018b8b866135e1565b945094505050509550959350505050565b6000306001600160a01b037f000000000000000000000000000000000000000000000000000000000000000016146115f65760405162461bcd60e51b815260206004820152603860248201527f555550535570677261646561626c653a206d757374206e6f742062652063616c60448201527f6c6564207468726f7567682064656c656761746563616c6c00000000000000006064820152608401610c59565b507f360894a13ba1a3210667c828492db98dca3e2076cc3735a920a3ca505d382bbc90565b60028054610a6d90614530565b6005546001600160a01b031633146116825760405162461bcd60e51b815260206004820152600f60248201527f53454e4445525f4e4f545f5341464500000000000000000000000000000000006044820152606401610c59565b806116cf5760405162461bcd60e51b815260206004820152600c60248201527f494e56414c49445f4841534800000000000000000000000000000000000000006044820152606401610c59565b6116d8816117f5565b6116e690600d906020613bfb565b506116f082612f1b565b5050600c805474ff00000000000000000000000000000000000000001916600160a01b179055565b6005546001600160a01b031633146117725760405162461bcd60e51b815260206004820152600f60248201527f53454e4445525f4e4f545f5341464500000000000000000000000000000000006044820152606401610c59565b806117bf5760405162461bcd60e51b815260206004820152600c60248201527f494e56414c49445f4841534800000000000000000000000000000000000000006044820152606401610c59565b600f8190556117cd82612f1b565b5050600e805474ff00000000000000000000000000000000000000001916600160a01b179055565b6117fd613c46565b611805613c46565b60005b602081101561184d5783816020811061182357611823614726565b1a82826020811061183657611836614726565b60200201528061184581614784565b915050611808565b5092915050565b6005546001600160a01b031633146118ae5760405162461bcd60e51b815260206004820152600f60248201527f53454e4445525f4e4f545f5341464500000000000000000000000000000000006044820152606401610c59565b806118fb5760405162461bcd60e51b815260206004820152600c60248201527f494e56414c49445f4841534800000000000000000000000000000000000000006044820152606401610c59565b6011819055601282905561190e83612f1b565b50506010805474ff00000000000000000000000000000000000000001916600160a01b17905550565b6005546001600160a01b031633146119915760405162461bcd60e51b815260206004820152600f60248201527f53454e4445525f4e4f545f5341464500000000000000000000000000000000006044820152606401610c59565b6000818152600860205260409020600581015460ff16156119f45760405162461bcd60e51b815260206004820152601060248201527f414c52454144595f52454a4543544544000000000000000000000000000000006044820152606401610c59565b600501805460ff1916600117905550565b600b8054610a6d90614530565b6005546001600160a01b03163314611a6c5760405162461bcd60e51b815260206004820152600f60248201527f53454e4445525f4e4f545f5341464500000000000000000000000000000000006044820152606401610c59565b601054600160a01b900460ff16611ac55760405162461bcd60e51b815260206004820152600b60248201527f4e4f545f454e41424c45440000000000000000000000000000000000000000006044820152606401610c59565b600060118190556012556010805474ff000000000000000000000000000000000000000019169055565b600054610100900460ff1615808015611b0f5750600054600160ff909116105b80611b295750303b158015611b29575060005460ff166001145b611b9b5760405162461bcd60e51b815260206004820152602e60248201527f496e697469616c697a61626c653a20636f6e747261637420697320616c72656160448201527f647920696e697469616c697a65640000000000000000000000000000000000006064820152608401610c59565b6000805460ff191660011790558015611bdb57600080547fffffffffffffffffffffffffffffffffffffffffffffffffffffffffffff00ff166101001790555b611c9d6040518060a001604052806040518060400160405280601481526020017f53616665205265636f7665727920506c7567696e00000000000000000000000081525081526020016040518060400160405280600581526020017f312e302e300000000000000000000000000000000000000000000000000000008152508152602001600115158152602001604051806020016040528060008152508152602001604051806060016040528060338152602001614b1560339139905261366c565b600580547fffffffffffffffffffffffff00000000000000000000000000000000000000009081166001600160a01b038a811691909117909255601380548216898416179055600e80548216888416179055600980548216878416179055600c80548216868416179055601080549091169184169190911790558015611d7a57600080547fffffffffffffffffffffffffffffffffffffffffffffffffffffffffffff00ff169055604051600181527f7f26b83ff96e1f2b6a682f133852f6798a09c465da95921460cefb38474024989060200160405180910390a15b50505050505050565b60008115801590611d9657506007548211155b611de25760405162461bcd60e51b815260206004820152600a60248201527f494e56414c49445f4944000000000000000000000000000000000000000000006044820152606401610c59565b6000828152600860205260409020600581015460ff1615611e455760405162461bcd60e51b815260206004820152601160248201527f50524f504f53414c5f52454a45435445440000000000000000000000000000006044820152606401610c59565b8060040154421015611e995760405162461bcd60e51b815260206004820152601160248201527f44454c41595f4e4f545f455850495245440000000000000000000000000000006044820152606401610c59565b805460ff166003148015611eb257506012548160060154105b15611eff5760405162461bcd60e51b815260206004820152601560248201527f494e53554646494349454e545f415050524f56414c00000000000000000000006044820152606401610c59565b6003810154600554604080517fe75235b80000000000000000000000000000000000000000000000000000000081529051600093926001600160a01b03169163e75235b89160048083019260209291908290030181865afa158015611f68573d6000803e3d6000fd5b505050506040513d601f19601f82011682018060405250810190611f8c919061479e565b60028401549114159150600082611fa35781611fae565b611fae8260016147b7565b905060008167ffffffffffffffff811115611fcb57611fcb613d8c565b60405190808252806020026020018201604052801561201857816020015b60408051606080820183526000808352602083015291810191909152815260200190600190039081611fe95790505b509050606060005b8481101561226a5763e318b52b60e01b61211888600201838154811061204857612048614726565b6000918252602091829020015460028b01805460408051828602810186019091528181526001600160a01b03909316938301828280156120b157602002820191906000526020600020905b81546001600160a01b03168152600190910190602001808311612093575b50505050508a60010180548060200260200160405190810160405280929190818152602001828054801561210e57602002820191906000526020600020905b81546001600160a01b031681526001909101906020018083116120f0575b50505050506136b7565b88600201838154811061212d5761212d614726565b60009182526020909120015460018a0180546001600160a01b03909216918590811061215b5761215b614726565b6000918252602090912001546040516001600160a01b039384166024820152918316604483015291909116606482015260840160408051601f198184030181529190526020810180517bffffffffffffffffffffffffffffffffffffffffffffffffffffffff167fffffffff000000000000000000000000000000000000000000000000000000009093169290921790915260055484519193506001600160a01b03169084908390811061221157612211614726565b6020026020010151600001906001600160a01b031690816001600160a01b0316815250508183828151811061224857612248614726565b602002602001015160400181905250808061226290614784565b915050612020565b508415612376576005546001600160a01b0316826122896001866147ca565b8151811061229957612299614726565b60209081029190910101516001600160a01b03909116905260038601546040517f694e80c300000000000000000000000000000000000000000000000000000000916122eb9160240190815260200190565b60408051601f198184030181529190526020810180517bffffffffffffffffffffffffffffffffffffffffffffffffffffffff167fffffffff0000000000000000000000000000000000000000000000000000000090931692909217909152826123566001866147ca565b8151811061236657612366614726565b6020026020010151604001819052505b6040805160608101825283815260055482517faffed0e000000000000000000000000000000000000000000000000000000000815292516000936020808501936001600160a01b03169263affed0e09260048082019392918290030181865afa1580156123e7573d6000803e3d6000fd5b505050506040513d601f19601f8201168201806040525081019061240b919061479e565b8152600480546020909201919091526013546005546040517f0f9919150000000000000000000000000000000000000000000000000000000081529394506001600160a01b0391821693630f9919159361246b93909216918691016147dd565b6000604051808303816000875af19250505080156124ab57506040513d6000823e601f3d908101601f191682016040526124a891908101906148ac565b60015b612513573d8080156124d9576040519150601f19603f3d011682016040523d82523d6000602084013e6124de565b606091505b50806040517f2e268859000000000000000000000000000000000000000000000000000000008152600401610c599190613d79565b5050600198975050505050505050565b6005546001600160a01b0316331461257d5760405162461bcd60e51b815260206004820152600f60248201527f53454e4445525f4e4f545f5341464500000000000000000000000000000000006044820152606401610c59565b600e54600160a01b900460ff166125d65760405162461bcd60e51b815260206004820152600b60248201527f4e4f545f454e41424c45440000000000000000000000000000000000000000006044820152606401610c59565b600e805474ff000000000000000000000000000000000000000019169055565b60055460009081906001600160a01b031633036126555760405162461bcd60e51b815260206004820152600e60248201527f494e56414c49445f53454e4445520000000000000000000000000000000000006044820152606401610c59565b600e54600160a01b900460ff166126ae5760405162461bcd60e51b815260206004820152600b60248201527f4e4f545f454e41424c45440000000000000000000000000000000000000000006044820152606401610c59565b60006126bb888888612f71565b60408051602180825261044082019092529192506000919060208201610420803683370190505090506126ee8186613843565b90506126fd60008a8a856135e1565b9350935050509550959350505050565b60055460009081906001600160a01b0316330361276c5760405162461bcd60e51b815260206004820152600e60248201527f494e56414c49445f53454e4445520000000000000000000000000000000000006044820152606401610c59565b601054600160a01b900460ff166127c55760405162461bcd60e51b815260206004820152600b60248201527f4e4f545f454e41424c45440000000000000000000000000000000000000000006044820152606401610c59565b60006127d2898989612f71565b6040805160238082526104808201909252919250600091906020820161046080368337019050509050612815600754600161280d91906147b7565b828789612bf3565b6010546040517fea50d0e40000000000000000000000000000000000000000000000000000000081529192506001600160a01b03169063ea50d0e490612861908a908590600401614583565b602060405180830381865afa15801561287e573d6000803e3d6000fd5b505050506040513d601f19601f820116820180604052508101906128a291906145da565b6128d8576040517fff3ee09d00000000000000000000000000000000000000000000000000000000815260040160405180910390fd5b6000806128e860038d8d876135e1565b915091506128f68289612cc5565b50909b909a5098505050505050505050565b60055460009081906001600160a01b031633036129675760405162461bcd60e51b815260206004820152600e60248201527f494e56414c49445f53454e4445520000000000000000000000000000000000006044820152606401610c59565b600c54600160a01b900460ff166129c05760405162461bcd60e51b815260206004820152600b60248201527f4e4f545f454e41424c45440000000000000000000000000000000000000000006044820152606401610c59565b60006129cd878787612f71565b6040805160208082526104208201909252919250600091908082016104008036833701905050600d805460408051602080840282018101909252828152939450830182828015612a3c57602002820191906000526020600020905b815481526020019060010190808311612a28575b5050600c546040517fea50d0e40000000000000000000000000000000000000000000000000000000081529495506001600160a01b03169363ea50d0e49350612a8d92508991508590600401614583565b602060405180830381865afa158015612aaa573d6000803e3d6000fd5b505050506040513d601f19601f82011682018060405250810190612ace91906145da565b612b04576040517fff3ee09d00000000000000000000000000000000000000000000000000000000815260040160405180910390fd5b612b1160028989856135e1565b93509350505094509492505050565b6005546001600160a01b03163314612b7a5760405162461bcd60e51b815260206004820152600f60248201527f53454e4445525f4e4f545f5341464500000000000000000000000000000000006044820152606401610c59565b600c54600160a01b900460ff16612bd35760405162461bcd60e51b815260206004820152600b60248201527f4e4f545f454e41424c45440000000000000000000000000000000000000000006044820152606401610c59565b600c805474ff000000000000000000000000000000000000000019169055565b606060115484600081518110612c0b57612c0b614726565b6020026020010181815250506000801b84600181518110612c2e57612c2e614726565b6020026020010181815250508184600281518110612c4e57612c4e614726565b60200260200101818152505060005b6020811015612cbb57838181518110612c7857612c78614726565b602002602001015185826003612c8e91906147b7565b81518110612c9e57612c9e614726565b602090810291909101015280612cb381614784565b915050612c5d565b5092949350505050565b60008281526008602090815260408083208484526007810190925282205460ff1615612d335760405162461bcd60e51b815260206004820152601160248201527f494e56414c49445f4e554c4c49464945520000000000000000000000000000006044820152606401610c59565b60008381526007820160205260408120805460ff1916600190811790915560068301805491929091612d669084906147b7565b9091555050600601549392505050565b7f4910fdfa16fed3260ed0e7147f7cc6da11a60208b5b9406d12a635614ffd91435460ff1615612dae57612da9836138d0565b505050565b826001600160a01b03166352d1902d6040518163ffffffff1660e01b8152600401602060405180830381865afa925050508015612e08575060408051601f3d908101601f19168201909252612e059181019061479e565b60015b612e7a5760405162461bcd60e51b815260206004820152602e60248201527f45524331393637557067726164653a206e657720696d706c656d656e7461746960448201527f6f6e206973206e6f7420555550530000000000000000000000000000000000006064820152608401610c59565b7f360894a13ba1a3210667c828492db98dca3e2076cc3735a920a3ca505d382bbc8114612f0f5760405162461bcd60e51b815260206004820152602960248201527f45524331393637557067726164653a20756e737570706f727465642070726f7860448201527f6961626c655555494400000000000000000000000000000000000000000000006064820152608401610c59565b50612da98383836139a6565b600a811015612f6c5760405162461bcd60e51b815260206004820152600f60248201527f44454c41595f544f4f5f53484f525400000000000000000000000000000000006044820152606401610c59565b600655565b60008251845114612fc45760405162461bcd60e51b815260206004820152600e60248201527f554e455155414c5f4c454e4754480000000000000000000000000000000000006044820152606401610c59565b600554604080517fa0e67e2b00000000000000000000000000000000000000000000000000000000815290516000926001600160a01b03169163a0e67e2b91600480830192869291908290030181865afa158015613026573d6000803e3d6000fd5b505050506040513d6000823e601f3d908101601f1916820160405261304e9190810190614999565b90508051855111156130a25760405162461bcd60e51b815260206004820152600e60248201527f494e56414c49445f4c454e4754480000000000000000000000000000000000006044820152606401610c59565b60005b85518110156133475760055486516001600160a01b0390911690632f54bf6e908890849081106130d7576130d7614726565b60200260200101516040518263ffffffff1660e01b815260040161310a91906001600160a01b0391909116815260200190565b602060405180830381865afa158015613127573d6000803e3d6000fd5b505050506040513d601f19601f8201168201806040525081019061314b91906145da565b6131975760405162461bcd60e51b815260206004820152600960248201527f4e4f545f4f574e455200000000000000000000000000000000000000000000006044820152606401610c59565b60055485516001600160a01b0390911690632f54bf6e908790849081106131c0576131c0614726565b60200260200101516040518263ffffffff1660e01b81526004016131f391906001600160a01b0391909116815260200190565b602060405180830381865afa158015613210573d6000803e3d6000fd5b505050506040513d601f19601f8201168201806040525081019061323491906145da565b156132815760405162461bcd60e51b815260206004820152600d60248201527f414c44524544595f4f574e4552000000000000000000000000000000000000006044820152606401610c59565b60006001600160a01b031685828151811061329e5761329e614726565b60200260200101516001600160a01b0316141580156132e9575060016001600160a01b03168582815181106132d5576132d5614726565b60200260200101516001600160a01b031614155b6133355760405162461bcd60e51b815260206004820152600f60248201527f494e56414c49445f4144445245535300000000000000000000000000000000006044820152606401610c59565b8061333f81614784565b9150506130a5565b50600554604080517fe75235b800000000000000000000000000000000000000000000000000000000815290516000926001600160a01b03169163e75235b89160048083019260209291908290030181865afa1580156133ab573d6000803e3d6000fd5b505050506040513d601f19601f820116820180604052508101906133cf919061479e565b905060008185036133e057816133e2565b845b905080835110156134355760405162461bcd60e51b815260206004820152601160248201527f494e56414c49445f5448524553484f4c440000000000000000000000000000006044820152606401610c59565b9695505050505050565b6040517ff8f5689c00000000000000000000000000000000000000000000000000000000815260009073__$6d399485da7ef05af8887e90c5d884cf80$__9063f8f5689c90613492908590600401613d79565b602060405180830381865af41580156134af573d6000803e3d6000fd5b505050506040513d601f19601f82011682018060405250810190610a5a919061479e565b604080516060808252610c2082019092526000908260208201610c008036833701905050905060005b602081101561184d57600a818154811061351857613518614726565b906000526020600020015482828151811061353557613535614726565b602002602001018181525050600a81602061355091906147b7565b8154811061356057613560614726565b90600052602060002001548282602061357991906147b7565b8151811061358957613589614726565b6020026020010181815250508381602081106135a7576135a7614726565b1a826135b48360406147b7565b815181106135c4576135c4614726565b6020908102919091010152806135d981614784565b9150506134fc565b600080600060075460016135f591906147b7565b6000818152600860209081526040909120805460ff191660ff8b1617815588519293509161362b916002840191908a0190613c65565b5085516136419060018301906020890190613c65565b506003810185905560065461365690426147b7565b6004909101819055909250905094509492505050565b6004547f522c683f99251eea7f3b027592e92a5398e7582983be1f7c0f33715ce025740f613699836139d1565b6040516136a69190613d79565b60405180910390a2610fe181613a38565b600080600560009054906101000a90046001600160a01b03166001600160a01b031663a0e67e2b6040518163ffffffff1660e01b8152600401600060405180830381865afa15801561370d573d6000803e3d6000fd5b505050506040513d6000823e601f3d908101601f191682016040526137359190810190614999565b90506000805b825181101561379057866001600160a01b031683828151811061376057613760614726565b60200260200101516001600160a01b03160361377e57809150613790565b8061378881614784565b91505061373b565b50600081156137c257826137a56001846147ca565b815181106137b5576137b5614726565b60200260200101516137c5565b60015b905060005b865181101561383857816001600160a01b03168782815181106137ef576137ef614726565b60200260200101516001600160a01b0316036138265785818151811061381757613817614726565b60200260200101519150613838565b8061383081614784565b9150506137ca565b509695505050505050565b6060600f548360008151811061385b5761385b614726565b60200260200101818152505060005b60208110156138c85782818151811061388557613885614726565b60200260200101518482600161389b91906147b7565b815181106138ab576138ab614726565b6020908102919091010152806138c081614784565b91505061386a565b509192915050565b6001600160a01b0381163b61394d5760405162461bcd60e51b815260206004820152602d60248201527f455243313936373a206e657720696d706c656d656e746174696f6e206973206e60448201527f6f74206120636f6e7472616374000000000000000000000000000000000000006064820152608401610c59565b7f360894a13ba1a3210667c828492db98dca3e2076cc3735a920a3ca505d382bbc80547fffffffffffffffffffffffff0000000000000000000000000000000000000000166001600160a01b0392909216919091179055565b6139af83613a88565b6000825111806139bc5750805b15612da9576139cb8383613ac8565b50505050565b606060008083600001518460200151856040015186606001518760800151604051602001613a03959493929190614a33565b60408051601f1981840301815290829052613a22939291602001614a94565b6040516020818303038152906040529050919050565b8051600190613a479082614666565b506020810151600290613a5a9082614666565b5060408101516003805460ff1916911515919091179055613a7a816139d1565b805160209091012060045550565b613a91816138d0565b6040516001600160a01b038216907fbc7cd75a20ee27fd9adebab32041f755214dbc6bffa90cc0225b39da2e5c2d3b90600090a250565b6060613aed8383604051806060016040528060278152602001614aee60279139613af4565b9392505050565b6060600080856001600160a01b031685604051613b1191906145fc565b600060405180830381855af49150503d8060008114613b4c576040519150601f19603f3d011682016040523d82523d6000602084013e613b51565b606091505b50915091506134358683838760608315613bcc578251600003613bc5576001600160a01b0385163b613bc55760405162461bcd60e51b815260206004820152601d60248201527f416464726573733a2063616c6c20746f206e6f6e2d636f6e74726163740000006044820152606401610c59565b5081610bf6565b610bf68383815115613be15781518083602001fd5b8060405162461bcd60e51b8152600401610c599190613d79565b828054828255906000526020600020908101928215613c36579160200282015b82811115613c36578251825591602001919060010190613c1b565b50613c42929150613cd2565b5090565b6040518061040001604052806020906020820280368337509192915050565b828054828255906000526020600020908101928215613c36579160200282015b82811115613c3657825182547fffffffffffffffffffffffff0000000000000000000000000000000000000000166001600160a01b03909116178255602090920191600190910190613c85565b5b80821115613c425760008155600101613cd3565b600060208284031215613cf957600080fd5b81357fffffffff0000000000000000000000000000000000000000000000000000000081168114613aed57600080fd5b60005b83811015613d44578181015183820152602001613d2c565b50506000910152565b60008151808452613d65816020860160208601613d29565b601f01601f19169290920160200192915050565b602081526000613aed6020830184613d4d565b7f4e487b7100000000000000000000000000000000000000000000000000000000600052604160045260246000fd5b604051601f8201601f1916810167ffffffffffffffff81118282101715613de457613de4613d8c565b604052919050565b600067ffffffffffffffff821115613e0657613e06613d8c565b50601f01601f191660200190565b6000613e27613e2284613dec565b613dbb565b9050828152838383011115613e3b57600080fd5b828260208301376000602084830101529392505050565b600082601f830112613e6357600080fd5b613aed83833560208501613e14565b600067ffffffffffffffff821115613e8c57613e8c613d8c565b5060051b60200190565b600082601f830112613ea757600080fd5b81356020613eb7613e2283613e72565b82815260059290921b84018101918181019086841115613ed657600080fd5b8286015b848110156138385780358352918301918301613eda565b60008060008060808587031215613f0757600080fd5b84359350602085013567ffffffffffffffff80821115613f2657600080fd5b613f3288838901613e52565b9450604087013593506060870135915080821115613f4f57600080fd5b50613f5c87828801613e96565b91505092959194509250565b600060208284031215613f7a57600080fd5b5035919050565b600081518084526020808501945080840160005b83811015613fba5781516001600160a01b031687529582019590820190600101613f95565b509495945050505050565b60ff84168152606060208201526000613fe16060830185613f81565b9050826040830152949350505050565b6001600160a01b0381168114610fe157600080fd5b60006020828403121561401857600080fd5b8135613aed81613ff1565b602081526000613aed6020830184613f81565b60008060006060848603121561404b57600080fd5b83359250602084013567ffffffffffffffff8082111561406a57600080fd5b61407687838801613e96565b9350604086013591508082111561408c57600080fd5b508401601f8101861361409e57600080fd5b6140ad86823560208401613e14565b9150509250925092565b600080604083850312156140ca57600080fd5b82356140d581613ff1565b9150602083013567ffffffffffffffff8111156140f157600080fd5b6140fd85828601613e52565b9150509250929050565b600082601f83011261411857600080fd5b81356020614128613e2283613e72565b82815260059290921b8401810191818101908684111561414757600080fd5b8286015b8481101561383857803561415e81613ff1565b835291830191830161414b565b600080600080600060a0868803121561418357600080fd5b853567ffffffffffffffff8082111561419b57600080fd5b6141a789838a01614107565b965060208801359150808211156141bd57600080fd5b6141c989838a01614107565b95506040880135945060608801359150808211156141e657600080fd5b6141f289838a01613e52565b9350608088013591508082111561420857600080fd5b5061421588828901613e52565b9150509295509295909350565b6000806040838503121561423557600080fd5b50508035926020909101359150565b6104008101818360005b602080821061425d5750614271565b82518452928301929091019060010161424e565b50505092915050565b60008060006060848603121561428f57600080fd5b505081359360208301359350604090920135919050565b60008060008060008060c087890312156142bf57600080fd5b86356142ca81613ff1565b955060208701356142da81613ff1565b945060408701356142ea81613ff1565b935060608701356142fa81613ff1565b9250608087013561430a81613ff1565b915060a087013561431a81613ff1565b809150509295509295509295565b828152604060208201526000610bf66040830184613d4d565b600080600080600060a0868803121561435957600080fd5b853567ffffffffffffffff8082111561437157600080fd5b61437d89838a01614107565b9650602088013591508082111561439357600080fd5b61439f89838a01614107565b95506040880135945060608801359150808211156143bc57600080fd5b6143c889838a01613e52565b935060808801359150808211156143de57600080fd5b5061421588828901613e96565b60008060008060008060c0878903121561440457600080fd5b863567ffffffffffffffff8082111561441c57600080fd5b6144288a838b01614107565b9750602089013591508082111561443e57600080fd5b61444a8a838b01614107565b965060408901359550606089013591508082111561446757600080fd5b6144738a838b01613e52565b94506080890135935060a089013591508082111561449057600080fd5b5061449d89828a01613e96565b9150509295509295509295565b600080600080608085870312156144c057600080fd5b843567ffffffffffffffff808211156144d857600080fd5b6144e488838901614107565b955060208701359150808211156144fa57600080fd5b61450688838901614107565b945060408701359350606087013591508082111561452357600080fd5b50613f5c87828801613e52565b600181811c9082168061454457607f821691505b60208210810361457d577f4e487b7100000000000000000000000000000000000000000000000000000000600052602260045260246000fd5b50919050565b6040815260006145966040830185613d4d565b82810360208481019190915284518083528582019282019060005b818110156145cd578451835293830193918301916001016145b1565b5090979650505050505050565b6000602082840312156145ec57600080fd5b81518015158114613aed57600080fd5b6000825161460e818460208701613d29565b9190910192915050565b601f821115612da957600081815260208120601f850160051c8101602086101561463f5750805b601f850160051c820191505b8181101561465e5782815560010161464b565b505050505050565b815167ffffffffffffffff81111561468057614680613d8c565b6146948161468e8454614530565b84614618565b602080601f8311600181146146c957600084156146b15750858301515b600019600386901b1c1916600185901b17855561465e565b600085815260208120601f198616915b828110156146f8578886015182559484019460019091019084016146d9565b50858210156147165787850151600019600388901b60f8161c191681555b5050505050600190811b01905550565b7f4e487b7100000000000000000000000000000000000000000000000000000000600052603260045260246000fd5b7f4e487b7100000000000000000000000000000000000000000000000000000000600052601160045260246000fd5b6000600019820361479757614797614755565b5060010190565b6000602082840312156147b057600080fd5b5051919050565b80820180821115610a5a57610a5a614755565b81810381811115610a5a57610a5a614755565b600060406001600160a01b0380861684526020828186015260a0850186516060808689015282825180855260c08a01915060c08160051b8b01019450858401935060005b81811015614888578a86037fffffffffffffffffffffffffffffffffffffffffffffffffffffffffffffff400183528451805189168752878101518888015289015189870185905261487585880182613d4d565b9650509386019391860191600101614821565b50505083890151818901525050838701516080870152809450505050509392505050565b600060208083850312156148bf57600080fd5b825167ffffffffffffffff808211156148d757600080fd5b818501915085601f8301126148eb57600080fd5b81516148f9613e2282613e72565b81815260059190911b8301840190848101908883111561491857600080fd5b8585015b8381101561498c578051858111156149345760008081fd5b8601603f81018b136149465760008081fd5b878101516040614958613e2283613dec565b8281528d8284860101111561496d5760008081fd5b61497c838c8301848701613d29565b865250505091860191860161491c565b5098975050505050505050565b600060208083850312156149ac57600080fd5b825167ffffffffffffffff8111156149c357600080fd5b8301601f810185136149d457600080fd5b80516149e2613e2282613e72565b81815260059190911b82018301908381019087831115614a0157600080fd5b928401925b82841015614a28578351614a1981613ff1565b82529284019290840190614a06565b979650505050505050565b60a081526000614a4660a0830188613d4d565b8281036020840152614a588188613d4d565b905085151560408401528281036060840152614a748186613d4d565b90508281036080840152614a888185613d4d565b98975050505050505050565b60007fff00000000000000000000000000000000000000000000000000000000000000808660f81b168352808560f81b166001840152508251614ade816002850160208701613d29565b9190910160020194935050505056fe416464726573733a206c6f772d6c6576656c2064656c65676174652063616c6c206661696c656468747470733a2f2f6769746875622e636f6d2f706f72636f2d726f73736f2d6a2f736166652d7265636f766572792d6e6f6972a2646970667358221220ed9b76237f1fcb5047ede159eaf46ed0613581cf0ab6f8506321c067deebb33664736f6c63430008120033",
    "linkReferences": {
      "src/helper/WebAuthnHelper.sol": {
        "WebAuthnHelper": [
          {
            "start": 13494,
            "length": 20
          }
        ]
      }
    }
  },
  "methodIdentifiers": {
    "MIN_TIMELOCK()": "fb0c7549",
    "_convertBytes32ToBytes32Array(bytes32)": "67a277a4",
    "addEcrecoverRecover(uint256,bytes32)": "665caab7",
    "addSecretRecover(uint256,bytes32)": "57a60326",
    "addSocialRecover(uint256,uint256,bytes32)": "7d9e0141",
    "addWebAuthnRecover(uint256,bytes32[],string)": "4bc618d2",
    "approveSocialRecovery(uint256,bytes,bytes32,bytes32[])": "1788430b",
    "credentialId()": "a3c0f0b7",
    "ecrecoverVerifier()": "7c64dd76",
    "execRecovery(uint256)": "cdb44775",
    "getIsRecoveryExecutable(uint256)": "2152ab1b",
    "getPendingNewOwners(uint256)": "4969ca3f",
    "getRecoveryByProposalId(uint256)": "23a6c20e",
    "guardiansRoot()": "5695f292",
    "hashed_address()": "87dee39f",
    "hashed_secret(uint256)": "403f69d2",
    "initialize(address,address,address,address,address,address)": "cc2a9a5b",
    "isEcrecoverRecoverEnabled()": "e6795306",
    "isSecretRecoverEnabled()": "83b1a8c1",
    "isSocialRecoverEnabled()": "e6f352c9",
    "isWebAuthnRecoverEnabled()": "23b26075",
    "metadataHash()": "c5a1d7f0",
    "metadataProvider()": "d3d72d2a",
    "name()": "06fdde03",
    "proposeEcrecoverRecover(address[],address[],uint256,bytes,bytes32[])": "e6e1247e",
    "proposeSecretRecover(address[],address[],uint256,bytes)": "f3d3f549",
    "proposeSocialRecover(address[],address[],uint256,bytes,bytes32,bytes32[])": "ec33ddb7",
    "proposeWebAuthnRecover(address[],address[],uint256,bytes,bytes)": "51a2f17a",
    "proxiableUUID()": "52d1902d",
    "pubkey(uint256)": "2cdfb6ae",
    "recoveries(uint256)": "7a04c865",
    "recoveryCount()": "010a623c",
    "recoveryTimeLock()": "0ce03f2d",
    "rejectRecovery(uint256)": "9a8f18f3",
    "removeEcrecoverRecover()": "dada7ca2",
    "removeSecretRecover()": "f5120d62",
    "removeSocialRecover()": "b3810340",
    "removeWebAuthnRecover()": "2e56f60d",
    "requiresPermissions()": "e8e755b5",
    "requiresRootAccess()": "be193d27",
    "safe()": "186f0354",
    "safeProtocolManager()": "8e482341",
    "secretVerifier()": "024e5d15",
    "socialRecoverVerifier()": "17f5705e",
    "supportsInterface(bytes4)": "01ffc9a7",
    "threshold()": "42cde4e8",
    "upgradeTo(address)": "3659cfe6",
    "upgradeToAndCall(address,bytes)": "4f1ef286",
    "version()": "54fd4d50",
    "webAuthnVerifier()": "7b49fa19"
  },
  "id": 81
}