{
  "abi": [
    {
      "inputs": [],
      "name": "PROOF_VERIFICATION_FAILED",
      "type": "error"
    },
    {
      "inputs": [
        {
          "internalType": "bytes",
          "name": "reason",
          "type": "bytes"
        }
      ],
      "name": "RECOVER_FAILED",
      "type": "error"
    },
    {
      "anonymous": false,
      "inputs": [
        {
          "indexed": false,
          "internalType": "address",
          "name": "previousAdmin",
          "type": "address"
        },
        {
          "indexed": false,
          "internalType": "address",
          "name": "newAdmin",
          "type": "address"
        }
      ],
      "name": "AdminChanged",
      "type": "event"
    },
    {
      "anonymous": false,
      "inputs": [
        {
          "indexed": true,
          "internalType": "address",
          "name": "beacon",
          "type": "address"
        }
      ],
      "name": "BeaconUpgraded",
      "type": "event"
    },
    {
      "anonymous": false,
      "inputs": [
        {
          "indexed": false,
          "internalType": "uint8",
          "name": "version",
          "type": "uint8"
        }
      ],
      "name": "Initialized",
      "type": "event"
    },
    {
      "anonymous": false,
      "inputs": [
        {
          "indexed": true,
          "internalType": "bytes32",
          "name": "metadataHash",
          "type": "bytes32"
        },
        {
          "indexed": false,
          "internalType": "bytes",
          "name": "data",
          "type": "bytes"
        }
      ],
      "name": "Metadata",
      "type": "event"
    },
    {
      "anonymous": false,
      "inputs": [
        {
          "indexed": true,
          "internalType": "address",
          "name": "implementation",
          "type": "address"
        }
      ],
      "name": "Upgraded",
      "type": "event"
    },
    {
      "inputs": [],
      "name": "MIN_TIMELOCK",
      "outputs": [
        {
          "internalType": "uint256",
          "name": "",
          "type": "uint256"
        }
      ],
      "stateMutability": "view",
      "type": "function"
    },
    {
      "inputs": [
        {
          "internalType": "bytes",
          "name": "_webAuthnInputs",
          "type": "bytes"
        }
      ],
      "name": "_computeMessage",
      "outputs": [
        {
          "internalType": "bytes32",
          "name": "",
          "type": "bytes32"
        }
      ],
      "stateMutability": "pure",
      "type": "function"
    },
    {
      "inputs": [
        {
          "internalType": "bytes32",
          "name": "value",
          "type": "bytes32"
        }
      ],
      "name": "_convertBytes32ToBytes32Array",
      "outputs": [
        {
          "internalType": "bytes32[32]",
          "name": "",
          "type": "bytes32[32]"
        }
      ],
      "stateMutability": "pure",
      "type": "function"
    },
    {
      "inputs": [
        {
          "internalType": "uint256",
          "name": "_recoveryTimeLock",
          "type": "uint256"
        },
        {
          "internalType": "bytes32",
          "name": "_hashed_address",
          "type": "bytes32"
        }
      ],
      "name": "addEcrecoverRecover",
      "outputs": [],
      "stateMutability": "nonpayable",
      "type": "function"
    },
    {
      "inputs": [
        {
          "internalType": "uint256",
          "name": "_recoveryTimeLock",
          "type": "uint256"
        },
        {
          "internalType": "bytes32",
          "name": "_hashed_secret",
          "type": "bytes32"
        }
      ],
      "name": "addSecretRecover",
      "outputs": [],
      "stateMutability": "nonpayable",
      "type": "function"
    },
    {
      "inputs": [
        {
          "internalType": "uint256",
          "name": "_recoveryTimeLock",
          "type": "uint256"
        },
        {
          "internalType": "uint256",
          "name": "_threshold",
          "type": "uint256"
        },
        {
          "internalType": "bytes32",
          "name": "_guardiansRoot",
          "type": "bytes32"
        }
      ],
      "name": "addSocialRecover",
      "outputs": [],
      "stateMutability": "nonpayable",
      "type": "function"
    },
    {
      "inputs": [
        {
          "internalType": "uint256",
          "name": "_recoveryTimeLock",
          "type": "uint256"
        },
        {
          "internalType": "bytes32[]",
          "name": "_pubkeyForVerifier",
          "type": "bytes32[]"
        },
        {
          "internalType": "bytes32",
          "name": "_pubkey_x",
          "type": "bytes32"
        },
        {
          "internalType": "bytes32",
          "name": "_pubkey_y",
          "type": "bytes32"
        },
        {
          "internalType": "string",
          "name": "_credentialId",
          "type": "string"
        }
      ],
      "name": "addWebAuthnRecover",
      "outputs": [],
      "stateMutability": "nonpayable",
      "type": "function"
    },
    {
      "inputs": [
        {
          "internalType": "uint256",
          "name": "_recoveryId",
          "type": "uint256"
        },
        {
          "internalType": "bytes",
          "name": "_proof",
          "type": "bytes"
        },
        {
          "internalType": "bytes32",
          "name": "nullifierHash",
          "type": "bytes32"
        },
        {
          "internalType": "bytes32[]",
          "name": "_message",
          "type": "bytes32[]"
        }
      ],
      "name": "approveSocialRecovery",
      "outputs": [
        {
          "internalType": "uint256",
          "name": "",
          "type": "uint256"
        }
      ],
      "stateMutability": "nonpayable",
      "type": "function"
    },
    {
      "inputs": [],
      "name": "credentialId",
      "outputs": [
        {
          "internalType": "string",
          "name": "",
          "type": "string"
        }
      ],
      "stateMutability": "view",
      "type": "function"
    },
    {
      "inputs": [],
      "name": "ecrecoverVerifier",
      "outputs": [
        {
          "internalType": "address",
          "name": "",
          "type": "address"
        }
      ],
      "stateMutability": "view",
      "type": "function"
    },
    {
      "inputs": [
        {
          "internalType": "uint256",
          "name": "_recoveryId",
          "type": "uint256"
        }
      ],
      "name": "execRecovery",
      "outputs": [
        {
          "internalType": "bool",
          "name": "",
          "type": "bool"
        }
      ],
      "stateMutability": "nonpayable",
      "type": "function"
    },
    {
      "inputs": [
        {
          "internalType": "uint256",
          "name": "_proposalId",
          "type": "uint256"
        }
      ],
      "name": "getIsRecoveryExecutable",
      "outputs": [
        {
          "internalType": "bool",
          "name": "",
          "type": "bool"
        }
      ],
      "stateMutability": "view",
      "type": "function"
    },
    {
      "inputs": [
        {
          "internalType": "uint256",
          "name": "_proposalId",
          "type": "uint256"
        }
      ],
      "name": "getPendingNewOwners",
      "outputs": [
        {
          "internalType": "address[]",
          "name": "",
          "type": "address[]"
        }
      ],
      "stateMutability": "view",
      "type": "function"
    },
    {
      "inputs": [],
      "name": "getPubkeyXY",
      "outputs": [
        {
          "internalType": "bytes32",
          "name": "",
          "type": "bytes32"
        },
        {
          "internalType": "bytes32",
          "name": "",
          "type": "bytes32"
        }
      ],
      "stateMutability": "view",
      "type": "function"
    },
    {
      "inputs": [
        {
          "internalType": "uint256",
          "name": "_proposalId",
          "type": "uint256"
        }
      ],
      "name": "getRecoveryByProposalId",
      "outputs": [
        {
          "internalType": "uint8",
          "name": "",
          "type": "uint8"
        },
        {
          "internalType": "address[]",
          "name": "",
          "type": "address[]"
        },
        {
          "internalType": "uint256",
          "name": "",
          "type": "uint256"
        }
      ],
      "stateMutability": "view",
      "type": "function"
    },
    {
      "inputs": [],
      "name": "guardiansRoot",
      "outputs": [
        {
          "internalType": "bytes32",
          "name": "",
          "type": "bytes32"
        }
      ],
      "stateMutability": "view",
      "type": "function"
    },
    {
      "inputs": [],
      "name": "hashed_address",
      "outputs": [
        {
          "internalType": "bytes32",
          "name": "",
          "type": "bytes32"
        }
      ],
      "stateMutability": "view",
      "type": "function"
    },
    {
      "inputs": [
        {
          "internalType": "uint256",
          "name": "",
          "type": "uint256"
        }
      ],
      "name": "hashed_secret",
      "outputs": [
        {
          "internalType": "bytes32",
          "name": "",
          "type": "bytes32"
        }
      ],
      "stateMutability": "view",
      "type": "function"
    },
    {
      "inputs": [
        {
          "internalType": "address",
          "name": "_safe",
          "type": "address"
        },
        {
          "internalType": "address",
          "name": "_safeProtocolManager",
          "type": "address"
        },
        {
          "internalType": "address",
          "name": "_ecrecoverVerifier",
          "type": "address"
        },
        {
          "internalType": "address",
          "name": "_webAuthnVerifier",
          "type": "address"
        },
        {
          "internalType": "address",
          "name": "_secretVerifier",
          "type": "address"
        },
        {
          "internalType": "address",
          "name": "_socialRecoverVerifier",
          "type": "address"
        }
      ],
      "name": "initialize",
      "outputs": [],
      "stateMutability": "nonpayable",
      "type": "function"
    },
    {
      "inputs": [],
      "name": "isEcrecoverRecoverEnabled",
      "outputs": [
        {
          "internalType": "bool",
          "name": "",
          "type": "bool"
        }
      ],
      "stateMutability": "view",
      "type": "function"
    },
    {
      "inputs": [],
      "name": "isSecretRecoverEnabled",
      "outputs": [
        {
          "internalType": "bool",
          "name": "",
          "type": "bool"
        }
      ],
      "stateMutability": "view",
      "type": "function"
    },
    {
      "inputs": [],
      "name": "isSocialRecoverEnabled",
      "outputs": [
        {
          "internalType": "bool",
          "name": "",
          "type": "bool"
        }
      ],
      "stateMutability": "view",
      "type": "function"
    },
    {
      "inputs": [],
      "name": "isWebAuthnRecoverEnabled",
      "outputs": [
        {
          "internalType": "bool",
          "name": "",
          "type": "bool"
        }
      ],
      "stateMutability": "view",
      "type": "function"
    },
    {
      "inputs": [],
      "name": "metadataHash",
      "outputs": [
        {
          "internalType": "bytes32",
          "name": "",
          "type": "bytes32"
        }
      ],
      "stateMutability": "view",
      "type": "function"
    },
    {
      "inputs": [],
      "name": "metadataProvider",
      "outputs": [
        {
          "internalType": "uint256",
          "name": "providerType",
          "type": "uint256"
        },
        {
          "internalType": "bytes",
          "name": "location",
          "type": "bytes"
        }
      ],
      "stateMutability": "view",
      "type": "function"
    },
    {
      "inputs": [],
      "name": "name",
      "outputs": [
        {
          "internalType": "string",
          "name": "",
          "type": "string"
        }
      ],
      "stateMutability": "view",
      "type": "function"
    },
    {
      "inputs": [
        {
          "internalType": "address[]",
          "name": "_oldAddresses",
          "type": "address[]"
        },
        {
          "internalType": "address[]",
          "name": "_newAddresses",
          "type": "address[]"
        },
        {
          "internalType": "uint256",
          "name": "_newThreshold",
          "type": "uint256"
        },
        {
          "internalType": "bytes",
          "name": "_proof",
          "type": "bytes"
        },
        {
          "internalType": "bytes32[]",
          "name": "_message",
          "type": "bytes32[]"
        }
      ],
      "name": "proposeEcrecoverRecover",
      "outputs": [
        {
          "internalType": "uint256",
          "name": "",
          "type": "uint256"
        },
        {
          "internalType": "uint256",
          "name": "",
          "type": "uint256"
        }
      ],
      "stateMutability": "nonpayable",
      "type": "function"
    },
    {
      "inputs": [
        {
          "internalType": "address[]",
          "name": "_oldAddresses",
          "type": "address[]"
        },
        {
          "internalType": "address[]",
          "name": "_newAddresses",
          "type": "address[]"
        },
        {
          "internalType": "uint256",
          "name": "_newThreshold",
          "type": "uint256"
        },
        {
          "internalType": "bytes",
          "name": "_proof",
          "type": "bytes"
        }
      ],
      "name": "proposeSecretRecover",
      "outputs": [
        {
          "internalType": "uint256",
          "name": "",
          "type": "uint256"
        },
        {
          "internalType": "uint256",
          "name": "",
          "type": "uint256"
        }
      ],
      "stateMutability": "nonpayable",
      "type": "function"
    },
    {
      "inputs": [
        {
          "internalType": "address[]",
          "name": "_oldAddresses",
          "type": "address[]"
        },
        {
          "internalType": "address[]",
          "name": "_newAddresses",
          "type": "address[]"
        },
        {
          "internalType": "uint256",
          "name": "_newThreshold",
          "type": "uint256"
        },
        {
          "internalType": "bytes",
          "name": "_proof",
          "type": "bytes"
        },
        {
          "internalType": "bytes32",
          "name": "_nullifierHash",
          "type": "bytes32"
        },
        {
          "internalType": "bytes32[]",
          "name": "_message",
          "type": "bytes32[]"
        }
      ],
      "name": "proposeSocialRecover",
      "outputs": [
        {
          "internalType": "uint256",
          "name": "",
          "type": "uint256"
        },
        {
          "internalType": "uint256",
          "name": "",
          "type": "uint256"
        }
      ],
      "stateMutability": "nonpayable",
      "type": "function"
    },
    {
      "inputs": [
        {
          "internalType": "address[]",
          "name": "_oldAddresses",
          "type": "address[]"
        },
        {
          "internalType": "address[]",
          "name": "_newAddresses",
          "type": "address[]"
        },
        {
          "internalType": "uint256",
          "name": "_newThreshold",
          "type": "uint256"
        },
        {
          "internalType": "bytes",
          "name": "_proof",
          "type": "bytes"
        },
        {
          "internalType": "bytes",
          "name": "_webAuthnInputs",
          "type": "bytes"
        }
      ],
      "name": "proposeWebAuthnRecover",
      "outputs": [
        {
          "internalType": "uint256",
          "name": "",
          "type": "uint256"
        },
        {
          "internalType": "uint256",
          "name": "",
          "type": "uint256"
        }
      ],
      "stateMutability": "nonpayable",
      "type": "function"
    },
    {
      "inputs": [],
      "name": "proxiableUUID",
      "outputs": [
        {
          "internalType": "bytes32",
          "name": "",
          "type": "bytes32"
        }
      ],
      "stateMutability": "view",
      "type": "function"
    },
    {
      "inputs": [
        {
          "internalType": "uint256",
          "name": "",
          "type": "uint256"
        }
      ],
      "name": "pubkeyForVerifier",
      "outputs": [
        {
          "internalType": "bytes32",
          "name": "",
          "type": "bytes32"
        }
      ],
      "stateMutability": "view",
      "type": "function"
    },
    {
      "inputs": [],
      "name": "pubkey_x",
      "outputs": [
        {
          "internalType": "bytes32",
          "name": "",
          "type": "bytes32"
        }
      ],
      "stateMutability": "view",
      "type": "function"
    },
    {
      "inputs": [],
      "name": "pubkey_y",
      "outputs": [
        {
          "internalType": "bytes32",
          "name": "",
          "type": "bytes32"
        }
      ],
      "stateMutability": "view",
      "type": "function"
    },
    {
      "inputs": [
        {
          "internalType": "uint256",
          "name": "",
          "type": "uint256"
        }
      ],
      "name": "recoveries",
      "outputs": [
        {
          "internalType": "uint8",
          "name": "recoveryType",
          "type": "uint8"
        },
        {
          "internalType": "uint256",
          "name": "newThreshold",
          "type": "uint256"
        },
        {
          "internalType": "uint256",
          "name": "deadline",
          "type": "uint256"
        },
        {
          "internalType": "bool",
          "name": "rejected",
          "type": "bool"
        },
        {
          "internalType": "uint256",
          "name": "approvalCount",
          "type": "uint256"
        }
      ],
      "stateMutability": "view",
      "type": "function"
    },
    {
      "inputs": [],
      "name": "recoveryCount",
      "outputs": [
        {
          "internalType": "uint256",
          "name": "",
          "type": "uint256"
        }
      ],
      "stateMutability": "view",
      "type": "function"
    },
    {
      "inputs": [],
      "name": "recoveryTimeLock",
      "outputs": [
        {
          "internalType": "uint256",
          "name": "",
          "type": "uint256"
        }
      ],
      "stateMutability": "view",
      "type": "function"
    },
    {
      "inputs": [
        {
          "internalType": "uint256",
          "name": "_recoveryId",
          "type": "uint256"
        }
      ],
      "name": "rejectRecovery",
      "outputs": [],
      "stateMutability": "nonpayable",
      "type": "function"
    },
    {
      "inputs": [],
      "name": "removeEcrecoverRecover",
      "outputs": [],
      "stateMutability": "nonpayable",
      "type": "function"
    },
    {
      "inputs": [],
      "name": "removeSecretRecover",
      "outputs": [],
      "stateMutability": "nonpayable",
      "type": "function"
    },
    {
      "inputs": [],
      "name": "removeSocialRecover",
      "outputs": [],
      "stateMutability": "nonpayable",
      "type": "function"
    },
    {
      "inputs": [],
      "name": "removeWebAuthnRecover",
      "outputs": [],
      "stateMutability": "nonpayable",
      "type": "function"
    },
    {
      "inputs": [],
      "name": "requiresPermissions",
      "outputs": [
        {
          "internalType": "uint8",
          "name": "permissions",
          "type": "uint8"
        }
      ],
      "stateMutability": "view",
      "type": "function"
    },
    {
      "inputs": [],
      "name": "requiresRootAccess",
      "outputs": [
        {
          "internalType": "bool",
          "name": "",
          "type": "bool"
        }
      ],
      "stateMutability": "view",
      "type": "function"
    },
    {
      "inputs": [],
      "name": "safe",
      "outputs": [
        {
          "internalType": "address",
          "name": "",
          "type": "address"
        }
      ],
      "stateMutability": "view",
      "type": "function"
    },
    {
      "inputs": [],
      "name": "safeProtocolManager",
      "outputs": [
        {
          "internalType": "contract ISafeProtocolManager",
          "name": "",
          "type": "address"
        }
      ],
      "stateMutability": "view",
      "type": "function"
    },
    {
      "inputs": [],
      "name": "secretVerifier",
      "outputs": [
        {
          "internalType": "address",
          "name": "",
          "type": "address"
        }
      ],
      "stateMutability": "view",
      "type": "function"
    },
    {
      "inputs": [],
      "name": "socialRecoverVerifier",
      "outputs": [
        {
          "internalType": "address",
          "name": "",
          "type": "address"
        }
      ],
      "stateMutability": "view",
      "type": "function"
    },
    {
      "inputs": [
        {
          "internalType": "bytes4",
          "name": "interfaceId",
          "type": "bytes4"
        }
      ],
      "name": "supportsInterface",
      "outputs": [
        {
          "internalType": "bool",
          "name": "",
          "type": "bool"
        }
      ],
      "stateMutability": "view",
      "type": "function"
    },
    {
      "inputs": [],
      "name": "threshold",
      "outputs": [
        {
          "internalType": "uint256",
          "name": "",
          "type": "uint256"
        }
      ],
      "stateMutability": "view",
      "type": "function"
    },
    {
      "inputs": [
        {
          "internalType": "address",
          "name": "newImplementation",
          "type": "address"
        }
      ],
      "name": "upgradeTo",
      "outputs": [],
      "stateMutability": "nonpayable",
      "type": "function"
    },
    {
      "inputs": [
        {
          "internalType": "address",
          "name": "newImplementation",
          "type": "address"
        },
        {
          "internalType": "bytes",
          "name": "data",
          "type": "bytes"
        }
      ],
      "name": "upgradeToAndCall",
      "outputs": [],
      "stateMutability": "payable",
      "type": "function"
    },
    {
      "inputs": [],
      "name": "version",
      "outputs": [
        {
          "internalType": "string",
          "name": "",
          "type": "string"
        }
      ],
      "stateMutability": "view",
      "type": "function"
    },
    {
      "inputs": [],
      "name": "webAuthnVerifier",
      "outputs": [
        {
          "internalType": "address",
          "name": "",
          "type": "address"
        }
      ],
      "stateMutability": "view",
      "type": "function"
    }
  ],
  "bytecode": {
    "object": "0x60a06040523060805234801561001457600080fd5b50608051614ccd61004c600039600081816110fe01528181611194015281816113850152818161141b01526116f20152614ccd6000f3fe6080604052600436106103555760003560e01c80637a04c865116101bb578063cc2a9a5b116100f7578063e6e1247e11610095578063ec33ddb71161006f578063ec33ddb7146109ed578063f3d3f54914610a0d578063f5120d6214610a2d578063fb0c754914610a4257600080fd5b8063e6e1247e14610990578063e6f352c9146109b0578063e8e755b5146109d157600080fd5b8063d3d72d2a116100d1578063d3d72d2a146108fe578063d83dfc2614610942578063dada7ca21461095a578063e67953061461096f57600080fd5b8063cc2a9a5b146108a8578063cd0a16a8146108c8578063cdb44775146108de57600080fd5b80638e48234111610164578063b38103401161013e578063b381034014610843578063b8ee453d14610858578063be193d2714610878578063c5a1d7f01461089257600080fd5b80638e482341146107ee5780639a8f18f31461080e578063a3c0f0b71461082e57600080fd5b80637d9e0141116101955780637d9e01411461079757806383b1a8c1146107b757806387dee39f146107d857600080fd5b80637a04c865146106d85780637b49fa19146107575780637c64dd761461077757600080fd5b80633563c0341161029557806352d1902d1161023357806357a603261161020d57806357a6032614610655578063652b098a14610675578063665caab71461068b57806367a277a4146106ab57600080fd5b806352d1902d1461061557806354fd4d501461062a5780635695f2921461063f57600080fd5b806342cde4e81161026f57806342cde4e81461058a5780634969ca3f146105a05780634f1ef286146105cd57806351a2f17a146105e057600080fd5b80633563c0341461052a5780633659cfe61461054a578063403f69d21461056a57600080fd5b806317f5705e1161030257806323a6c20e116102dc57806323a6c20e146104a357806323b26075146104d25780632da4e420146104f35780632e56f60d1461051357600080fd5b806317f5705e14610443578063186f0354146104635780632152ab1b1461048357600080fd5b806306fdde031161033357806306fdde03146103eb5780630ce03f2d1461040d5780631788430b1461042357600080fd5b8063010a623c1461035a57806301ffc9a714610383578063024e5d15146103b3575b600080fd5b34801561036657600080fd5b5061037060075481565b6040519081526020015b60405180910390f35b34801561038f57600080fd5b506103a361039e366004613dfb565b610a57565b604051901515815260200161037a565b3480156103bf57600080fd5b50600e546103d3906001600160a01b031681565b6040516001600160a01b03909116815260200161037a565b3480156103f757600080fd5b50610400610af0565b60405161037a9190613e8d565b34801561041957600080fd5b5061037060065481565b34801561042f57600080fd5b5061037061043e366004614005565b610b7e565b34801561044f57600080fd5b506012546103d3906001600160a01b031681565b34801561046f57600080fd5b506005546103d3906001600160a01b031681565b34801561048f57600080fd5b506103a361049e36600461407c565b610c8e565b3480156104af57600080fd5b506104c36104be36600461407c565b610e18565b60405161037a939291906140d9565b3480156104de57600080fd5b506009546103a390600160a01b900460ff1681565b3480156104ff57600080fd5b5061037061050e366004614105565b610f05565b34801561051f57600080fd5b50610528610f99565b005b34801561053657600080fd5b5061052861054536600461413a565b611012565b34801561055657600080fd5b506105286105653660046141e4565b6110f4565b34801561057657600080fd5b5061037061058536600461407c565b611288565b34801561059657600080fd5b5061037060145481565b3480156105ac57600080fd5b506105c06105bb36600461407c565b6112a9565b60405161037a9190614201565b6105286105db366004614214565b61137b565b3480156105ec57600080fd5b506106006105fb3660046142c8565b611500565b6040805192835260208301919091520161037a565b34801561062157600080fd5b506103706116e5565b34801561063657600080fd5b506104006117aa565b34801561064b57600080fd5b5061037060135481565b34801561066157600080fd5b50610528610670366004614372565b6117b7565b34801561068157600080fd5b50610370600b5481565b34801561069757600080fd5b506105286106a6366004614372565b6118a7565b3480156106b757600080fd5b506106cb6106c636600461407c565b611984565b60405161037a9190614394565b3480156106e457600080fd5b506107296106f336600461407c565b6008602052600090815260409020805460038201546004830154600584015460069094015460ff93841694929391929091169085565b6040805160ff909616865260208601949094529284019190915215156060830152608082015260a00161037a565b34801561076357600080fd5b506009546103d3906001600160a01b031681565b34801561078357600080fd5b506010546103d3906001600160a01b031681565b3480156107a357600080fd5b506105286107b23660046143ca565b6119e3565b3480156107c357600080fd5b50600e546103a390600160a01b900460ff1681565b3480156107e457600080fd5b5061037060115481565b3480156107fa57600080fd5b506015546103d3906001600160a01b031681565b34801561081a57600080fd5b5061052861082936600461407c565b611ac6565b34801561083a57600080fd5b50610400611b94565b34801561084f57600080fd5b50610528611ba1565b34801561086457600080fd5b5061037061087336600461407c565b611c7e565b34801561088457600080fd5b506003546103a39060ff1681565b34801561089e57600080fd5b5061037060045481565b3480156108b457600080fd5b506105286108c33660046143f6565b611c8e565b3480156108d457600080fd5b50610370600c5481565b3480156108ea57600080fd5b506103a36108f936600461407c565b611f22565b34801561090a57600080fd5b50610934604080513060208201526003916060910160405160208183030381529060405290509091565b60405161037a929190614478565b34801561094e57600080fd5b50600b54600c54610600565b34801561096657600080fd5b506105286126c2565b34801561097b57600080fd5b506010546103a390600160a01b900460ff1681565b34801561099c57600080fd5b506106006109ab366004614491565b612795565b3480156109bc57600080fd5b506012546103a390600160a01b900460ff1681565b3480156109dd57600080fd5b506040516002815260200161037a565b3480156109f957600080fd5b50610600610a0836600461453b565b6128ac565b348015610a1957600080fd5b50610600610a283660046145fa565b612aa7565b348015610a3957600080fd5b50610528612cbf565b348015610a4e57600080fd5b50610370600a81565b60007fffffffff0000000000000000000000000000000000000000000000000000000082167f6930ebcc000000000000000000000000000000000000000000000000000000001480610aea57507f01ffc9a7000000000000000000000000000000000000000000000000000000007fffffffff000000000000000000000000000000000000000000000000000000008316145b92915050565b60018054610afd90614680565b80601f0160208091040260200160405190810160405280929190818152602001828054610b2990614680565b8015610b765780601f10610b4b57610100808354040283529160200191610b76565b820191906000526020600020905b815481529060010190602001808311610b5957829003601f168201915b505050505081565b60408051602380825261048082019092526000918291906020820161046080368337019050509050610bb286828587612d92565b6012546040517fea50d0e40000000000000000000000000000000000000000000000000000000081529192506001600160a01b03169063ea50d0e490610bfe90889085906004016146d3565b602060405180830381865afa158015610c1b573d6000803e3d6000fd5b505050506040513d601f19601f82011682018060405250810190610c3f919061472a565b610c75576040517fff3ee09d00000000000000000000000000000000000000000000000000000000815260040160405180910390fd5b6000610c818786612e64565b925050505b949350505050565b60008115801590610ca157506007548211155b610cf25760405162461bcd60e51b815260206004820152600a60248201527f494e56414c49445f49440000000000000000000000000000000000000000000060448201526064015b60405180910390fd5b6000828152600860205260409020600581015460ff1615610d555760405162461bcd60e51b815260206004820152601160248201527f50524f504f53414c5f52454a45435445440000000000000000000000000000006044820152606401610ce9565b8060040154421015610da95760405162461bcd60e51b815260206004820152601160248201527f44454c41595f4e4f545f455850495245440000000000000000000000000000006044820152606401610ce9565b805460ff166003148015610dc257506014548160060154105b15610e0f5760405162461bcd60e51b815260206004820152601560248201527f494e53554646494349454e545f415050524f56414c00000000000000000000006044820152606401610ce9565b50600192915050565b60006060818315801590610e2e57506007548411155b610e7a5760405162461bcd60e51b815260206004820152600a60248201527f494e56414c49445f4944000000000000000000000000000000000000000000006044820152606401610ce9565b60008481526008602090815260409182902080546003820154600183018054865181870281018701909752808752939560ff9093169490939192918491830182828015610ef057602002820191906000526020600020905b81546001600160a01b03168152600190910190602001808311610ed2575b50505050509150935093509350509193909250565b6040517ff8f5689c00000000000000000000000000000000000000000000000000000000815260009073__$6d399485da7ef05af8887e90c5d884cf80$__9063f8f5689c90610f58908590600401613e8d565b602060405180830381865af4158015610f75573d6000803e3d6000fd5b505050506040513d601f19601f82011682018060405250810190610aea919061474c565b600954600160a01b900460ff16610ff25760405162461bcd60e51b815260206004820152600b60248201527f4e4f545f454e41424c45440000000000000000000000000000000000000000006044820152606401610ce9565b6009805474ff000000000000000000000000000000000000000019169055565b604080516000815260208101808352815190209161103291849101614765565b60405160208183030381529060405280519060200120036110955760405162461bcd60e51b815260206004820152601560248201527f494e56414c49445f43524544454e5449414c5f494400000000000000000000006044820152606401610ce9565b83516110a890600a906020870190613d0f565b50600b839055600c829055600d6110bf82826147cf565b506110c985612f15565b50506009805474ff00000000000000000000000000000000000000001916600160a01b179055505050565b6001600160a01b037f00000000000000000000000000000000000000000000000000000000000000001630036111925760405162461bcd60e51b815260206004820152602c60248201527f46756e6374696f6e206d7573742062652063616c6c6564207468726f7567682060448201527f64656c656761746563616c6c00000000000000000000000000000000000000006064820152608401610ce9565b7f00000000000000000000000000000000000000000000000000000000000000006001600160a01b03166111ed7f360894a13ba1a3210667c828492db98dca3e2076cc3735a920a3ca505d382bbc546001600160a01b031690565b6001600160a01b0316146112695760405162461bcd60e51b815260206004820152602c60248201527f46756e6374696f6e206d7573742062652063616c6c6564207468726f7567682060448201527f6163746976652070726f787900000000000000000000000000000000000000006064820152608401610ce9565b6040805160008082526020820190925261128591839190612f6b565b50565b600f818154811061129857600080fd5b600091825260209091200154905081565b606081158015906112bc57506007548211155b6113085760405162461bcd60e51b815260206004820152600a60248201527f494e56414c49445f4944000000000000000000000000000000000000000000006044820152606401610ce9565b60008281526008602090815260409182902060018101805484518185028101850190955280855291939290919083018282801561136e57602002820191906000526020600020905b81546001600160a01b03168152600190910190602001808311611350575b5050505050915050919050565b6001600160a01b037f00000000000000000000000000000000000000000000000000000000000000001630036114195760405162461bcd60e51b815260206004820152602c60248201527f46756e6374696f6e206d7573742062652063616c6c6564207468726f7567682060448201527f64656c656761746563616c6c00000000000000000000000000000000000000006064820152608401610ce9565b7f00000000000000000000000000000000000000000000000000000000000000006001600160a01b03166114747f360894a13ba1a3210667c828492db98dca3e2076cc3735a920a3ca505d382bbc546001600160a01b031690565b6001600160a01b0316146114f05760405162461bcd60e51b815260206004820152602c60248201527f46756e6374696f6e206d7573742062652063616c6c6564207468726f7567682060448201527f6163746976652070726f787900000000000000000000000000000000000000006064820152608401610ce9565b6114fc82826001612f6b565b5050565b60055460009081906001600160a01b0316330361155f5760405162461bcd60e51b815260206004820152600e60248201527f494e56414c49445f53454e4445520000000000000000000000000000000000006044820152606401610ce9565b600954600160a01b900460ff166115b85760405162461bcd60e51b815260206004820152600b60248201527f4e4f545f454e41424c45440000000000000000000000000000000000000000006044820152606401610ce9565b60006115c5888888613110565b905060006115d285610f05565b604080516060808252610c2082019092529192506000919060208201610c0080368337019050509050611604826135de565b6009546040517fea50d0e40000000000000000000000000000000000000000000000000000000081529192506001600160a01b03169063ea50d0e490611650908a9085906004016146d3565b602060405180830381865afa15801561166d573d6000803e3d6000fd5b505050506040513d601f19601f82011682018060405250810190611691919061472a565b6116c7576040517fff3ee09d00000000000000000000000000000000000000000000000000000000815260040160405180910390fd5b6116d460018b8b866136ec565b945094505050509550959350505050565b6000306001600160a01b037f000000000000000000000000000000000000000000000000000000000000000016146117855760405162461bcd60e51b815260206004820152603860248201527f555550535570677261646561626c653a206d757374206e6f742062652063616c60448201527f6c6564207468726f7567682064656c656761746563616c6c00000000000000006064820152608401610ce9565b507f360894a13ba1a3210667c828492db98dca3e2076cc3735a920a3ca505d382bbc90565b60028054610afd90614680565b6005546001600160a01b031633146118115760405162461bcd60e51b815260206004820152600f60248201527f53454e4445525f4e4f545f5341464500000000000000000000000000000000006044820152606401610ce9565b8061185e5760405162461bcd60e51b815260206004820152600c60248201527f494e56414c49445f4841534800000000000000000000000000000000000000006044820152606401610ce9565b61186781611984565b61187590600f906020613d0f565b5061187f82612f15565b5050600e805474ff00000000000000000000000000000000000000001916600160a01b179055565b6005546001600160a01b031633146119015760405162461bcd60e51b815260206004820152600f60248201527f53454e4445525f4e4f545f5341464500000000000000000000000000000000006044820152606401610ce9565b8061194e5760405162461bcd60e51b815260206004820152600c60248201527f494e56414c49445f4841534800000000000000000000000000000000000000006044820152606401610ce9565b601181905561195c82612f15565b50506010805474ff00000000000000000000000000000000000000001916600160a01b179055565b61198c613d5a565b611994613d5a565b60005b60208110156119dc578381602081106119b2576119b261488f565b1a8282602081106119c5576119c561488f565b6020020152806119d4816148ed565b915050611997565b5092915050565b6005546001600160a01b03163314611a3d5760405162461bcd60e51b815260206004820152600f60248201527f53454e4445525f4e4f545f5341464500000000000000000000000000000000006044820152606401610ce9565b80611a8a5760405162461bcd60e51b815260206004820152600c60248201527f494e56414c49445f4841534800000000000000000000000000000000000000006044820152606401610ce9565b60138190556014829055611a9d83612f15565b50506012805474ff00000000000000000000000000000000000000001916600160a01b17905550565b6005546001600160a01b03163314611b205760405162461bcd60e51b815260206004820152600f60248201527f53454e4445525f4e4f545f5341464500000000000000000000000000000000006044820152606401610ce9565b6000818152600860205260409020600581015460ff1615611b835760405162461bcd60e51b815260206004820152601060248201527f414c52454144595f52454a4543544544000000000000000000000000000000006044820152606401610ce9565b600501805460ff1916600117905550565b600d8054610afd90614680565b6005546001600160a01b03163314611bfb5760405162461bcd60e51b815260206004820152600f60248201527f53454e4445525f4e4f545f5341464500000000000000000000000000000000006044820152606401610ce9565b601254600160a01b900460ff16611c545760405162461bcd60e51b815260206004820152600b60248201527f4e4f545f454e41424c45440000000000000000000000000000000000000000006044820152606401610ce9565b600060138190556014556012805474ff000000000000000000000000000000000000000019169055565b600a818154811061129857600080fd5b600054610100900460ff1615808015611cae5750600054600160ff909116105b80611cc85750303b158015611cc8575060005460ff166001145b611d3a5760405162461bcd60e51b815260206004820152602e60248201527f496e697469616c697a61626c653a20636f6e747261637420697320616c72656160448201527f647920696e697469616c697a65640000000000000000000000000000000000006064820152608401610ce9565b6000805460ff191660011790558015611d7a57600080547fffffffffffffffffffffffffffffffffffffffffffffffffffffffffffff00ff166101001790555b611e3c6040518060a001604052806040518060400160405280601481526020017f53616665205265636f7665727920506c7567696e00000000000000000000000081525081526020016040518060400160405280600581526020017f312e302e300000000000000000000000000000000000000000000000000000008152508152602001600115158152602001604051806020016040528060008152508152602001604051806060016040528060338152602001614c65603391399052613780565b600580547fffffffffffffffffffffffff00000000000000000000000000000000000000009081166001600160a01b038a811691909117909255601580548216898416179055601080548216888416179055600980548216878416179055600e80548216868416179055601280549091169184169190911790558015611f1957600080547fffffffffffffffffffffffffffffffffffffffffffffffffffffffffffff00ff169055604051600181527f7f26b83ff96e1f2b6a682f133852f6798a09c465da95921460cefb38474024989060200160405180910390a15b50505050505050565b60008115801590611f3557506007548211155b611f815760405162461bcd60e51b815260206004820152600a60248201527f494e56414c49445f4944000000000000000000000000000000000000000000006044820152606401610ce9565b6000828152600860205260409020600581015460ff1615611fe45760405162461bcd60e51b815260206004820152601160248201527f50524f504f53414c5f52454a45435445440000000000000000000000000000006044820152606401610ce9565b80600401544210156120385760405162461bcd60e51b815260206004820152601160248201527f44454c41595f4e4f545f455850495245440000000000000000000000000000006044820152606401610ce9565b805460ff16600314801561205157506014548160060154105b1561209e5760405162461bcd60e51b815260206004820152601560248201527f494e53554646494349454e545f415050524f56414c00000000000000000000006044820152606401610ce9565b6003810154600554604080517fe75235b80000000000000000000000000000000000000000000000000000000081529051600093926001600160a01b03169163e75235b89160048083019260209291908290030181865afa158015612107573d6000803e3d6000fd5b505050506040513d601f19601f8201168201806040525081019061212b919061474c565b60028401549114159150600082612142578161214d565b61214d826001614907565b905060008167ffffffffffffffff81111561216a5761216a613ea0565b6040519080825280602002602001820160405280156121b757816020015b604080516060808201835260008083526020830152918101919091528152602001906001900390816121885790505b509050606060005b848110156124095763e318b52b60e01b6122b78860020183815481106121e7576121e761488f565b6000918252602091829020015460028b01805460408051828602810186019091528181526001600160a01b039093169383018282801561225057602002820191906000526020600020905b81546001600160a01b03168152600190910190602001808311612232575b50505050508a6001018054806020026020016040519081016040528092919081815260200182805480156122ad57602002820191906000526020600020905b81546001600160a01b0316815260019091019060200180831161228f575b50505050506137cb565b8860020183815481106122cc576122cc61488f565b60009182526020909120015460018a0180546001600160a01b0390921691859081106122fa576122fa61488f565b6000918252602090912001546040516001600160a01b039384166024820152918316604483015291909116606482015260840160408051601f198184030181529190526020810180517bffffffffffffffffffffffffffffffffffffffffffffffffffffffff167fffffffff000000000000000000000000000000000000000000000000000000009093169290921790915260055484519193506001600160a01b0316908490839081106123b0576123b061488f565b6020026020010151600001906001600160a01b031690816001600160a01b031681525050818382815181106123e7576123e761488f565b6020026020010151604001819052508080612401906148ed565b9150506121bf565b508415612515576005546001600160a01b03168261242860018661491a565b815181106124385761243861488f565b60209081029190910101516001600160a01b03909116905260038601546040517f694e80c3000000000000000000000000000000000000000000000000000000009161248a9160240190815260200190565b60408051601f198184030181529190526020810180517bffffffffffffffffffffffffffffffffffffffffffffffffffffffff167fffffffff0000000000000000000000000000000000000000000000000000000090931692909217909152826124f560018661491a565b815181106125055761250561488f565b6020026020010151604001819052505b6040805160608101825283815260055482517faffed0e000000000000000000000000000000000000000000000000000000000815292516000936020808501936001600160a01b03169263affed0e09260048082019392918290030181865afa158015612586573d6000803e3d6000fd5b505050506040513d601f19601f820116820180604052508101906125aa919061474c565b8152600480546020909201919091526015546005546040517f0f9919150000000000000000000000000000000000000000000000000000000081529394506001600160a01b0391821693630f9919159361260a939092169186910161492d565b6000604051808303816000875af192505050801561264a57506040513d6000823e601f3d908101601f1916820160405261264791908101906149fc565b60015b6126b2573d808015612678576040519150601f19603f3d011682016040523d82523d6000602084013e61267d565b606091505b50806040517f2e268859000000000000000000000000000000000000000000000000000000008152600401610ce99190613e8d565b5050600198975050505050505050565b6005546001600160a01b0316331461271c5760405162461bcd60e51b815260206004820152600f60248201527f53454e4445525f4e4f545f5341464500000000000000000000000000000000006044820152606401610ce9565b601054600160a01b900460ff166127755760405162461bcd60e51b815260206004820152600b60248201527f4e4f545f454e41424c45440000000000000000000000000000000000000000006044820152606401610ce9565b6010805474ff000000000000000000000000000000000000000019169055565b60055460009081906001600160a01b031633036127f45760405162461bcd60e51b815260206004820152600e60248201527f494e56414c49445f53454e4445520000000000000000000000000000000000006044820152606401610ce9565b601054600160a01b900460ff1661284d5760405162461bcd60e51b815260206004820152600b60248201527f4e4f545f454e41424c45440000000000000000000000000000000000000000006044820152606401610ce9565b600061285a888888613110565b604080516021808252610440820190925291925060009190602082016104208036833701905050905061288d8186613957565b905061289c60008a8a856136ec565b9350935050509550959350505050565b60055460009081906001600160a01b0316330361290b5760405162461bcd60e51b815260206004820152600e60248201527f494e56414c49445f53454e4445520000000000000000000000000000000000006044820152606401610ce9565b601254600160a01b900460ff166129645760405162461bcd60e51b815260206004820152600b60248201527f4e4f545f454e41424c45440000000000000000000000000000000000000000006044820152606401610ce9565b6000612971898989613110565b60408051602380825261048082019092529192506000919060208201610460803683370190505090506129b460075460016129ac9190614907565b828789612d92565b6012546040517fea50d0e40000000000000000000000000000000000000000000000000000000081529192506001600160a01b03169063ea50d0e490612a00908a9085906004016146d3565b602060405180830381865afa158015612a1d573d6000803e3d6000fd5b505050506040513d601f19601f82011682018060405250810190612a41919061472a565b612a77576040517fff3ee09d00000000000000000000000000000000000000000000000000000000815260040160405180910390fd5b600080612a8760038d8d876136ec565b91509150612a958289612e64565b50909b909a5098505050505050505050565b60055460009081906001600160a01b03163303612b065760405162461bcd60e51b815260206004820152600e60248201527f494e56414c49445f53454e4445520000000000000000000000000000000000006044820152606401610ce9565b600e54600160a01b900460ff16612b5f5760405162461bcd60e51b815260206004820152600b60248201527f4e4f545f454e41424c45440000000000000000000000000000000000000000006044820152606401610ce9565b6000612b6c878787613110565b6040805160208082526104208201909252919250600091908082016104008036833701905050600f805460408051602080840282018101909252828152939450830182828015612bdb57602002820191906000526020600020905b815481526020019060010190808311612bc7575b5050600e546040517fea50d0e40000000000000000000000000000000000000000000000000000000081529495506001600160a01b03169363ea50d0e49350612c2c925089915085906004016146d3565b602060405180830381865afa158015612c49573d6000803e3d6000fd5b505050506040513d601f19601f82011682018060405250810190612c6d919061472a565b612ca3576040517fff3ee09d00000000000000000000000000000000000000000000000000000000815260040160405180910390fd5b612cb060028989856136ec565b93509350505094509492505050565b6005546001600160a01b03163314612d195760405162461bcd60e51b815260206004820152600f60248201527f53454e4445525f4e4f545f5341464500000000000000000000000000000000006044820152606401610ce9565b600e54600160a01b900460ff16612d725760405162461bcd60e51b815260206004820152600b60248201527f4e4f545f454e41424c45440000000000000000000000000000000000000000006044820152606401610ce9565b600e805474ff000000000000000000000000000000000000000019169055565b606060135484600081518110612daa57612daa61488f565b6020026020010181815250506000801b84600181518110612dcd57612dcd61488f565b6020026020010181815250508184600281518110612ded57612ded61488f565b60200260200101818152505060005b6020811015612e5a57838181518110612e1757612e1761488f565b602002602001015185826003612e2d9190614907565b81518110612e3d57612e3d61488f565b602090810291909101015280612e52816148ed565b915050612dfc565b5092949350505050565b60008281526008602090815260408083208484526007810190925282205460ff1615612ed25760405162461bcd60e51b815260206004820152601160248201527f494e56414c49445f4e554c4c49464945520000000000000000000000000000006044820152606401610ce9565b60008381526007820160205260408120805460ff1916600190811790915560068301805491929091612f05908490614907565b9091555050600601549392505050565b600a811015612f665760405162461bcd60e51b815260206004820152600f60248201527f44454c41595f544f4f5f53484f525400000000000000000000000000000000006044820152606401610ce9565b600655565b7f4910fdfa16fed3260ed0e7147f7cc6da11a60208b5b9406d12a635614ffd91435460ff1615612fa357612f9e836139e4565b505050565b826001600160a01b03166352d1902d6040518163ffffffff1660e01b8152600401602060405180830381865afa925050508015612ffd575060408051601f3d908101601f19168201909252612ffa9181019061474c565b60015b61306f5760405162461bcd60e51b815260206004820152602e60248201527f45524331393637557067726164653a206e657720696d706c656d656e7461746960448201527f6f6e206973206e6f7420555550530000000000000000000000000000000000006064820152608401610ce9565b7f360894a13ba1a3210667c828492db98dca3e2076cc3735a920a3ca505d382bbc81146131045760405162461bcd60e51b815260206004820152602960248201527f45524331393637557067726164653a20756e737570706f727465642070726f7860448201527f6961626c655555494400000000000000000000000000000000000000000000006064820152608401610ce9565b50612f9e838383613aba565b600082518451146131635760405162461bcd60e51b815260206004820152600e60248201527f554e455155414c5f4c454e4754480000000000000000000000000000000000006044820152606401610ce9565b600554604080517fa0e67e2b00000000000000000000000000000000000000000000000000000000815290516000926001600160a01b03169163a0e67e2b91600480830192869291908290030181865afa1580156131c5573d6000803e3d6000fd5b505050506040513d6000823e601f3d908101601f191682016040526131ed9190810190614ae9565b90508051855111156132415760405162461bcd60e51b815260206004820152600e60248201527f494e56414c49445f4c454e4754480000000000000000000000000000000000006044820152606401610ce9565b60005b85518110156134e65760055486516001600160a01b0390911690632f54bf6e908890849081106132765761327661488f565b60200260200101516040518263ffffffff1660e01b81526004016132a991906001600160a01b0391909116815260200190565b602060405180830381865afa1580156132c6573d6000803e3d6000fd5b505050506040513d601f19601f820116820180604052508101906132ea919061472a565b6133365760405162461bcd60e51b815260206004820152600960248201527f4e4f545f4f574e455200000000000000000000000000000000000000000000006044820152606401610ce9565b60055485516001600160a01b0390911690632f54bf6e9087908490811061335f5761335f61488f565b60200260200101516040518263ffffffff1660e01b815260040161339291906001600160a01b0391909116815260200190565b602060405180830381865afa1580156133af573d6000803e3d6000fd5b505050506040513d601f19601f820116820180604052508101906133d3919061472a565b156134205760405162461bcd60e51b815260206004820152600d60248201527f414c44524544595f4f574e4552000000000000000000000000000000000000006044820152606401610ce9565b60006001600160a01b031685828151811061343d5761343d61488f565b60200260200101516001600160a01b031614158015613488575060016001600160a01b03168582815181106134745761347461488f565b60200260200101516001600160a01b031614155b6134d45760405162461bcd60e51b815260206004820152600f60248201527f494e56414c49445f4144445245535300000000000000000000000000000000006044820152606401610ce9565b806134de816148ed565b915050613244565b50600554604080517fe75235b800000000000000000000000000000000000000000000000000000000815290516000926001600160a01b03169163e75235b89160048083019260209291908290030181865afa15801561354a573d6000803e3d6000fd5b505050506040513d601f19601f8201168201806040525081019061356e919061474c565b9050600081850361357f5781613581565b845b905080835110156135d45760405162461bcd60e51b815260206004820152601160248201527f494e56414c49445f5448524553484f4c440000000000000000000000000000006044820152606401610ce9565b9695505050505050565b604080516060808252610c2082019092526000908260208201610c008036833701905050905060005b60208110156119dc57600a81815481106136235761362361488f565b90600052602060002001548282815181106136405761364061488f565b602002602001018181525050600a81602061365b9190614907565b8154811061366b5761366b61488f565b9060005260206000200154828260206136849190614907565b815181106136945761369461488f565b6020026020010181815250508381602081106136b2576136b261488f565b1a826136bf836040614907565b815181106136cf576136cf61488f565b6020908102919091010152806136e4816148ed565b915050613607565b6000806001600760008282546137029190614907565b90915550506007546000908152600860209081526040909120805460ff191660ff89161781558651909161373d916002840191890190613d79565b5084516137539060018301906020880190613d79565b50600381018490556006546137689042614907565b60049091018190556007549250905094509492505050565b6004547f522c683f99251eea7f3b027592e92a5398e7582983be1f7c0f33715ce025740f6137ad83613ae5565b6040516137ba9190613e8d565b60405180910390a261128581613b4c565b600080600560009054906101000a90046001600160a01b03166001600160a01b031663a0e67e2b6040518163ffffffff1660e01b8152600401600060405180830381865afa158015613821573d6000803e3d6000fd5b505050506040513d6000823e601f3d908101601f191682016040526138499190810190614ae9565b90506000805b82518110156138a457866001600160a01b03168382815181106138745761387461488f565b60200260200101516001600160a01b031603613892578091506138a4565b8061389c816148ed565b91505061384f565b50600081156138d657826138b960018461491a565b815181106138c9576138c961488f565b60200260200101516138d9565b60015b905060005b865181101561394c57816001600160a01b03168782815181106139035761390361488f565b60200260200101516001600160a01b03160361393a5785818151811061392b5761392b61488f565b6020026020010151915061394c565b80613944816148ed565b9150506138de565b509695505050505050565b60606011548360008151811061396f5761396f61488f565b60200260200101818152505060005b60208110156139dc578281815181106139995761399961488f565b6020026020010151848260016139af9190614907565b815181106139bf576139bf61488f565b6020908102919091010152806139d4816148ed565b91505061397e565b509192915050565b6001600160a01b0381163b613a615760405162461bcd60e51b815260206004820152602d60248201527f455243313936373a206e657720696d706c656d656e746174696f6e206973206e60448201527f6f74206120636f6e7472616374000000000000000000000000000000000000006064820152608401610ce9565b7f360894a13ba1a3210667c828492db98dca3e2076cc3735a920a3ca505d382bbc80547fffffffffffffffffffffffff0000000000000000000000000000000000000000166001600160a01b0392909216919091179055565b613ac383613b9c565b600082511180613ad05750805b15612f9e57613adf8383613bdc565b50505050565b606060008083600001518460200151856040015186606001518760800151604051602001613b17959493929190614b83565b60408051601f1981840301815290829052613b36939291602001614be4565b6040516020818303038152906040529050919050565b8051600190613b5b90826147cf565b506020810151600290613b6e90826147cf565b5060408101516003805460ff1916911515919091179055613b8e81613ae5565b805160209091012060045550565b613ba5816139e4565b6040516001600160a01b038216907fbc7cd75a20ee27fd9adebab32041f755214dbc6bffa90cc0225b39da2e5c2d3b90600090a250565b6060613c018383604051806060016040528060278152602001614c3e60279139613c08565b9392505050565b6060600080856001600160a01b031685604051613c259190614765565b600060405180830381855af49150503d8060008114613c60576040519150601f19603f3d011682016040523d82523d6000602084013e613c65565b606091505b50915091506135d48683838760608315613ce0578251600003613cd9576001600160a01b0385163b613cd95760405162461bcd60e51b815260206004820152601d60248201527f416464726573733a2063616c6c20746f206e6f6e2d636f6e74726163740000006044820152606401610ce9565b5081610c86565b610c868383815115613cf55781518083602001fd5b8060405162461bcd60e51b8152600401610ce99190613e8d565b828054828255906000526020600020908101928215613d4a579160200282015b82811115613d4a578251825591602001919060010190613d2f565b50613d56929150613de6565b5090565b6040518061040001604052806020906020820280368337509192915050565b828054828255906000526020600020908101928215613d4a579160200282015b82811115613d4a57825182547fffffffffffffffffffffffff0000000000000000000000000000000000000000166001600160a01b03909116178255602090920191600190910190613d99565b5b80821115613d565760008155600101613de7565b600060208284031215613e0d57600080fd5b81357fffffffff0000000000000000000000000000000000000000000000000000000081168114613c0157600080fd5b60005b83811015613e58578181015183820152602001613e40565b50506000910152565b60008151808452613e79816020860160208601613e3d565b601f01601f19169290920160200192915050565b602081526000613c016020830184613e61565b7f4e487b7100000000000000000000000000000000000000000000000000000000600052604160045260246000fd5b604051601f8201601f1916810167ffffffffffffffff81118282101715613ef857613ef8613ea0565b604052919050565b600067ffffffffffffffff821115613f1a57613f1a613ea0565b50601f01601f191660200190565b6000613f3b613f3684613f00565b613ecf565b9050828152838383011115613f4f57600080fd5b828260208301376000602084830101529392505050565b600082601f830112613f7757600080fd5b613c0183833560208501613f28565b600067ffffffffffffffff821115613fa057613fa0613ea0565b5060051b60200190565b600082601f830112613fbb57600080fd5b81356020613fcb613f3683613f86565b82815260059290921b84018101918181019086841115613fea57600080fd5b8286015b8481101561394c5780358352918301918301613fee565b6000806000806080858703121561401b57600080fd5b84359350602085013567ffffffffffffffff8082111561403a57600080fd5b61404688838901613f66565b945060408701359350606087013591508082111561406357600080fd5b5061407087828801613faa565b91505092959194509250565b60006020828403121561408e57600080fd5b5035919050565b600081518084526020808501945080840160005b838110156140ce5781516001600160a01b0316875295820195908201906001016140a9565b509495945050505050565b60ff841681526060602082015260006140f56060830185614095565b9050826040830152949350505050565b60006020828403121561411757600080fd5b813567ffffffffffffffff81111561412e57600080fd5b610c8684828501613f66565b600080600080600060a0868803121561415257600080fd5b85359450602086013567ffffffffffffffff8082111561417157600080fd5b61417d89838a01613faa565b9550604088013594506060880135935060808801359150808211156141a157600080fd5b508601601f810188136141b357600080fd5b6141c288823560208401613f28565b9150509295509295909350565b6001600160a01b038116811461128557600080fd5b6000602082840312156141f657600080fd5b8135613c01816141cf565b602081526000613c016020830184614095565b6000806040838503121561422757600080fd5b8235614232816141cf565b9150602083013567ffffffffffffffff81111561424e57600080fd5b61425a85828601613f66565b9150509250929050565b600082601f83011261427557600080fd5b81356020614285613f3683613f86565b82815260059290921b840181019181810190868411156142a457600080fd5b8286015b8481101561394c5780356142bb816141cf565b83529183019183016142a8565b600080600080600060a086880312156142e057600080fd5b853567ffffffffffffffff808211156142f857600080fd5b61430489838a01614264565b9650602088013591508082111561431a57600080fd5b61432689838a01614264565b955060408801359450606088013591508082111561434357600080fd5b61434f89838a01613f66565b9350608088013591508082111561436557600080fd5b506141c288828901613f66565b6000806040838503121561438557600080fd5b50508035926020909101359150565b6104008101818360005b60208082106143ad57506143c1565b82518452928301929091019060010161439e565b50505092915050565b6000806000606084860312156143df57600080fd5b505081359360208301359350604090920135919050565b60008060008060008060c0878903121561440f57600080fd5b863561441a816141cf565b9550602087013561442a816141cf565b9450604087013561443a816141cf565b9350606087013561444a816141cf565b9250608087013561445a816141cf565b915060a087013561446a816141cf565b809150509295509295509295565b828152604060208201526000610c866040830184613e61565b600080600080600060a086880312156144a957600080fd5b853567ffffffffffffffff808211156144c157600080fd5b6144cd89838a01614264565b965060208801359150808211156144e357600080fd5b6144ef89838a01614264565b955060408801359450606088013591508082111561450c57600080fd5b61451889838a01613f66565b9350608088013591508082111561452e57600080fd5b506141c288828901613faa565b60008060008060008060c0878903121561455457600080fd5b863567ffffffffffffffff8082111561456c57600080fd5b6145788a838b01614264565b9750602089013591508082111561458e57600080fd5b61459a8a838b01614264565b96506040890135955060608901359150808211156145b757600080fd5b6145c38a838b01613f66565b94506080890135935060a08901359150808211156145e057600080fd5b506145ed89828a01613faa565b9150509295509295509295565b6000806000806080858703121561461057600080fd5b843567ffffffffffffffff8082111561462857600080fd5b61463488838901614264565b9550602087013591508082111561464a57600080fd5b61465688838901614264565b945060408701359350606087013591508082111561467357600080fd5b5061407087828801613f66565b600181811c9082168061469457607f821691505b6020821081036146cd577f4e487b7100000000000000000000000000000000000000000000000000000000600052602260045260246000fd5b50919050565b6040815260006146e66040830185613e61565b82810360208481019190915284518083528582019282019060005b8181101561471d57845183529383019391830191600101614701565b5090979650505050505050565b60006020828403121561473c57600080fd5b81518015158114613c0157600080fd5b60006020828403121561475e57600080fd5b5051919050565b60008251614777818460208701613e3d565b9190910192915050565b601f821115612f9e57600081815260208120601f850160051c810160208610156147a85750805b601f850160051c820191505b818110156147c7578281556001016147b4565b505050505050565b815167ffffffffffffffff8111156147e9576147e9613ea0565b6147fd816147f78454614680565b84614781565b602080601f831160018114614832576000841561481a5750858301515b600019600386901b1c1916600185901b1785556147c7565b600085815260208120601f198616915b8281101561486157888601518255948401946001909101908401614842565b508582101561487f5787850151600019600388901b60f8161c191681555b5050505050600190811b01905550565b7f4e487b7100000000000000000000000000000000000000000000000000000000600052603260045260246000fd5b7f4e487b7100000000000000000000000000000000000000000000000000000000600052601160045260246000fd5b60006000198203614900576149006148be565b5060010190565b80820180821115610aea57610aea6148be565b81810381811115610aea57610aea6148be565b600060406001600160a01b0380861684526020828186015260a0850186516060808689015282825180855260c08a01915060c08160051b8b01019450858401935060005b818110156149d8578a86037fffffffffffffffffffffffffffffffffffffffffffffffffffffffffffffff40018352845180518916875287810151888801528901518987018590526149c585880182613e61565b9650509386019391860191600101614971565b50505083890151818901525050838701516080870152809450505050509392505050565b60006020808385031215614a0f57600080fd5b825167ffffffffffffffff80821115614a2757600080fd5b818501915085601f830112614a3b57600080fd5b8151614a49613f3682613f86565b81815260059190911b83018401908481019088831115614a6857600080fd5b8585015b83811015614adc57805185811115614a845760008081fd5b8601603f81018b13614a965760008081fd5b878101516040614aa8613f3683613f00565b8281528d82848601011115614abd5760008081fd5b614acc838c8301848701613e3d565b8652505050918601918601614a6c565b5098975050505050505050565b60006020808385031215614afc57600080fd5b825167ffffffffffffffff811115614b1357600080fd5b8301601f81018513614b2457600080fd5b8051614b32613f3682613f86565b81815260059190911b82018301908381019087831115614b5157600080fd5b928401925b82841015614b78578351614b69816141cf565b82529284019290840190614b56565b979650505050505050565b60a081526000614b9660a0830188613e61565b8281036020840152614ba88188613e61565b905085151560408401528281036060840152614bc48186613e61565b90508281036080840152614bd88185613e61565b98975050505050505050565b60007fff00000000000000000000000000000000000000000000000000000000000000808660f81b168352808560f81b166001840152508251614c2e816002850160208701613e3d565b9190910160020194935050505056fe416464726573733a206c6f772d6c6576656c2064656c65676174652063616c6c206661696c656468747470733a2f2f6769746875622e636f6d2f706f72636f2d726f73736f2d6a2f736166652d7265636f766572792d6e6f6972a264697066735822122015e22e945cb82909fbb8b46060e7728d8a1fad8bbd6fca525c4fd1b8848ca54464736f6c63430008120033",
    "linkReferences": {
      "src/helper/WebAuthnHelper.sol": {
        "WebAuthnHelper": [
          {
            "start": 3964,
            "length": 20
          }
        ]
      }
    }
  },
  "methodIdentifiers": {
    "MIN_TIMELOCK()": "fb0c7549",
    "_computeMessage(bytes)": "2da4e420",
    "_convertBytes32ToBytes32Array(bytes32)": "67a277a4",
    "addEcrecoverRecover(uint256,bytes32)": "665caab7",
    "addSecretRecover(uint256,bytes32)": "57a60326",
    "addSocialRecover(uint256,uint256,bytes32)": "7d9e0141",
    "addWebAuthnRecover(uint256,bytes32[],bytes32,bytes32,string)": "3563c034",
    "approveSocialRecovery(uint256,bytes,bytes32,bytes32[])": "1788430b",
    "credentialId()": "a3c0f0b7",
    "ecrecoverVerifier()": "7c64dd76",
    "execRecovery(uint256)": "cdb44775",
    "getIsRecoveryExecutable(uint256)": "2152ab1b",
    "getPendingNewOwners(uint256)": "4969ca3f",
    "getPubkeyXY()": "d83dfc26",
    "getRecoveryByProposalId(uint256)": "23a6c20e",
    "guardiansRoot()": "5695f292",
    "hashed_address()": "87dee39f",
    "hashed_secret(uint256)": "403f69d2",
    "initialize(address,address,address,address,address,address)": "cc2a9a5b",
    "isEcrecoverRecoverEnabled()": "e6795306",
    "isSecretRecoverEnabled()": "83b1a8c1",
    "isSocialRecoverEnabled()": "e6f352c9",
    "isWebAuthnRecoverEnabled()": "23b26075",
    "metadataHash()": "c5a1d7f0",
    "metadataProvider()": "d3d72d2a",
    "name()": "06fdde03",
    "proposeEcrecoverRecover(address[],address[],uint256,bytes,bytes32[])": "e6e1247e",
    "proposeSecretRecover(address[],address[],uint256,bytes)": "f3d3f549",
    "proposeSocialRecover(address[],address[],uint256,bytes,bytes32,bytes32[])": "ec33ddb7",
    "proposeWebAuthnRecover(address[],address[],uint256,bytes,bytes)": "51a2f17a",
    "proxiableUUID()": "52d1902d",
    "pubkeyForVerifier(uint256)": "b8ee453d",
    "pubkey_x()": "652b098a",
    "pubkey_y()": "cd0a16a8",
    "recoveries(uint256)": "7a04c865",
    "recoveryCount()": "010a623c",
    "recoveryTimeLock()": "0ce03f2d",
    "rejectRecovery(uint256)": "9a8f18f3",
    "removeEcrecoverRecover()": "dada7ca2",
    "removeSecretRecover()": "f5120d62",
    "removeSocialRecover()": "b3810340",
    "removeWebAuthnRecover()": "2e56f60d",
    "requiresPermissions()": "e8e755b5",
    "requiresRootAccess()": "be193d27",
    "safe()": "186f0354",
    "safeProtocolManager()": "8e482341",
    "secretVerifier()": "024e5d15",
    "socialRecoverVerifier()": "17f5705e",
    "supportsInterface(bytes4)": "01ffc9a7",
    "threshold()": "42cde4e8",
    "upgradeTo(address)": "3659cfe6",
    "upgradeToAndCall(address,bytes)": "4f1ef286",
    "version()": "54fd4d50",
    "webAuthnVerifier()": "7b49fa19"
  },
  "id": 79
}