{
  "abi": [
    {
      "inputs": [],
      "name": "PROOF_VERIFICATION_FAILED",
      "type": "error"
    },
    {
      "inputs": [
        {
          "internalType": "bytes",
          "name": "reason",
          "type": "bytes"
        }
      ],
      "name": "RECOVER_FAILED",
      "type": "error"
    },
    {
      "anonymous": false,
      "inputs": [
        {
          "indexed": false,
          "internalType": "address",
          "name": "previousAdmin",
          "type": "address"
        },
        {
          "indexed": false,
          "internalType": "address",
          "name": "newAdmin",
          "type": "address"
        }
      ],
      "name": "AdminChanged",
      "type": "event"
    },
    {
      "anonymous": false,
      "inputs": [
        {
          "indexed": true,
          "internalType": "address",
          "name": "beacon",
          "type": "address"
        }
      ],
      "name": "BeaconUpgraded",
      "type": "event"
    },
    {
      "anonymous": false,
      "inputs": [
        {
          "indexed": false,
          "internalType": "uint8",
          "name": "version",
          "type": "uint8"
        }
      ],
      "name": "Initialized",
      "type": "event"
    },
    {
      "anonymous": false,
      "inputs": [
        {
          "indexed": true,
          "internalType": "bytes32",
          "name": "metadataHash",
          "type": "bytes32"
        },
        {
          "indexed": false,
          "internalType": "bytes",
          "name": "data",
          "type": "bytes"
        }
      ],
      "name": "Metadata",
      "type": "event"
    },
    {
      "anonymous": false,
      "inputs": [
        {
          "indexed": true,
          "internalType": "address",
          "name": "implementation",
          "type": "address"
        }
      ],
      "name": "Upgraded",
      "type": "event"
    },
    {
      "inputs": [],
      "name": "MIN_TIMELOCK",
      "outputs": [
        {
          "internalType": "uint256",
          "name": "",
          "type": "uint256"
        }
      ],
      "stateMutability": "view",
      "type": "function"
    },
    {
      "inputs": [
        {
          "internalType": "bytes",
          "name": "_webAuthnInputs",
          "type": "bytes"
        }
      ],
      "name": "_computeMessage",
      "outputs": [
        {
          "internalType": "bytes32",
          "name": "",
          "type": "bytes32"
        }
      ],
      "stateMutability": "pure",
      "type": "function"
    },
    {
      "inputs": [
        {
          "internalType": "bytes32",
          "name": "value",
          "type": "bytes32"
        }
      ],
      "name": "_convertBytes32ToBytes32Array",
      "outputs": [
        {
          "internalType": "bytes32[32]",
          "name": "",
          "type": "bytes32[32]"
        }
      ],
      "stateMutability": "pure",
      "type": "function"
    },
    {
      "inputs": [
        {
          "internalType": "uint256",
          "name": "_recoveryTimeLock",
          "type": "uint256"
        },
        {
          "internalType": "bytes32",
          "name": "_hashed_address",
          "type": "bytes32"
        }
      ],
      "name": "addEcrecoverRecover",
      "outputs": [],
      "stateMutability": "nonpayable",
      "type": "function"
    },
    {
      "inputs": [
        {
          "internalType": "uint256",
          "name": "_recoveryTimeLock",
          "type": "uint256"
        },
        {
          "internalType": "bytes32",
          "name": "_hashed_secret",
          "type": "bytes32"
        }
      ],
      "name": "addSecretRecover",
      "outputs": [],
      "stateMutability": "nonpayable",
      "type": "function"
    },
    {
      "inputs": [
        {
          "internalType": "uint256",
          "name": "_recoveryTimeLock",
          "type": "uint256"
        },
        {
          "internalType": "uint256",
          "name": "_threshold",
          "type": "uint256"
        },
        {
          "internalType": "bytes32",
          "name": "_guardiansRoot",
          "type": "bytes32"
        }
      ],
      "name": "addSocialRecover",
      "outputs": [],
      "stateMutability": "nonpayable",
      "type": "function"
    },
    {
      "inputs": [
        {
          "internalType": "uint256",
          "name": "_recoveryTimeLock",
          "type": "uint256"
        },
        {
          "internalType": "bytes32",
          "name": "_pubkey_x",
          "type": "bytes32"
        },
        {
          "internalType": "bytes32",
          "name": "_pubkey_y",
          "type": "bytes32"
        },
        {
          "internalType": "string",
          "name": "_credentialId",
          "type": "string"
        }
      ],
      "name": "addWebAuthnRecover",
      "outputs": [],
      "stateMutability": "nonpayable",
      "type": "function"
    },
    {
      "inputs": [
        {
          "internalType": "uint256",
          "name": "_proposalId",
          "type": "uint256"
        },
        {
          "internalType": "bytes",
          "name": "_proof",
          "type": "bytes"
        },
        {
          "internalType": "bytes32",
          "name": "nullifierHash",
          "type": "bytes32"
        },
        {
          "internalType": "bytes32[]",
          "name": "_message",
          "type": "bytes32[]"
        }
      ],
      "name": "approveSocialRecovery",
      "outputs": [
        {
          "internalType": "uint256",
          "name": "",
          "type": "uint256"
        }
      ],
      "stateMutability": "nonpayable",
      "type": "function"
    },
    {
      "inputs": [],
      "name": "credentialId",
      "outputs": [
        {
          "internalType": "string",
          "name": "",
          "type": "string"
        }
      ],
      "stateMutability": "view",
      "type": "function"
    },
    {
      "inputs": [],
      "name": "ecrecoverVerifier",
      "outputs": [
        {
          "internalType": "address",
          "name": "",
          "type": "address"
        }
      ],
      "stateMutability": "view",
      "type": "function"
    },
    {
      "inputs": [
        {
          "internalType": "uint256",
          "name": "_proposalId",
          "type": "uint256"
        }
      ],
      "name": "execRecovery",
      "outputs": [
        {
          "internalType": "bool",
          "name": "",
          "type": "bool"
        }
      ],
      "stateMutability": "nonpayable",
      "type": "function"
    },
    {
      "inputs": [
        {
          "internalType": "uint256",
          "name": "_proposalId",
          "type": "uint256"
        }
      ],
      "name": "getIsRecoveryExecutable",
      "outputs": [
        {
          "internalType": "bool",
          "name": "",
          "type": "bool"
        }
      ],
      "stateMutability": "view",
      "type": "function"
    },
    {
      "inputs": [
        {
          "internalType": "uint256",
          "name": "_proposalId",
          "type": "uint256"
        }
      ],
      "name": "getPendingNewOwners",
      "outputs": [
        {
          "internalType": "address[]",
          "name": "",
          "type": "address[]"
        }
      ],
      "stateMutability": "view",
      "type": "function"
    },
    {
      "inputs": [],
      "name": "getPubkeyXY",
      "outputs": [
        {
          "internalType": "bytes32",
          "name": "",
          "type": "bytes32"
        },
        {
          "internalType": "bytes32",
          "name": "",
          "type": "bytes32"
        }
      ],
      "stateMutability": "view",
      "type": "function"
    },
    {
      "inputs": [
        {
          "internalType": "uint256",
          "name": "_proposalId",
          "type": "uint256"
        }
      ],
      "name": "getRecoveryByProposalId",
      "outputs": [
        {
          "internalType": "uint8",
          "name": "",
          "type": "uint8"
        },
        {
          "internalType": "address[]",
          "name": "",
          "type": "address[]"
        },
        {
          "internalType": "address[]",
          "name": "",
          "type": "address[]"
        },
        {
          "internalType": "uint256",
          "name": "",
          "type": "uint256"
        },
        {
          "internalType": "uint256",
          "name": "",
          "type": "uint256"
        },
        {
          "internalType": "bool",
          "name": "",
          "type": "bool"
        },
        {
          "internalType": "uint256",
          "name": "",
          "type": "uint256"
        }
      ],
      "stateMutability": "view",
      "type": "function"
    },
    {
      "inputs": [],
      "name": "guardiansRoot",
      "outputs": [
        {
          "internalType": "bytes32",
          "name": "",
          "type": "bytes32"
        }
      ],
      "stateMutability": "view",
      "type": "function"
    },
    {
      "inputs": [],
      "name": "hashed_address",
      "outputs": [
        {
          "internalType": "bytes32",
          "name": "",
          "type": "bytes32"
        }
      ],
      "stateMutability": "view",
      "type": "function"
    },
    {
      "inputs": [],
      "name": "hashed_secret",
      "outputs": [
        {
          "internalType": "bytes32",
          "name": "",
          "type": "bytes32"
        }
      ],
      "stateMutability": "view",
      "type": "function"
    },
    {
      "inputs": [
        {
          "internalType": "address",
          "name": "_safe",
          "type": "address"
        },
        {
          "internalType": "address",
          "name": "_safeProtocolManager",
          "type": "address"
        },
        {
          "internalType": "address",
          "name": "_ecrecoverVerifier",
          "type": "address"
        },
        {
          "internalType": "address",
          "name": "_webAuthnVerifier",
          "type": "address"
        },
        {
          "internalType": "address",
          "name": "_secretVerifier",
          "type": "address"
        },
        {
          "internalType": "address",
          "name": "_socialRecoverVerifier",
          "type": "address"
        }
      ],
      "name": "initialize",
      "outputs": [],
      "stateMutability": "nonpayable",
      "type": "function"
    },
    {
      "inputs": [],
      "name": "isEcrecoverRecoverEnabled",
      "outputs": [
        {
          "internalType": "bool",
          "name": "",
          "type": "bool"
        }
      ],
      "stateMutability": "view",
      "type": "function"
    },
    {
      "inputs": [],
      "name": "isSecretRecoverEnabled",
      "outputs": [
        {
          "internalType": "bool",
          "name": "",
          "type": "bool"
        }
      ],
      "stateMutability": "view",
      "type": "function"
    },
    {
      "inputs": [],
      "name": "isSocialRecoverEnabled",
      "outputs": [
        {
          "internalType": "bool",
          "name": "",
          "type": "bool"
        }
      ],
      "stateMutability": "view",
      "type": "function"
    },
    {
      "inputs": [],
      "name": "isWebAuthnRecoverEnabled",
      "outputs": [
        {
          "internalType": "bool",
          "name": "",
          "type": "bool"
        }
      ],
      "stateMutability": "view",
      "type": "function"
    },
    {
      "inputs": [],
      "name": "metadataHash",
      "outputs": [
        {
          "internalType": "bytes32",
          "name": "",
          "type": "bytes32"
        }
      ],
      "stateMutability": "view",
      "type": "function"
    },
    {
      "inputs": [],
      "name": "metadataProvider",
      "outputs": [
        {
          "internalType": "uint256",
          "name": "providerType",
          "type": "uint256"
        },
        {
          "internalType": "bytes",
          "name": "location",
          "type": "bytes"
        }
      ],
      "stateMutability": "view",
      "type": "function"
    },
    {
      "inputs": [],
      "name": "name",
      "outputs": [
        {
          "internalType": "string",
          "name": "",
          "type": "string"
        }
      ],
      "stateMutability": "view",
      "type": "function"
    },
    {
      "inputs": [
        {
          "internalType": "address[]",
          "name": "_oldAddresses",
          "type": "address[]"
        },
        {
          "internalType": "address[]",
          "name": "_newAddresses",
          "type": "address[]"
        },
        {
          "internalType": "uint256",
          "name": "_newThreshold",
          "type": "uint256"
        },
        {
          "internalType": "bytes",
          "name": "_proof",
          "type": "bytes"
        },
        {
          "internalType": "bytes32[]",
          "name": "_message",
          "type": "bytes32[]"
        }
      ],
      "name": "proposeEcrecoverRecover",
      "outputs": [
        {
          "internalType": "uint256",
          "name": "",
          "type": "uint256"
        },
        {
          "internalType": "uint256",
          "name": "",
          "type": "uint256"
        }
      ],
      "stateMutability": "nonpayable",
      "type": "function"
    },
    {
      "inputs": [
        {
          "internalType": "address[]",
          "name": "_oldAddresses",
          "type": "address[]"
        },
        {
          "internalType": "address[]",
          "name": "_newAddresses",
          "type": "address[]"
        },
        {
          "internalType": "uint256",
          "name": "_newThreshold",
          "type": "uint256"
        },
        {
          "internalType": "bytes",
          "name": "_proof",
          "type": "bytes"
        }
      ],
      "name": "proposeSecretRecover",
      "outputs": [
        {
          "internalType": "uint256",
          "name": "",
          "type": "uint256"
        },
        {
          "internalType": "uint256",
          "name": "",
          "type": "uint256"
        }
      ],
      "stateMutability": "nonpayable",
      "type": "function"
    },
    {
      "inputs": [
        {
          "internalType": "address[]",
          "name": "_oldAddresses",
          "type": "address[]"
        },
        {
          "internalType": "address[]",
          "name": "_newAddresses",
          "type": "address[]"
        },
        {
          "internalType": "uint256",
          "name": "_newThreshold",
          "type": "uint256"
        },
        {
          "internalType": "bytes",
          "name": "_proof",
          "type": "bytes"
        },
        {
          "internalType": "bytes32",
          "name": "_nullifierHash",
          "type": "bytes32"
        },
        {
          "internalType": "bytes32[]",
          "name": "_message",
          "type": "bytes32[]"
        }
      ],
      "name": "proposeSocialRecover",
      "outputs": [
        {
          "internalType": "uint256",
          "name": "",
          "type": "uint256"
        },
        {
          "internalType": "uint256",
          "name": "",
          "type": "uint256"
        }
      ],
      "stateMutability": "nonpayable",
      "type": "function"
    },
    {
      "inputs": [
        {
          "internalType": "address[]",
          "name": "_oldAddresses",
          "type": "address[]"
        },
        {
          "internalType": "address[]",
          "name": "_newAddresses",
          "type": "address[]"
        },
        {
          "internalType": "uint256",
          "name": "_newThreshold",
          "type": "uint256"
        },
        {
          "internalType": "bytes",
          "name": "_proof",
          "type": "bytes"
        },
        {
          "internalType": "bytes",
          "name": "_webAuthnInputs",
          "type": "bytes"
        }
      ],
      "name": "proposeWebAuthnRecover",
      "outputs": [
        {
          "internalType": "uint256",
          "name": "",
          "type": "uint256"
        },
        {
          "internalType": "uint256",
          "name": "",
          "type": "uint256"
        }
      ],
      "stateMutability": "nonpayable",
      "type": "function"
    },
    {
      "inputs": [],
      "name": "proxiableUUID",
      "outputs": [
        {
          "internalType": "bytes32",
          "name": "",
          "type": "bytes32"
        }
      ],
      "stateMutability": "view",
      "type": "function"
    },
    {
      "inputs": [],
      "name": "pubkey_x",
      "outputs": [
        {
          "internalType": "bytes32",
          "name": "",
          "type": "bytes32"
        }
      ],
      "stateMutability": "view",
      "type": "function"
    },
    {
      "inputs": [],
      "name": "pubkey_y",
      "outputs": [
        {
          "internalType": "bytes32",
          "name": "",
          "type": "bytes32"
        }
      ],
      "stateMutability": "view",
      "type": "function"
    },
    {
      "inputs": [
        {
          "internalType": "uint256",
          "name": "",
          "type": "uint256"
        }
      ],
      "name": "recoveries",
      "outputs": [
        {
          "internalType": "uint8",
          "name": "recoveryType",
          "type": "uint8"
        },
        {
          "internalType": "uint256",
          "name": "newThreshold",
          "type": "uint256"
        },
        {
          "internalType": "uint256",
          "name": "deadline",
          "type": "uint256"
        },
        {
          "internalType": "bool",
          "name": "rejected",
          "type": "bool"
        },
        {
          "internalType": "uint256",
          "name": "approvalCount",
          "type": "uint256"
        }
      ],
      "stateMutability": "view",
      "type": "function"
    },
    {
      "inputs": [],
      "name": "recoveryCount",
      "outputs": [
        {
          "internalType": "uint256",
          "name": "",
          "type": "uint256"
        }
      ],
      "stateMutability": "view",
      "type": "function"
    },
    {
      "inputs": [
        {
          "internalType": "uint8",
          "name": "",
          "type": "uint8"
        },
        {
          "internalType": "bytes32",
          "name": "",
          "type": "bytes32"
        }
      ],
      "name": "recoveryNullifiers",
      "outputs": [
        {
          "internalType": "bool",
          "name": "",
          "type": "bool"
        }
      ],
      "stateMutability": "view",
      "type": "function"
    },
    {
      "inputs": [],
      "name": "recoveryTimeLock",
      "outputs": [
        {
          "internalType": "uint256",
          "name": "",
          "type": "uint256"
        }
      ],
      "stateMutability": "view",
      "type": "function"
    },
    {
      "inputs": [
        {
          "internalType": "uint256",
          "name": "_proposalId",
          "type": "uint256"
        }
      ],
      "name": "rejectRecovery",
      "outputs": [],
      "stateMutability": "nonpayable",
      "type": "function"
    },
    {
      "inputs": [],
      "name": "removeEcrecoverRecover",
      "outputs": [],
      "stateMutability": "nonpayable",
      "type": "function"
    },
    {
      "inputs": [],
      "name": "removeSecretRecover",
      "outputs": [],
      "stateMutability": "nonpayable",
      "type": "function"
    },
    {
      "inputs": [],
      "name": "removeSocialRecover",
      "outputs": [],
      "stateMutability": "nonpayable",
      "type": "function"
    },
    {
      "inputs": [],
      "name": "removeWebAuthnRecover",
      "outputs": [],
      "stateMutability": "nonpayable",
      "type": "function"
    },
    {
      "inputs": [],
      "name": "requiresPermissions",
      "outputs": [
        {
          "internalType": "uint8",
          "name": "permissions",
          "type": "uint8"
        }
      ],
      "stateMutability": "view",
      "type": "function"
    },
    {
      "inputs": [],
      "name": "requiresRootAccess",
      "outputs": [
        {
          "internalType": "bool",
          "name": "",
          "type": "bool"
        }
      ],
      "stateMutability": "view",
      "type": "function"
    },
    {
      "inputs": [],
      "name": "safe",
      "outputs": [
        {
          "internalType": "address",
          "name": "",
          "type": "address"
        }
      ],
      "stateMutability": "view",
      "type": "function"
    },
    {
      "inputs": [],
      "name": "safeProtocolManager",
      "outputs": [
        {
          "internalType": "contract ISafeProtocolManager",
          "name": "",
          "type": "address"
        }
      ],
      "stateMutability": "view",
      "type": "function"
    },
    {
      "inputs": [],
      "name": "secretVerifier",
      "outputs": [
        {
          "internalType": "address",
          "name": "",
          "type": "address"
        }
      ],
      "stateMutability": "view",
      "type": "function"
    },
    {
      "inputs": [],
      "name": "socialRecoverVerifier",
      "outputs": [
        {
          "internalType": "address",
          "name": "",
          "type": "address"
        }
      ],
      "stateMutability": "view",
      "type": "function"
    },
    {
      "inputs": [
        {
          "internalType": "bytes4",
          "name": "interfaceId",
          "type": "bytes4"
        }
      ],
      "name": "supportsInterface",
      "outputs": [
        {
          "internalType": "bool",
          "name": "",
          "type": "bool"
        }
      ],
      "stateMutability": "view",
      "type": "function"
    },
    {
      "inputs": [],
      "name": "threshold",
      "outputs": [
        {
          "internalType": "uint256",
          "name": "",
          "type": "uint256"
        }
      ],
      "stateMutability": "view",
      "type": "function"
    },
    {
      "inputs": [
        {
          "internalType": "address",
          "name": "newImplementation",
          "type": "address"
        }
      ],
      "name": "upgradeTo",
      "outputs": [],
      "stateMutability": "nonpayable",
      "type": "function"
    },
    {
      "inputs": [
        {
          "internalType": "address",
          "name": "newImplementation",
          "type": "address"
        },
        {
          "internalType": "bytes",
          "name": "data",
          "type": "bytes"
        }
      ],
      "name": "upgradeToAndCall",
      "outputs": [],
      "stateMutability": "payable",
      "type": "function"
    },
    {
      "inputs": [],
      "name": "version",
      "outputs": [
        {
          "internalType": "string",
          "name": "",
          "type": "string"
        }
      ],
      "stateMutability": "view",
      "type": "function"
    },
    {
      "inputs": [],
      "name": "webAuthnVerifier",
      "outputs": [
        {
          "internalType": "address",
          "name": "",
          "type": "address"
        }
      ],
      "stateMutability": "view",
      "type": "function"
    }
  ],
  "bytecode": {
    "object": "0x60a06040523060805234801561001457600080fd5b50608051614f5761004c600039600081816113010152818161139701528181611567015281816115fd01526118d80152614f576000f3fe6080604052600436106103555760003560e01c80637a04c865116101bb578063cd0a16a8116100f7578063e6e1247e11610095578063ec33ddb71161006f578063ec33ddb714610a02578063f3d3f54914610a22578063f5120d6214610a42578063fb0c754914610a5757600080fd5b8063e6e1247e146109a5578063e6f352c9146109c5578063e8e755b5146109e657600080fd5b8063d3d72d2a116100d1578063d3d72d2a14610913578063d83dfc2614610957578063dada7ca21461096f578063e67953061461098457600080fd5b8063cd0a16a8146108a2578063cd0ad3c1146108b8578063cdb44775146108f357600080fd5b80638e48234111610164578063b38103401161013e578063b38103401461083d578063be193d2714610852578063c5a1d7f01461086c578063cc2a9a5b1461088257600080fd5b80638e482341146107e85780639a8f18f314610808578063a3c0f0b71461082857600080fd5b80637d9e0141116101955780637d9e01411461079157806383b1a8c1146107b157806387dee39f146107d257600080fd5b80637a04c865146106d25780637b49fa19146107515780637c64dd761461077157600080fd5b80632e56f60d1161029557806352d1902d1161023357806357a603261161020d57806357a603261461064f578063652b098a1461066f578063665caab71461068557806367a277a4146106a557600080fd5b806352d1902d1461060f57806354fd4d50146106245780635695f2921461063957600080fd5b806342cde4e81161026f57806342cde4e8146105845780634969ca3f1461059a5780634f1ef286146105c757806351a2f17a146105da57600080fd5b80632e56f60d1461052d57806331895767146105445780633659cfe61461056457600080fd5b806317f5705e1161030257806323a6c20e116102dc57806323a6c20e146104a357806323b26075146104d65780632abcb3d8146104f75780632da4e4201461050d57600080fd5b806317f5705e14610443578063186f0354146104635780632152ab1b1461048357600080fd5b806306fdde031161033357806306fdde03146103eb5780630ce03f2d1461040d5780631788430b1461042357600080fd5b8063010a623c1461035a57806301ffc9a714610383578063024e5d15146103b3575b600080fd5b34801561036657600080fd5b5061037060075481565b6040519081526020015b60405180910390f35b34801561038f57600080fd5b506103a361039e366004614050565b610a6c565b604051901515815260200161037a565b3480156103bf57600080fd5b50600e546103d3906001600160a01b031681565b6040516001600160a01b03909116815260200161037a565b3480156103f757600080fd5b50610400610b05565b60405161037a91906140e2565b34801561041957600080fd5b5061037060065481565b34801561042f57600080fd5b5061037061043e36600461425a565b610b93565b34801561044f57600080fd5b506012546103d3906001600160a01b031681565b34801561046f57600080fd5b506005546103d3906001600160a01b031681565b34801561048f57600080fd5b506103a361049e3660046142d1565b610cab565b3480156104af57600080fd5b506104c36104be3660046142d1565b610ef8565b60405161037a979695949392919061432e565b3480156104e257600080fd5b50600a546103a390600160a01b900460ff1681565b34801561050357600080fd5b50610370600f5481565b34801561051957600080fd5b50610370610528366004614383565b611069565b34801561053957600080fd5b506105426110fd565b005b34801561055057600080fd5b5061054261055f3660046143b8565b6111d0565b34801561057057600080fd5b5061054261057f36600461442f565b6112f7565b34801561059057600080fd5b5061037060145481565b3480156105a657600080fd5b506105ba6105b53660046142d1565b61148b565b60405161037a919061444c565b6105426105d536600461445f565b61155d565b3480156105e657600080fd5b506105fa6105f5366004614513565b6116e2565b6040805192835260208301919091520161037a565b34801561061b57600080fd5b506103706118cb565b34801561063057600080fd5b50610400611990565b34801561064557600080fd5b5061037060135481565b34801561065b57600080fd5b5061054261066a3660046145ca565b61199d565b34801561067b57600080fd5b50610370600b5481565b34801561069157600080fd5b506105426106a03660046145ca565b611a7a565b3480156106b157600080fd5b506106c56106c03660046142d1565b611b57565b60405161037a91906145ec565b3480156106de57600080fd5b506107236106ed3660046142d1565b6008602052600090815260409020805460038201546004830154600584015460069094015460ff93841694929391929091169085565b6040805160ff909616865260208601949094529284019190915215156060830152608082015260a00161037a565b34801561075d57600080fd5b50600a546103d3906001600160a01b031681565b34801561077d57600080fd5b506010546103d3906001600160a01b031681565b34801561079d57600080fd5b506105426107ac366004614622565b611bb6565b3480156107bd57600080fd5b50600e546103a390600160a01b900460ff1681565b3480156107de57600080fd5b5061037060115481565b3480156107f457600080fd5b506015546103d3906001600160a01b031681565b34801561081457600080fd5b506105426108233660046142d1565b611c99565b34801561083457600080fd5b50610400611d67565b34801561084957600080fd5b50610542611d74565b34801561085e57600080fd5b506003546103a39060ff1681565b34801561087857600080fd5b5061037060045481565b34801561088e57600080fd5b5061054261089d36600461464e565b611e51565b3480156108ae57600080fd5b50610370600c5481565b3480156108c457600080fd5b506103a36108d33660046146d0565b600960209081526000928352604080842090915290825290205460ff1681565b3480156108ff57600080fd5b506103a361090e3660046142d1565b6120e5565b34801561091f57600080fd5b50610949604080513060208201526003916060910160405160208183030381529060405290509091565b60405161037a929190614702565b34801561096357600080fd5b50600b54600c546105fa565b34801561097b57600080fd5b50610542612890565b34801561099057600080fd5b506010546103a390600160a01b900460ff1681565b3480156109b157600080fd5b506105fa6109c036600461471b565b612963565b3480156109d157600080fd5b506012546103a390600160a01b900460ff1681565b3480156109f257600080fd5b506040516002815260200161037a565b348015610a0e57600080fd5b506105fa610a1d3660046147c5565b612b3d565b348015610a2e57600080fd5b506105fa610a3d366004614884565b612d39565b348015610a4e57600080fd5b50610542612fe6565b348015610a6357600080fd5b50610370600a81565b60007fffffffff0000000000000000000000000000000000000000000000000000000082167f6930ebcc000000000000000000000000000000000000000000000000000000001480610aff57507f01ffc9a7000000000000000000000000000000000000000000000000000000007fffffffff000000000000000000000000000000000000000000000000000000008316145b92915050565b60018054610b129061490a565b80601f0160208091040260200160405190810160405280929190818152602001828054610b3e9061490a565b8015610b8b5780601f10610b6057610100808354040283529160200191610b8b565b820191906000526020600020905b815481529060010190602001808311610b6e57829003601f168201915b505050505081565b6040805160238082526104808201909252600091829190602082016104608036833701905050855160208088019190912060008181527fc575c31fea594a6eb97c8e9d3f9caee4c16218c6ef37e923234c0fe9014a61e79092526040909120549192509060ff1615610c4c5760405162461bcd60e51b815260206004820152601060248201527f4455504c4943415445445f50524f4f460000000000000000000000000000000060448201526064015b60405180910390fd5b610c58878386886130b9565b60008281527fc575c31fea594a6eb97c8e9d3f9caee4c16218c6ef37e923234c0fe9014a61e760205260408120805460ff19166001179055909250610c9d888761318b565b93505050505b949350505050565b60008115801590610cbe57506007548211155b610d0a5760405162461bcd60e51b815260206004820152600a60248201527f494e56414c49445f4944000000000000000000000000000000000000000000006044820152606401610c43565b6000828152600860209081526040918290206002810180548451818502810185019095528085529193610ddf93909290830182828015610d7357602002820191906000526020600020905b81546001600160a01b03168152600190910190602001808311610d55575b505050505082600101805480602002602001604051908101604052809291908181526020018280548015610dd057602002820191906000526020600020905b81546001600160a01b03168152600190910190602001808311610db2575b5050505050836003015461323c565b50600581015460ff1615610e355760405162461bcd60e51b815260206004820152601160248201527f50524f504f53414c5f52454a45435445440000000000000000000000000000006044820152606401610c43565b8060040154421015610e895760405162461bcd60e51b815260206004820152601160248201527f44454c41595f4e4f545f455850495245440000000000000000000000000000006044820152606401610c43565b805460ff166003148015610ea257506014548160060154105b15610eef5760405162461bcd60e51b815260206004820152601560248201527f494e53554646494349454e545f415050524f56414c00000000000000000000006044820152606401610c43565b50600192915050565b6000606080828080808715801590610f1257506007548811155b610f5e5760405162461bcd60e51b815260206004820152600a60248201527f494e56414c49445f4944000000000000000000000000000000000000000000006044820152606401610c43565b600088815260086020908152604091829020805460038201546004830154600584015460068501546001860180548951818a0281018a01909a52808a52969860ff96871698919760028b0197909416939091889190830182828015610fec57602002820191906000526020600020905b81546001600160a01b03168152600190910190602001808311610fce575b505050505095508480548060200260200160405190810160405280929190818152602001828054801561104857602002820191906000526020600020905b81546001600160a01b0316815260019091019060200180831161102a575b50505050509450975097509750975097509750975050919395979092949650565b6040517ff8f5689c00000000000000000000000000000000000000000000000000000000815260009073__$6d399485da7ef05af8887e90c5d884cf80$__9063f8f5689c906110bc9085906004016140e2565b602060405180830381865af41580156110d9573d6000803e3d6000fd5b505050506040513d601f19601f82011682018060405250810190610aff919061495d565b6005546001600160a01b031633146111575760405162461bcd60e51b815260206004820152600f60248201527f53454e4445525f4e4f545f5341464500000000000000000000000000000000006044820152606401610c43565b600a54600160a01b900460ff166111b05760405162461bcd60e51b815260206004820152600b60248201527f4e4f545f454e41424c45440000000000000000000000000000000000000000006044820152606401610c43565b600a805474ff000000000000000000000000000000000000000019169055565b6005546001600160a01b0316331461122a5760405162461bcd60e51b815260206004820152600f60248201527f53454e4445525f4e4f545f5341464500000000000000000000000000000000006044820152606401610c43565b604080516000815260208101808352815190209161124a91849101614976565b60405160208183030381529060405280519060200120036112ad5760405162461bcd60e51b815260206004820152601560248201527f494e56414c49445f43524544454e5449414c5f494400000000000000000000006044820152606401610c43565b600b839055600c829055600d6112c382826149e0565b506112cd8461370a565b5050600a805474ff00000000000000000000000000000000000000001916600160a01b1790555050565b6001600160a01b037f00000000000000000000000000000000000000000000000000000000000000001630036113955760405162461bcd60e51b815260206004820152602c60248201527f46756e6374696f6e206d7573742062652063616c6c6564207468726f7567682060448201527f64656c656761746563616c6c00000000000000000000000000000000000000006064820152608401610c43565b7f00000000000000000000000000000000000000000000000000000000000000006001600160a01b03166113f07f360894a13ba1a3210667c828492db98dca3e2076cc3735a920a3ca505d382bbc546001600160a01b031690565b6001600160a01b03161461146c5760405162461bcd60e51b815260206004820152602c60248201527f46756e6374696f6e206d7573742062652063616c6c6564207468726f7567682060448201527f6163746976652070726f787900000000000000000000000000000000000000006064820152608401610c43565b6040805160008082526020820190925261148891839190613760565b50565b6060811580159061149e57506007548211155b6114ea5760405162461bcd60e51b815260206004820152600a60248201527f494e56414c49445f4944000000000000000000000000000000000000000000006044820152606401610c43565b60008281526008602090815260409182902060018101805484518185028101850190955280855291939290919083018282801561155057602002820191906000526020600020905b81546001600160a01b03168152600190910190602001808311611532575b5050505050915050919050565b6001600160a01b037f00000000000000000000000000000000000000000000000000000000000000001630036115fb5760405162461bcd60e51b815260206004820152602c60248201527f46756e6374696f6e206d7573742062652063616c6c6564207468726f7567682060448201527f64656c656761746563616c6c00000000000000000000000000000000000000006064820152608401610c43565b7f00000000000000000000000000000000000000000000000000000000000000006001600160a01b03166116567f360894a13ba1a3210667c828492db98dca3e2076cc3735a920a3ca505d382bbc546001600160a01b031690565b6001600160a01b0316146116d25760405162461bcd60e51b815260206004820152602c60248201527f46756e6374696f6e206d7573742062652063616c6c6564207468726f7567682060448201527f6163746976652070726f787900000000000000000000000000000000000000006064820152608401610c43565b6116de82826001613760565b5050565b60055460009081906001600160a01b031633036117415760405162461bcd60e51b815260206004820152600e60248201527f494e56414c49445f53454e4445520000000000000000000000000000000000006044820152606401610c43565b600a54600160a01b900460ff1661179a5760405162461bcd60e51b815260206004820152600b60248201527f4e4f545f454e41424c45440000000000000000000000000000000000000000006044820152606401610c43565b835160208086019190912060008181527f92e85d02570a8092d09a6e3a57665bc3815a2699a4074001bf1ccabf660f5a3690925260409091205460ff16156118245760405162461bcd60e51b815260206004820152601060248201527f4455504c4943415445445f50524f4f46000000000000000000000000000000006044820152606401610c43565b600061183189898961323c565b9050600061183e86611069565b6040805160208082526104208201909252919250600091908082016104008036833701905050905061186f82613905565b60008581527f92e85d02570a8092d09a6e3a57665bc3815a2699a4074001bf1ccabf660f5a3660205260409020805460ff191660019081179091559091506118b9908c8c86613980565b95509550505050509550959350505050565b6000306001600160a01b037f0000000000000000000000000000000000000000000000000000000000000000161461196b5760405162461bcd60e51b815260206004820152603860248201527f555550535570677261646561626c653a206d757374206e6f742062652063616c60448201527f6c6564207468726f7567682064656c656761746563616c6c00000000000000006064820152608401610c43565b507f360894a13ba1a3210667c828492db98dca3e2076cc3735a920a3ca505d382bbc90565b60028054610b129061490a565b6005546001600160a01b031633146119f75760405162461bcd60e51b815260206004820152600f60248201527f53454e4445525f4e4f545f5341464500000000000000000000000000000000006044820152606401610c43565b80611a445760405162461bcd60e51b815260206004820152600c60248201527f494e56414c49445f4841534800000000000000000000000000000000000000006044820152606401610c43565b600f819055611a528261370a565b5050600e805474ff00000000000000000000000000000000000000001916600160a01b179055565b6005546001600160a01b03163314611ad45760405162461bcd60e51b815260206004820152600f60248201527f53454e4445525f4e4f545f5341464500000000000000000000000000000000006044820152606401610c43565b80611b215760405162461bcd60e51b815260206004820152600c60248201527f494e56414c49445f4841534800000000000000000000000000000000000000006044820152606401610c43565b6011819055611b2f8261370a565b50506010805474ff00000000000000000000000000000000000000001916600160a01b179055565b611b5f613f9f565b611b67613f9f565b60005b6020811015611baf57838160208110611b8557611b85614aa0565b1a828260208110611b9857611b98614aa0565b602002015280611ba781614afe565b915050611b6a565b5092915050565b6005546001600160a01b03163314611c105760405162461bcd60e51b815260206004820152600f60248201527f53454e4445525f4e4f545f5341464500000000000000000000000000000000006044820152606401610c43565b80611c5d5760405162461bcd60e51b815260206004820152600c60248201527f494e56414c49445f4841534800000000000000000000000000000000000000006044820152606401610c43565b60138190556014829055611c708361370a565b50506012805474ff00000000000000000000000000000000000000001916600160a01b17905550565b6005546001600160a01b03163314611cf35760405162461bcd60e51b815260206004820152600f60248201527f53454e4445525f4e4f545f5341464500000000000000000000000000000000006044820152606401610c43565b6000818152600860205260409020600581015460ff1615611d565760405162461bcd60e51b815260206004820152601060248201527f414c52454144595f52454a4543544544000000000000000000000000000000006044820152606401610c43565b600501805460ff1916600117905550565b600d8054610b129061490a565b6005546001600160a01b03163314611dce5760405162461bcd60e51b815260206004820152600f60248201527f53454e4445525f4e4f545f5341464500000000000000000000000000000000006044820152606401610c43565b601254600160a01b900460ff16611e275760405162461bcd60e51b815260206004820152600b60248201527f4e4f545f454e41424c45440000000000000000000000000000000000000000006044820152606401610c43565b600060138190556014556012805474ff000000000000000000000000000000000000000019169055565b600054610100900460ff1615808015611e715750600054600160ff909116105b80611e8b5750303b158015611e8b575060005460ff166001145b611efd5760405162461bcd60e51b815260206004820152602e60248201527f496e697469616c697a61626c653a20636f6e747261637420697320616c72656160448201527f647920696e697469616c697a65640000000000000000000000000000000000006064820152608401610c43565b6000805460ff191660011790558015611f3d57600080547fffffffffffffffffffffffffffffffffffffffffffffffffffffffffffff00ff166101001790555b611fff6040518060a001604052806040518060400160405280601481526020017f53616665205265636f7665727920506c7567696e00000000000000000000000081525081526020016040518060400160405280600581526020017f312e302e300000000000000000000000000000000000000000000000000000008152508152602001600115158152602001604051806020016040528060008152508152602001604051806060016040528060338152602001614eef603391399052613a10565b600580547fffffffffffffffffffffffff00000000000000000000000000000000000000009081166001600160a01b038a811691909117909255601580548216898416179055601080548216888416179055600a80548216878416179055600e805482168684161790556012805490911691841691909117905580156120dc57600080547fffffffffffffffffffffffffffffffffffffffffffffffffffffffffffff00ff169055604051600181527f7f26b83ff96e1f2b6a682f133852f6798a09c465da95921460cefb38474024989060200160405180910390a15b50505050505050565b600081158015906120f857506007548211155b6121445760405162461bcd60e51b815260206004820152600a60248201527f494e56414c49445f4944000000000000000000000000000000000000000000006044820152606401610c43565b6000828152600860205260409020600581015460ff16156121a75760405162461bcd60e51b815260206004820152601160248201527f50524f504f53414c5f52454a45435445440000000000000000000000000000006044820152606401610c43565b80600401544210156121fb5760405162461bcd60e51b815260206004820152601160248201527f44454c41595f4e4f545f455850495245440000000000000000000000000000006044820152606401610c43565b805460ff16600314801561221457506014548160060154105b156122615760405162461bcd60e51b815260206004820152601560248201527f494e53554646494349454e545f415050524f56414c00000000000000000000006044820152606401610c43565b6003810154600554604080517fe75235b80000000000000000000000000000000000000000000000000000000081529051600093926001600160a01b03169163e75235b89160048083019260209291908290030181865afa1580156122ca573d6000803e3d6000fd5b505050506040513d601f19601f820116820180604052508101906122ee919061495d565b600284015491141591506000826123055781612310565b612310826001614b18565b905060008167ffffffffffffffff81111561232d5761232d6140f5565b60405190808252806020026020018201604052801561237a57816020015b6040805160608082018352600080835260208301529181019190915281526020019060019003908161234b5790505b509050606060005b848110156125cc5763e318b52b60e01b61247a8860020183815481106123aa576123aa614aa0565b6000918252602091829020015460028b01805460408051828602810186019091528181526001600160a01b039093169383018282801561241357602002820191906000526020600020905b81546001600160a01b031681526001909101906020018083116123f5575b50505050508a60010180548060200260200160405190810160405280929190818152602001828054801561247057602002820191906000526020600020905b81546001600160a01b03168152600190910190602001808311612452575b5050505050613a5b565b88600201838154811061248f5761248f614aa0565b60009182526020909120015460018a0180546001600160a01b0390921691859081106124bd576124bd614aa0565b6000918252602090912001546040516001600160a01b039384166024820152918316604483015291909116606482015260840160408051601f198184030181529190526020810180517bffffffffffffffffffffffffffffffffffffffffffffffffffffffff167fffffffff000000000000000000000000000000000000000000000000000000009093169290921790915260055484519193506001600160a01b03169084908390811061257357612573614aa0565b6020026020010151600001906001600160a01b031690816001600160a01b031681525050818382815181106125aa576125aa614aa0565b60200260200101516040018190525080806125c490614afe565b915050612382565b5084156126d8576005546001600160a01b0316826125eb600186614b2b565b815181106125fb576125fb614aa0565b60209081029190910101516001600160a01b03909116905260038601546040517f694e80c3000000000000000000000000000000000000000000000000000000009161264d9160240190815260200190565b60408051601f198184030181529190526020810180517bffffffffffffffffffffffffffffffffffffffffffffffffffffffff167fffffffff0000000000000000000000000000000000000000000000000000000090931692909217909152826126b8600186614b2b565b815181106126c8576126c8614aa0565b6020026020010151604001819052505b6040805160608101825283815260055482517faffed0e000000000000000000000000000000000000000000000000000000000815292516000936020808501936001600160a01b03169263affed0e09260048082019392918290030181865afa158015612749573d6000803e3d6000fd5b505050506040513d601f19601f8201168201806040525081019061276d919061495d565b612778906001614b18565b8152600480546020909201919091526015546005546040517f0f9919150000000000000000000000000000000000000000000000000000000081529394506001600160a01b0391821693630f991915936127d89390921691869101614b3e565b6000604051808303816000875af192505050801561281857506040513d6000823e601f3d908101601f191682016040526128159190810190614c0d565b60015b612880573d808015612846576040519150601f19603f3d011682016040523d82523d6000602084013e61284b565b606091505b50806040517f2e268859000000000000000000000000000000000000000000000000000000008152600401610c4391906140e2565b5050600198975050505050505050565b6005546001600160a01b031633146128ea5760405162461bcd60e51b815260206004820152600f60248201527f53454e4445525f4e4f545f5341464500000000000000000000000000000000006044820152606401610c43565b601054600160a01b900460ff166129435760405162461bcd60e51b815260206004820152600b60248201527f4e4f545f454e41424c45440000000000000000000000000000000000000000006044820152606401610c43565b6010805474ff000000000000000000000000000000000000000019169055565b60055460009081906001600160a01b031633036129c25760405162461bcd60e51b815260206004820152600e60248201527f494e56414c49445f53454e4445520000000000000000000000000000000000006044820152606401610c43565b601054600160a01b900460ff16612a1b5760405162461bcd60e51b815260206004820152600b60248201527f4e4f545f454e41424c45440000000000000000000000000000000000000000006044820152606401610c43565b835160208086019190912060008181527fec8156718a8372b1db44bb411437d0870f3e3790d4a08526d024ce1b0b668f6b90925260409091205460ff1615612aa55760405162461bcd60e51b815260206004820152601060248201527f4455504c4943415445445f50524f4f46000000000000000000000000000000006044820152606401610c43565b6000612ab289898961323c565b6040805160218082526104408201909252919250600091906020820161042080368337019050509050612ae58187613be7565b60008481527fec8156718a8372b1db44bb411437d0870f3e3790d4a08526d024ce1b0b668f6b60205260408120805460ff19166001179055909150612b2c908b8b85613980565b945094505050509550959350505050565b60055460009081906001600160a01b03163303612b9c5760405162461bcd60e51b815260206004820152600e60248201527f494e56414c49445f53454e4445520000000000000000000000000000000000006044820152606401610c43565b601254600160a01b900460ff16612bf55760405162461bcd60e51b815260206004820152600b60248201527f4e4f545f454e41424c45440000000000000000000000000000000000000000006044820152606401610c43565b845160208087019190912060008181527fc575c31fea594a6eb97c8e9d3f9caee4c16218c6ef37e923234c0fe9014a61e790925260409091205460ff1615612c7f5760405162461bcd60e51b815260206004820152601060248201527f4455504c4943415445445f50524f4f46000000000000000000000000000000006044820152606401610c43565b6000612c8c8a8a8a61323c565b6040805160238082526104808201909252919250600091906020820161046080368337019050509050612ccf6007546001612cc79190614b18565b82888a6130b9565b60008481527fc575c31fea594a6eb97c8e9d3f9caee4c16218c6ef37e923234c0fe9014a61e760205260408120805460ff1916600117905590915080612d1860038e8e87613980565b91509150612d26828a61318b565b50909c909b509950505050505050505050565b60055460009081906001600160a01b03163303612d985760405162461bcd60e51b815260206004820152600e60248201527f494e56414c49445f53454e4445520000000000000000000000000000000000006044820152606401610c43565b600e54600160a01b900460ff16612df15760405162461bcd60e51b815260206004820152600b60248201527f4e4f545f454e41424c45440000000000000000000000000000000000000000006044820152606401610c43565b825160208085019190912060008181527f6cde3cea4b3a3fb2488b2808bae7556f4a405e50f65e1794383bc026131b13c390925260409091205460ff1615612e7b5760405162461bcd60e51b815260206004820152601060248201527f4455504c4943415445445f50524f4f46000000000000000000000000000000006044820152606401610c43565b6000612e8888888861323c565b6040805160018082528183019092529192506000919060208083019080368337019050509050600f5481600081518110612ec457612ec4614aa0565b6020908102919091010152600e546040517fea50d0e40000000000000000000000000000000000000000000000000000000081526001600160a01b039091169063ea50d0e490612f1a9089908590600401614cfa565b602060405180830381865afa158015612f37573d6000803e3d6000fd5b505050506040513d601f19601f82011682018060405250810190612f5b9190614d51565b612f91576040517fff3ee09d00000000000000000000000000000000000000000000000000000000815260040160405180910390fd5b60008381527f6cde3cea4b3a3fb2488b2808bae7556f4a405e50f65e1794383bc026131b13c360205260409020805460ff19166001179055612fd660028a8a85613980565b9450945050505094509492505050565b6005546001600160a01b031633146130405760405162461bcd60e51b815260206004820152600f60248201527f53454e4445525f4e4f545f5341464500000000000000000000000000000000006044820152606401610c43565b600e54600160a01b900460ff166130995760405162461bcd60e51b815260206004820152600b60248201527f4e4f545f454e41424c45440000000000000000000000000000000000000000006044820152606401610c43565b600e805474ff000000000000000000000000000000000000000019169055565b6060601354846000815181106130d1576130d1614aa0565b6020026020010181815250508460001b846001815181106130f4576130f4614aa0565b602002602001018181525050818460028151811061311457613114614aa0565b60200260200101818152505060005b60208110156131815783818151811061313e5761313e614aa0565b6020026020010151858260036131549190614b18565b8151811061316457613164614aa0565b60209081029190910101528061317981614afe565b915050613123565b5092949350505050565b60008281526008602090815260408083208484526007810190925282205460ff16156131f95760405162461bcd60e51b815260206004820152601160248201527f494e56414c49445f4e554c4c49464945520000000000000000000000000000006044820152606401610c43565b60008381526007820160205260408120805460ff191660019081179091556006830180549192909161322c908490614b18565b9091555050600601549392505050565b6000825184511461328f5760405162461bcd60e51b815260206004820152600e60248201527f554e455155414c5f4c454e4754480000000000000000000000000000000000006044820152606401610c43565b600554604080517fa0e67e2b00000000000000000000000000000000000000000000000000000000815290516000926001600160a01b03169163a0e67e2b91600480830192869291908290030181865afa1580156132f1573d6000803e3d6000fd5b505050506040513d6000823e601f3d908101601f191682016040526133199190810190614d73565b905080518551111561336d5760405162461bcd60e51b815260206004820152600e60248201527f494e56414c49445f4c454e4754480000000000000000000000000000000000006044820152606401610c43565b60005b85518110156136125760055486516001600160a01b0390911690632f54bf6e908890849081106133a2576133a2614aa0565b60200260200101516040518263ffffffff1660e01b81526004016133d591906001600160a01b0391909116815260200190565b602060405180830381865afa1580156133f2573d6000803e3d6000fd5b505050506040513d601f19601f820116820180604052508101906134169190614d51565b6134625760405162461bcd60e51b815260206004820152600960248201527f4e4f545f4f574e455200000000000000000000000000000000000000000000006044820152606401610c43565b60055485516001600160a01b0390911690632f54bf6e9087908490811061348b5761348b614aa0565b60200260200101516040518263ffffffff1660e01b81526004016134be91906001600160a01b0391909116815260200190565b602060405180830381865afa1580156134db573d6000803e3d6000fd5b505050506040513d601f19601f820116820180604052508101906134ff9190614d51565b1561354c5760405162461bcd60e51b815260206004820152600d60248201527f414c44524544595f4f574e4552000000000000000000000000000000000000006044820152606401610c43565b60006001600160a01b031685828151811061356957613569614aa0565b60200260200101516001600160a01b0316141580156135b4575060016001600160a01b03168582815181106135a0576135a0614aa0565b60200260200101516001600160a01b031614155b6136005760405162461bcd60e51b815260206004820152600f60248201527f494e56414c49445f4144445245535300000000000000000000000000000000006044820152606401610c43565b8061360a81614afe565b915050613370565b50600554604080517fe75235b800000000000000000000000000000000000000000000000000000000815290516000926001600160a01b03169163e75235b89160048083019260209291908290030181865afa158015613676573d6000803e3d6000fd5b505050506040513d601f19601f8201168201806040525081019061369a919061495d565b905060008185036136ab57816136ad565b845b905080835110156137005760405162461bcd60e51b815260206004820152601160248201527f494e56414c49445f5448524553484f4c440000000000000000000000000000006044820152606401610c43565b9695505050505050565b600a81101561375b5760405162461bcd60e51b815260206004820152600f60248201527f44454c41595f544f4f5f53484f525400000000000000000000000000000000006044820152606401610c43565b600655565b7f4910fdfa16fed3260ed0e7147f7cc6da11a60208b5b9406d12a635614ffd91435460ff16156137985761379383613c74565b505050565b826001600160a01b03166352d1902d6040518163ffffffff1660e01b8152600401602060405180830381865afa9250505080156137f2575060408051601f3d908101601f191682019092526137ef9181019061495d565b60015b6138645760405162461bcd60e51b815260206004820152602e60248201527f45524331393637557067726164653a206e657720696d706c656d656e7461746960448201527f6f6e206973206e6f7420555550530000000000000000000000000000000000006064820152608401610c43565b7f360894a13ba1a3210667c828492db98dca3e2076cc3735a920a3ca505d382bbc81146138f95760405162461bcd60e51b815260206004820152602960248201527f45524331393637557067726164653a20756e737570706f727465642070726f7860448201527f6961626c655555494400000000000000000000000000000000000000000000006064820152608401610c43565b50613793838383613d4a565b6040805160208082526104208201909252606091600091908082016104008036833701905050905060005b6020811015611baf5783816020811061394b5761394b614aa0565b835191901a9083908390811061396357613963614aa0565b60209081029190910101528061397881614afe565b915050613930565b600080600060075460016139949190614b18565b60078190556000818152600860209081526040909120805460ff191660ff8b161781558851929350916139cf916002840191908a0190613fbe565b5085516139e59060018301906020890190613fbe565b50600381018590556006546139fa9042614b18565b6004909101819055909250905094509492505050565b6004547f522c683f99251eea7f3b027592e92a5398e7582983be1f7c0f33715ce025740f613a3d83613d75565b604051613a4a91906140e2565b60405180910390a261148881613ddc565b600080600560009054906101000a90046001600160a01b03166001600160a01b031663a0e67e2b6040518163ffffffff1660e01b8152600401600060405180830381865afa158015613ab1573d6000803e3d6000fd5b505050506040513d6000823e601f3d908101601f19168201604052613ad99190810190614d73565b90506000805b8251811015613b3457866001600160a01b0316838281518110613b0457613b04614aa0565b60200260200101516001600160a01b031603613b2257809150613b34565b80613b2c81614afe565b915050613adf565b5060008115613b665782613b49600184614b2b565b81518110613b5957613b59614aa0565b6020026020010151613b69565b60015b905060005b8651811015613bdc57816001600160a01b0316878281518110613b9357613b93614aa0565b60200260200101516001600160a01b031603613bca57858181518110613bbb57613bbb614aa0565b60200260200101519150613bdc565b80613bd481614afe565b915050613b6e565b509695505050505050565b606060115483600081518110613bff57613bff614aa0565b60200260200101818152505060005b6020811015613c6c57828181518110613c2957613c29614aa0565b602002602001015184826001613c3f9190614b18565b81518110613c4f57613c4f614aa0565b602090810291909101015280613c6481614afe565b915050613c0e565b509192915050565b6001600160a01b0381163b613cf15760405162461bcd60e51b815260206004820152602d60248201527f455243313936373a206e657720696d706c656d656e746174696f6e206973206e60448201527f6f74206120636f6e7472616374000000000000000000000000000000000000006064820152608401610c43565b7f360894a13ba1a3210667c828492db98dca3e2076cc3735a920a3ca505d382bbc80547fffffffffffffffffffffffff0000000000000000000000000000000000000000166001600160a01b0392909216919091179055565b613d5383613e2c565b600082511180613d605750805b1561379357613d6f8383613e6c565b50505050565b606060008083600001518460200151856040015186606001518760800151604051602001613da7959493929190614e0d565b60408051601f1981840301815290829052613dc6939291602001614e6e565b6040516020818303038152906040529050919050565b8051600190613deb90826149e0565b506020810151600290613dfe90826149e0565b5060408101516003805460ff1916911515919091179055613e1e81613d75565b805160209091012060045550565b613e3581613c74565b6040516001600160a01b038216907fbc7cd75a20ee27fd9adebab32041f755214dbc6bffa90cc0225b39da2e5c2d3b90600090a250565b6060613e918383604051806060016040528060278152602001614ec860279139613e98565b9392505050565b6060600080856001600160a01b031685604051613eb59190614976565b600060405180830381855af49150503d8060008114613ef0576040519150601f19603f3d011682016040523d82523d6000602084013e613ef5565b606091505b50915091506137008683838760608315613f70578251600003613f69576001600160a01b0385163b613f695760405162461bcd60e51b815260206004820152601d60248201527f416464726573733a2063616c6c20746f206e6f6e2d636f6e74726163740000006044820152606401610c43565b5081610ca3565b610ca38383815115613f855781518083602001fd5b8060405162461bcd60e51b8152600401610c4391906140e2565b6040518061040001604052806020906020820280368337509192915050565b82805482825590600052602060002090810192821561402b579160200282015b8281111561402b57825182547fffffffffffffffffffffffff0000000000000000000000000000000000000000166001600160a01b03909116178255602090920191600190910190613fde565b5061403792915061403b565b5090565b5b80821115614037576000815560010161403c565b60006020828403121561406257600080fd5b81357fffffffff0000000000000000000000000000000000000000000000000000000081168114613e9157600080fd5b60005b838110156140ad578181015183820152602001614095565b50506000910152565b600081518084526140ce816020860160208601614092565b601f01601f19169290920160200192915050565b602081526000613e9160208301846140b6565b7f4e487b7100000000000000000000000000000000000000000000000000000000600052604160045260246000fd5b604051601f8201601f1916810167ffffffffffffffff8111828210171561414d5761414d6140f5565b604052919050565b600067ffffffffffffffff82111561416f5761416f6140f5565b50601f01601f191660200190565b600061419061418b84614155565b614124565b90508281528383830111156141a457600080fd5b828260208301376000602084830101529392505050565b600082601f8301126141cc57600080fd5b613e918383356020850161417d565b600067ffffffffffffffff8211156141f5576141f56140f5565b5060051b60200190565b600082601f83011261421057600080fd5b8135602061422061418b836141db565b82815260059290921b8401810191818101908684111561423f57600080fd5b8286015b84811015613bdc5780358352918301918301614243565b6000806000806080858703121561427057600080fd5b84359350602085013567ffffffffffffffff8082111561428f57600080fd5b61429b888389016141bb565b94506040870135935060608701359150808211156142b857600080fd5b506142c5878288016141ff565b91505092959194509250565b6000602082840312156142e357600080fd5b5035919050565b600081518084526020808501945080840160005b838110156143235781516001600160a01b0316875295820195908201906001016142fe565b509495945050505050565b60ff8816815260e06020820152600061434a60e08301896142ea565b828103604084015261435c81896142ea565b60608401979097525050608081019390935290151560a083015260c0909101529392505050565b60006020828403121561439557600080fd5b813567ffffffffffffffff8111156143ac57600080fd5b610ca3848285016141bb565b600080600080608085870312156143ce57600080fd5b843593506020850135925060408501359150606085013567ffffffffffffffff8111156143fa57600080fd5b8501601f8101871361440b57600080fd5b6142c58782356020840161417d565b6001600160a01b038116811461148857600080fd5b60006020828403121561444157600080fd5b8135613e918161441a565b602081526000613e9160208301846142ea565b6000806040838503121561447257600080fd5b823561447d8161441a565b9150602083013567ffffffffffffffff81111561449957600080fd5b6144a5858286016141bb565b9150509250929050565b600082601f8301126144c057600080fd5b813560206144d061418b836141db565b82815260059290921b840181019181810190868411156144ef57600080fd5b8286015b84811015613bdc5780356145068161441a565b83529183019183016144f3565b600080600080600060a0868803121561452b57600080fd5b853567ffffffffffffffff8082111561454357600080fd5b61454f89838a016144af565b9650602088013591508082111561456557600080fd5b61457189838a016144af565b955060408801359450606088013591508082111561458e57600080fd5b61459a89838a016141bb565b935060808801359150808211156145b057600080fd5b506145bd888289016141bb565b9150509295509295909350565b600080604083850312156145dd57600080fd5b50508035926020909101359150565b6104008101818360005b60208082106146055750614619565b8251845292830192909101906001016145f6565b50505092915050565b60008060006060848603121561463757600080fd5b505081359360208301359350604090920135919050565b60008060008060008060c0878903121561466757600080fd5b86356146728161441a565b955060208701356146828161441a565b945060408701356146928161441a565b935060608701356146a28161441a565b925060808701356146b28161441a565b915060a08701356146c28161441a565b809150509295509295509295565b600080604083850312156146e357600080fd5b823560ff811681146146f457600080fd5b946020939093013593505050565b828152604060208201526000610ca360408301846140b6565b600080600080600060a0868803121561473357600080fd5b853567ffffffffffffffff8082111561474b57600080fd5b61475789838a016144af565b9650602088013591508082111561476d57600080fd5b61477989838a016144af565b955060408801359450606088013591508082111561479657600080fd5b6147a289838a016141bb565b935060808801359150808211156147b857600080fd5b506145bd888289016141ff565b60008060008060008060c087890312156147de57600080fd5b863567ffffffffffffffff808211156147f657600080fd5b6148028a838b016144af565b9750602089013591508082111561481857600080fd5b6148248a838b016144af565b965060408901359550606089013591508082111561484157600080fd5b61484d8a838b016141bb565b94506080890135935060a089013591508082111561486a57600080fd5b5061487789828a016141ff565b9150509295509295509295565b6000806000806080858703121561489a57600080fd5b843567ffffffffffffffff808211156148b257600080fd5b6148be888389016144af565b955060208701359150808211156148d457600080fd5b6148e0888389016144af565b94506040870135935060608701359150808211156148fd57600080fd5b506142c5878288016141bb565b600181811c9082168061491e57607f821691505b602082108103614957577f4e487b7100000000000000000000000000000000000000000000000000000000600052602260045260246000fd5b50919050565b60006020828403121561496f57600080fd5b5051919050565b60008251614988818460208701614092565b9190910192915050565b601f82111561379357600081815260208120601f850160051c810160208610156149b95750805b601f850160051c820191505b818110156149d8578281556001016149c5565b505050505050565b815167ffffffffffffffff8111156149fa576149fa6140f5565b614a0e81614a08845461490a565b84614992565b602080601f831160018114614a435760008415614a2b5750858301515b600019600386901b1c1916600185901b1785556149d8565b600085815260208120601f198616915b82811015614a7257888601518255948401946001909101908401614a53565b5085821015614a905787850151600019600388901b60f8161c191681555b5050505050600190811b01905550565b7f4e487b7100000000000000000000000000000000000000000000000000000000600052603260045260246000fd5b7f4e487b7100000000000000000000000000000000000000000000000000000000600052601160045260246000fd5b60006000198203614b1157614b11614acf565b5060010190565b80820180821115610aff57610aff614acf565b81810381811115610aff57610aff614acf565b600060406001600160a01b0380861684526020828186015260a0850186516060808689015282825180855260c08a01915060c08160051b8b01019450858401935060005b81811015614be9578a86037fffffffffffffffffffffffffffffffffffffffffffffffffffffffffffffff4001835284518051891687528781015188880152890151898701859052614bd6858801826140b6565b9650509386019391860191600101614b82565b50505083890151818901525050838701516080870152809450505050509392505050565b60006020808385031215614c2057600080fd5b825167ffffffffffffffff80821115614c3857600080fd5b818501915085601f830112614c4c57600080fd5b8151614c5a61418b826141db565b81815260059190911b83018401908481019088831115614c7957600080fd5b8585015b83811015614ced57805185811115614c955760008081fd5b8601603f81018b13614ca75760008081fd5b878101516040614cb961418b83614155565b8281528d82848601011115614cce5760008081fd5b614cdd838c8301848701614092565b8652505050918601918601614c7d565b5098975050505050505050565b604081526000614d0d60408301856140b6565b82810360208481019190915284518083528582019282019060005b81811015614d4457845183529383019391830191600101614d28565b5090979650505050505050565b600060208284031215614d6357600080fd5b81518015158114613e9157600080fd5b60006020808385031215614d8657600080fd5b825167ffffffffffffffff811115614d9d57600080fd5b8301601f81018513614dae57600080fd5b8051614dbc61418b826141db565b81815260059190911b82018301908381019087831115614ddb57600080fd5b928401925b82841015614e02578351614df38161441a565b82529284019290840190614de0565b979650505050505050565b60a081526000614e2060a08301886140b6565b8281036020840152614e3281886140b6565b905085151560408401528281036060840152614e4e81866140b6565b90508281036080840152614e6281856140b6565b98975050505050505050565b60007fff00000000000000000000000000000000000000000000000000000000000000808660f81b168352808560f81b166001840152508251614eb8816002850160208701614092565b9190910160020194935050505056fe416464726573733a206c6f772d6c6576656c2064656c65676174652063616c6c206661696c656468747470733a2f2f6769746875622e636f6d2f706f72636f2d726f73736f2d6a2f736166652d7265636f766572792d6e6f6972a264697066735822122021d56e228bd8cdc99d48f794e074aa0b0f68ce37e8840f249b1a9056a29a963a64736f6c63430008120033",
    "linkReferences": {
      "src/helper/WebAuthnHelper.sol": {
        "WebAuthnHelper": [
          {
            "start": 4320,
            "length": 20
          }
        ]
      }
    }
  },
  "methodIdentifiers": {
    "MIN_TIMELOCK()": "fb0c7549",
    "_computeMessage(bytes)": "2da4e420",
    "_convertBytes32ToBytes32Array(bytes32)": "67a277a4",
    "addEcrecoverRecover(uint256,bytes32)": "665caab7",
    "addSecretRecover(uint256,bytes32)": "57a60326",
    "addSocialRecover(uint256,uint256,bytes32)": "7d9e0141",
    "addWebAuthnRecover(uint256,bytes32,bytes32,string)": "31895767",
    "approveSocialRecovery(uint256,bytes,bytes32,bytes32[])": "1788430b",
    "credentialId()": "a3c0f0b7",
    "ecrecoverVerifier()": "7c64dd76",
    "execRecovery(uint256)": "cdb44775",
    "getIsRecoveryExecutable(uint256)": "2152ab1b",
    "getPendingNewOwners(uint256)": "4969ca3f",
    "getPubkeyXY()": "d83dfc26",
    "getRecoveryByProposalId(uint256)": "23a6c20e",
    "guardiansRoot()": "5695f292",
    "hashed_address()": "87dee39f",
    "hashed_secret()": "2abcb3d8",
    "initialize(address,address,address,address,address,address)": "cc2a9a5b",
    "isEcrecoverRecoverEnabled()": "e6795306",
    "isSecretRecoverEnabled()": "83b1a8c1",
    "isSocialRecoverEnabled()": "e6f352c9",
    "isWebAuthnRecoverEnabled()": "23b26075",
    "metadataHash()": "c5a1d7f0",
    "metadataProvider()": "d3d72d2a",
    "name()": "06fdde03",
    "proposeEcrecoverRecover(address[],address[],uint256,bytes,bytes32[])": "e6e1247e",
    "proposeSecretRecover(address[],address[],uint256,bytes)": "f3d3f549",
    "proposeSocialRecover(address[],address[],uint256,bytes,bytes32,bytes32[])": "ec33ddb7",
    "proposeWebAuthnRecover(address[],address[],uint256,bytes,bytes)": "51a2f17a",
    "proxiableUUID()": "52d1902d",
    "pubkey_x()": "652b098a",
    "pubkey_y()": "cd0a16a8",
    "recoveries(uint256)": "7a04c865",
    "recoveryCount()": "010a623c",
    "recoveryNullifiers(uint8,bytes32)": "cd0ad3c1",
    "recoveryTimeLock()": "0ce03f2d",
    "rejectRecovery(uint256)": "9a8f18f3",
    "removeEcrecoverRecover()": "dada7ca2",
    "removeSecretRecover()": "f5120d62",
    "removeSocialRecover()": "b3810340",
    "removeWebAuthnRecover()": "2e56f60d",
    "requiresPermissions()": "e8e755b5",
    "requiresRootAccess()": "be193d27",
    "safe()": "186f0354",
    "safeProtocolManager()": "8e482341",
    "secretVerifier()": "024e5d15",
    "socialRecoverVerifier()": "17f5705e",
    "supportsInterface(bytes4)": "01ffc9a7",
    "threshold()": "42cde4e8",
    "upgradeTo(address)": "3659cfe6",
    "upgradeToAndCall(address,bytes)": "4f1ef286",
    "version()": "54fd4d50",
    "webAuthnVerifier()": "7b49fa19"
  },
  "id": 79
}