{
  "abi": [
    {
      "inputs": [],
      "name": "PROOF_VERIFICATION_FAILED",
      "type": "error"
    },
    {
      "inputs": [
        {
          "internalType": "bytes",
          "name": "reason",
          "type": "bytes"
        }
      ],
      "name": "RECOVER_FAILED",
      "type": "error"
    },
    {
      "anonymous": false,
      "inputs": [
        {
          "indexed": false,
          "internalType": "address",
          "name": "previousAdmin",
          "type": "address"
        },
        {
          "indexed": false,
          "internalType": "address",
          "name": "newAdmin",
          "type": "address"
        }
      ],
      "name": "AdminChanged",
      "type": "event"
    },
    {
      "anonymous": false,
      "inputs": [
        {
          "indexed": true,
          "internalType": "address",
          "name": "beacon",
          "type": "address"
        }
      ],
      "name": "BeaconUpgraded",
      "type": "event"
    },
    {
      "anonymous": false,
      "inputs": [
        {
          "indexed": false,
          "internalType": "uint8",
          "name": "version",
          "type": "uint8"
        }
      ],
      "name": "Initialized",
      "type": "event"
    },
    {
      "anonymous": false,
      "inputs": [
        {
          "indexed": true,
          "internalType": "bytes32",
          "name": "metadataHash",
          "type": "bytes32"
        },
        {
          "indexed": false,
          "internalType": "bytes",
          "name": "data",
          "type": "bytes"
        }
      ],
      "name": "Metadata",
      "type": "event"
    },
    {
      "anonymous": false,
      "inputs": [
        {
          "indexed": true,
          "internalType": "address",
          "name": "implementation",
          "type": "address"
        }
      ],
      "name": "Upgraded",
      "type": "event"
    },
    {
      "inputs": [],
      "name": "MIN_TIMELOCK",
      "outputs": [
        {
          "internalType": "uint256",
          "name": "",
          "type": "uint256"
        }
      ],
      "stateMutability": "view",
      "type": "function"
    },
    {
      "inputs": [
        {
          "internalType": "bytes",
          "name": "_webAuthnInputs",
          "type": "bytes"
        }
      ],
      "name": "_computeMessage",
      "outputs": [
        {
          "internalType": "bytes32",
          "name": "",
          "type": "bytes32"
        }
      ],
      "stateMutability": "pure",
      "type": "function"
    },
    {
      "inputs": [
        {
          "internalType": "bytes32",
          "name": "value",
          "type": "bytes32"
        }
      ],
      "name": "_convertBytes32ToBytes32Array",
      "outputs": [
        {
          "internalType": "bytes32[32]",
          "name": "",
          "type": "bytes32[32]"
        }
      ],
      "stateMutability": "pure",
      "type": "function"
    },
    {
      "inputs": [
        {
          "internalType": "uint256",
          "name": "_recoveryTimeLock",
          "type": "uint256"
        },
        {
          "internalType": "bytes32",
          "name": "_hashed_address",
          "type": "bytes32"
        }
      ],
      "name": "addEcrecoverRecover",
      "outputs": [],
      "stateMutability": "nonpayable",
      "type": "function"
    },
    {
      "inputs": [
        {
          "internalType": "uint256",
          "name": "_recoveryTimeLock",
          "type": "uint256"
        },
        {
          "internalType": "bytes32",
          "name": "_hashed_secret",
          "type": "bytes32"
        }
      ],
      "name": "addSecretRecover",
      "outputs": [],
      "stateMutability": "nonpayable",
      "type": "function"
    },
    {
      "inputs": [
        {
          "internalType": "uint256",
          "name": "_recoveryTimeLock",
          "type": "uint256"
        },
        {
          "internalType": "uint256",
          "name": "_approvalThreshold",
          "type": "uint256"
        },
        {
          "internalType": "bytes32",
          "name": "_guardiansRoot",
          "type": "bytes32"
        }
      ],
      "name": "addSocialRecover",
      "outputs": [],
      "stateMutability": "nonpayable",
      "type": "function"
    },
    {
      "inputs": [
        {
          "internalType": "uint256",
          "name": "_recoveryTimeLock",
          "type": "uint256"
        },
        {
          "internalType": "bytes32",
          "name": "_pubkey_x",
          "type": "bytes32"
        },
        {
          "internalType": "bytes32",
          "name": "_pubkey_y",
          "type": "bytes32"
        },
        {
          "internalType": "string",
          "name": "_credentialId",
          "type": "string"
        }
      ],
      "name": "addWebAuthnRecover",
      "outputs": [],
      "stateMutability": "nonpayable",
      "type": "function"
    },
    {
      "inputs": [],
      "name": "approvalThreshold",
      "outputs": [
        {
          "internalType": "uint256",
          "name": "",
          "type": "uint256"
        }
      ],
      "stateMutability": "view",
      "type": "function"
    },
    {
      "inputs": [
        {
          "internalType": "uint256",
          "name": "_proposalId",
          "type": "uint256"
        },
        {
          "internalType": "bytes",
          "name": "_proof",
          "type": "bytes"
        },
        {
          "internalType": "bytes32",
          "name": "nullifierHash",
          "type": "bytes32"
        },
        {
          "internalType": "bytes32[]",
          "name": "_message",
          "type": "bytes32[]"
        }
      ],
      "name": "approveSocialRecovery",
      "outputs": [
        {
          "internalType": "uint256",
          "name": "",
          "type": "uint256"
        }
      ],
      "stateMutability": "nonpayable",
      "type": "function"
    },
    {
      "inputs": [],
      "name": "credentialId",
      "outputs": [
        {
          "internalType": "string",
          "name": "",
          "type": "string"
        }
      ],
      "stateMutability": "view",
      "type": "function"
    },
    {
      "inputs": [
        {
          "internalType": "uint256",
          "name": "_proposalId",
          "type": "uint256"
        }
      ],
      "name": "execRecovery",
      "outputs": [
        {
          "internalType": "bool",
          "name": "",
          "type": "bool"
        }
      ],
      "stateMutability": "nonpayable",
      "type": "function"
    },
    {
      "inputs": [
        {
          "internalType": "uint256",
          "name": "_recoveryType",
          "type": "uint256"
        }
      ],
      "name": "getIsMethodEnabled",
      "outputs": [
        {
          "internalType": "bool",
          "name": "",
          "type": "bool"
        }
      ],
      "stateMutability": "view",
      "type": "function"
    },
    {
      "inputs": [
        {
          "internalType": "uint256",
          "name": "_proposalId",
          "type": "uint256"
        }
      ],
      "name": "getIsRecoveryExecutable",
      "outputs": [
        {
          "internalType": "bool",
          "name": "",
          "type": "bool"
        }
      ],
      "stateMutability": "view",
      "type": "function"
    },
    {
      "inputs": [
        {
          "internalType": "uint256",
          "name": "_proposalId",
          "type": "uint256"
        }
      ],
      "name": "getPendingNewOwners",
      "outputs": [
        {
          "internalType": "address[]",
          "name": "",
          "type": "address[]"
        }
      ],
      "stateMutability": "view",
      "type": "function"
    },
    {
      "inputs": [],
      "name": "getPubkeyXY",
      "outputs": [
        {
          "internalType": "bytes32",
          "name": "",
          "type": "bytes32"
        },
        {
          "internalType": "bytes32",
          "name": "",
          "type": "bytes32"
        }
      ],
      "stateMutability": "view",
      "type": "function"
    },
    {
      "inputs": [
        {
          "internalType": "uint256",
          "name": "_proposalId",
          "type": "uint256"
        }
      ],
      "name": "getRecoveryByProposalId",
      "outputs": [
        {
          "internalType": "uint8",
          "name": "",
          "type": "uint8"
        },
        {
          "internalType": "address[]",
          "name": "",
          "type": "address[]"
        },
        {
          "internalType": "address[]",
          "name": "",
          "type": "address[]"
        },
        {
          "internalType": "uint256",
          "name": "",
          "type": "uint256"
        },
        {
          "internalType": "uint256",
          "name": "",
          "type": "uint256"
        },
        {
          "internalType": "uint256",
          "name": "",
          "type": "uint256"
        },
        {
          "internalType": "enum ProposalStatus",
          "name": "",
          "type": "uint8"
        },
        {
          "internalType": "uint256",
          "name": "",
          "type": "uint256"
        }
      ],
      "stateMutability": "view",
      "type": "function"
    },
    {
      "inputs": [],
      "name": "guardiansRoot",
      "outputs": [
        {
          "internalType": "bytes32",
          "name": "",
          "type": "bytes32"
        }
      ],
      "stateMutability": "view",
      "type": "function"
    },
    {
      "inputs": [],
      "name": "hashed_address",
      "outputs": [
        {
          "internalType": "bytes32",
          "name": "",
          "type": "bytes32"
        }
      ],
      "stateMutability": "view",
      "type": "function"
    },
    {
      "inputs": [],
      "name": "hashed_secret",
      "outputs": [
        {
          "internalType": "bytes32",
          "name": "",
          "type": "bytes32"
        }
      ],
      "stateMutability": "view",
      "type": "function"
    },
    {
      "inputs": [
        {
          "internalType": "address",
          "name": "_safe",
          "type": "address"
        },
        {
          "internalType": "address",
          "name": "_safeProtocolManager",
          "type": "address"
        },
        {
          "internalType": "address",
          "name": "_ecrecoverVerifier",
          "type": "address"
        },
        {
          "internalType": "address",
          "name": "_webAuthnVerifier",
          "type": "address"
        },
        {
          "internalType": "address",
          "name": "_secretVerifier",
          "type": "address"
        },
        {
          "internalType": "address",
          "name": "_socialRecoverVerifier",
          "type": "address"
        }
      ],
      "name": "initialize",
      "outputs": [],
      "stateMutability": "nonpayable",
      "type": "function"
    },
    {
      "inputs": [
        {
          "internalType": "uint256",
          "name": "",
          "type": "uint256"
        }
      ],
      "name": "isMethodEnabled",
      "outputs": [
        {
          "internalType": "bool",
          "name": "",
          "type": "bool"
        }
      ],
      "stateMutability": "view",
      "type": "function"
    },
    {
      "inputs": [],
      "name": "lastExecutionTimestamp",
      "outputs": [
        {
          "internalType": "uint256",
          "name": "",
          "type": "uint256"
        }
      ],
      "stateMutability": "view",
      "type": "function"
    },
    {
      "inputs": [],
      "name": "metadataHash",
      "outputs": [
        {
          "internalType": "bytes32",
          "name": "",
          "type": "bytes32"
        }
      ],
      "stateMutability": "view",
      "type": "function"
    },
    {
      "inputs": [],
      "name": "metadataProvider",
      "outputs": [
        {
          "internalType": "uint256",
          "name": "providerType",
          "type": "uint256"
        },
        {
          "internalType": "bytes",
          "name": "location",
          "type": "bytes"
        }
      ],
      "stateMutability": "view",
      "type": "function"
    },
    {
      "inputs": [],
      "name": "name",
      "outputs": [
        {
          "internalType": "string",
          "name": "",
          "type": "string"
        }
      ],
      "stateMutability": "view",
      "type": "function"
    },
    {
      "inputs": [],
      "name": "proposalCount",
      "outputs": [
        {
          "internalType": "uint256",
          "name": "",
          "type": "uint256"
        }
      ],
      "stateMutability": "view",
      "type": "function"
    },
    {
      "inputs": [
        {
          "internalType": "address[]",
          "name": "_oldAddresses",
          "type": "address[]"
        },
        {
          "internalType": "address[]",
          "name": "_newAddresses",
          "type": "address[]"
        },
        {
          "internalType": "uint256",
          "name": "_newThreshold",
          "type": "uint256"
        },
        {
          "internalType": "bytes",
          "name": "_proof",
          "type": "bytes"
        },
        {
          "internalType": "bytes32[]",
          "name": "_message",
          "type": "bytes32[]"
        }
      ],
      "name": "proposeEcrecoverRecover",
      "outputs": [
        {
          "internalType": "uint256",
          "name": "",
          "type": "uint256"
        },
        {
          "internalType": "uint256",
          "name": "",
          "type": "uint256"
        }
      ],
      "stateMutability": "nonpayable",
      "type": "function"
    },
    {
      "inputs": [
        {
          "internalType": "address[]",
          "name": "_oldAddresses",
          "type": "address[]"
        },
        {
          "internalType": "address[]",
          "name": "_newAddresses",
          "type": "address[]"
        },
        {
          "internalType": "uint256",
          "name": "_newThreshold",
          "type": "uint256"
        },
        {
          "internalType": "bytes",
          "name": "_proof",
          "type": "bytes"
        }
      ],
      "name": "proposeSecretRecover",
      "outputs": [
        {
          "internalType": "uint256",
          "name": "",
          "type": "uint256"
        },
        {
          "internalType": "uint256",
          "name": "",
          "type": "uint256"
        }
      ],
      "stateMutability": "nonpayable",
      "type": "function"
    },
    {
      "inputs": [
        {
          "internalType": "address[]",
          "name": "_oldAddresses",
          "type": "address[]"
        },
        {
          "internalType": "address[]",
          "name": "_newAddresses",
          "type": "address[]"
        },
        {
          "internalType": "uint256",
          "name": "_newThreshold",
          "type": "uint256"
        },
        {
          "internalType": "bytes",
          "name": "_proof",
          "type": "bytes"
        },
        {
          "internalType": "bytes32",
          "name": "_nullifierHash",
          "type": "bytes32"
        },
        {
          "internalType": "bytes32[]",
          "name": "_message",
          "type": "bytes32[]"
        }
      ],
      "name": "proposeSocialRecover",
      "outputs": [
        {
          "internalType": "uint256",
          "name": "",
          "type": "uint256"
        },
        {
          "internalType": "uint256",
          "name": "",
          "type": "uint256"
        }
      ],
      "stateMutability": "nonpayable",
      "type": "function"
    },
    {
      "inputs": [
        {
          "internalType": "address[]",
          "name": "_oldAddresses",
          "type": "address[]"
        },
        {
          "internalType": "address[]",
          "name": "_newAddresses",
          "type": "address[]"
        },
        {
          "internalType": "uint256",
          "name": "_newThreshold",
          "type": "uint256"
        },
        {
          "internalType": "bytes",
          "name": "_proof",
          "type": "bytes"
        },
        {
          "internalType": "bytes",
          "name": "_webAuthnInputs",
          "type": "bytes"
        }
      ],
      "name": "proposeWebAuthnRecover",
      "outputs": [
        {
          "internalType": "uint256",
          "name": "",
          "type": "uint256"
        },
        {
          "internalType": "uint256",
          "name": "",
          "type": "uint256"
        }
      ],
      "stateMutability": "nonpayable",
      "type": "function"
    },
    {
      "inputs": [],
      "name": "proxiableUUID",
      "outputs": [
        {
          "internalType": "bytes32",
          "name": "",
          "type": "bytes32"
        }
      ],
      "stateMutability": "view",
      "type": "function"
    },
    {
      "inputs": [],
      "name": "pubkey_x",
      "outputs": [
        {
          "internalType": "bytes32",
          "name": "",
          "type": "bytes32"
        }
      ],
      "stateMutability": "view",
      "type": "function"
    },
    {
      "inputs": [],
      "name": "pubkey_y",
      "outputs": [
        {
          "internalType": "bytes32",
          "name": "",
          "type": "bytes32"
        }
      ],
      "stateMutability": "view",
      "type": "function"
    },
    {
      "inputs": [
        {
          "internalType": "uint8",
          "name": "",
          "type": "uint8"
        },
        {
          "internalType": "bytes32",
          "name": "",
          "type": "bytes32"
        }
      ],
      "name": "recoveryNullifiers",
      "outputs": [
        {
          "internalType": "bool",
          "name": "",
          "type": "bool"
        }
      ],
      "stateMutability": "view",
      "type": "function"
    },
    {
      "inputs": [
        {
          "internalType": "uint256",
          "name": "",
          "type": "uint256"
        }
      ],
      "name": "recoveryProposals",
      "outputs": [
        {
          "internalType": "uint8",
          "name": "recoveryType",
          "type": "uint8"
        },
        {
          "internalType": "uint256",
          "name": "newThreshold",
          "type": "uint256"
        },
        {
          "internalType": "uint256",
          "name": "proposedTimestamp",
          "type": "uint256"
        },
        {
          "internalType": "uint256",
          "name": "timeLockEnd",
          "type": "uint256"
        },
        {
          "internalType": "enum ProposalStatus",
          "name": "status",
          "type": "uint8"
        },
        {
          "internalType": "uint256",
          "name": "approvalCount",
          "type": "uint256"
        }
      ],
      "stateMutability": "view",
      "type": "function"
    },
    {
      "inputs": [
        {
          "internalType": "uint256",
          "name": "",
          "type": "uint256"
        }
      ],
      "name": "recoveryTimelocks",
      "outputs": [
        {
          "internalType": "uint256",
          "name": "",
          "type": "uint256"
        }
      ],
      "stateMutability": "view",
      "type": "function"
    },
    {
      "inputs": [
        {
          "internalType": "uint256",
          "name": "_proposalId",
          "type": "uint256"
        }
      ],
      "name": "rejectRecovery",
      "outputs": [],
      "stateMutability": "nonpayable",
      "type": "function"
    },
    {
      "inputs": [],
      "name": "removeEcrecoverRecover",
      "outputs": [],
      "stateMutability": "nonpayable",
      "type": "function"
    },
    {
      "inputs": [],
      "name": "removeSecretRecover",
      "outputs": [],
      "stateMutability": "nonpayable",
      "type": "function"
    },
    {
      "inputs": [],
      "name": "removeSocialRecover",
      "outputs": [],
      "stateMutability": "nonpayable",
      "type": "function"
    },
    {
      "inputs": [],
      "name": "removeWebAuthnRecover",
      "outputs": [],
      "stateMutability": "nonpayable",
      "type": "function"
    },
    {
      "inputs": [],
      "name": "requiresPermissions",
      "outputs": [
        {
          "internalType": "uint8",
          "name": "permissions",
          "type": "uint8"
        }
      ],
      "stateMutability": "view",
      "type": "function"
    },
    {
      "inputs": [],
      "name": "requiresRootAccess",
      "outputs": [
        {
          "internalType": "bool",
          "name": "",
          "type": "bool"
        }
      ],
      "stateMutability": "view",
      "type": "function"
    },
    {
      "inputs": [],
      "name": "safe",
      "outputs": [
        {
          "internalType": "address",
          "name": "",
          "type": "address"
        }
      ],
      "stateMutability": "view",
      "type": "function"
    },
    {
      "inputs": [],
      "name": "safeProtocolManager",
      "outputs": [
        {
          "internalType": "contract ISafeProtocolManager",
          "name": "",
          "type": "address"
        }
      ],
      "stateMutability": "view",
      "type": "function"
    },
    {
      "inputs": [
        {
          "internalType": "bytes4",
          "name": "interfaceId",
          "type": "bytes4"
        }
      ],
      "name": "supportsInterface",
      "outputs": [
        {
          "internalType": "bool",
          "name": "",
          "type": "bool"
        }
      ],
      "stateMutability": "view",
      "type": "function"
    },
    {
      "inputs": [
        {
          "internalType": "address",
          "name": "newImplementation",
          "type": "address"
        }
      ],
      "name": "upgradeTo",
      "outputs": [],
      "stateMutability": "nonpayable",
      "type": "function"
    },
    {
      "inputs": [
        {
          "internalType": "address",
          "name": "newImplementation",
          "type": "address"
        },
        {
          "internalType": "bytes",
          "name": "data",
          "type": "bytes"
        }
      ],
      "name": "upgradeToAndCall",
      "outputs": [],
      "stateMutability": "payable",
      "type": "function"
    },
    {
      "inputs": [
        {
          "internalType": "uint256",
          "name": "",
          "type": "uint256"
        }
      ],
      "name": "verifiers",
      "outputs": [
        {
          "internalType": "address",
          "name": "",
          "type": "address"
        }
      ],
      "stateMutability": "view",
      "type": "function"
    },
    {
      "inputs": [],
      "name": "version",
      "outputs": [
        {
          "internalType": "string",
          "name": "",
          "type": "string"
        }
      ],
      "stateMutability": "view",
      "type": "function"
    }
  ],
  "bytecode": {
    "object": "0x60a06040523060805234801561001457600080fd5b506080516157506200004d6000396000818161173e015281816117d4015281816119a401528181611a3a0152611e1e01526157506000f3fe6080604052600436106103295760003560e01c80637f4efa48116101a5578063cd0ad3c1116100ec578063dada7ca211610095578063ec33ddb71161006f578063ec33ddb714610981578063f3d3f549146109a1578063f5120d62146109c1578063fb0c7549146109d657600080fd5b8063dada7ca214610930578063e6e1247e14610945578063e8e755b51461096557600080fd5b8063d3d72d2a116100c6578063d3d72d2a146108be578063d83dfc2614610902578063da35c6641461091a57600080fd5b8063cd0ad3c114610836578063cdb4477514610871578063d0b3ca9e1461089157600080fd5b8063ac96c5fd1161014e578063c5a1d7f011610128578063c5a1d7f0146107ea578063cc2a9a5b14610800578063cd0a16a81461082057600080fd5b8063ac96c5fd1461078b578063b3810340146107bb578063be193d27146107d057600080fd5b80639a8f18f31161017f5780639a8f18f314610720578063a3c0f0b714610740578063ac1eff681461075557600080fd5b80637f4efa48146106ba57806387dee39f146106ea5780638e4823411461070057600080fd5b80633659cfe6116102745780635695f2921161021d578063665caab7116101f7578063665caab71461063757806367a277a4146106575780637d0eef61146106845780637d9e01411461069a57600080fd5b80635695f292146105eb57806357a6032614610601578063652b098a1461062157600080fd5b806351a2f17a1161024e57806351a2f17a1461058c57806352d1902d146105c157806354fd4d50146105d657600080fd5b80633659cfe61461052c5780634969ca3f1461054c5780634f1ef2861461057957600080fd5b80632abcb3d8116102d65780632f175e5d116102b05780632f175e5d1461048c57806331895767146104f6578063358d1fc61461051657600080fd5b80632abcb3d81461043f5780632da4e420146104555780632e56f60d1461047557600080fd5b8063186f035411610307578063186f0354146103b35780632152ab1b146103eb57806323a6c20e1461040b57600080fd5b806301ffc9a71461032e57806306fdde03146103635780631788430b14610385575b600080fd5b34801561033a57600080fd5b5061034e610349366004614790565b6109eb565b60405190151581526020015b60405180910390f35b34801561036f57600080fd5b50610378610a84565b60405161035a9190614822565b34801561039157600080fd5b506103a56103a036600461499a565b610b12565b60405190815260200161035a565b3480156103bf57600080fd5b506005546103d3906001600160a01b031681565b6040516001600160a01b03909116815260200161035a565b3480156103f757600080fd5b5061034e610406366004614a11565b610de8565b34801561041757600080fd5b5061042b610426366004614a11565b61133a565b60405161035a989796959493929190614ad8565b34801561044b57600080fd5b506103a560105481565b34801561046157600080fd5b506103a5610470366004614b3e565b6114b3565b34801561048157600080fd5b5061048a611547565b005b34801561049857600080fd5b506104e46104a7366004614a11565b600b6020526000908152604090208054600382015460048301546005840154600685015460079095015460ff948516959394929391929091169086565b60405161035a96959493929190614b73565b34801561050257600080fd5b5061048a610511366004614bb1565b6115d5565b34801561052257600080fd5b506103a560095481565b34801561053857600080fd5b5061048a610547366004614c28565b611734565b34801561055857600080fd5b5061056c610567366004614a11565b6118c8565b60405161035a9190614c45565b61048a610587366004614c58565b61199a565b34801561059857600080fd5b506105ac6105a7366004614d0c565b611b1f565b6040805192835260208301919091520161035a565b3480156105cd57600080fd5b506103a5611e11565b3480156105e257600080fd5b50610378611ed6565b3480156105f757600080fd5b506103a560125481565b34801561060d57600080fd5b5061048a61061c366004614dc3565b611ee3565b34801561062d57600080fd5b506103a5600d5481565b34801561064357600080fd5b5061048a610652366004614dc3565b611f9a565b34801561066357600080fd5b50610677610672366004614a11565b612051565b60405161035a9190614de5565b34801561069057600080fd5b506103a560135481565b3480156106a657600080fd5b5061048a6106b5366004614e1b565b6120b0565b3480156106c657600080fd5b5061034e6106d5366004614a11565b60076020526000908152604090205460ff1681565b3480156106f657600080fd5b506103a560115481565b34801561070c57600080fd5b506014546103d3906001600160a01b031681565b34801561072c57600080fd5b5061048a61073b366004614a11565b6121c1565b34801561074c57600080fd5b5061037861230a565b34801561076157600080fd5b506103d3610770366004614a11565b6008602052600090815260409020546001600160a01b031681565b34801561079757600080fd5b5061034e6107a6366004614a11565b60009081526007602052604090205460ff1690565b3480156107c757600080fd5b5061048a612317565b3480156107dc57600080fd5b5060035461034e9060ff1681565b3480156107f657600080fd5b506103a560045481565b34801561080c57600080fd5b5061048a61081b366004614e47565b612385565b34801561082c57600080fd5b506103a5600e5481565b34801561084257600080fd5b5061034e610851366004614ec9565b600c60209081526000928352604080842090915290825290205460ff1681565b34801561087d57600080fd5b5061034e61088c366004614a11565b612613565b34801561089d57600080fd5b506103a56108ac366004614a11565b60066020526000908152604090205481565b3480156108ca57600080fd5b506108f4604080513060208201526003916060910160405160208183030381529060405290509091565b60405161035a929190614efb565b34801561090e57600080fd5b50600d54600e546105ac565b34801561092657600080fd5b506103a5600a5481565b34801561093c57600080fd5b5061048a612c73565b34801561095157600080fd5b506105ac610960366004614f14565b612cdc565b34801561097157600080fd5b506040516002815260200161035a565b34801561098d57600080fd5b506105ac61099c366004614fbe565b612fc4565b3480156109ad57600080fd5b506105ac6109bc36600461507d565b6132d1565b3480156109cd57600080fd5b5061048a6135cc565b3480156109e257600080fd5b506103a5600081565b60007fffffffff0000000000000000000000000000000000000000000000000000000082167f6930ebcc000000000000000000000000000000000000000000000000000000001480610a7e57507f01ffc9a7000000000000000000000000000000000000000000000000000000007fffffffff000000000000000000000000000000000000000000000000000000008316145b92915050565b60018054610a9190615103565b80601f0160208091040260200160405190810160405280929190818152602001828054610abd90615103565b8015610b0a5780601f10610adf57610100808354040283529160200191610b0a565b820191906000526020600020905b815481529060010190602001808311610aed57829003601f168201915b505050505081565b6005546000906001600160a01b03163303610b745760405162461bcd60e51b815260206004820152600e60248201527f494e56414c49445f53454e44455200000000000000000000000000000000000060448201526064015b60405180910390fd5b600460005260076020527fb805995a7ec585a251200611a61d179cfd7fb105e1ab17dc415a7336783786f75460ff16610bef5760405162461bcd60e51b815260206004820152600b60248201527f4e4f545f454e41424c45440000000000000000000000000000000000000000006044820152606401610b6b565b6040805160238082526104808201909252600091602082016104608036833701905050855160208088019190912060008181527f5b84bb9e0f5aa9cc45a8bb66468db5d4816d1e75ff86b5e1f1dd8d144dab80979092526040909120549192509060ff1615610ca05760405162461bcd60e51b815260206004820152601060248201527f4455504c4943415445445f50524f4f46000000000000000000000000000000006044820152606401610b6b565b610cac87838688613635565b6004600081905260086020527f9321edea6e3be4df59a344b401fab4f888b556fda1f954244cff9204bad624b8546040517fea50d0e40000000000000000000000000000000000000000000000000000000081529294506001600160a01b03169163ea50d0e491610d21918a91879101615156565b602060405180830381865afa158015610d3e573d6000803e3d6000fd5b505050506040513d601f19601f82011682018060405250810190610d6291906151ad565b610d98576040517fff3ee09d00000000000000000000000000000000000000000000000000000000815260040160405180910390fd5b60008181527f5b84bb9e0f5aa9cc45a8bb66468db5d4816d1e75ff86b5e1f1dd8d144dab809760205260408120805460ff19166001179055610dda8887613707565b93505050505b949350505050565b60008115801590610dfb5750600a548211155b610e475760405162461bcd60e51b815260206004820152600a60248201527f494e56414c49445f4944000000000000000000000000000000000000000000006044820152606401610b6b565b6000828152600b60205260409020805460ff166001148015610e955750600160005260076020527fb39221ace053465ec3453ce2b36430bd138b997ecea25c1043da0c366812b8285460ff16155b15610ee25760405162461bcd60e51b815260206004820152601960248201527f4b3235365f5245434f564552595f4e4f545f454e41424c4544000000000000006044820152606401610b6b565b805460ff166002148015610f225750600260005260076020527fb7c774451310d1be4108bc180d1b52823cb0ee0274a6c0081bcaf94f115fb96d5460ff16155b15610f6f5760405162461bcd60e51b815260206004820152601960248201527f503235365f5245434f564552595f4e4f545f454e41424c4544000000000000006044820152606401610b6b565b805460ff166003148015610faf5750600360005260076020527f3be6fd20d5acfde5b873b48692cd31f4d3c7e8ee8a813af4696af8859e5ca6c65460ff16155b15610ffc5760405162461bcd60e51b815260206004820152601b60248201527f5345435245545f5245434f564552595f4e4f545f454e41424c454400000000006044820152606401610b6b565b805460ff16600414801561103c5750600460005260076020527fb805995a7ec585a251200611a61d179cfd7fb105e1ab17dc415a7336783786f75460ff16155b156110895760405162461bcd60e51b815260206004820152601b60248201527f534f4349414c5f5245434f564552595f4e4f545f454e41424c454400000000006044820152606401610b6b565b611150816002018054806020026020016040519081016040528092919081815260200182805480156110e457602002820191906000526020600020905b81546001600160a01b031681526001909101906020018083116110c6575b50505050508260010180548060200260200160405190810160405280929190818152602001828054801561114157602002820191906000526020600020905b81546001600160a01b03168152600190910190602001808311611123575b505050505083600301546137b8565b506002600682015460ff16600281111561116c5761116c614a6e565b036111b95760405162461bcd60e51b815260206004820152601060248201527f414c52454144595f52454a4543544544000000000000000000000000000000006044820152606401610b6b565b6001600682015460ff1660028111156111d4576111d4614a6e565b036112215760405162461bcd60e51b815260206004820152601060248201527f414c52454144595f4558454355544544000000000000000000000000000000006044820152606401610b6b565b80600501544210156112755760405162461bcd60e51b815260206004820152601260248201527f54494d454c4f434b5f4e4f545f454e44454400000000000000000000000000006044820152606401610b6b565b600954816004015410156112cb5760405162461bcd60e51b815260206004820152601060248201527f50524f504f53414c5f45585049524544000000000000000000000000000000006044820152606401610b6b565b805460ff1660041480156112e457506013548160070154105b156113315760405162461bcd60e51b815260206004820152601b60248201527f494e53554646494349454e545f415050524f56414c5f434f554e5400000000006044820152606401610b6b565b50600192915050565b6000606080828080808088158015906113555750600a548911155b6113a15760405162461bcd60e51b815260206004820152600a60248201527f494e56414c49445f4944000000000000000000000000000000000000000000006044820152606401610b6b565b6000898152600b60209081526040918290208054600382015460058301546004840154600685015460078601546001870180548a51818b0281018b01909b52808b52979960ff97881699919860028c019890941693909189919083018282801561143457602002820191906000526020600020905b81546001600160a01b03168152600190910190602001808311611416575b505050505096508580548060200260200160405190810160405280929190818152602001828054801561149057602002820191906000526020600020905b81546001600160a01b03168152600190910190602001808311611472575b505050505095509850985098509850985098509850985050919395975091939597565b6040517ff8f5689c00000000000000000000000000000000000000000000000000000000815260009073__$6d399485da7ef05af8887e90c5d884cf80$__9063f8f5689c90611506908590600401614822565b602060405180830381865af4158015611523573d6000803e3d6000fd5b505050506040513d601f19601f82011682018060405250810190610a7e91906151cf565b6005546001600160a01b031633146115a15760405162461bcd60e51b815260206004820152600f60248201527f53454e4445525f4e4f545f5341464500000000000000000000000000000000006044820152606401610b6b565b6000600d819055600e8190556040805160208101909152908152600f906115c89082615236565b506115d36002613c86565b565b6005546001600160a01b0316331461162f5760405162461bcd60e51b815260206004820152600f60248201527f53454e4445525f4e4f545f5341464500000000000000000000000000000000006044820152606401610b6b565b821580159061163d57508115155b6116895760405162461bcd60e51b815260206004820152600e60248201527f494e56414c49445f5055424b45590000000000000000000000000000000000006044820152606401610b6b565b60408051600081526020810180835281519020916116a9918491016152f6565b604051602081830303815290604052805190602001200361170c5760405162461bcd60e51b815260206004820152601560248201527f494e56414c49445f43524544454e5449414c5f494400000000000000000000006044820152606401610b6b565b600d839055600e829055600f6117228282615236565b5061172e600285613d07565b50505050565b6001600160a01b037f00000000000000000000000000000000000000000000000000000000000000001630036117d25760405162461bcd60e51b815260206004820152602c60248201527f46756e6374696f6e206d7573742062652063616c6c6564207468726f7567682060448201527f64656c656761746563616c6c00000000000000000000000000000000000000006064820152608401610b6b565b7f00000000000000000000000000000000000000000000000000000000000000006001600160a01b031661182d7f360894a13ba1a3210667c828492db98dca3e2076cc3735a920a3ca505d382bbc546001600160a01b031690565b6001600160a01b0316146118a95760405162461bcd60e51b815260206004820152602c60248201527f46756e6374696f6e206d7573742062652063616c6c6564207468726f7567682060448201527f6163746976652070726f787900000000000000000000000000000000000000006064820152608401610b6b565b604080516000808252602082019092526118c591839190613d8c565b50565b606081158015906118db5750600a548211155b6119275760405162461bcd60e51b815260206004820152600a60248201527f494e56414c49445f4944000000000000000000000000000000000000000000006044820152606401610b6b565b6000828152600b602090815260409182902060018101805484518185028101850190955280855291939290919083018282801561198d57602002820191906000526020600020905b81546001600160a01b0316815260019091019060200180831161196f575b5050505050915050919050565b6001600160a01b037f0000000000000000000000000000000000000000000000000000000000000000163003611a385760405162461bcd60e51b815260206004820152602c60248201527f46756e6374696f6e206d7573742062652063616c6c6564207468726f7567682060448201527f64656c656761746563616c6c00000000000000000000000000000000000000006064820152608401610b6b565b7f00000000000000000000000000000000000000000000000000000000000000006001600160a01b0316611a937f360894a13ba1a3210667c828492db98dca3e2076cc3735a920a3ca505d382bbc546001600160a01b031690565b6001600160a01b031614611b0f5760405162461bcd60e51b815260206004820152602c60248201527f46756e6374696f6e206d7573742062652063616c6c6564207468726f7567682060448201527f6163746976652070726f787900000000000000000000000000000000000000006064820152608401610b6b565b611b1b82826001613d8c565b5050565b60055460009081906001600160a01b03163303611b7e5760405162461bcd60e51b815260206004820152600e60248201527f494e56414c49445f53454e4445520000000000000000000000000000000000006044820152606401610b6b565b600360005260076020527f3be6fd20d5acfde5b873b48692cd31f4d3c7e8ee8a813af4696af8859e5ca6c65460ff16611bf95760405162461bcd60e51b815260206004820152600b60248201527f4e4f545f454e41424c45440000000000000000000000000000000000000000006044820152606401610b6b565b835160208086019190912060008181527f5d6016397a73f5e079297ac5a36fef17b4d9c3831618e63ab105738020ddd72090925260409091205460ff1615611c835760405162461bcd60e51b815260206004820152601060248201527f4455504c4943415445445f50524f4f46000000000000000000000000000000006044820152606401610b6b565b6000611c908989896137b8565b90506000611c9d866114b3565b60408051602080825261042082019092529192506000919080820161040080368337019050509050611cce82613f2c565b600360005260086020527f625b35f5e76f098dd7c3a05b10e2e5e78a4a01228d60c3b143426cdf36d26455546040517fea50d0e40000000000000000000000000000000000000000000000000000000081529192506001600160a01b03169063ea50d0e490611d43908b908590600401615156565b602060405180830381865afa158015611d60573d6000803e3d6000fd5b505050506040513d601f19601f82011682018060405250810190611d8491906151ad565b611dba576040517fff3ee09d00000000000000000000000000000000000000000000000000000000815260040160405180910390fd5b60008481527f5d6016397a73f5e079297ac5a36fef17b4d9c3831618e63ab105738020ddd72060205260409020805460ff19166001179055611dff60028c8c86613fa7565b95509550505050509550959350505050565b6000306001600160a01b037f00000000000000000000000000000000000000000000000000000000000000001614611eb15760405162461bcd60e51b815260206004820152603860248201527f555550535570677261646561626c653a206d757374206e6f742062652063616c60448201527f6c6564207468726f7567682064656c656761746563616c6c00000000000000006064820152608401610b6b565b507f360894a13ba1a3210667c828492db98dca3e2076cc3735a920a3ca505d382bbc90565b60028054610a9190615103565b6005546001600160a01b03163314611f3d5760405162461bcd60e51b815260206004820152600f60248201527f53454e4445525f4e4f545f5341464500000000000000000000000000000000006044820152606401610b6b565b80611f8a5760405162461bcd60e51b815260206004820152600c60248201527f494e56414c49445f4841534800000000000000000000000000000000000000006044820152606401610b6b565b6010819055611b1b600383613d07565b6005546001600160a01b03163314611ff45760405162461bcd60e51b815260206004820152600f60248201527f53454e4445525f4e4f545f5341464500000000000000000000000000000000006044820152606401610b6b565b806120415760405162461bcd60e51b815260206004820152600c60248201527f494e56414c49445f4841534800000000000000000000000000000000000000006044820152606401610b6b565b6011819055611b1b600183613d07565b6120596146df565b6120616146df565b60005b60208110156120a95783816020811061207f5761207f615312565b1a82826020811061209257612092615312565b6020020152806120a181615370565b915050612064565b5092915050565b6005546001600160a01b0316331461210a5760405162461bcd60e51b815260206004820152600f60248201527f53454e4445525f4e4f545f5341464500000000000000000000000000000000006044820152606401610b6b565b806121575760405162461bcd60e51b815260206004820152600c60248201527f494e56414c49445f4841534800000000000000000000000000000000000000006044820152606401610b6b565b816000036121a75760405162461bcd60e51b815260206004820152601560248201527f494e56414c49445f4150505f5448524553484f4c4400000000000000000000006044820152606401610b6b565b601281905560138290556121bc600484613d07565b505050565b6005546001600160a01b0316331461221b5760405162461bcd60e51b815260206004820152600f60248201527f53454e4445525f4e4f545f5341464500000000000000000000000000000000006044820152606401610b6b565b6000818152600b602052604090206002600682015460ff16600281111561224457612244614a6e565b036122915760405162461bcd60e51b815260206004820152601060248201527f414c52454144595f52454a4543544544000000000000000000000000000000006044820152606401610b6b565b6001600682015460ff1660028111156122ac576122ac614a6e565b036122f95760405162461bcd60e51b815260206004820152601060248201527f414c52454144595f4558454355544544000000000000000000000000000000006044820152606401610b6b565b600601805460ff1916600217905550565b600f8054610a9190615103565b6005546001600160a01b031633146123715760405162461bcd60e51b815260206004820152600f60248201527f53454e4445525f4e4f545f5341464500000000000000000000000000000000006044820152606401610b6b565b600060128190556013556115d36004613c86565b600054610100900460ff16158080156123a55750600054600160ff909116105b806123bf5750303b1580156123bf575060005460ff166001145b6124315760405162461bcd60e51b815260206004820152602e60248201527f496e697469616c697a61626c653a20636f6e747261637420697320616c72656160448201527f647920696e697469616c697a65640000000000000000000000000000000000006064820152608401610b6b565b6000805460ff19166001179055801561247157600080547fffffffffffffffffffffffffffffffffffffffffffffffffffffffffffff00ff166101001790555b6125336040518060a001604052806040518060400160405280601481526020017f53616665205265636f7665727920506c7567696e00000000000000000000000081525081526020016040518060400160405280600581526020017f312e302e3000000000000000000000000000000000000000000000000000000081525081526020016001151581526020016040518060200160405280600081525081526020016040518060600160405280603381526020016156e8603391399052614058565b600580546001600160a01b03808a167fffffffffffffffffffffffff00000000000000000000000000000000000000009283161790925560148054928916929091169190911790556125866001866140a3565b6125916002856140a3565b61259c6003846140a3565b6125a76004836140a3565b801561260a57600080547fffffffffffffffffffffffffffffffffffffffffffffffffffffffffffff00ff169055604051600181527f7f26b83ff96e1f2b6a682f133852f6798a09c465da95921460cefb38474024989060200160405180910390a15b50505050505050565b600061261e82610de8565b506000828152600b60209081526040808320600381015460055483517fe75235b8000000000000000000000000000000000000000000000000000000008152935192959491936001600160a01b039091169263e75235b8926004808401939192918290030181865afa158015612698573d6000803e3d6000fd5b505050506040513d601f19601f820116820180604052508101906126bc91906151cf565b600284015491141591506000826126d357816126de565b6126de82600161538a565b905060008167ffffffffffffffff8111156126fb576126fb614835565b60405190808252806020026020018201604052801561274857816020015b604080516060808201835260008083526020830152918101919091528152602001906001900390816127195790505b509050606060005b8481101561299a5763e318b52b60e01b61284888600201838154811061277857612778615312565b6000918252602091829020015460028b01805460408051828602810186019091528181526001600160a01b03909316938301828280156127e157602002820191906000526020600020905b81546001600160a01b031681526001909101906020018083116127c3575b50505050508a60010180548060200260200160405190810160405280929190818152602001828054801561283e57602002820191906000526020600020905b81546001600160a01b03168152600190910190602001808311612820575b505050505061413f565b88600201838154811061285d5761285d615312565b60009182526020909120015460018a0180546001600160a01b03909216918590811061288b5761288b615312565b6000918252602090912001546040516001600160a01b039384166024820152918316604483015291909116606482015260840160408051601f198184030181529190526020810180517bffffffffffffffffffffffffffffffffffffffffffffffffffffffff167fffffffff000000000000000000000000000000000000000000000000000000009093169290921790915260055484519193506001600160a01b03169084908390811061294157612941615312565b6020026020010151600001906001600160a01b031690816001600160a01b0316815250508183828151811061297857612978615312565b602002602001015160400181905250808061299290615370565b915050612750565b508415612aa6576005546001600160a01b0316826129b960018661539d565b815181106129c9576129c9615312565b60209081029190910101516001600160a01b03909116905260038601546040517f694e80c30000000000000000000000000000000000000000000000000000000091612a1b9160240190815260200190565b60408051601f198184030181529190526020810180517bffffffffffffffffffffffffffffffffffffffffffffffffffffffff167fffffffff000000000000000000000000000000000000000000000000000000009093169290921790915282612a8660018661539d565b81518110612a9657612a96615312565b6020026020010151604001819052505b6040805160608101825283815260055482517faffed0e000000000000000000000000000000000000000000000000000000000815292516000936020808501936001600160a01b03169263affed0e09260048082019392918290030181865afa158015612b17573d6000803e3d6000fd5b505050506040513d601f19601f82011682018060405250810190612b3b91906151cf565b612b4690600161538a565b8152600480546020909201919091526014546005546040517f0f9919150000000000000000000000000000000000000000000000000000000081529394506001600160a01b0391821693630f99191593612ba693909216918691016153b0565b6000604051808303816000875af1925050508015612be657506040513d6000823e601f3d908101601f19168201604052612be3919081019061547f565b60015b612c4e573d808015612c14576040519150601f19603f3d011682016040523d82523d6000602084013e612c19565b606091505b50806040517f2e268859000000000000000000000000000000000000000000000000000000008152600401610b6b9190614822565b50504260095550505050600691909101805460ff191660019081179091559392505050565b6005546001600160a01b03163314612ccd5760405162461bcd60e51b815260206004820152600f60248201527f53454e4445525f4e4f545f5341464500000000000000000000000000000000006044820152606401610b6b565b60006011556115d36001613c86565b60055460009081906001600160a01b03163303612d3b5760405162461bcd60e51b815260206004820152600e60248201527f494e56414c49445f53454e4445520000000000000000000000000000000000006044820152606401610b6b565b600160005260076020527fb39221ace053465ec3453ce2b36430bd138b997ecea25c1043da0c366812b8285460ff16612db65760405162461bcd60e51b815260206004820152600b60248201527f4e4f545f454e41424c45440000000000000000000000000000000000000000006044820152606401610b6b565b835160208086019190912060008181527fd421a5181c571bba3f01190c922c3b2a896fc1d84e86c9f17ac10e67ebef8b5c90925260409091205460ff1615612e405760405162461bcd60e51b815260206004820152601060248201527f4455504c4943415445445f50524f4f46000000000000000000000000000000006044820152606401610b6b565b6000612e4d8989896137b8565b6040805160218082526104408201909252919250600091906020820161042080368337019050509050612e8081876142cb565b600160005260086020527fad67d757c34507f157cacfa2e3153e9f260a2244f30428821be7be64587ac55f546040517fea50d0e40000000000000000000000000000000000000000000000000000000081529192506001600160a01b03169063ea50d0e490612ef5908a908590600401615156565b602060405180830381865afa158015612f12573d6000803e3d6000fd5b505050506040513d601f19601f82011682018060405250810190612f3691906151ad565b612f6c576040517fff3ee09d00000000000000000000000000000000000000000000000000000000815260040160405180910390fd5b60008381527fd421a5181c571bba3f01190c922c3b2a896fc1d84e86c9f17ac10e67ebef8b5c60205260409020805460ff19166001908117909155612fb3908b8b85613fa7565b945094505050509550959350505050565b60055460009081906001600160a01b031633036130235760405162461bcd60e51b815260206004820152600e60248201527f494e56414c49445f53454e4445520000000000000000000000000000000000006044820152606401610b6b565b600460005260076020527fb805995a7ec585a251200611a61d179cfd7fb105e1ab17dc415a7336783786f75460ff1661309e5760405162461bcd60e51b815260206004820152600b60248201527f4e4f545f454e41424c45440000000000000000000000000000000000000000006044820152606401610b6b565b845160208087019190912060008181527f5b84bb9e0f5aa9cc45a8bb66468db5d4816d1e75ff86b5e1f1dd8d144dab809790925260409091205460ff16156131285760405162461bcd60e51b815260206004820152601060248201527f4455504c4943415445445f50524f4f46000000000000000000000000000000006044820152606401610b6b565b60006131358a8a8a6137b8565b60408051602380825261048082019092529192506000919060208201610460803683370190505090506000600a54600161316f919061538a565b905061317d8183898b613635565b6004600081905260086020527f9321edea6e3be4df59a344b401fab4f888b556fda1f954244cff9204bad624b8546040517fea50d0e40000000000000000000000000000000000000000000000000000000081529294506001600160a01b03169163ea50d0e4916131f2918d91879101615156565b602060405180830381865afa15801561320f573d6000803e3d6000fd5b505050506040513d601f19601f8201168201806040525081019061323391906151ad565b613269576040517fff3ee09d00000000000000000000000000000000000000000000000000000000815260040160405180910390fd5b60008481527f5b84bb9e0f5aa9cc45a8bb66468db5d4816d1e75ff86b5e1f1dd8d144dab809760205260408120805460ff19166001179055806132af60048f8f88613fa7565b915091506132bd828b613707565b50909d909c509a5050505050505050505050565b60055460009081906001600160a01b031633036133305760405162461bcd60e51b815260206004820152600e60248201527f494e56414c49445f53454e4445520000000000000000000000000000000000006044820152606401610b6b565b600360005260076020527f3be6fd20d5acfde5b873b48692cd31f4d3c7e8ee8a813af4696af8859e5ca6c65460ff166133ab5760405162461bcd60e51b815260206004820152600b60248201527f4e4f545f454e41424c45440000000000000000000000000000000000000000006044820152606401610b6b565b825160208085019190912060008181527fc0da782485e77ae272268ae0a3ff44c1552ecb60b3743924de17a815e0a3cfd790925260409091205460ff16156134355760405162461bcd60e51b815260206004820152601060248201527f4455504c4943415445445f50524f4f46000000000000000000000000000000006044820152606401610b6b565b60006134428888886137b8565b60408051600180825281830190925291925060009190602080830190803683370190505090506010548160008151811061347e5761347e615312565b6020908102919091018101919091526003600052600890527f625b35f5e76f098dd7c3a05b10e2e5e78a4a01228d60c3b143426cdf36d26455546040517fea50d0e40000000000000000000000000000000000000000000000000000000081526001600160a01b039091169063ea50d0e4906135009089908590600401615156565b602060405180830381865afa15801561351d573d6000803e3d6000fd5b505050506040513d601f19601f8201168201806040525081019061354191906151ad565b613577576040517fff3ee09d00000000000000000000000000000000000000000000000000000000815260040160405180910390fd5b60008381527fc0da782485e77ae272268ae0a3ff44c1552ecb60b3743924de17a815e0a3cfd760205260409020805460ff191660011790556135bc60038a8a85613fa7565b9450945050505094509492505050565b6005546001600160a01b031633146136265760405162461bcd60e51b815260206004820152600f60248201527f53454e4445525f4e4f545f5341464500000000000000000000000000000000006044820152606401610b6b565b60006010556115d36003613c86565b60606012548460008151811061364d5761364d615312565b6020026020010181815250508460001b8460018151811061367057613670615312565b602002602001018181525050818460028151811061369057613690615312565b60200260200101818152505060005b60208110156136fd578381815181106136ba576136ba615312565b6020026020010151858260036136d0919061538a565b815181106136e0576136e0615312565b6020908102919091010152806136f581615370565b91505061369f565b5092949350505050565b6000828152600b602090815260408083208484526008810190925282205460ff16156137755760405162461bcd60e51b815260206004820152601160248201527f494e56414c49445f4e554c4c49464945520000000000000000000000000000006044820152606401610b6b565b60008381526008820160205260408120805460ff19166001908117909155600783018054919290916137a890849061538a565b9091555050600701549392505050565b6000825184511461380b5760405162461bcd60e51b815260206004820152600e60248201527f554e455155414c5f4c454e4754480000000000000000000000000000000000006044820152606401610b6b565b600554604080517fa0e67e2b00000000000000000000000000000000000000000000000000000000815290516000926001600160a01b03169163a0e67e2b91600480830192869291908290030181865afa15801561386d573d6000803e3d6000fd5b505050506040513d6000823e601f3d908101601f19168201604052613895919081019061556c565b90508051855111156138e95760405162461bcd60e51b815260206004820152600e60248201527f494e56414c49445f4c454e4754480000000000000000000000000000000000006044820152606401610b6b565b60005b8551811015613b8e5760055486516001600160a01b0390911690632f54bf6e9088908490811061391e5761391e615312565b60200260200101516040518263ffffffff1660e01b815260040161395191906001600160a01b0391909116815260200190565b602060405180830381865afa15801561396e573d6000803e3d6000fd5b505050506040513d601f19601f8201168201806040525081019061399291906151ad565b6139de5760405162461bcd60e51b815260206004820152600960248201527f4e4f545f4f574e455200000000000000000000000000000000000000000000006044820152606401610b6b565b60055485516001600160a01b0390911690632f54bf6e90879084908110613a0757613a07615312565b60200260200101516040518263ffffffff1660e01b8152600401613a3a91906001600160a01b0391909116815260200190565b602060405180830381865afa158015613a57573d6000803e3d6000fd5b505050506040513d601f19601f82011682018060405250810190613a7b91906151ad565b15613ac85760405162461bcd60e51b815260206004820152600d60248201527f414c44524544595f4f574e4552000000000000000000000000000000000000006044820152606401610b6b565b60006001600160a01b0316858281518110613ae557613ae5615312565b60200260200101516001600160a01b031614158015613b30575060016001600160a01b0316858281518110613b1c57613b1c615312565b60200260200101516001600160a01b031614155b613b7c5760405162461bcd60e51b815260206004820152600f60248201527f494e56414c49445f4144445245535300000000000000000000000000000000006044820152606401610b6b565b80613b8681615370565b9150506138ec565b50600554604080517fe75235b800000000000000000000000000000000000000000000000000000000815290516000926001600160a01b03169163e75235b89160048083019260209291908290030181865afa158015613bf2573d6000803e3d6000fd5b505050506040513d601f19601f82011682018060405250810190613c1691906151cf565b90506000818503613c275781613c29565b845b90508083511015613c7c5760405162461bcd60e51b815260206004820152601160248201527f494e56414c49445f5448524553484f4c440000000000000000000000000000006044820152606401610b6b565b9695505050505050565b60008181526007602052604090205460ff16613ce45760405162461bcd60e51b815260206004820152600b60248201527f4e4f545f454e41424c45440000000000000000000000000000000000000000006044820152606401610b6b565b613cef816000614358565b6000908152600760205260409020805460ff19169055565b60008281526007602052604090205460ff1615613d665760405162461bcd60e51b815260206004820152600f60248201527f414c52454144595f454e41424c454400000000000000000000000000000000006044820152606401610b6b565b613d708282614358565b506000908152600760205260409020805460ff19166001179055565b7f4910fdfa16fed3260ed0e7147f7cc6da11a60208b5b9406d12a635614ffd91435460ff1615613dbf576121bc836143ba565b826001600160a01b03166352d1902d6040518163ffffffff1660e01b8152600401602060405180830381865afa925050508015613e19575060408051601f3d908101601f19168201909252613e16918101906151cf565b60015b613e8b5760405162461bcd60e51b815260206004820152602e60248201527f45524331393637557067726164653a206e657720696d706c656d656e7461746960448201527f6f6e206973206e6f7420555550530000000000000000000000000000000000006064820152608401610b6b565b7f360894a13ba1a3210667c828492db98dca3e2076cc3735a920a3ca505d382bbc8114613f205760405162461bcd60e51b815260206004820152602960248201527f45524331393637557067726164653a20756e737570706f727465642070726f7860448201527f6961626c655555494400000000000000000000000000000000000000000000006064820152608401610b6b565b506121bc838383614490565b6040805160208082526104208201909252606091600091908082016104008036833701905050905060005b60208110156120a957838160208110613f7257613f72615312565b835191901a90839083908110613f8a57613f8a615312565b602090810291909101015280613f9f81615370565b915050613f57565b6000806000600a546001613fbb919061538a565b600a8190556000818152600b60209081526040909120805460ff191660ff8b16178155885192935091613ff6916002840191908a01906146fe565b50855161400c90600183019060208901906146fe565b506003810185905560ff8816600090815260066020526040902054614031904261538a565b600582018190554260048301556006909101805460ff191690559097909650945050505050565b6004547f522c683f99251eea7f3b027592e92a5398e7582983be1f7c0f33715ce025740f614085836144b5565b6040516140929190614822565b60405180910390a26118c58161451c565b6001600160a01b0381166140f95760405162461bcd60e51b815260206004820152601860248201527f494e56414c49445f56455249464945525f4144445245535300000000000000006044820152606401610b6b565b60009182526008602052604090912080547fffffffffffffffffffffffff0000000000000000000000000000000000000000166001600160a01b03909216919091179055565b600080600560009054906101000a90046001600160a01b03166001600160a01b031663a0e67e2b6040518163ffffffff1660e01b8152600401600060405180830381865afa158015614195573d6000803e3d6000fd5b505050506040513d6000823e601f3d908101601f191682016040526141bd919081019061556c565b90506000805b825181101561421857866001600160a01b03168382815181106141e8576141e8615312565b60200260200101516001600160a01b03160361420657809150614218565b8061421081615370565b9150506141c3565b506000811561424a578261422d60018461539d565b8151811061423d5761423d615312565b602002602001015161424d565b60015b905060005b86518110156142c057816001600160a01b031687828151811061427757614277615312565b60200260200101516001600160a01b0316036142ae5785818151811061429f5761429f615312565b602002602001015191506142c0565b806142b881615370565b915050614252565b509695505050505050565b6060601154836000815181106142e3576142e3615312565b60200260200101818152505060005b60208110156143505782818151811061430d5761430d615312565b602002602001015184826001614323919061538a565b8151811061433357614333615312565b60209081029190910101528061434881615370565b9150506142f2565b509192915050565b806000036143a85760405162461bcd60e51b815260206004820152600d60248201527f54494d454c4f434b5f5a45524f000000000000000000000000000000000000006044820152606401610b6b565b60009182526006602052604090912055565b6001600160a01b0381163b6144375760405162461bcd60e51b815260206004820152602d60248201527f455243313936373a206e657720696d706c656d656e746174696f6e206973206e60448201527f6f74206120636f6e7472616374000000000000000000000000000000000000006064820152608401610b6b565b7f360894a13ba1a3210667c828492db98dca3e2076cc3735a920a3ca505d382bbc80547fffffffffffffffffffffffff0000000000000000000000000000000000000000166001600160a01b0392909216919091179055565b6144998361456c565b6000825111806144a65750805b156121bc5761172e83836145ac565b6060600080836000015184602001518560400151866060015187608001516040516020016144e7959493929190615606565b60408051601f1981840301815290829052614506939291602001615667565b6040516020818303038152906040529050919050565b805160019061452b9082615236565b50602081015160029061453e9082615236565b5060408101516003805460ff191691151591909117905561455e816144b5565b805160209091012060045550565b614575816143ba565b6040516001600160a01b038216907fbc7cd75a20ee27fd9adebab32041f755214dbc6bffa90cc0225b39da2e5c2d3b90600090a250565b60606145d183836040518060600160405280602781526020016156c1602791396145d8565b9392505050565b6060600080856001600160a01b0316856040516145f591906152f6565b600060405180830381855af49150503d8060008114614630576040519150601f19603f3d011682016040523d82523d6000602084013e614635565b606091505b5091509150613c7c86838387606083156146b05782516000036146a9576001600160a01b0385163b6146a95760405162461bcd60e51b815260206004820152601d60248201527f416464726573733a2063616c6c20746f206e6f6e2d636f6e74726163740000006044820152606401610b6b565b5081610de0565b610de083838151156146c55781518083602001fd5b8060405162461bcd60e51b8152600401610b6b9190614822565b6040518061040001604052806020906020820280368337509192915050565b82805482825590600052602060002090810192821561476b579160200282015b8281111561476b57825182547fffffffffffffffffffffffff0000000000000000000000000000000000000000166001600160a01b0390911617825560209092019160019091019061471e565b5061477792915061477b565b5090565b5b80821115614777576000815560010161477c565b6000602082840312156147a257600080fd5b81357fffffffff00000000000000000000000000000000000000000000000000000000811681146145d157600080fd5b60005b838110156147ed5781810151838201526020016147d5565b50506000910152565b6000815180845261480e8160208601602086016147d2565b601f01601f19169290920160200192915050565b6020815260006145d160208301846147f6565b7f4e487b7100000000000000000000000000000000000000000000000000000000600052604160045260246000fd5b604051601f8201601f1916810167ffffffffffffffff8111828210171561488d5761488d614835565b604052919050565b600067ffffffffffffffff8211156148af576148af614835565b50601f01601f191660200190565b60006148d06148cb84614895565b614864565b90508281528383830111156148e457600080fd5b828260208301376000602084830101529392505050565b600082601f83011261490c57600080fd5b6145d1838335602085016148bd565b600067ffffffffffffffff82111561493557614935614835565b5060051b60200190565b600082601f83011261495057600080fd5b813560206149606148cb8361491b565b82815260059290921b8401810191818101908684111561497f57600080fd5b8286015b848110156142c05780358352918301918301614983565b600080600080608085870312156149b057600080fd5b84359350602085013567ffffffffffffffff808211156149cf57600080fd5b6149db888389016148fb565b94506040870135935060608701359150808211156149f857600080fd5b50614a058782880161493f565b91505092959194509250565b600060208284031215614a2357600080fd5b5035919050565b600081518084526020808501945080840160005b83811015614a635781516001600160a01b031687529582019590820190600101614a3e565b509495945050505050565b7f4e487b7100000000000000000000000000000000000000000000000000000000600052602160045260246000fd5b60038110614ad4577f4e487b7100000000000000000000000000000000000000000000000000000000600052602160045260246000fd5b9052565b600061010060ff8b168352806020840152614af58184018b614a2a565b90508281036040840152614b09818a614a2a565b9150508660608301528560808301528460a0830152614b2b60c0830185614a9d565b8260e08301529998505050505050505050565b600060208284031215614b5057600080fd5b813567ffffffffffffffff811115614b6757600080fd5b610de0848285016148fb565b600060c08201905060ff88168252866020830152856040830152846060830152614ba06080830185614a9d565b8260a0830152979650505050505050565b60008060008060808587031215614bc757600080fd5b843593506020850135925060408501359150606085013567ffffffffffffffff811115614bf357600080fd5b8501601f81018713614c0457600080fd5b614a05878235602084016148bd565b6001600160a01b03811681146118c557600080fd5b600060208284031215614c3a57600080fd5b81356145d181614c13565b6020815260006145d16020830184614a2a565b60008060408385031215614c6b57600080fd5b8235614c7681614c13565b9150602083013567ffffffffffffffff811115614c9257600080fd5b614c9e858286016148fb565b9150509250929050565b600082601f830112614cb957600080fd5b81356020614cc96148cb8361491b565b82815260059290921b84018101918181019086841115614ce857600080fd5b8286015b848110156142c0578035614cff81614c13565b8352918301918301614cec565b600080600080600060a08688031215614d2457600080fd5b853567ffffffffffffffff80821115614d3c57600080fd5b614d4889838a01614ca8565b96506020880135915080821115614d5e57600080fd5b614d6a89838a01614ca8565b9550604088013594506060880135915080821115614d8757600080fd5b614d9389838a016148fb565b93506080880135915080821115614da957600080fd5b50614db6888289016148fb565b9150509295509295909350565b60008060408385031215614dd657600080fd5b50508035926020909101359150565b6104008101818360005b6020808210614dfe5750614e12565b825184529283019290910190600101614def565b50505092915050565b600080600060608486031215614e3057600080fd5b505081359360208301359350604090920135919050565b60008060008060008060c08789031215614e6057600080fd5b8635614e6b81614c13565b95506020870135614e7b81614c13565b94506040870135614e8b81614c13565b93506060870135614e9b81614c13565b92506080870135614eab81614c13565b915060a0870135614ebb81614c13565b809150509295509295509295565b60008060408385031215614edc57600080fd5b823560ff81168114614eed57600080fd5b946020939093013593505050565b828152604060208201526000610de060408301846147f6565b600080600080600060a08688031215614f2c57600080fd5b853567ffffffffffffffff80821115614f4457600080fd5b614f5089838a01614ca8565b96506020880135915080821115614f6657600080fd5b614f7289838a01614ca8565b9550604088013594506060880135915080821115614f8f57600080fd5b614f9b89838a016148fb565b93506080880135915080821115614fb157600080fd5b50614db68882890161493f565b60008060008060008060c08789031215614fd757600080fd5b863567ffffffffffffffff80821115614fef57600080fd5b614ffb8a838b01614ca8565b9750602089013591508082111561501157600080fd5b61501d8a838b01614ca8565b965060408901359550606089013591508082111561503a57600080fd5b6150468a838b016148fb565b94506080890135935060a089013591508082111561506357600080fd5b5061507089828a0161493f565b9150509295509295509295565b6000806000806080858703121561509357600080fd5b843567ffffffffffffffff808211156150ab57600080fd5b6150b788838901614ca8565b955060208701359150808211156150cd57600080fd5b6150d988838901614ca8565b94506040870135935060608701359150808211156150f657600080fd5b50614a05878288016148fb565b600181811c9082168061511757607f821691505b602082108103615150577f4e487b7100000000000000000000000000000000000000000000000000000000600052602260045260246000fd5b50919050565b60408152600061516960408301856147f6565b82810360208481019190915284518083528582019282019060005b818110156151a057845183529383019391830191600101615184565b5090979650505050505050565b6000602082840312156151bf57600080fd5b815180151581146145d157600080fd5b6000602082840312156151e157600080fd5b5051919050565b601f8211156121bc57600081815260208120601f850160051c8101602086101561520f5750805b601f850160051c820191505b8181101561522e5782815560010161521b565b505050505050565b815167ffffffffffffffff81111561525057615250614835565b6152648161525e8454615103565b846151e8565b602080601f83116001811461529957600084156152815750858301515b600019600386901b1c1916600185901b17855561522e565b600085815260208120601f198616915b828110156152c8578886015182559484019460019091019084016152a9565b50858210156152e65787850151600019600388901b60f8161c191681555b5050505050600190811b01905550565b600082516153088184602087016147d2565b9190910192915050565b7f4e487b7100000000000000000000000000000000000000000000000000000000600052603260045260246000fd5b7f4e487b7100000000000000000000000000000000000000000000000000000000600052601160045260246000fd5b6000600019820361538357615383615341565b5060010190565b80820180821115610a7e57610a7e615341565b81810381811115610a7e57610a7e615341565b600060406001600160a01b0380861684526020828186015260a0850186516060808689015282825180855260c08a01915060c08160051b8b01019450858401935060005b8181101561545b578a86037fffffffffffffffffffffffffffffffffffffffffffffffffffffffffffffff4001835284518051891687528781015188880152890151898701859052615448858801826147f6565b96505093860193918601916001016153f4565b50505083890151818901525050838701516080870152809450505050509392505050565b6000602080838503121561549257600080fd5b825167ffffffffffffffff808211156154aa57600080fd5b818501915085601f8301126154be57600080fd5b81516154cc6148cb8261491b565b81815260059190911b830184019084810190888311156154eb57600080fd5b8585015b8381101561555f578051858111156155075760008081fd5b8601603f81018b136155195760008081fd5b87810151604061552b6148cb83614895565b8281528d828486010111156155405760008081fd5b61554f838c83018487016147d2565b86525050509186019186016154ef565b5098975050505050505050565b6000602080838503121561557f57600080fd5b825167ffffffffffffffff81111561559657600080fd5b8301601f810185136155a757600080fd5b80516155b56148cb8261491b565b81815260059190911b820183019083810190878311156155d457600080fd5b928401925b828410156155fb5783516155ec81614c13565b825292840192908401906155d9565b979650505050505050565b60a08152600061561960a08301886147f6565b828103602084015261562b81886147f6565b90508515156040840152828103606084015261564781866147f6565b9050828103608084015261565b81856147f6565b98975050505050505050565b60007fff00000000000000000000000000000000000000000000000000000000000000808660f81b168352808560f81b1660018401525082516156b18160028501602087016147d2565b9190910160020194935050505056fe416464726573733a206c6f772d6c6576656c2064656c65676174652063616c6c206661696c656468747470733a2f2f6769746875622e636f6d2f706f72636f2d726f73736f2d6a2f736166652d7265636f766572792d6e6f6972a26469706673582212207b62d2182610c032bed43a8bbff4b321da20c7ee999997a9e31a33d810b3f5be64736f6c63430008140033",
    "linkReferences": {
      "src/helper/WebAuthnHelper.sol": {
        "WebAuthnHelper": [
          {
            "start": 5419,
            "length": 20
          }
        ]
      }
    }
  },
  "methodIdentifiers": {
    "MIN_TIMELOCK()": "fb0c7549",
    "_computeMessage(bytes)": "2da4e420",
    "_convertBytes32ToBytes32Array(bytes32)": "67a277a4",
    "addEcrecoverRecover(uint256,bytes32)": "665caab7",
    "addSecretRecover(uint256,bytes32)": "57a60326",
    "addSocialRecover(uint256,uint256,bytes32)": "7d9e0141",
    "addWebAuthnRecover(uint256,bytes32,bytes32,string)": "31895767",
    "approvalThreshold()": "7d0eef61",
    "approveSocialRecovery(uint256,bytes,bytes32,bytes32[])": "1788430b",
    "credentialId()": "a3c0f0b7",
    "execRecovery(uint256)": "cdb44775",
    "getIsMethodEnabled(uint256)": "ac96c5fd",
    "getIsRecoveryExecutable(uint256)": "2152ab1b",
    "getPendingNewOwners(uint256)": "4969ca3f",
    "getPubkeyXY()": "d83dfc26",
    "getRecoveryByProposalId(uint256)": "23a6c20e",
    "guardiansRoot()": "5695f292",
    "hashed_address()": "87dee39f",
    "hashed_secret()": "2abcb3d8",
    "initialize(address,address,address,address,address,address)": "cc2a9a5b",
    "isMethodEnabled(uint256)": "7f4efa48",
    "lastExecutionTimestamp()": "358d1fc6",
    "metadataHash()": "c5a1d7f0",
    "metadataProvider()": "d3d72d2a",
    "name()": "06fdde03",
    "proposalCount()": "da35c664",
    "proposeEcrecoverRecover(address[],address[],uint256,bytes,bytes32[])": "e6e1247e",
    "proposeSecretRecover(address[],address[],uint256,bytes)": "f3d3f549",
    "proposeSocialRecover(address[],address[],uint256,bytes,bytes32,bytes32[])": "ec33ddb7",
    "proposeWebAuthnRecover(address[],address[],uint256,bytes,bytes)": "51a2f17a",
    "proxiableUUID()": "52d1902d",
    "pubkey_x()": "652b098a",
    "pubkey_y()": "cd0a16a8",
    "recoveryNullifiers(uint8,bytes32)": "cd0ad3c1",
    "recoveryProposals(uint256)": "2f175e5d",
    "recoveryTimelocks(uint256)": "d0b3ca9e",
    "rejectRecovery(uint256)": "9a8f18f3",
    "removeEcrecoverRecover()": "dada7ca2",
    "removeSecretRecover()": "f5120d62",
    "removeSocialRecover()": "b3810340",
    "removeWebAuthnRecover()": "2e56f60d",
    "requiresPermissions()": "e8e755b5",
    "requiresRootAccess()": "be193d27",
    "safe()": "186f0354",
    "safeProtocolManager()": "8e482341",
    "supportsInterface(bytes4)": "01ffc9a7",
    "upgradeTo(address)": "3659cfe6",
    "upgradeToAndCall(address,bytes)": "4f1ef286",
    "verifiers(uint256)": "ac1eff68",
    "version()": "54fd4d50"
  },
  "id": 83
}