{
  "abi": [
    {
      "inputs": [],
      "name": "PROOF_VERIFICATION_FAILED",
      "type": "error"
    },
    {
      "inputs": [
        {
          "internalType": "bytes",
          "name": "reason",
          "type": "bytes"
        }
      ],
      "name": "RECOVER_FAILED",
      "type": "error"
    },
    {
      "anonymous": false,
      "inputs": [
        {
          "indexed": false,
          "internalType": "address",
          "name": "previousAdmin",
          "type": "address"
        },
        {
          "indexed": false,
          "internalType": "address",
          "name": "newAdmin",
          "type": "address"
        }
      ],
      "name": "AdminChanged",
      "type": "event"
    },
    {
      "anonymous": false,
      "inputs": [
        {
          "indexed": true,
          "internalType": "address",
          "name": "beacon",
          "type": "address"
        }
      ],
      "name": "BeaconUpgraded",
      "type": "event"
    },
    {
      "anonymous": false,
      "inputs": [
        {
          "indexed": false,
          "internalType": "uint8",
          "name": "version",
          "type": "uint8"
        }
      ],
      "name": "Initialized",
      "type": "event"
    },
    {
      "anonymous": false,
      "inputs": [
        {
          "indexed": true,
          "internalType": "bytes32",
          "name": "metadataHash",
          "type": "bytes32"
        },
        {
          "indexed": false,
          "internalType": "bytes",
          "name": "data",
          "type": "bytes"
        }
      ],
      "name": "Metadata",
      "type": "event"
    },
    {
      "anonymous": false,
      "inputs": [
        {
          "indexed": true,
          "internalType": "address",
          "name": "implementation",
          "type": "address"
        }
      ],
      "name": "Upgraded",
      "type": "event"
    },
    {
      "inputs": [],
      "name": "MIN_TIMELOCK",
      "outputs": [
        {
          "internalType": "uint256",
          "name": "",
          "type": "uint256"
        }
      ],
      "stateMutability": "view",
      "type": "function"
    },
    {
      "inputs": [
        {
          "internalType": "bytes",
          "name": "_webAuthnInputs",
          "type": "bytes"
        }
      ],
      "name": "_computeMessage",
      "outputs": [
        {
          "internalType": "bytes32",
          "name": "",
          "type": "bytes32"
        }
      ],
      "stateMutability": "pure",
      "type": "function"
    },
    {
      "inputs": [
        {
          "internalType": "bytes32",
          "name": "value",
          "type": "bytes32"
        }
      ],
      "name": "_convertBytes32ToBytes32Array",
      "outputs": [
        {
          "internalType": "bytes32[32]",
          "name": "",
          "type": "bytes32[32]"
        }
      ],
      "stateMutability": "pure",
      "type": "function"
    },
    {
      "inputs": [
        {
          "internalType": "uint256",
          "name": "_recoveryTimeLock",
          "type": "uint256"
        },
        {
          "internalType": "bytes32",
          "name": "_hashed_address",
          "type": "bytes32"
        }
      ],
      "name": "addEcrecoverRecover",
      "outputs": [],
      "stateMutability": "nonpayable",
      "type": "function"
    },
    {
      "inputs": [
        {
          "internalType": "uint256",
          "name": "_recoveryTimeLock",
          "type": "uint256"
        },
        {
          "internalType": "bytes32",
          "name": "_hashed_secret",
          "type": "bytes32"
        }
      ],
      "name": "addSecretRecover",
      "outputs": [],
      "stateMutability": "nonpayable",
      "type": "function"
    },
    {
      "inputs": [
        {
          "internalType": "uint256",
          "name": "_recoveryTimeLock",
          "type": "uint256"
        },
        {
          "internalType": "uint256",
          "name": "_threshold",
          "type": "uint256"
        },
        {
          "internalType": "bytes32",
          "name": "_guardiansRoot",
          "type": "bytes32"
        }
      ],
      "name": "addSocialRecover",
      "outputs": [],
      "stateMutability": "nonpayable",
      "type": "function"
    },
    {
      "inputs": [
        {
          "internalType": "uint256",
          "name": "_recoveryTimeLock",
          "type": "uint256"
        },
        {
          "internalType": "bytes32",
          "name": "_pubkey_x",
          "type": "bytes32"
        },
        {
          "internalType": "bytes32",
          "name": "_pubkey_y",
          "type": "bytes32"
        },
        {
          "internalType": "string",
          "name": "_credentialId",
          "type": "string"
        }
      ],
      "name": "addWebAuthnRecover",
      "outputs": [],
      "stateMutability": "nonpayable",
      "type": "function"
    },
    {
      "inputs": [
        {
          "internalType": "uint256",
          "name": "_proposalId",
          "type": "uint256"
        },
        {
          "internalType": "bytes",
          "name": "_proof",
          "type": "bytes"
        },
        {
          "internalType": "bytes32",
          "name": "nullifierHash",
          "type": "bytes32"
        },
        {
          "internalType": "bytes32[]",
          "name": "_message",
          "type": "bytes32[]"
        }
      ],
      "name": "approveSocialRecovery",
      "outputs": [
        {
          "internalType": "uint256",
          "name": "",
          "type": "uint256"
        }
      ],
      "stateMutability": "nonpayable",
      "type": "function"
    },
    {
      "inputs": [],
      "name": "credentialId",
      "outputs": [
        {
          "internalType": "string",
          "name": "",
          "type": "string"
        }
      ],
      "stateMutability": "view",
      "type": "function"
    },
    {
      "inputs": [],
      "name": "ecrecoverVerifier",
      "outputs": [
        {
          "internalType": "address",
          "name": "",
          "type": "address"
        }
      ],
      "stateMutability": "view",
      "type": "function"
    },
    {
      "inputs": [
        {
          "internalType": "uint256",
          "name": "_proposalId",
          "type": "uint256"
        }
      ],
      "name": "execRecovery",
      "outputs": [
        {
          "internalType": "bool",
          "name": "",
          "type": "bool"
        }
      ],
      "stateMutability": "nonpayable",
      "type": "function"
    },
    {
      "inputs": [
        {
          "internalType": "uint256",
          "name": "_proposalId",
          "type": "uint256"
        }
      ],
      "name": "getIsRecoveryExecutable",
      "outputs": [
        {
          "internalType": "bool",
          "name": "",
          "type": "bool"
        }
      ],
      "stateMutability": "view",
      "type": "function"
    },
    {
      "inputs": [
        {
          "internalType": "uint256",
          "name": "_proposalId",
          "type": "uint256"
        }
      ],
      "name": "getPendingNewOwners",
      "outputs": [
        {
          "internalType": "address[]",
          "name": "",
          "type": "address[]"
        }
      ],
      "stateMutability": "view",
      "type": "function"
    },
    {
      "inputs": [],
      "name": "getPubkeyXY",
      "outputs": [
        {
          "internalType": "bytes32",
          "name": "",
          "type": "bytes32"
        },
        {
          "internalType": "bytes32",
          "name": "",
          "type": "bytes32"
        }
      ],
      "stateMutability": "view",
      "type": "function"
    },
    {
      "inputs": [
        {
          "internalType": "uint256",
          "name": "_proposalId",
          "type": "uint256"
        }
      ],
      "name": "getRecoveryByProposalId",
      "outputs": [
        {
          "internalType": "uint8",
          "name": "",
          "type": "uint8"
        },
        {
          "internalType": "address[]",
          "name": "",
          "type": "address[]"
        },
        {
          "internalType": "address[]",
          "name": "",
          "type": "address[]"
        },
        {
          "internalType": "uint256",
          "name": "",
          "type": "uint256"
        },
        {
          "internalType": "uint256",
          "name": "",
          "type": "uint256"
        },
        {
          "internalType": "uint256",
          "name": "",
          "type": "uint256"
        },
        {
          "internalType": "bool",
          "name": "",
          "type": "bool"
        },
        {
          "internalType": "uint256",
          "name": "",
          "type": "uint256"
        }
      ],
      "stateMutability": "view",
      "type": "function"
    },
    {
      "inputs": [],
      "name": "guardiansRoot",
      "outputs": [
        {
          "internalType": "bytes32",
          "name": "",
          "type": "bytes32"
        }
      ],
      "stateMutability": "view",
      "type": "function"
    },
    {
      "inputs": [],
      "name": "hashed_address",
      "outputs": [
        {
          "internalType": "bytes32",
          "name": "",
          "type": "bytes32"
        }
      ],
      "stateMutability": "view",
      "type": "function"
    },
    {
      "inputs": [],
      "name": "hashed_secret",
      "outputs": [
        {
          "internalType": "bytes32",
          "name": "",
          "type": "bytes32"
        }
      ],
      "stateMutability": "view",
      "type": "function"
    },
    {
      "inputs": [
        {
          "internalType": "address",
          "name": "_safe",
          "type": "address"
        },
        {
          "internalType": "address",
          "name": "_safeProtocolManager",
          "type": "address"
        },
        {
          "internalType": "address",
          "name": "_ecrecoverVerifier",
          "type": "address"
        },
        {
          "internalType": "address",
          "name": "_webAuthnVerifier",
          "type": "address"
        },
        {
          "internalType": "address",
          "name": "_secretVerifier",
          "type": "address"
        },
        {
          "internalType": "address",
          "name": "_socialRecoverVerifier",
          "type": "address"
        }
      ],
      "name": "initialize",
      "outputs": [],
      "stateMutability": "nonpayable",
      "type": "function"
    },
    {
      "inputs": [],
      "name": "isEcrecoverRecoverEnabled",
      "outputs": [
        {
          "internalType": "bool",
          "name": "",
          "type": "bool"
        }
      ],
      "stateMutability": "view",
      "type": "function"
    },
    {
      "inputs": [],
      "name": "isSecretRecoverEnabled",
      "outputs": [
        {
          "internalType": "bool",
          "name": "",
          "type": "bool"
        }
      ],
      "stateMutability": "view",
      "type": "function"
    },
    {
      "inputs": [],
      "name": "isSocialRecoverEnabled",
      "outputs": [
        {
          "internalType": "bool",
          "name": "",
          "type": "bool"
        }
      ],
      "stateMutability": "view",
      "type": "function"
    },
    {
      "inputs": [],
      "name": "isWebAuthnRecoverEnabled",
      "outputs": [
        {
          "internalType": "bool",
          "name": "",
          "type": "bool"
        }
      ],
      "stateMutability": "view",
      "type": "function"
    },
    {
      "inputs": [],
      "name": "lastExecutionTimestamp",
      "outputs": [
        {
          "internalType": "uint256",
          "name": "",
          "type": "uint256"
        }
      ],
      "stateMutability": "view",
      "type": "function"
    },
    {
      "inputs": [],
      "name": "metadataHash",
      "outputs": [
        {
          "internalType": "bytes32",
          "name": "",
          "type": "bytes32"
        }
      ],
      "stateMutability": "view",
      "type": "function"
    },
    {
      "inputs": [],
      "name": "metadataProvider",
      "outputs": [
        {
          "internalType": "uint256",
          "name": "providerType",
          "type": "uint256"
        },
        {
          "internalType": "bytes",
          "name": "location",
          "type": "bytes"
        }
      ],
      "stateMutability": "view",
      "type": "function"
    },
    {
      "inputs": [],
      "name": "name",
      "outputs": [
        {
          "internalType": "string",
          "name": "",
          "type": "string"
        }
      ],
      "stateMutability": "view",
      "type": "function"
    },
    {
      "inputs": [
        {
          "internalType": "address[]",
          "name": "_oldAddresses",
          "type": "address[]"
        },
        {
          "internalType": "address[]",
          "name": "_newAddresses",
          "type": "address[]"
        },
        {
          "internalType": "uint256",
          "name": "_newThreshold",
          "type": "uint256"
        },
        {
          "internalType": "bytes",
          "name": "_proof",
          "type": "bytes"
        },
        {
          "internalType": "bytes32[]",
          "name": "_message",
          "type": "bytes32[]"
        }
      ],
      "name": "proposeEcrecoverRecover",
      "outputs": [
        {
          "internalType": "uint256",
          "name": "",
          "type": "uint256"
        },
        {
          "internalType": "uint256",
          "name": "",
          "type": "uint256"
        }
      ],
      "stateMutability": "nonpayable",
      "type": "function"
    },
    {
      "inputs": [
        {
          "internalType": "address[]",
          "name": "_oldAddresses",
          "type": "address[]"
        },
        {
          "internalType": "address[]",
          "name": "_newAddresses",
          "type": "address[]"
        },
        {
          "internalType": "uint256",
          "name": "_newThreshold",
          "type": "uint256"
        },
        {
          "internalType": "bytes",
          "name": "_proof",
          "type": "bytes"
        }
      ],
      "name": "proposeSecretRecover",
      "outputs": [
        {
          "internalType": "uint256",
          "name": "",
          "type": "uint256"
        },
        {
          "internalType": "uint256",
          "name": "",
          "type": "uint256"
        }
      ],
      "stateMutability": "nonpayable",
      "type": "function"
    },
    {
      "inputs": [
        {
          "internalType": "address[]",
          "name": "_oldAddresses",
          "type": "address[]"
        },
        {
          "internalType": "address[]",
          "name": "_newAddresses",
          "type": "address[]"
        },
        {
          "internalType": "uint256",
          "name": "_newThreshold",
          "type": "uint256"
        },
        {
          "internalType": "bytes",
          "name": "_proof",
          "type": "bytes"
        },
        {
          "internalType": "bytes32",
          "name": "_nullifierHash",
          "type": "bytes32"
        },
        {
          "internalType": "bytes32[]",
          "name": "_message",
          "type": "bytes32[]"
        }
      ],
      "name": "proposeSocialRecover",
      "outputs": [
        {
          "internalType": "uint256",
          "name": "",
          "type": "uint256"
        },
        {
          "internalType": "uint256",
          "name": "",
          "type": "uint256"
        }
      ],
      "stateMutability": "nonpayable",
      "type": "function"
    },
    {
      "inputs": [
        {
          "internalType": "address[]",
          "name": "_oldAddresses",
          "type": "address[]"
        },
        {
          "internalType": "address[]",
          "name": "_newAddresses",
          "type": "address[]"
        },
        {
          "internalType": "uint256",
          "name": "_newThreshold",
          "type": "uint256"
        },
        {
          "internalType": "bytes",
          "name": "_proof",
          "type": "bytes"
        },
        {
          "internalType": "bytes",
          "name": "_webAuthnInputs",
          "type": "bytes"
        }
      ],
      "name": "proposeWebAuthnRecover",
      "outputs": [
        {
          "internalType": "uint256",
          "name": "",
          "type": "uint256"
        },
        {
          "internalType": "uint256",
          "name": "",
          "type": "uint256"
        }
      ],
      "stateMutability": "nonpayable",
      "type": "function"
    },
    {
      "inputs": [],
      "name": "proxiableUUID",
      "outputs": [
        {
          "internalType": "bytes32",
          "name": "",
          "type": "bytes32"
        }
      ],
      "stateMutability": "view",
      "type": "function"
    },
    {
      "inputs": [],
      "name": "pubkey_x",
      "outputs": [
        {
          "internalType": "bytes32",
          "name": "",
          "type": "bytes32"
        }
      ],
      "stateMutability": "view",
      "type": "function"
    },
    {
      "inputs": [],
      "name": "pubkey_y",
      "outputs": [
        {
          "internalType": "bytes32",
          "name": "",
          "type": "bytes32"
        }
      ],
      "stateMutability": "view",
      "type": "function"
    },
    {
      "inputs": [
        {
          "internalType": "uint256",
          "name": "",
          "type": "uint256"
        }
      ],
      "name": "recoveries",
      "outputs": [
        {
          "internalType": "uint8",
          "name": "recoveryType",
          "type": "uint8"
        },
        {
          "internalType": "uint256",
          "name": "newThreshold",
          "type": "uint256"
        },
        {
          "internalType": "uint256",
          "name": "proposedTimestamp",
          "type": "uint256"
        },
        {
          "internalType": "uint256",
          "name": "deadline",
          "type": "uint256"
        },
        {
          "internalType": "bool",
          "name": "rejected",
          "type": "bool"
        },
        {
          "internalType": "uint256",
          "name": "approvalCount",
          "type": "uint256"
        }
      ],
      "stateMutability": "view",
      "type": "function"
    },
    {
      "inputs": [],
      "name": "recoveryCount",
      "outputs": [
        {
          "internalType": "uint256",
          "name": "",
          "type": "uint256"
        }
      ],
      "stateMutability": "view",
      "type": "function"
    },
    {
      "inputs": [
        {
          "internalType": "uint8",
          "name": "",
          "type": "uint8"
        },
        {
          "internalType": "bytes32",
          "name": "",
          "type": "bytes32"
        }
      ],
      "name": "recoveryNullifiers",
      "outputs": [
        {
          "internalType": "bool",
          "name": "",
          "type": "bool"
        }
      ],
      "stateMutability": "view",
      "type": "function"
    },
    {
      "inputs": [],
      "name": "recoveryTimeLock",
      "outputs": [
        {
          "internalType": "uint256",
          "name": "",
          "type": "uint256"
        }
      ],
      "stateMutability": "view",
      "type": "function"
    },
    {
      "inputs": [
        {
          "internalType": "uint256",
          "name": "_proposalId",
          "type": "uint256"
        }
      ],
      "name": "rejectRecovery",
      "outputs": [],
      "stateMutability": "nonpayable",
      "type": "function"
    },
    {
      "inputs": [],
      "name": "removeEcrecoverRecover",
      "outputs": [],
      "stateMutability": "nonpayable",
      "type": "function"
    },
    {
      "inputs": [],
      "name": "removeSecretRecover",
      "outputs": [],
      "stateMutability": "nonpayable",
      "type": "function"
    },
    {
      "inputs": [],
      "name": "removeSocialRecover",
      "outputs": [],
      "stateMutability": "nonpayable",
      "type": "function"
    },
    {
      "inputs": [],
      "name": "removeWebAuthnRecover",
      "outputs": [],
      "stateMutability": "nonpayable",
      "type": "function"
    },
    {
      "inputs": [],
      "name": "requiresPermissions",
      "outputs": [
        {
          "internalType": "uint8",
          "name": "permissions",
          "type": "uint8"
        }
      ],
      "stateMutability": "view",
      "type": "function"
    },
    {
      "inputs": [],
      "name": "requiresRootAccess",
      "outputs": [
        {
          "internalType": "bool",
          "name": "",
          "type": "bool"
        }
      ],
      "stateMutability": "view",
      "type": "function"
    },
    {
      "inputs": [],
      "name": "safe",
      "outputs": [
        {
          "internalType": "address",
          "name": "",
          "type": "address"
        }
      ],
      "stateMutability": "view",
      "type": "function"
    },
    {
      "inputs": [],
      "name": "safeProtocolManager",
      "outputs": [
        {
          "internalType": "contract ISafeProtocolManager",
          "name": "",
          "type": "address"
        }
      ],
      "stateMutability": "view",
      "type": "function"
    },
    {
      "inputs": [],
      "name": "secretVerifier",
      "outputs": [
        {
          "internalType": "address",
          "name": "",
          "type": "address"
        }
      ],
      "stateMutability": "view",
      "type": "function"
    },
    {
      "inputs": [],
      "name": "socialRecoverVerifier",
      "outputs": [
        {
          "internalType": "address",
          "name": "",
          "type": "address"
        }
      ],
      "stateMutability": "view",
      "type": "function"
    },
    {
      "inputs": [
        {
          "internalType": "bytes4",
          "name": "interfaceId",
          "type": "bytes4"
        }
      ],
      "name": "supportsInterface",
      "outputs": [
        {
          "internalType": "bool",
          "name": "",
          "type": "bool"
        }
      ],
      "stateMutability": "view",
      "type": "function"
    },
    {
      "inputs": [],
      "name": "threshold",
      "outputs": [
        {
          "internalType": "uint256",
          "name": "",
          "type": "uint256"
        }
      ],
      "stateMutability": "view",
      "type": "function"
    },
    {
      "inputs": [
        {
          "internalType": "address",
          "name": "newImplementation",
          "type": "address"
        }
      ],
      "name": "upgradeTo",
      "outputs": [],
      "stateMutability": "nonpayable",
      "type": "function"
    },
    {
      "inputs": [
        {
          "internalType": "address",
          "name": "newImplementation",
          "type": "address"
        },
        {
          "internalType": "bytes",
          "name": "data",
          "type": "bytes"
        }
      ],
      "name": "upgradeToAndCall",
      "outputs": [],
      "stateMutability": "payable",
      "type": "function"
    },
    {
      "inputs": [],
      "name": "version",
      "outputs": [
        {
          "internalType": "string",
          "name": "",
          "type": "string"
        }
      ],
      "stateMutability": "view",
      "type": "function"
    },
    {
      "inputs": [],
      "name": "webAuthnVerifier",
      "outputs": [
        {
          "internalType": "address",
          "name": "",
          "type": "address"
        }
      ],
      "stateMutability": "view",
      "type": "function"
    }
  ],
  "bytecode": {
    "object": "0x60a06040523060805234801561001457600080fd5b50608051614fed61004c60003960008181611537015281816115cd0152818161179d015281816118330152611b0e0152614fed6000f3fe6080604052600436106103605760003560e01c806367a277a4116101c6578063cd0a16a8116100f7578063e6e1247e11610095578063ec33ddb71161006f578063ec33ddb714610a30578063f3d3f54914610a50578063f5120d6214610a70578063fb0c754914610a8557600080fd5b8063e6e1247e146109d3578063e6f352c9146109f3578063e8e755b514610a1457600080fd5b8063d3d72d2a116100d1578063d3d72d2a14610941578063d83dfc2614610985578063dada7ca21461099d578063e6795306146109b257600080fd5b8063cd0a16a8146108d0578063cd0ad3c1146108e6578063cdb447751461092157600080fd5b80638e48234111610164578063b38103401161013e578063b38103401461086b578063be193d2714610880578063c5a1d7f01461089a578063cc2a9a5b146108b057600080fd5b80638e482341146108165780639a8f18f314610836578063a3c0f0b71461085657600080fd5b80637c64dd76116101a05780637c64dd761461079f5780637d9e0141146107bf57806383b1a8c1146107df57806387dee39f1461080057600080fd5b806367a277a4146106c75780637a04c865146106f45780637b49fa191461077f57600080fd5b80632e56f60d116102a057806351a2f17a1161023e5780635695f292116102185780635695f2921461065b57806357a6032614610671578063652b098a14610691578063665caab7146106a757600080fd5b806351a2f17a146105fc57806352d1902d1461063157806354fd4d501461064657600080fd5b80633659cfe61161027a5780633659cfe61461058657806342cde4e8146105a65780634969ca3f146105bc5780634f1ef286146105e957600080fd5b80632e56f60d146105395780633189576714610550578063358d1fc61461057057600080fd5b806317f5705e1161030d57806323a6c20e116102e757806323a6c20e146104ae57806323b26075146104e25780632abcb3d8146105035780632da4e4201461051957600080fd5b806317f5705e1461044e578063186f03541461046e5780632152ab1b1461048e57600080fd5b806306fdde031161033e57806306fdde03146103f65780630ce03f2d146104185780631788430b1461042e57600080fd5b8063010a623c1461036557806301ffc9a71461038e578063024e5d15146103be575b600080fd5b34801561037157600080fd5b5061037b60085481565b6040519081526020015b60405180910390f35b34801561039a57600080fd5b506103ae6103a93660046140dc565b610a9a565b6040519015158152602001610385565b3480156103ca57600080fd5b50600f546103de906001600160a01b031681565b6040516001600160a01b039091168152602001610385565b34801561040257600080fd5b5061040b610b33565b604051610385919061416e565b34801561042457600080fd5b5061037b60065481565b34801561043a57600080fd5b5061037b6104493660046142e6565b610bc1565b34801561045a57600080fd5b506013546103de906001600160a01b031681565b34801561047a57600080fd5b506005546103de906001600160a01b031681565b34801561049a57600080fd5b506103ae6104a936600461435d565b610cd9565b3480156104ba57600080fd5b506104ce6104c936600461435d565b611126565b6040516103859897969594939291906143ba565b3480156104ee57600080fd5b50600b546103ae90600160a01b900460ff1681565b34801561050f57600080fd5b5061037b60105481565b34801561052557600080fd5b5061037b610534366004614419565b61129f565b34801561054557600080fd5b5061054e611333565b005b34801561055c57600080fd5b5061054e61056b36600461444e565b611406565b34801561057c57600080fd5b5061037b60075481565b34801561059257600080fd5b5061054e6105a13660046144c5565b61152d565b3480156105b257600080fd5b5061037b60155481565b3480156105c857600080fd5b506105dc6105d736600461435d565b6116c1565b60405161038591906144e2565b61054e6105f73660046144f5565b611793565b34801561060857600080fd5b5061061c6106173660046145a9565b611918565b60408051928352602083019190915201610385565b34801561063d57600080fd5b5061037b611b01565b34801561065257600080fd5b5061040b611bc6565b34801561066757600080fd5b5061037b60145481565b34801561067d57600080fd5b5061054e61068c366004614660565b611bd3565b34801561069d57600080fd5b5061037b600c5481565b3480156106b357600080fd5b5061054e6106c2366004614660565b611cb0565b3480156106d357600080fd5b506106e76106e236600461435d565b611d8d565b6040516103859190614682565b34801561070057600080fd5b5061074c61070f36600461435d565b60096020526000908152604090208054600382015460048301546005840154600685015460079095015460ff948516959394929391929091169086565b6040805160ff909716875260208701959095529385019290925260608401521515608083015260a082015260c001610385565b34801561078b57600080fd5b50600b546103de906001600160a01b031681565b3480156107ab57600080fd5b506011546103de906001600160a01b031681565b3480156107cb57600080fd5b5061054e6107da3660046146b8565b611dec565b3480156107eb57600080fd5b50600f546103ae90600160a01b900460ff1681565b34801561080c57600080fd5b5061037b60125481565b34801561082257600080fd5b506016546103de906001600160a01b031681565b34801561084257600080fd5b5061054e61085136600461435d565b611ecf565b34801561086257600080fd5b5061040b611f9d565b34801561087757600080fd5b5061054e611faa565b34801561088c57600080fd5b506003546103ae9060ff1681565b3480156108a657600080fd5b5061037b60045481565b3480156108bc57600080fd5b5061054e6108cb3660046146e4565b612087565b3480156108dc57600080fd5b5061037b600d5481565b3480156108f257600080fd5b506103ae610901366004614766565b600a60209081526000928352604080842090915290825290205460ff1681565b34801561092d57600080fd5b506103ae61093c36600461435d565b61231b565b34801561094d57600080fd5b50610977604080513060208201526003916060910160405160208183030381529060405290509091565b604051610385929190614798565b34801561099157600080fd5b50600c54600d5461061c565b3480156109a957600080fd5b5061054e61296a565b3480156109be57600080fd5b506011546103ae90600160a01b900460ff1681565b3480156109df57600080fd5b5061061c6109ee3660046147b1565b612a3d565b3480156109ff57600080fd5b506013546103ae90600160a01b900460ff1681565b348015610a2057600080fd5b5060405160028152602001610385565b348015610a3c57600080fd5b5061061c610a4b36600461485b565b612c17565b348015610a5c57600080fd5b5061061c610a6b36600461491a565b612e13565b348015610a7c57600080fd5b5061054e6130c0565b348015610a9157600080fd5b5061037b600081565b60007fffffffff0000000000000000000000000000000000000000000000000000000082167f6930ebcc000000000000000000000000000000000000000000000000000000001480610b2d57507f01ffc9a7000000000000000000000000000000000000000000000000000000007fffffffff000000000000000000000000000000000000000000000000000000008316145b92915050565b60018054610b40906149a0565b80601f0160208091040260200160405190810160405280929190818152602001828054610b6c906149a0565b8015610bb95780601f10610b8e57610100808354040283529160200191610bb9565b820191906000526020600020905b815481529060010190602001808311610b9c57829003601f168201915b505050505081565b6040805160238082526104808201909252600091829190602082016104608036833701905050855160208088019190912060008181527fa856840544dc26124927add067d799967eac11be13e14d82cc281ea46fa397599092526040909120549192509060ff1615610c7a5760405162461bcd60e51b815260206004820152601060248201527f4455504c4943415445445f50524f4f460000000000000000000000000000000060448201526064015b60405180910390fd5b610c8687838688613193565b60008281527fa856840544dc26124927add067d799967eac11be13e14d82cc281ea46fa3975960205260408120805460ff19166001179055909250610ccb8887613265565b93505050505b949350505050565b60008115801590610cec57506008548211155b610d385760405162461bcd60e51b815260206004820152600a60248201527f494e56414c49445f4944000000000000000000000000000000000000000000006044820152606401610c71565b6000828152600960205260409020805460ff16158015610d625750601154600160a01b900460ff16155b15610daf5760405162461bcd60e51b815260206004820152601960248201527f4b3235365f5245434f564552595f4e4f545f454e41424c4544000000000000006044820152606401610c71565b805460ff166001148015610dcd5750600b54600160a01b900460ff16155b15610e1a5760405162461bcd60e51b815260206004820152601960248201527f503235365f5245434f564552595f4e4f545f454e41424c4544000000000000006044820152606401610c71565b805460ff166002148015610e385750600f54600160a01b900460ff16155b15610e855760405162461bcd60e51b815260206004820152601b60248201527f5345435245545f5245434f564552595f4e4f545f454e41424c454400000000006044820152606401610c71565b805460ff166003148015610ea35750601354600160a01b900460ff16155b15610ef05760405162461bcd60e51b815260206004820152601b60248201527f534f4349414c5f5245434f564552595f4e4f545f454e41424c454400000000006044820152606401610c71565b610fb781600201805480602002602001604051908101604052809291908181526020018280548015610f4b57602002820191906000526020600020905b81546001600160a01b03168152600190910190602001808311610f2d575b505050505082600101805480602002602001604051908101604052809291908181526020018280548015610fa857602002820191906000526020600020905b81546001600160a01b03168152600190910190602001808311610f8a575b50505050508360030154613316565b50600681015460ff161561100d5760405162461bcd60e51b815260206004820152601160248201527f50524f504f53414c5f52454a45435445440000000000000000000000000000006044820152606401610c71565b80600501544210156110615760405162461bcd60e51b815260206004820152601160248201527f44454c41595f4e4f545f455850495245440000000000000000000000000000006044820152606401610c71565b600754816004015410156110b75760405162461bcd60e51b815260206004820152601060248201527f50524f504f53414c5f45585049524544000000000000000000000000000000006044820152606401610c71565b805460ff1660031480156110d057506015548160070154105b1561111d5760405162461bcd60e51b815260206004820152601560248201527f494e53554646494349454e545f415050524f56414c00000000000000000000006044820152606401610c71565b50600192915050565b60006060808280808080881580159061114157506008548911155b61118d5760405162461bcd60e51b815260206004820152600a60248201527f494e56414c49445f4944000000000000000000000000000000000000000000006044820152606401610c71565b6000898152600960209081526040918290208054600382015460058301546004840154600685015460078601546001870180548a51818b0281018b01909b52808b52979960ff97881699919860028c019890941693909189919083018282801561122057602002820191906000526020600020905b81546001600160a01b03168152600190910190602001808311611202575b505050505096508580548060200260200160405190810160405280929190818152602001828054801561127c57602002820191906000526020600020905b81546001600160a01b0316815260019091019060200180831161125e575b505050505095509850985098509850985098509850985050919395975091939597565b6040517ff8f5689c00000000000000000000000000000000000000000000000000000000815260009073__$6d399485da7ef05af8887e90c5d884cf80$__9063f8f5689c906112f290859060040161416e565b602060405180830381865af415801561130f573d6000803e3d6000fd5b505050506040513d601f19601f82011682018060405250810190610b2d91906149f3565b6005546001600160a01b0316331461138d5760405162461bcd60e51b815260206004820152600f60248201527f53454e4445525f4e4f545f5341464500000000000000000000000000000000006044820152606401610c71565b600b54600160a01b900460ff166113e65760405162461bcd60e51b815260206004820152600b60248201527f4e4f545f454e41424c45440000000000000000000000000000000000000000006044820152606401610c71565b600b805474ff000000000000000000000000000000000000000019169055565b6005546001600160a01b031633146114605760405162461bcd60e51b815260206004820152600f60248201527f53454e4445525f4e4f545f5341464500000000000000000000000000000000006044820152606401610c71565b604080516000815260208101808352815190209161148091849101614a0c565b60405160208183030381529060405280519060200120036114e35760405162461bcd60e51b815260206004820152601560248201527f494e56414c49445f43524544454e5449414c5f494400000000000000000000006044820152606401610c71565b600c839055600d829055600e6114f98282614a76565b5061150384600655565b5050600b805474ff00000000000000000000000000000000000000001916600160a01b1790555050565b6001600160a01b037f00000000000000000000000000000000000000000000000000000000000000001630036115cb5760405162461bcd60e51b815260206004820152602c60248201527f46756e6374696f6e206d7573742062652063616c6c6564207468726f7567682060448201527f64656c656761746563616c6c00000000000000000000000000000000000000006064820152608401610c71565b7f00000000000000000000000000000000000000000000000000000000000000006001600160a01b03166116267f360894a13ba1a3210667c828492db98dca3e2076cc3735a920a3ca505d382bbc546001600160a01b031690565b6001600160a01b0316146116a25760405162461bcd60e51b815260206004820152602c60248201527f46756e6374696f6e206d7573742062652063616c6c6564207468726f7567682060448201527f6163746976652070726f787900000000000000000000000000000000000000006064820152608401610c71565b604080516000808252602082019092526116be918391906137e4565b50565b606081158015906116d457506008548211155b6117205760405162461bcd60e51b815260206004820152600a60248201527f494e56414c49445f4944000000000000000000000000000000000000000000006044820152606401610c71565b60008281526009602090815260409182902060018101805484518185028101850190955280855291939290919083018282801561178657602002820191906000526020600020905b81546001600160a01b03168152600190910190602001808311611768575b5050505050915050919050565b6001600160a01b037f00000000000000000000000000000000000000000000000000000000000000001630036118315760405162461bcd60e51b815260206004820152602c60248201527f46756e6374696f6e206d7573742062652063616c6c6564207468726f7567682060448201527f64656c656761746563616c6c00000000000000000000000000000000000000006064820152608401610c71565b7f00000000000000000000000000000000000000000000000000000000000000006001600160a01b031661188c7f360894a13ba1a3210667c828492db98dca3e2076cc3735a920a3ca505d382bbc546001600160a01b031690565b6001600160a01b0316146119085760405162461bcd60e51b815260206004820152602c60248201527f46756e6374696f6e206d7573742062652063616c6c6564207468726f7567682060448201527f6163746976652070726f787900000000000000000000000000000000000000006064820152608401610c71565b611914828260016137e4565b5050565b60055460009081906001600160a01b031633036119775760405162461bcd60e51b815260206004820152600e60248201527f494e56414c49445f53454e4445520000000000000000000000000000000000006044820152606401610c71565b600b54600160a01b900460ff166119d05760405162461bcd60e51b815260206004820152600b60248201527f4e4f545f454e41424c45440000000000000000000000000000000000000000006044820152606401610c71565b835160208086019190912060008181527fbbc70db1b6c7afd11e79c0fb0051300458f1a3acb8ee9789d9b6b26c61ad9bc790925260409091205460ff1615611a5a5760405162461bcd60e51b815260206004820152601060248201527f4455504c4943415445445f50524f4f46000000000000000000000000000000006044820152606401610c71565b6000611a67898989613316565b90506000611a748661129f565b60408051602080825261042082019092529192506000919080820161040080368337019050509050611aa582613989565b60008581527fbbc70db1b6c7afd11e79c0fb0051300458f1a3acb8ee9789d9b6b26c61ad9bc760205260409020805460ff19166001908117909155909150611aef908c8c86613a04565b95509550505050509550959350505050565b6000306001600160a01b037f00000000000000000000000000000000000000000000000000000000000000001614611ba15760405162461bcd60e51b815260206004820152603860248201527f555550535570677261646561626c653a206d757374206e6f742062652063616c60448201527f6c6564207468726f7567682064656c656761746563616c6c00000000000000006064820152608401610c71565b507f360894a13ba1a3210667c828492db98dca3e2076cc3735a920a3ca505d382bbc90565b60028054610b40906149a0565b6005546001600160a01b03163314611c2d5760405162461bcd60e51b815260206004820152600f60248201527f53454e4445525f4e4f545f5341464500000000000000000000000000000000006044820152606401610c71565b80611c7a5760405162461bcd60e51b815260206004820152600c60248201527f494e56414c49445f4841534800000000000000000000000000000000000000006044820152606401610c71565b6010819055611c8882600655565b5050600f805474ff00000000000000000000000000000000000000001916600160a01b179055565b6005546001600160a01b03163314611d0a5760405162461bcd60e51b815260206004820152600f60248201527f53454e4445525f4e4f545f5341464500000000000000000000000000000000006044820152606401610c71565b80611d575760405162461bcd60e51b815260206004820152600c60248201527f494e56414c49445f4841534800000000000000000000000000000000000000006044820152606401610c71565b6012819055611d6582600655565b50506011805474ff00000000000000000000000000000000000000001916600160a01b179055565b611d9561402b565b611d9d61402b565b60005b6020811015611de557838160208110611dbb57611dbb614b36565b1a828260208110611dce57611dce614b36565b602002015280611ddd81614b94565b915050611da0565b5092915050565b6005546001600160a01b03163314611e465760405162461bcd60e51b815260206004820152600f60248201527f53454e4445525f4e4f545f5341464500000000000000000000000000000000006044820152606401610c71565b80611e935760405162461bcd60e51b815260206004820152600c60248201527f494e56414c49445f4841534800000000000000000000000000000000000000006044820152606401610c71565b60148190556015829055611ea683600655565b50506013805474ff00000000000000000000000000000000000000001916600160a01b17905550565b6005546001600160a01b03163314611f295760405162461bcd60e51b815260206004820152600f60248201527f53454e4445525f4e4f545f5341464500000000000000000000000000000000006044820152606401610c71565b6000818152600960205260409020600681015460ff1615611f8c5760405162461bcd60e51b815260206004820152601060248201527f414c52454144595f52454a4543544544000000000000000000000000000000006044820152606401610c71565b600601805460ff1916600117905550565b600e8054610b40906149a0565b6005546001600160a01b031633146120045760405162461bcd60e51b815260206004820152600f60248201527f53454e4445525f4e4f545f5341464500000000000000000000000000000000006044820152606401610c71565b601354600160a01b900460ff1661205d5760405162461bcd60e51b815260206004820152600b60248201527f4e4f545f454e41424c45440000000000000000000000000000000000000000006044820152606401610c71565b600060148190556015556013805474ff000000000000000000000000000000000000000019169055565b600054610100900460ff16158080156120a75750600054600160ff909116105b806120c15750303b1580156120c1575060005460ff166001145b6121335760405162461bcd60e51b815260206004820152602e60248201527f496e697469616c697a61626c653a20636f6e747261637420697320616c72656160448201527f647920696e697469616c697a65640000000000000000000000000000000000006064820152608401610c71565b6000805460ff19166001179055801561217357600080547fffffffffffffffffffffffffffffffffffffffffffffffffffffffffffff00ff166101001790555b6122356040518060a001604052806040518060400160405280601481526020017f53616665205265636f7665727920506c7567696e00000000000000000000000081525081526020016040518060400160405280600581526020017f312e302e300000000000000000000000000000000000000000000000000000008152508152602001600115158152602001604051806020016040528060008152508152602001604051806060016040528060338152602001614f85603391399052613a9c565b600580547fffffffffffffffffffffffff00000000000000000000000000000000000000009081166001600160a01b038a811691909117909255601680548216898416179055601180548216888416179055600b80548216878416179055600f8054821686841617905560138054909116918416919091179055801561231257600080547fffffffffffffffffffffffffffffffffffffffffffffffffffffffffffff00ff169055604051600181527f7f26b83ff96e1f2b6a682f133852f6798a09c465da95921460cefb38474024989060200160405180910390a15b50505050505050565b600061232682610cd9565b506000828152600960209081526040808320600381015460055483517fe75235b8000000000000000000000000000000000000000000000000000000008152935192959491936001600160a01b039091169263e75235b8926004808401939192918290030181865afa1580156123a0573d6000803e3d6000fd5b505050506040513d601f19601f820116820180604052508101906123c491906149f3565b600284015491141591506000826123db57816123e6565b6123e6826001614bae565b905060008167ffffffffffffffff81111561240357612403614181565b60405190808252806020026020018201604052801561245057816020015b604080516060808201835260008083526020830152918101919091528152602001906001900390816124215790505b509050606060005b848110156126a25763e318b52b60e01b61255088600201838154811061248057612480614b36565b6000918252602091829020015460028b01805460408051828602810186019091528181526001600160a01b03909316938301828280156124e957602002820191906000526020600020905b81546001600160a01b031681526001909101906020018083116124cb575b50505050508a60010180548060200260200160405190810160405280929190818152602001828054801561254657602002820191906000526020600020905b81546001600160a01b03168152600190910190602001808311612528575b5050505050613ae7565b88600201838154811061256557612565614b36565b60009182526020909120015460018a0180546001600160a01b03909216918590811061259357612593614b36565b6000918252602090912001546040516001600160a01b039384166024820152918316604483015291909116606482015260840160408051601f198184030181529190526020810180517bffffffffffffffffffffffffffffffffffffffffffffffffffffffff167fffffffff000000000000000000000000000000000000000000000000000000009093169290921790915260055484519193506001600160a01b03169084908390811061264957612649614b36565b6020026020010151600001906001600160a01b031690816001600160a01b0316815250508183828151811061268057612680614b36565b602002602001015160400181905250808061269a90614b94565b915050612458565b5084156127ae576005546001600160a01b0316826126c1600186614bc1565b815181106126d1576126d1614b36565b60209081029190910101516001600160a01b03909116905260038601546040517f694e80c300000000000000000000000000000000000000000000000000000000916127239160240190815260200190565b60408051601f198184030181529190526020810180517bffffffffffffffffffffffffffffffffffffffffffffffffffffffff167fffffffff00000000000000000000000000000000000000000000000000000000909316929092179091528261278e600186614bc1565b8151811061279e5761279e614b36565b6020026020010151604001819052505b6040805160608101825283815260055482517faffed0e000000000000000000000000000000000000000000000000000000000815292516000936020808501936001600160a01b03169263affed0e09260048082019392918290030181865afa15801561281f573d6000803e3d6000fd5b505050506040513d601f19601f8201168201806040525081019061284391906149f3565b61284e906001614bae565b8152600480546020909201919091526016546005546040517f0f9919150000000000000000000000000000000000000000000000000000000081529394506001600160a01b0391821693630f991915936128ae9390921691869101614bd4565b6000604051808303816000875af19250505080156128ee57506040513d6000823e601f3d908101601f191682016040526128eb9190810190614ca3565b60015b612956573d80801561291c576040519150601f19603f3d011682016040523d82523d6000602084013e612921565b606091505b50806040517f2e268859000000000000000000000000000000000000000000000000000000008152600401610c71919061416e565b505050426007555060019695505050505050565b6005546001600160a01b031633146129c45760405162461bcd60e51b815260206004820152600f60248201527f53454e4445525f4e4f545f5341464500000000000000000000000000000000006044820152606401610c71565b601154600160a01b900460ff16612a1d5760405162461bcd60e51b815260206004820152600b60248201527f4e4f545f454e41424c45440000000000000000000000000000000000000000006044820152606401610c71565b6011805474ff000000000000000000000000000000000000000019169055565b60055460009081906001600160a01b03163303612a9c5760405162461bcd60e51b815260206004820152600e60248201527f494e56414c49445f53454e4445520000000000000000000000000000000000006044820152606401610c71565b601154600160a01b900460ff16612af55760405162461bcd60e51b815260206004820152600b60248201527f4e4f545f454e41424c45440000000000000000000000000000000000000000006044820152606401610c71565b835160208086019190912060008181527f13da86008ba1c6922daee3e07db95305ef49ebced9f5467a0b8613fcc6b343e390925260409091205460ff1615612b7f5760405162461bcd60e51b815260206004820152601060248201527f4455504c4943415445445f50524f4f46000000000000000000000000000000006044820152606401610c71565b6000612b8c898989613316565b6040805160218082526104408201909252919250600091906020820161042080368337019050509050612bbf8187613c73565b60008481527f13da86008ba1c6922daee3e07db95305ef49ebced9f5467a0b8613fcc6b343e360205260408120805460ff19166001179055909150612c06908b8b85613a04565b945094505050509550959350505050565b60055460009081906001600160a01b03163303612c765760405162461bcd60e51b815260206004820152600e60248201527f494e56414c49445f53454e4445520000000000000000000000000000000000006044820152606401610c71565b601354600160a01b900460ff16612ccf5760405162461bcd60e51b815260206004820152600b60248201527f4e4f545f454e41424c45440000000000000000000000000000000000000000006044820152606401610c71565b845160208087019190912060008181527fa856840544dc26124927add067d799967eac11be13e14d82cc281ea46fa3975990925260409091205460ff1615612d595760405162461bcd60e51b815260206004820152601060248201527f4455504c4943415445445f50524f4f46000000000000000000000000000000006044820152606401610c71565b6000612d668a8a8a613316565b6040805160238082526104808201909252919250600091906020820161046080368337019050509050612da96008546001612da19190614bae565b82888a613193565b60008481527fa856840544dc26124927add067d799967eac11be13e14d82cc281ea46fa3975960205260408120805460ff1916600117905590915080612df260038e8e87613a04565b91509150612e00828a613265565b50909c909b509950505050505050505050565b60055460009081906001600160a01b03163303612e725760405162461bcd60e51b815260206004820152600e60248201527f494e56414c49445f53454e4445520000000000000000000000000000000000006044820152606401610c71565b600f54600160a01b900460ff16612ecb5760405162461bcd60e51b815260206004820152600b60248201527f4e4f545f454e41424c45440000000000000000000000000000000000000000006044820152606401610c71565b825160208085019190912060008181527fbff4442b8ed600beeb8e26b1279a0f0d14c6edfaec26d968ee13c86f7d4c2ba890925260409091205460ff1615612f555760405162461bcd60e51b815260206004820152601060248201527f4455504c4943415445445f50524f4f46000000000000000000000000000000006044820152606401610c71565b6000612f62888888613316565b604080516001808252818301909252919250600091906020808301908036833701905050905060105481600081518110612f9e57612f9e614b36565b6020908102919091010152600f546040517fea50d0e40000000000000000000000000000000000000000000000000000000081526001600160a01b039091169063ea50d0e490612ff49089908590600401614d90565b602060405180830381865afa158015613011573d6000803e3d6000fd5b505050506040513d601f19601f820116820180604052508101906130359190614de7565b61306b576040517fff3ee09d00000000000000000000000000000000000000000000000000000000815260040160405180910390fd5b60008381527fbff4442b8ed600beeb8e26b1279a0f0d14c6edfaec26d968ee13c86f7d4c2ba860205260409020805460ff191660011790556130b060028a8a85613a04565b9450945050505094509492505050565b6005546001600160a01b0316331461311a5760405162461bcd60e51b815260206004820152600f60248201527f53454e4445525f4e4f545f5341464500000000000000000000000000000000006044820152606401610c71565b600f54600160a01b900460ff166131735760405162461bcd60e51b815260206004820152600b60248201527f4e4f545f454e41424c45440000000000000000000000000000000000000000006044820152606401610c71565b600f805474ff000000000000000000000000000000000000000019169055565b6060601454846000815181106131ab576131ab614b36565b6020026020010181815250508460001b846001815181106131ce576131ce614b36565b60200260200101818152505081846002815181106131ee576131ee614b36565b60200260200101818152505060005b602081101561325b5783818151811061321857613218614b36565b60200260200101518582600361322e9190614bae565b8151811061323e5761323e614b36565b60209081029190910101528061325381614b94565b9150506131fd565b5092949350505050565b60008281526009602090815260408083208484526008810190925282205460ff16156132d35760405162461bcd60e51b815260206004820152601160248201527f494e56414c49445f4e554c4c49464945520000000000000000000000000000006044820152606401610c71565b60008381526008820160205260408120805460ff1916600190811790915560078301805491929091613306908490614bae565b9091555050600701549392505050565b600082518451146133695760405162461bcd60e51b815260206004820152600e60248201527f554e455155414c5f4c454e4754480000000000000000000000000000000000006044820152606401610c71565b600554604080517fa0e67e2b00000000000000000000000000000000000000000000000000000000815290516000926001600160a01b03169163a0e67e2b91600480830192869291908290030181865afa1580156133cb573d6000803e3d6000fd5b505050506040513d6000823e601f3d908101601f191682016040526133f39190810190614e09565b90508051855111156134475760405162461bcd60e51b815260206004820152600e60248201527f494e56414c49445f4c454e4754480000000000000000000000000000000000006044820152606401610c71565b60005b85518110156136ec5760055486516001600160a01b0390911690632f54bf6e9088908490811061347c5761347c614b36565b60200260200101516040518263ffffffff1660e01b81526004016134af91906001600160a01b0391909116815260200190565b602060405180830381865afa1580156134cc573d6000803e3d6000fd5b505050506040513d601f19601f820116820180604052508101906134f09190614de7565b61353c5760405162461bcd60e51b815260206004820152600960248201527f4e4f545f4f574e455200000000000000000000000000000000000000000000006044820152606401610c71565b60055485516001600160a01b0390911690632f54bf6e9087908490811061356557613565614b36565b60200260200101516040518263ffffffff1660e01b815260040161359891906001600160a01b0391909116815260200190565b602060405180830381865afa1580156135b5573d6000803e3d6000fd5b505050506040513d601f19601f820116820180604052508101906135d99190614de7565b156136265760405162461bcd60e51b815260206004820152600d60248201527f414c44524544595f4f574e4552000000000000000000000000000000000000006044820152606401610c71565b60006001600160a01b031685828151811061364357613643614b36565b60200260200101516001600160a01b03161415801561368e575060016001600160a01b031685828151811061367a5761367a614b36565b60200260200101516001600160a01b031614155b6136da5760405162461bcd60e51b815260206004820152600f60248201527f494e56414c49445f4144445245535300000000000000000000000000000000006044820152606401610c71565b806136e481614b94565b91505061344a565b50600554604080517fe75235b800000000000000000000000000000000000000000000000000000000815290516000926001600160a01b03169163e75235b89160048083019260209291908290030181865afa158015613750573d6000803e3d6000fd5b505050506040513d601f19601f8201168201806040525081019061377491906149f3565b905060008185036137855781613787565b845b905080835110156137da5760405162461bcd60e51b815260206004820152601160248201527f494e56414c49445f5448524553484f4c440000000000000000000000000000006044820152606401610c71565b9695505050505050565b7f4910fdfa16fed3260ed0e7147f7cc6da11a60208b5b9406d12a635614ffd91435460ff161561381c5761381783613d00565b505050565b826001600160a01b03166352d1902d6040518163ffffffff1660e01b8152600401602060405180830381865afa925050508015613876575060408051601f3d908101601f19168201909252613873918101906149f3565b60015b6138e85760405162461bcd60e51b815260206004820152602e60248201527f45524331393637557067726164653a206e657720696d706c656d656e7461746960448201527f6f6e206973206e6f7420555550530000000000000000000000000000000000006064820152608401610c71565b7f360894a13ba1a3210667c828492db98dca3e2076cc3735a920a3ca505d382bbc811461397d5760405162461bcd60e51b815260206004820152602960248201527f45524331393637557067726164653a20756e737570706f727465642070726f7860448201527f6961626c655555494400000000000000000000000000000000000000000000006064820152608401610c71565b50613817838383613dd6565b6040805160208082526104208201909252606091600091908082016104008036833701905050905060005b6020811015611de5578381602081106139cf576139cf614b36565b835191901a908390839081106139e7576139e7614b36565b6020908102919091010152806139fc81614b94565b9150506139b4565b60008060006008546001613a189190614bae565b60088190556000818152600960209081526040909120805460ff191660ff8b16178155885192935091613a53916002840191908a019061404a565b508551613a69906001830190602089019061404a565b5060038101859055600654613a7e9042614bae565b60058201819055426004909201919091559097909650945050505050565b6004547f522c683f99251eea7f3b027592e92a5398e7582983be1f7c0f33715ce025740f613ac983613e01565b604051613ad6919061416e565b60405180910390a26116be81613e68565b600080600560009054906101000a90046001600160a01b03166001600160a01b031663a0e67e2b6040518163ffffffff1660e01b8152600401600060405180830381865afa158015613b3d573d6000803e3d6000fd5b505050506040513d6000823e601f3d908101601f19168201604052613b659190810190614e09565b90506000805b8251811015613bc057866001600160a01b0316838281518110613b9057613b90614b36565b60200260200101516001600160a01b031603613bae57809150613bc0565b80613bb881614b94565b915050613b6b565b5060008115613bf25782613bd5600184614bc1565b81518110613be557613be5614b36565b6020026020010151613bf5565b60015b905060005b8651811015613c6857816001600160a01b0316878281518110613c1f57613c1f614b36565b60200260200101516001600160a01b031603613c5657858181518110613c4757613c47614b36565b60200260200101519150613c68565b80613c6081614b94565b915050613bfa565b509695505050505050565b606060125483600081518110613c8b57613c8b614b36565b60200260200101818152505060005b6020811015613cf857828181518110613cb557613cb5614b36565b602002602001015184826001613ccb9190614bae565b81518110613cdb57613cdb614b36565b602090810291909101015280613cf081614b94565b915050613c9a565b509192915050565b6001600160a01b0381163b613d7d5760405162461bcd60e51b815260206004820152602d60248201527f455243313936373a206e657720696d706c656d656e746174696f6e206973206e60448201527f6f74206120636f6e7472616374000000000000000000000000000000000000006064820152608401610c71565b7f360894a13ba1a3210667c828492db98dca3e2076cc3735a920a3ca505d382bbc80547fffffffffffffffffffffffff0000000000000000000000000000000000000000166001600160a01b0392909216919091179055565b613ddf83613eb8565b600082511180613dec5750805b1561381757613dfb8383613ef8565b50505050565b606060008083600001518460200151856040015186606001518760800151604051602001613e33959493929190614ea3565b60408051601f1981840301815290829052613e52939291602001614f04565b6040516020818303038152906040529050919050565b8051600190613e779082614a76565b506020810151600290613e8a9082614a76565b5060408101516003805460ff1916911515919091179055613eaa81613e01565b805160209091012060045550565b613ec181613d00565b6040516001600160a01b038216907fbc7cd75a20ee27fd9adebab32041f755214dbc6bffa90cc0225b39da2e5c2d3b90600090a250565b6060613f1d8383604051806060016040528060278152602001614f5e60279139613f24565b9392505050565b6060600080856001600160a01b031685604051613f419190614a0c565b600060405180830381855af49150503d8060008114613f7c576040519150601f19603f3d011682016040523d82523d6000602084013e613f81565b606091505b50915091506137da8683838760608315613ffc578251600003613ff5576001600160a01b0385163b613ff55760405162461bcd60e51b815260206004820152601d60248201527f416464726573733a2063616c6c20746f206e6f6e2d636f6e74726163740000006044820152606401610c71565b5081610cd1565b610cd183838151156140115781518083602001fd5b8060405162461bcd60e51b8152600401610c71919061416e565b6040518061040001604052806020906020820280368337509192915050565b8280548282559060005260206000209081019282156140b7579160200282015b828111156140b757825182547fffffffffffffffffffffffff0000000000000000000000000000000000000000166001600160a01b0390911617825560209092019160019091019061406a565b506140c39291506140c7565b5090565b5b808211156140c357600081556001016140c8565b6000602082840312156140ee57600080fd5b81357fffffffff0000000000000000000000000000000000000000000000000000000081168114613f1d57600080fd5b60005b83811015614139578181015183820152602001614121565b50506000910152565b6000815180845261415a81602086016020860161411e565b601f01601f19169290920160200192915050565b602081526000613f1d6020830184614142565b7f4e487b7100000000000000000000000000000000000000000000000000000000600052604160045260246000fd5b604051601f8201601f1916810167ffffffffffffffff811182821017156141d9576141d9614181565b604052919050565b600067ffffffffffffffff8211156141fb576141fb614181565b50601f01601f191660200190565b600061421c614217846141e1565b6141b0565b905082815283838301111561423057600080fd5b828260208301376000602084830101529392505050565b600082601f83011261425857600080fd5b613f1d83833560208501614209565b600067ffffffffffffffff82111561428157614281614181565b5060051b60200190565b600082601f83011261429c57600080fd5b813560206142ac61421783614267565b82815260059290921b840181019181810190868411156142cb57600080fd5b8286015b84811015613c6857803583529183019183016142cf565b600080600080608085870312156142fc57600080fd5b84359350602085013567ffffffffffffffff8082111561431b57600080fd5b61432788838901614247565b945060408701359350606087013591508082111561434457600080fd5b506143518782880161428b565b91505092959194509250565b60006020828403121561436f57600080fd5b5035919050565b600081518084526020808501945080840160005b838110156143af5781516001600160a01b03168752958201959082019060010161438a565b509495945050505050565b600061010060ff8b1683528060208401526143d78184018b614376565b905082810360408401526143eb818a614376565b60608401989098525050608081019490945260a0840192909252151560c083015260e0909101529392505050565b60006020828403121561442b57600080fd5b813567ffffffffffffffff81111561444257600080fd5b610cd184828501614247565b6000806000806080858703121561446457600080fd5b843593506020850135925060408501359150606085013567ffffffffffffffff81111561449057600080fd5b8501601f810187136144a157600080fd5b61435187823560208401614209565b6001600160a01b03811681146116be57600080fd5b6000602082840312156144d757600080fd5b8135613f1d816144b0565b602081526000613f1d6020830184614376565b6000806040838503121561450857600080fd5b8235614513816144b0565b9150602083013567ffffffffffffffff81111561452f57600080fd5b61453b85828601614247565b9150509250929050565b600082601f83011261455657600080fd5b8135602061456661421783614267565b82815260059290921b8401810191818101908684111561458557600080fd5b8286015b84811015613c6857803561459c816144b0565b8352918301918301614589565b600080600080600060a086880312156145c157600080fd5b853567ffffffffffffffff808211156145d957600080fd5b6145e589838a01614545565b965060208801359150808211156145fb57600080fd5b61460789838a01614545565b955060408801359450606088013591508082111561462457600080fd5b61463089838a01614247565b9350608088013591508082111561464657600080fd5b5061465388828901614247565b9150509295509295909350565b6000806040838503121561467357600080fd5b50508035926020909101359150565b6104008101818360005b602080821061469b57506146af565b82518452928301929091019060010161468c565b50505092915050565b6000806000606084860312156146cd57600080fd5b505081359360208301359350604090920135919050565b60008060008060008060c087890312156146fd57600080fd5b8635614708816144b0565b95506020870135614718816144b0565b94506040870135614728816144b0565b93506060870135614738816144b0565b92506080870135614748816144b0565b915060a0870135614758816144b0565b809150509295509295509295565b6000806040838503121561477957600080fd5b823560ff8116811461478a57600080fd5b946020939093013593505050565b828152604060208201526000610cd16040830184614142565b600080600080600060a086880312156147c957600080fd5b853567ffffffffffffffff808211156147e157600080fd5b6147ed89838a01614545565b9650602088013591508082111561480357600080fd5b61480f89838a01614545565b955060408801359450606088013591508082111561482c57600080fd5b61483889838a01614247565b9350608088013591508082111561484e57600080fd5b506146538882890161428b565b60008060008060008060c0878903121561487457600080fd5b863567ffffffffffffffff8082111561488c57600080fd5b6148988a838b01614545565b975060208901359150808211156148ae57600080fd5b6148ba8a838b01614545565b96506040890135955060608901359150808211156148d757600080fd5b6148e38a838b01614247565b94506080890135935060a089013591508082111561490057600080fd5b5061490d89828a0161428b565b9150509295509295509295565b6000806000806080858703121561493057600080fd5b843567ffffffffffffffff8082111561494857600080fd5b61495488838901614545565b9550602087013591508082111561496a57600080fd5b61497688838901614545565b945060408701359350606087013591508082111561499357600080fd5b5061435187828801614247565b600181811c908216806149b457607f821691505b6020821081036149ed577f4e487b7100000000000000000000000000000000000000000000000000000000600052602260045260246000fd5b50919050565b600060208284031215614a0557600080fd5b5051919050565b60008251614a1e81846020870161411e565b9190910192915050565b601f82111561381757600081815260208120601f850160051c81016020861015614a4f5750805b601f850160051c820191505b81811015614a6e57828155600101614a5b565b505050505050565b815167ffffffffffffffff811115614a9057614a90614181565b614aa481614a9e84546149a0565b84614a28565b602080601f831160018114614ad95760008415614ac15750858301515b600019600386901b1c1916600185901b178555614a6e565b600085815260208120601f198616915b82811015614b0857888601518255948401946001909101908401614ae9565b5085821015614b265787850151600019600388901b60f8161c191681555b5050505050600190811b01905550565b7f4e487b7100000000000000000000000000000000000000000000000000000000600052603260045260246000fd5b7f4e487b7100000000000000000000000000000000000000000000000000000000600052601160045260246000fd5b60006000198203614ba757614ba7614b65565b5060010190565b80820180821115610b2d57610b2d614b65565b81810381811115610b2d57610b2d614b65565b600060406001600160a01b0380861684526020828186015260a0850186516060808689015282825180855260c08a01915060c08160051b8b01019450858401935060005b81811015614c7f578a86037fffffffffffffffffffffffffffffffffffffffffffffffffffffffffffffff4001835284518051891687528781015188880152890151898701859052614c6c85880182614142565b9650509386019391860191600101614c18565b50505083890151818901525050838701516080870152809450505050509392505050565b60006020808385031215614cb657600080fd5b825167ffffffffffffffff80821115614cce57600080fd5b818501915085601f830112614ce257600080fd5b8151614cf061421782614267565b81815260059190911b83018401908481019088831115614d0f57600080fd5b8585015b83811015614d8357805185811115614d2b5760008081fd5b8601603f81018b13614d3d5760008081fd5b878101516040614d4f614217836141e1565b8281528d82848601011115614d645760008081fd5b614d73838c830184870161411e565b8652505050918601918601614d13565b5098975050505050505050565b604081526000614da36040830185614142565b82810360208481019190915284518083528582019282019060005b81811015614dda57845183529383019391830191600101614dbe565b5090979650505050505050565b600060208284031215614df957600080fd5b81518015158114613f1d57600080fd5b60006020808385031215614e1c57600080fd5b825167ffffffffffffffff811115614e3357600080fd5b8301601f81018513614e4457600080fd5b8051614e5261421782614267565b81815260059190911b82018301908381019087831115614e7157600080fd5b928401925b82841015614e98578351614e89816144b0565b82529284019290840190614e76565b979650505050505050565b60a081526000614eb660a0830188614142565b8281036020840152614ec88188614142565b905085151560408401528281036060840152614ee48186614142565b90508281036080840152614ef88185614142565b98975050505050505050565b60007fff00000000000000000000000000000000000000000000000000000000000000808660f81b168352808560f81b166001840152508251614f4e81600285016020870161411e565b9190910160020194935050505056fe416464726573733a206c6f772d6c6576656c2064656c65676174652063616c6c206661696c656468747470733a2f2f6769746875622e636f6d2f706f72636f2d726f73736f2d6a2f736166652d7265636f766572792d6e6f6972a2646970667358221220e5c941b1bc8f46dc72a40e19d2bbd6ed961ec79671094e411a2f4db17f9263ae64736f6c63430008120033",
    "linkReferences": {
      "src/helper/WebAuthnHelper.sol": {
        "WebAuthnHelper": [
          {
            "start": 4886,
            "length": 20
          }
        ]
      }
    }
  },
  "methodIdentifiers": {
    "MIN_TIMELOCK()": "fb0c7549",
    "_computeMessage(bytes)": "2da4e420",
    "_convertBytes32ToBytes32Array(bytes32)": "67a277a4",
    "addEcrecoverRecover(uint256,bytes32)": "665caab7",
    "addSecretRecover(uint256,bytes32)": "57a60326",
    "addSocialRecover(uint256,uint256,bytes32)": "7d9e0141",
    "addWebAuthnRecover(uint256,bytes32,bytes32,string)": "31895767",
    "approveSocialRecovery(uint256,bytes,bytes32,bytes32[])": "1788430b",
    "credentialId()": "a3c0f0b7",
    "ecrecoverVerifier()": "7c64dd76",
    "execRecovery(uint256)": "cdb44775",
    "getIsRecoveryExecutable(uint256)": "2152ab1b",
    "getPendingNewOwners(uint256)": "4969ca3f",
    "getPubkeyXY()": "d83dfc26",
    "getRecoveryByProposalId(uint256)": "23a6c20e",
    "guardiansRoot()": "5695f292",
    "hashed_address()": "87dee39f",
    "hashed_secret()": "2abcb3d8",
    "initialize(address,address,address,address,address,address)": "cc2a9a5b",
    "isEcrecoverRecoverEnabled()": "e6795306",
    "isSecretRecoverEnabled()": "83b1a8c1",
    "isSocialRecoverEnabled()": "e6f352c9",
    "isWebAuthnRecoverEnabled()": "23b26075",
    "lastExecutionTimestamp()": "358d1fc6",
    "metadataHash()": "c5a1d7f0",
    "metadataProvider()": "d3d72d2a",
    "name()": "06fdde03",
    "proposeEcrecoverRecover(address[],address[],uint256,bytes,bytes32[])": "e6e1247e",
    "proposeSecretRecover(address[],address[],uint256,bytes)": "f3d3f549",
    "proposeSocialRecover(address[],address[],uint256,bytes,bytes32,bytes32[])": "ec33ddb7",
    "proposeWebAuthnRecover(address[],address[],uint256,bytes,bytes)": "51a2f17a",
    "proxiableUUID()": "52d1902d",
    "pubkey_x()": "652b098a",
    "pubkey_y()": "cd0a16a8",
    "recoveries(uint256)": "7a04c865",
    "recoveryCount()": "010a623c",
    "recoveryNullifiers(uint8,bytes32)": "cd0ad3c1",
    "recoveryTimeLock()": "0ce03f2d",
    "rejectRecovery(uint256)": "9a8f18f3",
    "removeEcrecoverRecover()": "dada7ca2",
    "removeSecretRecover()": "f5120d62",
    "removeSocialRecover()": "b3810340",
    "removeWebAuthnRecover()": "2e56f60d",
    "requiresPermissions()": "e8e755b5",
    "requiresRootAccess()": "be193d27",
    "safe()": "186f0354",
    "safeProtocolManager()": "8e482341",
    "secretVerifier()": "024e5d15",
    "socialRecoverVerifier()": "17f5705e",
    "supportsInterface(bytes4)": "01ffc9a7",
    "threshold()": "42cde4e8",
    "upgradeTo(address)": "3659cfe6",
    "upgradeToAndCall(address,bytes)": "4f1ef286",
    "version()": "54fd4d50",
    "webAuthnVerifier()": "7b49fa19"
  },
  "id": 80
}