{
  "abi": [
    {
      "inputs": [
        {
          "internalType": "address",
          "name": "initialOwner",
          "type": "address"
        },
        {
          "internalType": "address",
          "name": "_registry",
          "type": "address"
        }
      ],
      "stateMutability": "nonpayable",
      "type": "constructor"
    },
    {
      "inputs": [
        {
          "internalType": "address",
          "name": "account",
          "type": "address"
        },
        {
          "internalType": "bytes32",
          "name": "metadataHash",
          "type": "bytes32"
        },
        {
          "internalType": "uint256",
          "name": "index",
          "type": "uint256"
        }
      ],
      "name": "ActionExecutionFailed",
      "type": "error"
    },
    {
      "inputs": [
        {
          "internalType": "address",
          "name": "account",
          "type": "address"
        }
      ],
      "name": "ContractDoesNotImplementValidInterfaceId",
      "type": "error"
    },
    {
      "inputs": [
        {
          "internalType": "address",
          "name": "account",
          "type": "address"
        },
        {
          "internalType": "bytes4",
          "name": "functionSelector",
          "type": "bytes4"
        }
      ],
      "name": "FunctionHandlerNotSet",
      "type": "error"
    },
    {
      "inputs": [],
      "name": "InvalidCalldataLength",
      "type": "error"
    },
    {
      "inputs": [
        {
          "internalType": "address",
          "name": "plugin",
          "type": "address"
        }
      ],
      "name": "InvalidPluginAddress",
      "type": "error"
    },
    {
      "inputs": [
        {
          "internalType": "address",
          "name": "plugin",
          "type": "address"
        }
      ],
      "name": "InvalidPrevPluginAddress",
      "type": "error"
    },
    {
      "inputs": [
        {
          "internalType": "address",
          "name": "sender",
          "type": "address"
        }
      ],
      "name": "InvalidSender",
      "type": "error"
    },
    {
      "inputs": [
        {
          "internalType": "address",
          "name": "account",
          "type": "address"
        },
        {
          "internalType": "bytes32",
          "name": "metadataHash",
          "type": "bytes32"
        },
        {
          "internalType": "uint256",
          "name": "index",
          "type": "uint256"
        }
      ],
      "name": "InvalidToFieldInSafeProtocolAction",
      "type": "error"
    },
    {
      "inputs": [
        {
          "internalType": "address",
          "name": "plugin",
          "type": "address"
        },
        {
          "internalType": "uint8",
          "name": "pluginRequires",
          "type": "uint8"
        },
        {
          "internalType": "uint8",
          "name": "requiredPermission",
          "type": "uint8"
        },
        {
          "internalType": "uint8",
          "name": "givenPermission",
          "type": "uint8"
        }
      ],
      "name": "MissingPluginPermission",
      "type": "error"
    },
    {
      "inputs": [
        {
          "internalType": "address",
          "name": "plugin",
          "type": "address"
        },
        {
          "internalType": "uint64",
          "name": "listedAt",
          "type": "uint64"
        },
        {
          "internalType": "uint64",
          "name": "flaggedAt",
          "type": "uint64"
        },
        {
          "internalType": "uint8",
          "name": "moduleType",
          "type": "uint8"
        }
      ],
      "name": "ModuleNotPermitted",
      "type": "error"
    },
    {
      "inputs": [
        {
          "internalType": "address",
          "name": "account",
          "type": "address"
        },
        {
          "internalType": "address",
          "name": "plugin",
          "type": "address"
        }
      ],
      "name": "PluginAlreadyEnabled",
      "type": "error"
    },
    {
      "inputs": [
        {
          "internalType": "address",
          "name": "plugin",
          "type": "address"
        }
      ],
      "name": "PluginNotEnabled",
      "type": "error"
    },
    {
      "inputs": [
        {
          "internalType": "address",
          "name": "plugin",
          "type": "address"
        },
        {
          "internalType": "uint8",
          "name": "requiredPermissions",
          "type": "uint8"
        },
        {
          "internalType": "uint8",
          "name": "givenPermissions",
          "type": "uint8"
        }
      ],
      "name": "PluginPermissionsMismatch",
      "type": "error"
    },
    {
      "inputs": [
        {
          "internalType": "address",
          "name": "account",
          "type": "address"
        },
        {
          "internalType": "bytes32",
          "name": "metadataHash",
          "type": "bytes32"
        }
      ],
      "name": "RootAccessActionExecutionFailed",
      "type": "error"
    },
    {
      "inputs": [],
      "name": "ZeroPageSizeNotAllowed",
      "type": "error"
    },
    {
      "anonymous": false,
      "inputs": [
        {
          "indexed": true,
          "internalType": "address",
          "name": "account",
          "type": "address"
        },
        {
          "indexed": false,
          "internalType": "bytes32",
          "name": "metadataHash",
          "type": "bytes32"
        },
        {
          "indexed": false,
          "internalType": "uint256",
          "name": "nonce",
          "type": "uint256"
        }
      ],
      "name": "ActionsExecuted",
      "type": "event"
    },
    {
      "anonymous": false,
      "inputs": [
        {
          "indexed": true,
          "internalType": "address",
          "name": "account",
          "type": "address"
        },
        {
          "indexed": true,
          "internalType": "bytes4",
          "name": "selector",
          "type": "bytes4"
        },
        {
          "indexed": true,
          "internalType": "address",
          "name": "functionHandler",
          "type": "address"
        }
      ],
      "name": "FunctionHandlerChanged",
      "type": "event"
    },
    {
      "anonymous": false,
      "inputs": [
        {
          "indexed": true,
          "internalType": "address",
          "name": "account",
          "type": "address"
        },
        {
          "indexed": true,
          "internalType": "address",
          "name": "hooksAddress",
          "type": "address"
        }
      ],
      "name": "HooksChanged",
      "type": "event"
    },
    {
      "anonymous": false,
      "inputs": [
        {
          "indexed": true,
          "internalType": "address",
          "name": "previousOwner",
          "type": "address"
        },
        {
          "indexed": true,
          "internalType": "address",
          "name": "newOwner",
          "type": "address"
        }
      ],
      "name": "OwnershipTransferStarted",
      "type": "event"
    },
    {
      "anonymous": false,
      "inputs": [
        {
          "indexed": true,
          "internalType": "address",
          "name": "previousOwner",
          "type": "address"
        },
        {
          "indexed": true,
          "internalType": "address",
          "name": "newOwner",
          "type": "address"
        }
      ],
      "name": "OwnershipTransferred",
      "type": "event"
    },
    {
      "anonymous": false,
      "inputs": [
        {
          "indexed": true,
          "internalType": "address",
          "name": "account",
          "type": "address"
        },
        {
          "indexed": true,
          "internalType": "address",
          "name": "plugin",
          "type": "address"
        }
      ],
      "name": "PluginDisabled",
      "type": "event"
    },
    {
      "anonymous": false,
      "inputs": [
        {
          "indexed": true,
          "internalType": "address",
          "name": "account",
          "type": "address"
        },
        {
          "indexed": true,
          "internalType": "address",
          "name": "plugin",
          "type": "address"
        },
        {
          "indexed": false,
          "internalType": "uint8",
          "name": "permissions",
          "type": "uint8"
        }
      ],
      "name": "PluginEnabled",
      "type": "event"
    },
    {
      "anonymous": false,
      "inputs": [
        {
          "indexed": true,
          "internalType": "address",
          "name": "oldRegistry",
          "type": "address"
        },
        {
          "indexed": true,
          "internalType": "address",
          "name": "newRegistry",
          "type": "address"
        }
      ],
      "name": "RegistryChanged",
      "type": "event"
    },
    {
      "anonymous": false,
      "inputs": [
        {
          "indexed": true,
          "internalType": "address",
          "name": "account",
          "type": "address"
        },
        {
          "indexed": false,
          "internalType": "bytes32",
          "name": "metadataHash",
          "type": "bytes32"
        }
      ],
      "name": "RootAccessActionExecuted",
      "type": "event"
    },
    {
      "stateMutability": "nonpayable",
      "type": "fallback"
    },
    {
      "inputs": [],
      "name": "acceptOwnership",
      "outputs": [],
      "stateMutability": "nonpayable",
      "type": "function"
    },
    {
      "inputs": [
        {
          "internalType": "bytes32",
          "name": "",
          "type": "bytes32"
        },
        {
          "internalType": "bool",
          "name": "success",
          "type": "bool"
        }
      ],
      "name": "checkAfterExecution",
      "outputs": [],
      "stateMutability": "nonpayable",
      "type": "function"
    },
    {
      "inputs": [
        {
          "internalType": "address",
          "name": "to",
          "type": "address"
        },
        {
          "internalType": "uint256",
          "name": "value",
          "type": "uint256"
        },
        {
          "internalType": "bytes",
          "name": "data",
          "type": "bytes"
        },
        {
          "internalType": "enum Enum.Operation",
          "name": "operation",
          "type": "uint8"
        },
        {
          "internalType": "address",
          "name": "module",
          "type": "address"
        }
      ],
      "name": "checkModuleTransaction",
      "outputs": [
        {
          "internalType": "bytes32",
          "name": "moduleTxHash",
          "type": "bytes32"
        }
      ],
      "stateMutability": "nonpayable",
      "type": "function"
    },
    {
      "inputs": [
        {
          "internalType": "address",
          "name": "to",
          "type": "address"
        },
        {
          "internalType": "uint256",
          "name": "value",
          "type": "uint256"
        },
        {
          "internalType": "bytes",
          "name": "data",
          "type": "bytes"
        },
        {
          "internalType": "enum Enum.Operation",
          "name": "operation",
          "type": "uint8"
        },
        {
          "internalType": "uint256",
          "name": "safeTxGas",
          "type": "uint256"
        },
        {
          "internalType": "uint256",
          "name": "baseGas",
          "type": "uint256"
        },
        {
          "internalType": "uint256",
          "name": "gasPrice",
          "type": "uint256"
        },
        {
          "internalType": "address",
          "name": "gasToken",
          "type": "address"
        },
        {
          "internalType": "address payable",
          "name": "refundReceiver",
          "type": "address"
        },
        {
          "internalType": "bytes",
          "name": "signatures",
          "type": "bytes"
        },
        {
          "internalType": "address",
          "name": "msgSender",
          "type": "address"
        }
      ],
      "name": "checkTransaction",
      "outputs": [],
      "stateMutability": "nonpayable",
      "type": "function"
    },
    {
      "inputs": [
        {
          "internalType": "address",
          "name": "prevPlugin",
          "type": "address"
        },
        {
          "internalType": "address",
          "name": "plugin",
          "type": "address"
        }
      ],
      "name": "disablePlugin",
      "outputs": [],
      "stateMutability": "nonpayable",
      "type": "function"
    },
    {
      "inputs": [
        {
          "internalType": "address",
          "name": "plugin",
          "type": "address"
        },
        {
          "internalType": "uint8",
          "name": "permissions",
          "type": "uint8"
        }
      ],
      "name": "enablePlugin",
      "outputs": [],
      "stateMutability": "nonpayable",
      "type": "function"
    },
    {
      "inputs": [
        {
          "internalType": "address",
          "name": "",
          "type": "address"
        }
      ],
      "name": "enabledHooks",
      "outputs": [
        {
          "internalType": "address",
          "name": "",
          "type": "address"
        }
      ],
      "stateMutability": "view",
      "type": "function"
    },
    {
      "inputs": [
        {
          "internalType": "address",
          "name": "",
          "type": "address"
        },
        {
          "internalType": "address",
          "name": "",
          "type": "address"
        }
      ],
      "name": "enabledPlugins",
      "outputs": [
        {
          "internalType": "uint8",
          "name": "permissions",
          "type": "uint8"
        },
        {
          "internalType": "address",
          "name": "nextPluginPointer",
          "type": "address"
        }
      ],
      "stateMutability": "view",
      "type": "function"
    },
    {
      "inputs": [
        {
          "internalType": "address",
          "name": "account",
          "type": "address"
        },
        {
          "components": [
            {
              "components": [
                {
                  "internalType": "address payable",
                  "name": "to",
                  "type": "address"
                },
                {
                  "internalType": "uint256",
                  "name": "value",
                  "type": "uint256"
                },
                {
                  "internalType": "bytes",
                  "name": "data",
                  "type": "bytes"
                }
              ],
              "internalType": "struct SafeProtocolAction",
              "name": "action",
              "type": "tuple"
            },
            {
              "internalType": "uint256",
              "name": "nonce",
              "type": "uint256"
            },
            {
              "internalType": "bytes32",
              "name": "metadataHash",
              "type": "bytes32"
            }
          ],
          "internalType": "struct SafeRootAccess",
          "name": "rootAccess",
          "type": "tuple"
        }
      ],
      "name": "executeRootAccess",
      "outputs": [
        {
          "internalType": "bytes",
          "name": "data",
          "type": "bytes"
        }
      ],
      "stateMutability": "nonpayable",
      "type": "function"
    },
    {
      "inputs": [
        {
          "internalType": "address",
          "name": "account",
          "type": "address"
        },
        {
          "components": [
            {
              "components": [
                {
                  "internalType": "address payable",
                  "name": "to",
                  "type": "address"
                },
                {
                  "internalType": "uint256",
                  "name": "value",
                  "type": "uint256"
                },
                {
                  "internalType": "bytes",
                  "name": "data",
                  "type": "bytes"
                }
              ],
              "internalType": "struct SafeProtocolAction[]",
              "name": "actions",
              "type": "tuple[]"
            },
            {
              "internalType": "uint256",
              "name": "nonce",
              "type": "uint256"
            },
            {
              "internalType": "bytes32",
              "name": "metadataHash",
              "type": "bytes32"
            }
          ],
          "internalType": "struct SafeTransaction",
          "name": "transaction",
          "type": "tuple"
        }
      ],
      "name": "executeTransaction",
      "outputs": [
        {
          "internalType": "bytes[]",
          "name": "data",
          "type": "bytes[]"
        }
      ],
      "stateMutability": "nonpayable",
      "type": "function"
    },
    {
      "inputs": [
        {
          "internalType": "address",
          "name": "",
          "type": "address"
        },
        {
          "internalType": "bytes4",
          "name": "",
          "type": "bytes4"
        }
      ],
      "name": "functionHandlers",
      "outputs": [
        {
          "internalType": "address",
          "name": "",
          "type": "address"
        }
      ],
      "stateMutability": "view",
      "type": "function"
    },
    {
      "inputs": [
        {
          "internalType": "address",
          "name": "account",
          "type": "address"
        }
      ],
      "name": "getEnabledHooks",
      "outputs": [
        {
          "internalType": "address",
          "name": "hooksAddress",
          "type": "address"
        }
      ],
      "stateMutability": "view",
      "type": "function"
    },
    {
      "inputs": [
        {
          "internalType": "address",
          "name": "account",
          "type": "address"
        },
        {
          "internalType": "bytes4",
          "name": "selector",
          "type": "bytes4"
        }
      ],
      "name": "getFunctionHandler",
      "outputs": [
        {
          "internalType": "address",
          "name": "functionHandler",
          "type": "address"
        }
      ],
      "stateMutability": "view",
      "type": "function"
    },
    {
      "inputs": [
        {
          "internalType": "address",
          "name": "account",
          "type": "address"
        },
        {
          "internalType": "address",
          "name": "plugin",
          "type": "address"
        }
      ],
      "name": "getPluginInfo",
      "outputs": [
        {
          "components": [
            {
              "internalType": "uint8",
              "name": "permissions",
              "type": "uint8"
            },
            {
              "internalType": "address",
              "name": "nextPluginPointer",
              "type": "address"
            }
          ],
          "internalType": "struct SafeProtocolManager.PluginAccessInfo",
          "name": "enabled",
          "type": "tuple"
        }
      ],
      "stateMutability": "view",
      "type": "function"
    },
    {
      "inputs": [
        {
          "internalType": "address",
          "name": "start",
          "type": "address"
        },
        {
          "internalType": "uint256",
          "name": "pageSize",
          "type": "uint256"
        },
        {
          "internalType": "address",
          "name": "account",
          "type": "address"
        }
      ],
      "name": "getPluginsPaginated",
      "outputs": [
        {
          "internalType": "address[]",
          "name": "array",
          "type": "address[]"
        },
        {
          "internalType": "address",
          "name": "next",
          "type": "address"
        }
      ],
      "stateMutability": "view",
      "type": "function"
    },
    {
      "inputs": [
        {
          "internalType": "address",
          "name": "account",
          "type": "address"
        },
        {
          "internalType": "address",
          "name": "plugin",
          "type": "address"
        }
      ],
      "name": "isPluginEnabled",
      "outputs": [
        {
          "internalType": "bool",
          "name": "",
          "type": "bool"
        }
      ],
      "stateMutability": "view",
      "type": "function"
    },
    {
      "inputs": [],
      "name": "owner",
      "outputs": [
        {
          "internalType": "address",
          "name": "",
          "type": "address"
        }
      ],
      "stateMutability": "view",
      "type": "function"
    },
    {
      "inputs": [],
      "name": "pendingOwner",
      "outputs": [
        {
          "internalType": "address",
          "name": "",
          "type": "address"
        }
      ],
      "stateMutability": "view",
      "type": "function"
    },
    {
      "inputs": [],
      "name": "registry",
      "outputs": [
        {
          "internalType": "address",
          "name": "",
          "type": "address"
        }
      ],
      "stateMutability": "view",
      "type": "function"
    },
    {
      "inputs": [],
      "name": "renounceOwnership",
      "outputs": [],
      "stateMutability": "nonpayable",
      "type": "function"
    },
    {
      "inputs": [
        {
          "internalType": "bytes4",
          "name": "selector",
          "type": "bytes4"
        },
        {
          "internalType": "address",
          "name": "functionHandler",
          "type": "address"
        }
      ],
      "name": "setFunctionHandler",
      "outputs": [],
      "stateMutability": "nonpayable",
      "type": "function"
    },
    {
      "inputs": [
        {
          "internalType": "address",
          "name": "hooks",
          "type": "address"
        }
      ],
      "name": "setHooks",
      "outputs": [],
      "stateMutability": "nonpayable",
      "type": "function"
    },
    {
      "inputs": [
        {
          "internalType": "address",
          "name": "newRegistry",
          "type": "address"
        }
      ],
      "name": "setRegistry",
      "outputs": [],
      "stateMutability": "nonpayable",
      "type": "function"
    },
    {
      "inputs": [
        {
          "internalType": "bytes4",
          "name": "interfaceId",
          "type": "bytes4"
        }
      ],
      "name": "supportsInterface",
      "outputs": [
        {
          "internalType": "bool",
          "name": "",
          "type": "bool"
        }
      ],
      "stateMutability": "view",
      "type": "function"
    },
    {
      "inputs": [
        {
          "internalType": "address",
          "name": "",
          "type": "address"
        }
      ],
      "name": "tempHooksData",
      "outputs": [
        {
          "internalType": "address",
          "name": "hooksAddress",
          "type": "address"
        },
        {
          "internalType": "bytes",
          "name": "preCheckData",
          "type": "bytes"
        }
      ],
      "stateMutability": "view",
      "type": "function"
    },
    {
      "inputs": [
        {
          "internalType": "address",
          "name": "newOwner",
          "type": "address"
        }
      ],
      "name": "transferOwnership",
      "outputs": [],
      "stateMutability": "nonpayable",
      "type": "function"
    }
  ],
  "bytecode": {
    "object": "0x60806040523480156200001157600080fd5b5060405162003a4638038062003a468339810160408190526200003491620001ac565b8082620000413362000115565b6200004c8162000115565b6040516301ffc9a760e01b815263253bd7b760e01b60048201526001600160a01b038316906301ffc9a790602401602060405180830381865afa15801562000098573d6000803e3d6000fd5b505050506040513d601f19601f82011682018060405250810190620000be9190620001e4565b620000eb576040516324ea21a760e01b81526001600160a01b038316600482015260240160405180910390fd5b50600280546001600160a01b0319166001600160a01b0392909216919091179055506200020f9050565b600180546001600160a01b03191690556200013c816200013f602090811b6200232017901c565b50565b600080546001600160a01b038381166001600160a01b0319831681178455604051919092169283917f8be0079c531659141344cd1fd0a4f28419497f9722a3daafe3b4186f6b6457e09190a35050565b80516001600160a01b0381168114620001a757600080fd5b919050565b60008060408385031215620001c057600080fd5b620001cb836200018f565b9150620001db602084016200018f565b90509250929050565b600060208284031215620001f757600080fd5b815180151581146200020857600080fd5b9392505050565b613827806200021f6000396000f3fe608060405234801561001057600080fd5b50600436106101ae5760003560e01c80637b103999116100ee578063c703895c11610097578063df5236e111610071578063df5236e114610687578063e30c39781461069a578063f2fde38b146106ab578063fb63daa1146106be576101ae565b8063c703895c1461059e578063cccd7832146105ca578063d3ac5669146105fe576101ae565b806393271368116100c85780639327136814610565578063a0673f5c14610578578063a91ee0dc1461058b576101ae565b80637b1039991461051857806380479c341461052b5780638da5cb5b14610554576101ae565b806330f571f91161015b578063715018a611610135578063715018a6146104d4578063728c2972146104dc57806375f0bb52146104fd57806379ba509714610510576101ae565b806330f571f9146104725780633550b34414610492578063384ee8a4146104b3576101ae565b80631ea246161161018c5780631ea246161461038f5780631f026c91146103a25780631f09a43514610401576101ae565b806301ffc9a7146103325780630d7e358e1461035a5780630f9919151461036f575b600036606033836101bf848261279e565b6001600160a01b0380841660009081526005602090815260408083207fffffffff00000000000000000000000000000000000000000000000000000000861684529091529020549192501680610279576040517f7ad978a30000000000000000000000000000000000000000000000000000000081526001600160a01b03841660048201527fffffffff00000000000000000000000000000000000000000000000000000000831660248201526044015b60405180910390fd5b6000601436033560601c9050816001600160a01b03166325d6803f858360008036600090601460003690506102ae9190612815565b926102bb93929190612828565b6040518663ffffffff1660e01b81526004016102db95949392919061287d565b6000604051808303816000875af11580156102fa573d6000803e3d6000fd5b505050506040513d6000823e601f3d908101601f1916820160405261032291908101906129b9565b8051975060200195505050505050f35b610345610340366004612a23565b6106d1565b60405190151581526020015b60405180910390f35b61036d610368366004612a5e565b610802565b005b61038261037d366004612aad565b610999565b6040516103519190612b29565b61036d61039d366004612bb8565b610de0565b6103e06103b0366004612be6565b600660209081526000928352604080842090915290825290205460ff81169061010090046001600160a01b031682565b6040805160ff90931683526001600160a01b03909116602083015201610351565b61045a61040f366004612c04565b6001600160a01b0391821660009081526005602090815260408083207fffffffff00000000000000000000000000000000000000000000000000000000909416835292905220541690565b6040516001600160a01b039091168152602001610351565b610485610480366004612aad565b61111b565b6040516103519190612c39565b6104a56104a0366004612c4c565b6113eb565b604051610351929190612c8e565b6104c66104c1366004612ceb565b6115f5565b604051610351929190612d08565b61036d6116a4565b6104ef6104ea366004612d8a565b6116b8565b604051908152602001610351565b61036d61050b366004612e09565b6119ae565b61036d611ca8565b60025461045a906001600160a01b031681565b61045a610539366004612ceb565b6003602052600090815260409020546001600160a01b031681565b6000546001600160a01b031661045a565b61036d610573366004612efc565b611d50565b610345610586366004612be6565b611e55565b61036d610599366004612ceb565b611ea3565b61045a6105ac366004612ceb565b6001600160a01b039081166000908152600360205260409020541690565b61045a6105d8366004612c04565b60056020908152600092835260408084209091529082529020546001600160a01b031681565b61066061060c366004612be6565b604080518082018252600080825260209182018190526001600160a01b0394851681526006825282812093851681529281529181902081518083019092525460ff8116825261010090049092169082015290565b60408051825160ff1681526020928301516001600160a01b03169281019290925201610351565b61036d610695366004612be6565b611ffe565b6001546001600160a01b031661045a565b61036d6106b9366004612ceb565b61213a565b61036d6106cc366004612ceb565b6121b8565b60007f945b8148000000000000000000000000000000000000000000000000000000007fffffffff000000000000000000000000000000000000000000000000000000008316148061076457507fe6d7a83a000000000000000000000000000000000000000000000000000000007fffffffff000000000000000000000000000000000000000000000000000000008316145b806107b057507fffffffff0000000000000000000000000000000000000000000000000000000082167f3f6c68ec00000000000000000000000000000000000000000000000000000000145b806107fc57507fffffffff0000000000000000000000000000000000000000000000000000000082167f01ffc9a700000000000000000000000000000000000000000000000000000000145b92915050565b61080a61237d565b6001600160a01b0381161561090657610824816002612423565b6040517f01ffc9a70000000000000000000000000000000000000000000000000000000081527ff601ad150000000000000000000000000000000000000000000000000000000060048201526001600160a01b038216906301ffc9a790602401602060405180830381865afa1580156108a1573d6000803e3d6000fd5b505050506040513d601f19601f820116820180604052508101906108c59190612f21565b610906576040517f24ea21a70000000000000000000000000000000000000000000000000000000081526001600160a01b0382166004820152602401610270565b3360008181526005602090815260408083207fffffffff0000000000000000000000000000000000000000000000000000000087168085529252808320805473ffffffffffffffffffffffffffffffffffffffff19166001600160a01b0387169081179091559051909391927f31bef286390c4a9ba9b02b42210052c74ed84ea939c9ee4508f7ad380051c31891a45050565b6060826109a58161253f565b3360016109b28282612423565b6001600160a01b03808716600090815260036020526040902054168015801590606090610a8a57604080513360208083019190915282518083039091018152818301928390527f176ae7b7000000000000000000000000000000000000000000000000000000009092526001600160a01b0385169163176ae7b791610a40918d918d91600191604401612ff7565b6000604051808303816000875af1158015610a5f573d6000803e3d6000fd5b505050506040513d6000823e601f3d908101601f19168201604052610a8791908101906129b9565b90505b610a9488806130e1565b905067ffffffffffffffff811115610aae57610aae6128bb565b604051908082528060200260200182016040528015610ae157816020015b6060815260200190600190039081610acc5790505b5096506000610af089806130e1565b9050905060005b81811015610d055736610b0a8b806130e1565b83818110610b1a57610b1a613132565b9050602002810190610b2c9190613161565b905030610b3c6020830183612ceb565b6001600160a01b031603610b9857604080517fe37e72ed0000000000000000000000000000000000000000000000000000000081526001600160a01b038e166004820152908c0135602482015260448101839052606401610270565b6001600160a01b038c16610baf6020830183612ceb565b6001600160a01b031603610bcd57610bc88c60026125a2565b610bd8565b610bd88c60016125a2565b6000806001600160a01b038e16635229073f610bf76020860186612ceb565b6020860135610c09604088018861319f565b60006040518663ffffffff1660e01b8152600401610c2b9594939291906131e6565b6000604051808303816000875af1158015610c4a573d6000803e3d6000fd5b505050506040513d6000823e601f3d908101601f19168201604052610c729190810190613224565b9150915081610cd3578d8d60400135856040517f65cba8d4000000000000000000000000000000000000000000000000000000008152600401610270939291906001600160a01b039390931683526020830191909152604082015260600190565b808c8581518110610ce657610ce6613132565b602002602001018190525050505080610cfe9061326b565b9050610af7565b508215610d89576040517ff44d4ca30000000000000000000000000000000000000000000000000000000081526001600160a01b0385169063f44d4ca390610d56908d906001908790600401613285565b600060405180830381600087803b158015610d7057600080fd5b505af1158015610d84573d6000803e3d6000fd5b505050505b60408051818b013581526020808c0135908201526001600160a01b038c16917fedcb3ca706897f189363c9f878c558b9b366bd39ce4727d8b9bfcef113be05df910160405180910390a25050505050505092915050565b81610dea816126a3565b826001610df78282612423565b610dff61237d565b6040517f01ffc9a70000000000000000000000000000000000000000000000000000000081527f6930ebcc0000000000000000000000000000000000000000000000000000000060048201526001600160a01b038616906301ffc9a790602401602060405180830381865afa158015610e7c573d6000803e3d6000fd5b505050506040513d601f19601f82011682018060405250810190610ea09190612f21565b610ee1576040517f24ea21a70000000000000000000000000000000000000000000000000000000081526001600160a01b0386166004820152602401610270565b336000908152600660209081526040808320600184529091528082206001600160a01b03888116845291909220805490916101009091041615610f61576040517f0ed7370f0000000000000000000000000000000000000000000000000000000081523360048201526001600160a01b0388166024820152604401610270565b6000876001600160a01b031663e8e755b56040518163ffffffff1660e01b8152600401602060405180830381865afa158015610fa1573d6000803e3d6000fd5b505050506040513d601f19601f82011682018060405250810190610fc591906132af565b90508060ff168760ff1614611022576040517fc752c04b0000000000000000000000000000000000000000000000000000000081526001600160a01b038916600482015260ff808316602483015288166044820152606401610270565b825461010090046001600160a01b03166110615782547fffffffffffffffffffffff0000000000000000000000000000000000000000ff166101001783555b825482547fffffffffffffffffffffff00000000000000000000000000000000000000000016610100918290046001600160a01b03908116830260ff19169190911760ff8a16908117855585547fffffffffffffffffffffff0000000000000000000000000000000000000000ff16918b1692830291909117855560405190815233907f61fb70687f5b7cae1207b6abec96e5beb7971681e5e36de31585fbfa94a8c34c9060200160405180910390a35050505050505050565b6060826111278161253f565b3360016111348282612423565b3661113f8680613161565b6001600160a01b0380891660009081526003602052604090205491925016801580159060609061121a57604080513360208083019190915282518083039091018152818301928390527f7359b742000000000000000000000000000000000000000000000000000000009092526001600160a01b03851691637359b742916111d0918e918e916001916044016132cc565b6000604051808303816000875af11580156111ef573d6000803e3d6000fd5b505050506040513d6000823e601f3d908101601f1916820160405261121791908101906129b9565b90505b6112258a60046125a2565b60006001600160a01b038b16635229073f6112436020880188612ceb565b602088013561125560408a018a61319f565b60016040518663ffffffff1660e01b81526004016112779594939291906131e6565b6000604051808303816000875af1158015611296573d6000803e3d6000fd5b505050506040513d6000823e601f3d908101601f191682016040526112be9190810190613224565b995090508215611344576040517ff44d4ca30000000000000000000000000000000000000000000000000000000081526001600160a01b0385169063f44d4ca390611311908e9085908790600401613285565b600060405180830381600087803b15801561132b57600080fd5b505af115801561133f573d6000803e3d6000fd5b505050505b8015611396578a6001600160a01b03167f3afb8eada8f22d02ff94fbd523237fb70aa7e6b51ab68cbbe94a055de96479af8b6040013560405161138991815260200190565b60405180910390a26113dd565b604080517f82cc9f490000000000000000000000000000000000000000000000000000000081526001600160a01b038d166004820152908b01356024820152604401610270565b505050505050505092915050565b6060600083600003611429576040517f6731d75200000000000000000000000000000000000000000000000000000000815260040160405180910390fd5b6001600160a01b0385166001148061144657506114468386611e55565b611487576040517fc467af060000000000000000000000000000000000000000000000000000000081526001600160a01b0386166004820152602401610270565b8367ffffffffffffffff8111156114a0576114a06128bb565b6040519080825280602002602001820160405280156114c9578160200160208202803683370190505b506001600160a01b0380851660009081526006602090815260408083208a851684529091528120549294506101009092041691505b6001600160a01b0382161580159061152057506001600160a01b038216600114155b801561152b57508481105b15611597578183828151811061154357611543613132565b6001600160a01b03928316602091820292909201810191909152858216600090815260068252604080822095841682529490915292909220546101009004909116908061158f8161326b565b9150506114fe565b806000036115a457600191505b6001600160a01b0382166001148015906115bd57508015155b156115e957826115ce600183612815565b815181106115de576115de613132565b602002602001015191505b80835250935093915050565b600460205260009081526040902080546001820180546001600160a01b0390921692916116219061332d565b80601f016020809104026020016040519081016040528092919081815260200182805461164d9061332d565b801561169a5780601f1061166f5761010080835404028352916020019161169a565b820191906000526020600020905b81548152906001019060200180831161167d57829003601f168201915b5050505050905082565b6116ac612704565b6116b66000612778565b565b336000908152600360208181526040808420805460048452828620805473ffffffffffffffffffffffffffffffffffffffff19166001600160a01b039283161790559383525490519216916117179189918991899189918991016133a9565b60408051601f19818403018152919052805160209091012091506001600160a01b03811661174557506119a5565b60008460018111156117595761175961337a565b036118bc57604080516001808252818301909252600091816020015b604080516060808201835260008083526020830152918101919091528152602001906001900390816117755790505090506040518060600160405280896001600160a01b0316815260200188815260200187815250816000815181106117dd576117dd613132565b6020026020010181905250600060405180606001604052808381526020016000815260200160008019168152509050826001600160a01b031663176ae7b7338360018960405160200161183f91906001600160a01b0391909116815260200190565b6040516020818303038152906040526040518563ffffffff1660e01b815260040161186d94939291906134ed565b6000604051808303816000875af115801561188c573d6000803e3d6000fd5b505050506040513d6000823e601f3d908101601f191682016040526118b491908101906129b9565b5050506119a3565b60408051606080820183526001600160a01b038a8116835260208084018b90528385018a90528451928301855283835260008382018190528386015284518883168183015285518082039092018252808601958690527f7359b742000000000000000000000000000000000000000000000000000000009095529293919290851691637359b7429161195891339186916001919060440161355c565b6000604051808303816000875af1158015611977573d6000803e3d6000fd5b505050506040513d6000823e601f3d908101601f1916820160405261199f91908101906129b9565b5050505b505b95945050505050565b33600090815260036020818152604080842080546004845291909420805473ffffffffffffffffffffffffffffffffffffffff19166001600160a01b0392831617905591905290541680611a025750611c9b565b60008c8c8c8b8b8b8b8b8b8b604051602001611a279a9998979695949392919061357e565b60408051601f19818403018152919052905060008a6001811115611a4d57611a4d61337a565b03611bb157604080516001808252818301909252600091816020015b60408051606080820183526000808352602083015291810191909152815260200190600190039081611a6957905050905060405180606001604052808f6001600160a01b031681526020018e81526020018d81525081600081518110611ad157611ad1613132565b60209081029190910181019190915260408051606081018252838152600092810183905280820183905290517f176ae7b700000000000000000000000000000000000000000000000000000000815290916001600160a01b0386169163176ae7b791611b45913391869189906004016134ed565b6000604051808303816000875af1158015611b64573d6000803e3d6000fd5b505050506040513d6000823e601f3d908101601f19168201604052611b8c91908101906129b9565b33600090815260046020526040902060010190611ba9908261364a565b505050611c98565b600060405180606001604052808f6001600160a01b031681526020018e81526020018d8152509050600060405180606001604052808381526020016000815260200160008019168152509050836001600160a01b0316637359b74233836000876040518563ffffffff1660e01b8152600401611c30949392919061355c565b6000604051808303816000875af1158015611c4f573d6000803e3d6000fd5b505050506040513d6000823e601f3d908101601f19168201604052611c7791908101906129b9565b33600090815260046020526040902060010190611c94908261364a565b5050505b50505b5050505050505050505050565b60015433906001600160a01b03168114611d44576040517f08c379a000000000000000000000000000000000000000000000000000000000815260206004820152602960248201527f4f776e61626c6532537465703a2063616c6c6572206973206e6f74207468652060448201527f6e6577206f776e657200000000000000000000000000000000000000000000006064820152608401610270565b611d4d81612778565b50565b336000908152600460205260409020546001600160a01b031680611d7357505050565b3360008181526004602081905260409182902091517ff44d4ca30000000000000000000000000000000000000000000000000000000081526001600160a01b0385169363f44d4ca393611dd093919288926001909201910161370a565b600060405180830381600087803b158015611dea57600080fd5b505af1158015611dfe573d6000803e3d6000fd5b5050336000818152600460208181526040808420805473ffffffffffffffffffffffffffffffffffffffff191681558151808401909252848252949093525260019091019250611e4f91508261364a565b50505050565b600060016001600160a01b03831614801590611e9c57506001600160a01b038381166000908152600660209081526040808320868516845290915290205461010090041615155b9392505050565b611eab612704565b611eb361237d565b6040517f01ffc9a70000000000000000000000000000000000000000000000000000000081527f253bd7b70000000000000000000000000000000000000000000000000000000060048201526001600160a01b038216906301ffc9a790602401602060405180830381865afa158015611f30573d6000803e3d6000fd5b505050506040513d601f19601f82011682018060405250810190611f549190612f21565b611f95576040517f24ea21a70000000000000000000000000000000000000000000000000000000081526001600160a01b0382166004820152602401610270565b6002546040516001600160a01b038084169216907f4803049971913703d2dd43c06110dc7fad451e4603e9f485cbeebdda11263ab090600090a36002805473ffffffffffffffffffffffffffffffffffffffff19166001600160a01b0392909216919091179055565b80612008816126a3565b61201061237d565b3360009081526006602090815260408083206001600160a01b03878116855292528083208583168085529190932083549092610100909104161461208b576040517f9d9207af0000000000000000000000000000000000000000000000000000000081526001600160a01b0386166004820152602401610270565b805482546001600160a01b036101009283900481169092027fffffffffffffffffffffff0000000000000000000000000000000000000000ff821681178555835460ff199091167fffffffffffffffffffffff0000000000000000000000000000000000000000009283161760ff90911617845582541682556040519085169033907ffef2a54f476dede8e8f6ff5138b92d021b5e287e276e6e84ecbd7d18aed2262790600090a35050505050565b612142612704565b600180546001600160a01b03831673ffffffffffffffffffffffffffffffffffffffff1990911681179091556121806000546001600160a01b031690565b6001600160a01b03167f38d16b8cac22d99fc7c124b9cd0de2d3fa1faef420bfe791d8c362d765e2270060405160405180910390a350565b6121c061237d565b6001600160a01b038116156122bc576121da816004612423565b6040517f01ffc9a70000000000000000000000000000000000000000000000000000000081527f907e1c560000000000000000000000000000000000000000000000000000000060048201526001600160a01b038216906301ffc9a790602401602060405180830381865afa158015612257573d6000803e3d6000fd5b505050506040513d601f19601f8201168201806040525081019061227b9190612f21565b6122bc576040517f24ea21a70000000000000000000000000000000000000000000000000000000081526001600160a01b0382166004820152602401610270565b33600081815260036020526040808220805473ffffffffffffffffffffffffffffffffffffffff19166001600160a01b03861690811790915590519092917f4bdb0c6d693920823a574df92b20cb20886d27ac1e4e522e48f2e57bb668423b91a350565b600080546001600160a01b0383811673ffffffffffffffffffffffffffffffffffffffff19831681178455604051919092169283917f8be0079c531659141344cd1fd0a4f28419497f9722a3daafe3b4186f6b6457e09190a35050565b60143610156123b8576040517fca0ad26000000000000000000000000000000000000000000000000000000000815260040160405180910390fd5b7fffffffffffffffffffffffffffffffffffffffffffffffffffffffffffffffec36013560601c338114611d4d576040517f4c14f64c0000000000000000000000000000000000000000000000000000000081526001600160a01b0382166004820152602401610270565b6002546040517f253bd7b70000000000000000000000000000000000000000000000000000000081526001600160a01b03848116600483015260ff84166024830152600092839291169063253bd7b7906044016040805180830381865afa158015612492573d6000803e3d6000fd5b505050506040513d601f19601f820116820180604052508101906124b691906137c7565b915091508167ffffffffffffffff16600014806124dc575067ffffffffffffffff811615155b15611e4f576040517fcad17e690000000000000000000000000000000000000000000000000000000081526001600160a01b038516600482015267ffffffffffffffff80841660248301528216604482015260ff84166064820152608401610270565b6001600160a01b038181166000908152600660209081526040808320338452909152902054610100900416611d4d576040517f3c61b94d000000000000000000000000000000000000000000000000000000008152336004820152602401610270565b6001600160a01b0382166000908152600660209081526040808320338085529083528184205482517fe8e755b5000000000000000000000000000000000000000000000000000000008152925160ff9091169493919263e8e755b59260048083019391928290030181865afa15801561261f573d6000803e3d6000fd5b505050506040513d601f19601f8201168201806040525081019061264391906132af565b90508260ff16838383161660ff1614611e4f576040517f7295e93600000000000000000000000000000000000000000000000000000000815233600482015260ff8083166024830152808516604483015283166064820152608401610270565b6001600160a01b03811615806126c257506001600160a01b0381166001145b15611d4d576040517fc467af060000000000000000000000000000000000000000000000000000000081526001600160a01b0382166004820152602401610270565b6000546001600160a01b031633146116b6576040517f08c379a000000000000000000000000000000000000000000000000000000000815260206004820181905260248201527f4f776e61626c653a2063616c6c6572206973206e6f7420746865206f776e65726044820152606401610270565b6001805473ffffffffffffffffffffffffffffffffffffffff19169055611d4d81612320565b7fffffffff0000000000000000000000000000000000000000000000000000000081358181169160048510156127de5780818660040360031b1b83161692505b505092915050565b7f4e487b7100000000000000000000000000000000000000000000000000000000600052601160045260246000fd5b818103818111156107fc576107fc6127e6565b6000808585111561283857600080fd5b8386111561284557600080fd5b5050820193919092039150565b818352818160208501375060006020828401015260006020601f19601f840116840101905092915050565b60006001600160a01b038088168352808716602084015250846040830152608060608301526128b0608083018486612852565b979650505050505050565b7f4e487b7100000000000000000000000000000000000000000000000000000000600052604160045260246000fd5b604051601f8201601f1916810167ffffffffffffffff81118282101715612913576129136128bb565b604052919050565b600067ffffffffffffffff821115612935576129356128bb565b50601f01601f191660200190565b60005b8381101561295e578181015183820152602001612946565b50506000910152565b600082601f83011261297857600080fd5b815161298b6129868261291b565b6128ea565b8181528460208386010111156129a057600080fd5b6129b1826020830160208701612943565b949350505050565b6000602082840312156129cb57600080fd5b815167ffffffffffffffff8111156129e257600080fd5b6129b184828501612967565b80357fffffffff0000000000000000000000000000000000000000000000000000000081168114612a1e57600080fd5b919050565b600060208284031215612a3557600080fd5b611e9c826129ee565b6001600160a01b0381168114611d4d57600080fd5b8035612a1e81612a3e565b60008060408385031215612a7157600080fd5b612a7a836129ee565b91506020830135612a8a81612a3e565b809150509250929050565b600060608284031215612aa757600080fd5b50919050565b60008060408385031215612ac057600080fd5b8235612acb81612a3e565b9150602083013567ffffffffffffffff811115612ae757600080fd5b612af385828601612a95565b9150509250929050565b60008151808452612b15816020860160208601612943565b601f01601f19169290920160200192915050565b6000602080830181845280855180835260408601915060408160051b870101925083870160005b82811015612b9c577fffffffffffffffffffffffffffffffffffffffffffffffffffffffffffffffc0888603018452612b8a858351612afd565b94509285019290850190600101612b50565b5092979650505050505050565b60ff81168114611d4d57600080fd5b60008060408385031215612bcb57600080fd5b8235612bd681612a3e565b91506020830135612a8a81612ba9565b60008060408385031215612bf957600080fd5b8235612a7a81612a3e565b60008060408385031215612c1757600080fd5b8235612c2281612a3e565b9150612c30602084016129ee565b90509250929050565b602081526000611e9c6020830184612afd565b600080600060608486031215612c6157600080fd5b8335612c6c81612a3e565b9250602084013591506040840135612c8381612a3e565b809150509250925092565b604080825283519082018190526000906020906060840190828701845b82811015612cd05781516001600160a01b031684529284019290840190600101612cab565b5050506001600160a01b039490941692019190915250919050565b600060208284031215612cfd57600080fd5b8135611e9c81612a3e565b6001600160a01b03831681526040602082015260006129b16040830184612afd565b600082601f830112612d3b57600080fd5b8135612d496129868261291b565b818152846020838601011115612d5e57600080fd5b816020850160208301376000918101602001919091529392505050565b803560028110612a1e57600080fd5b600080600080600060a08688031215612da257600080fd5b8535612dad81612a3e565b945060208601359350604086013567ffffffffffffffff811115612dd057600080fd5b612ddc88828901612d2a565b935050612deb60608701612d7b565b91506080860135612dfb81612a3e565b809150509295509295909350565b60008060008060008060008060008060006101608c8e031215612e2b57600080fd5b612e348c612a53565b9a5060208c0135995067ffffffffffffffff8060408e01351115612e5757600080fd5b612e678e60408f01358f01612d2a565b9950612e7560608e01612d7b565b985060808d0135975060a08d0135965060c08d01359550612e9860e08e01612a53565b9450612ea76101008e01612a53565b9350806101208e01351115612ebb57600080fd5b50612ecd8d6101208e01358e01612d2a565b9150612edc6101408d01612a53565b90509295989b509295989b9093969950565b8015158114611d4d57600080fd5b60008060408385031215612f0f57600080fd5b823591506020830135612a8a81612eee565b600060208284031215612f3357600080fd5b8151611e9c81612eee565b60008135612f4b81612a3e565b6001600160a01b038116845250602082013560208401526040820135601e19833603018112612f7957600080fd5b820160208101903567ffffffffffffffff811115612f9657600080fd5b803603821315612fa557600080fd5b606060408601526119a5606086018284612852565b600082357fffffffffffffffffffffffffffffffffffffffffffffffffffffffffffffffa1833603018112612fee57600080fd5b90910192915050565b6001600160a01b03851681526000602060808184015260e083018635601e1988360301811261302557600080fd5b8701828101903567ffffffffffffffff81111561304157600080fd5b8060051b80360383131561305457600080fd5b60606080880152928190526101009286018301928290870160005b838110156130a55760ff198987030182526130938661308e8588612fba565b612f3e565b9550918601919086019060010161306f565b50505050508187013560a0850152604087013560c085015285604085015283810360608501526130d58186612afd565b98975050505050505050565b6000808335601e198436030181126130f857600080fd5b83018035915067ffffffffffffffff82111561311357600080fd5b6020019150600581901b360382131561312b57600080fd5b9250929050565b7f4e487b7100000000000000000000000000000000000000000000000000000000600052603260045260246000fd5b600082357fffffffffffffffffffffffffffffffffffffffffffffffffffffffffffffffa183360301811261319557600080fd5b9190910192915050565b6000808335601e198436030181126131b657600080fd5b83018035915067ffffffffffffffff8211156131d157600080fd5b60200191503681900382131561312b57600080fd5b6001600160a01b038616815284602082015260806040820152600061320f608083018587612852565b905060ff831660608301529695505050505050565b6000806040838503121561323757600080fd5b825161324281612eee565b602084015190925067ffffffffffffffff81111561325f57600080fd5b612af385828601612967565b6000600019820361327e5761327e6127e6565b5060010190565b6001600160a01b038416815282151560208201526060604082015260006119a56060830184612afd565b6000602082840312156132c157600080fd5b8151611e9c81612ba9565b6001600160a01b03851681526080602082015260006132eb8586612fba565b606060808401526132ff60e0840182612f3e565b9050602086013560a0840152604086013560c084015284604084015282810360608401526128b08185612afd565b600181811c9082168061334157607f821691505b602082108103612aa7577f4e487b7100000000000000000000000000000000000000000000000000000000600052602260045260246000fd5b7f4e487b7100000000000000000000000000000000000000000000000000000000600052602160045260246000fd5b60006001600160a01b03808816835286602084015260a060408401526133d260a0840187612afd565b91506002851061340b577f4e487b7100000000000000000000000000000000000000000000000000000000600052602160045260246000fd5b8460608401528084166080840152509695505050505050565b6001600160a01b0381511682526020810151602083015260006040820151606060408501526129b16060850182612afd565b60006060830182516060855281815180845260808701915060808160051b88010193506020808401935060005b828110156134cf577fffffffffffffffffffffffffffffffffffffffffffffffffffffffffffffff808987030184526134bd868651613424565b95509381019392810192600101613483565b50868101519088015250505060409283015192909301919091525090565b6001600160a01b038516815260806020820152600061350f6080830186613456565b84604084015282810360608401526128b08185612afd565b600081516060845261353c6060850182613424565b905060208301516020850152604083015160408501528091505092915050565b6001600160a01b038516815260806020820152600061350f6080830186613527565b60006101406001600160a01b03808e1684528c60208501528160408501526135a88285018d612afd565b91508a60608501528960808501528860a085015280881660c085015280871660e08501528382036101008501526135df8287612afd565b925080851661012085015250509b9a5050505050505050505050565b601f82111561364557600081815260208120601f850160051c810160208610156136225750805b601f850160051c820191505b818110156136415782815560010161362e565b5050505b505050565b815167ffffffffffffffff811115613664576136646128bb565b61367881613672845461332d565b846135fb565b602080601f8311600181146136ad57600084156136955750858301515b600019600386901b1c1916600185901b178555613641565b600085815260208120601f198616915b828110156136dc578886015182559484019460019091019084016136bd565b50858210156136fa5787850151600019600388901b60f8161c191681555b5050505050600190811b01905550565b6001600160a01b0384168152600060208415158184015260606040840152600084546137358161332d565b806060870152608060018084166000811461375757600181146137715761379f565b60ff198516838a01528284151560051b8a0101955061379f565b896000528660002060005b858110156137975781548b820186015290830190880161377c565b8a0184019650505b50939a9950505050505050505050565b805167ffffffffffffffff81168114612a1e57600080fd5b600080604083850312156137da57600080fd5b6137e3836137af565b9150612c30602084016137af56fea264697066735822122062d0401624b86b62d60de8a0b9bb7a6966f8c7b2fd55cf7f8fb7e3d4df05d2bb64736f6c63430008120033",
    "linkReferences": {}
  },
  "methodIdentifiers": {
    "acceptOwnership()": "79ba5097",
    "checkAfterExecution(bytes32,bool)": "93271368",
    "checkModuleTransaction(address,uint256,bytes,uint8,address)": "728c2972",
    "checkTransaction(address,uint256,bytes,uint8,uint256,uint256,uint256,address,address,bytes,address)": "75f0bb52",
    "disablePlugin(address,address)": "df5236e1",
    "enablePlugin(address,uint8)": "1ea24616",
    "enabledHooks(address)": "80479c34",
    "enabledPlugins(address,address)": "1f026c91",
    "executeRootAccess(address,((address,uint256,bytes),uint256,bytes32))": "30f571f9",
    "executeTransaction(address,((address,uint256,bytes)[],uint256,bytes32))": "0f991915",
    "functionHandlers(address,bytes4)": "cccd7832",
    "getEnabledHooks(address)": "c703895c",
    "getFunctionHandler(address,bytes4)": "1f09a435",
    "getPluginInfo(address,address)": "d3ac5669",
    "getPluginsPaginated(address,uint256,address)": "3550b344",
    "isPluginEnabled(address,address)": "a0673f5c",
    "owner()": "8da5cb5b",
    "pendingOwner()": "e30c3978",
    "registry()": "7b103999",
    "renounceOwnership()": "715018a6",
    "setFunctionHandler(bytes4,address)": "0d7e358e",
    "setHooks(address)": "fb63daa1",
    "setRegistry(address)": "a91ee0dc",
    "supportsInterface(bytes4)": "01ffc9a7",
    "tempHooksData(address)": "384ee8a4",
    "transferOwnership(address)": "f2fde38b"
  },
  "id": 39
}