{
  "abi": [
    {
      "inputs": [
        {
          "internalType": "address",
          "name": "_safeProtocolManager",
          "type": "address"
        },
        {
          "internalType": "address",
          "name": "_ecrecoverVerifier",
          "type": "address"
        },
        {
          "internalType": "address",
          "name": "_webAuthnVerifier",
          "type": "address"
        },
        {
          "internalType": "address",
          "name": "_secretVerifier",
          "type": "address"
        },
        {
          "internalType": "address",
          "name": "_socialRecoverVerifier",
          "type": "address"
        }
      ],
      "stateMutability": "nonpayable",
      "type": "constructor"
    },
    {
      "anonymous": false,
      "inputs": [
        {
          "indexed": true,
          "internalType": "address",
          "name": "previousOwner",
          "type": "address"
        },
        {
          "indexed": true,
          "internalType": "address",
          "name": "newOwner",
          "type": "address"
        }
      ],
      "name": "OwnershipTransferred",
      "type": "event"
    },
    {
      "inputs": [
        {
          "internalType": "address",
          "name": "_safe",
          "type": "address"
        },
        {
          "internalType": "uint256",
          "name": "_salt",
          "type": "uint256"
        }
      ],
      "name": "createRecoveryPluginNoir",
      "outputs": [
        {
          "internalType": "contract RecoveryPluginNoir",
          "name": "proxy",
          "type": "address"
        }
      ],
      "stateMutability": "nonpayable",
      "type": "function"
    },
    {
      "inputs": [],
      "name": "ecrecoverVerifier",
      "outputs": [
        {
          "internalType": "address",
          "name": "",
          "type": "address"
        }
      ],
      "stateMutability": "view",
      "type": "function"
    },
    {
      "inputs": [
        {
          "internalType": "address",
          "name": "_safe",
          "type": "address"
        },
        {
          "internalType": "uint256",
          "name": "_salt",
          "type": "uint256"
        }
      ],
      "name": "getAddress",
      "outputs": [
        {
          "internalType": "address",
          "name": "",
          "type": "address"
        }
      ],
      "stateMutability": "view",
      "type": "function"
    },
    {
      "inputs": [
        {
          "internalType": "address",
          "name": "_safe",
          "type": "address"
        }
      ],
      "name": "getPluginAddr",
      "outputs": [
        {
          "internalType": "address",
          "name": "",
          "type": "address"
        }
      ],
      "stateMutability": "view",
      "type": "function"
    },
    {
      "inputs": [],
      "name": "owner",
      "outputs": [
        {
          "internalType": "address",
          "name": "",
          "type": "address"
        }
      ],
      "stateMutability": "view",
      "type": "function"
    },
    {
      "inputs": [],
      "name": "recoveryPluginNoirImp",
      "outputs": [
        {
          "internalType": "contract RecoveryPluginNoir",
          "name": "",
          "type": "address"
        }
      ],
      "stateMutability": "view",
      "type": "function"
    },
    {
      "inputs": [],
      "name": "renounceOwnership",
      "outputs": [],
      "stateMutability": "nonpayable",
      "type": "function"
    },
    {
      "inputs": [],
      "name": "safeProtocolManager",
      "outputs": [
        {
          "internalType": "address",
          "name": "",
          "type": "address"
        }
      ],
      "stateMutability": "view",
      "type": "function"
    },
    {
      "inputs": [
        {
          "internalType": "address",
          "name": "",
          "type": "address"
        }
      ],
      "name": "safeToPlugins",
      "outputs": [
        {
          "internalType": "address",
          "name": "",
          "type": "address"
        }
      ],
      "stateMutability": "view",
      "type": "function"
    },
    {
      "inputs": [],
      "name": "secretVerifier",
      "outputs": [
        {
          "internalType": "address",
          "name": "",
          "type": "address"
        }
      ],
      "stateMutability": "view",
      "type": "function"
    },
    {
      "inputs": [
        {
          "internalType": "address",
          "name": "_manager",
          "type": "address"
        }
      ],
      "name": "setSafeProtocolManagerAddr",
      "outputs": [],
      "stateMutability": "nonpayable",
      "type": "function"
    },
    {
      "inputs": [
        {
          "internalType": "uint256",
          "name": "_recoveryType",
          "type": "uint256"
        },
        {
          "internalType": "address",
          "name": "_verifier",
          "type": "address"
        }
      ],
      "name": "setVerifier",
      "outputs": [],
      "stateMutability": "nonpayable",
      "type": "function"
    },
    {
      "inputs": [],
      "name": "socialRecoverVerifier",
      "outputs": [
        {
          "internalType": "address",
          "name": "",
          "type": "address"
        }
      ],
      "stateMutability": "view",
      "type": "function"
    },
    {
      "inputs": [
        {
          "internalType": "address",
          "name": "newOwner",
          "type": "address"
        }
      ],
      "name": "transferOwnership",
      "outputs": [],
      "stateMutability": "nonpayable",
      "type": "function"
    },
    {
      "inputs": [],
      "name": "webAuthnVerifier",
      "outputs": [
        {
          "internalType": "address",
          "name": "",
          "type": "address"
        }
      ],
      "stateMutability": "view",
      "type": "function"
    }
  ],
  "bytecode": {
    "object": "0x60a060405234801561001057600080fd5b5060405162005d6538038062005d6583398101604081905261003191610144565b61003a336100ca565b6040516100469061011a565b604051809103906000f080158015610062573d6000803e3d6000fd5b506001600160a01b03908116608052600180546001600160a01b031990811697831697909717905560048054871695821695909517909455600280548616938516939093179092556003805485169184169190911790556005805490931691161790556101a9565b600080546001600160a01b038381166001600160a01b0319831681178455604051919092169283917f8be0079c531659141344cd1fd0a4f28419497f9722a3daafe3b4186f6b6457e09190a35050565b6148dd806200148883390190565b80516001600160a01b038116811461013f57600080fd5b919050565b600080600080600060a0868803121561015c57600080fd5b61016586610128565b945061017360208701610128565b935061018160408701610128565b925061018f60608701610128565b915061019d60808701610128565b90509295509295909350565b6080516112b5620001d360003960008181610171015281816104e8015261063301526112b56000f3fe60806040523480156200001157600080fd5b5060043610620001095760003560e01c80638432222311620000a35780639485afa6116200006e5780639485afa6146200022e578063a6d1fec51462000245578063bbb76c1d146200025c578063f2fde38b146200028b57600080fd5b80638432222314620001c55780638cb84e1814620001f15780638da5cb5b14620002085780638e482341146200021a57600080fd5b806338a7359111620000e457806338a73591146200016b578063715018a614620001935780637b49fa19146200019d5780637c64dd7614620001b157600080fd5b8063024e5d15146200010e57806317f5705e146200013e5780631957ba4e1462000152575b600080fd5b60035462000122906001600160a01b031681565b6040516001600160a01b03909116815260200160405180910390f35b60055462000122906001600160a01b031681565b6200016962000163366004620009ba565b620002a2565b005b620001227f000000000000000000000000000000000000000000000000000000000000000081565b6200016962000459565b60025462000122906001600160a01b031681565b60045462000122906001600160a01b031681565b62000122620001d6366004620009e9565b6006602052600090815260409020546001600160a01b031681565b620001226200020236600462000a07565b62000471565b6000546001600160a01b031662000122565b60015462000122906001600160a01b031681565b620001226200023f36600462000a07565b620005b9565b6200016962000256366004620009e9565b6200072e565b620001226200026d366004620009e9565b6001600160a01b039081166000908152600660205260409020541690565b620001696200029c366004620009e9565b620007d9565b620002ac62000889565b6001600160a01b03811662000322576040517f08c379a000000000000000000000000000000000000000000000000000000000815260206004820152600c60248201527f5a45524f5f41444452455353000000000000000000000000000000000000000060448201526064015b60405180910390fd5b8160000362000357576004805473ffffffffffffffffffffffffffffffffffffffff19166001600160a01b0383161790555050565b816001036200038c576002805473ffffffffffffffffffffffffffffffffffffffff19166001600160a01b0383161790555050565b81600203620003c1576003805473ffffffffffffffffffffffffffffffffffffffff19166001600160a01b0383161790555050565b81600303620003f6576005805473ffffffffffffffffffffffffffffffffffffffff19166001600160a01b0383161790555050565b6040517f08c379a000000000000000000000000000000000000000000000000000000000815260206004820152600c60248201527f494e56414c49445f545950450000000000000000000000000000000000000000604482015260640162000319565b6200046362000889565b6200046f6000620008ff565b565b6000620005b08260001b604051806020016200048d906200098f565b601f1982820381018352601f9091011660408190526001546004546002546003546005546001600160a01b038c81166024880152948516604487015292841660648601529083166084850152821660a48401521660c48201527f00000000000000000000000000000000000000000000000000000000000000009060e40160408051601f19818403018152918152602080830180517bffffffffffffffffffffffffffffffffffffffffffffffffffffffff167fcc2a9a5b000000000000000000000000000000000000000000000000000000001790529051620005749392910162000a5a565b60408051601f198184030181529082905262000594929160200162000a9f565b604051602081830303815290604052805190602001206200095c565b90505b92915050565b600080620005c8848462000471565b90506001600160a01b0381163b8015620005e557509050620005b3565b6001546004546002546003546005546040516001600160a01b03808c166024830152958616604482015293851660648501529184166084840152831660a48301529190911660c482015284907f00000000000000000000000000000000000000000000000000000000000000009060e40160408051601f198184030181529181526020820180517bffffffffffffffffffffffffffffffffffffffffffffffffffffffff167fcc2a9a5b0000000000000000000000000000000000000000000000000000000017905251620006ba906200098f565b620006c792919062000a5a565b8190604051809103906000f5905080158015620006e8573d6000803e3d6000fd5b506001600160a01b039586166000908152600660205260409020805473ffffffffffffffffffffffffffffffffffffffff19169682169690961790955550929392505050565b6200073862000889565b6001600160a01b038116620007aa576040517f08c379a000000000000000000000000000000000000000000000000000000000815260206004820152600c60248201527f5a45524f5f414444524553530000000000000000000000000000000000000000604482015260640162000319565b6001805473ffffffffffffffffffffffffffffffffffffffff19166001600160a01b0392909216919091179055565b620007e362000889565b6001600160a01b0381166200087b576040517f08c379a000000000000000000000000000000000000000000000000000000000815260206004820152602660248201527f4f776e61626c653a206e6577206f776e657220697320746865207a65726f206160448201527f6464726573730000000000000000000000000000000000000000000000000000606482015260840162000319565b6200088681620008ff565b50565b6000546001600160a01b031633146200046f576040517f08c379a000000000000000000000000000000000000000000000000000000000815260206004820181905260248201527f4f776e61626c653a2063616c6c6572206973206e6f7420746865206f776e6572604482015260640162000319565b600080546001600160a01b0383811673ffffffffffffffffffffffffffffffffffffffff19831681178455604051919092169283917f8be0079c531659141344cd1fd0a4f28419497f9722a3daafe3b4186f6b6457e09190a35050565b6000620005b08383306000604051836040820152846020820152828152600b8101905060ff815360559020949350505050565b6107ad8062000ad383390190565b80356001600160a01b0381168114620009b557600080fd5b919050565b60008060408385031215620009ce57600080fd5b82359150620009e0602084016200099d565b90509250929050565b600060208284031215620009fc57600080fd5b620005b0826200099d565b6000806040838503121562000a1b57600080fd5b62000a26836200099d565b946020939093013593505050565b60005b8381101562000a5157818101518382015260200162000a37565b50506000910152565b6001600160a01b0383168152604060208201526000825180604084015262000a8a81606085016020870162000a34565b601f01601f1916919091016060019392505050565b6000835162000ab381846020880162000a34565b83519083019062000ac981836020880162000a34565b0194935050505056fe60806040526040516107ad3803806107ad83398101604081905261002291610319565b61002e82826000610035565b5050610436565b61003e8361006b565b60008251118061004b5750805b156100665761006483836100ab60201b6100291760201c565b505b505050565b610074816100d7565b6040516001600160a01b038216907fbc7cd75a20ee27fd9adebab32041f755214dbc6bffa90cc0225b39da2e5c2d3b90600090a250565b60606100d08383604051806060016040528060278152602001610786602791396101a9565b9392505050565b6100ea8161022260201b6100551760201c565b6101515760405162461bcd60e51b815260206004820152602d60248201527f455243313936373a206e657720696d706c656d656e746174696f6e206973206e60448201526c1bdd08184818dbdb9d1c9858dd609a1b60648201526084015b60405180910390fd5b806101887f360894a13ba1a3210667c828492db98dca3e2076cc3735a920a3ca505d382bbc60001b61023160201b6100711760201c565b80546001600160a01b0319166001600160a01b039290921691909117905550565b6060600080856001600160a01b0316856040516101c691906103e7565b600060405180830381855af49150503d8060008114610201576040519150601f19603f3d011682016040523d82523d6000602084013e610206565b606091505b50909250905061021886838387610234565b9695505050505050565b6001600160a01b03163b151590565b90565b606083156102a357825160000361029c576001600160a01b0385163b61029c5760405162461bcd60e51b815260206004820152601d60248201527f416464726573733a2063616c6c20746f206e6f6e2d636f6e74726163740000006044820152606401610148565b50816102ad565b6102ad83836102b5565b949350505050565b8151156102c55781518083602001fd5b8060405162461bcd60e51b81526004016101489190610403565b634e487b7160e01b600052604160045260246000fd5b60005b838110156103105781810151838201526020016102f8565b50506000910152565b6000806040838503121561032c57600080fd5b82516001600160a01b038116811461034357600080fd5b60208401519092506001600160401b038082111561036057600080fd5b818501915085601f83011261037457600080fd5b815181811115610386576103866102df565b604051601f8201601f19908116603f011681019083821181831017156103ae576103ae6102df565b816040528281528860208487010111156103c757600080fd5b6103d88360208301602088016102f5565b80955050505050509250929050565b600082516103f98184602087016102f5565b9190910192915050565b60208152600082518060208401526104228160408501602087016102f5565b601f01601f19169190910160400192915050565b610341806104456000396000f3fe60806040523661001357610011610017565b005b6100115b610027610022610074565b6100b9565b565b606061004e83836040518060600160405280602781526020016102e5602791396100dd565b9392505050565b73ffffffffffffffffffffffffffffffffffffffff163b151590565b90565b60006100b47f360894a13ba1a3210667c828492db98dca3e2076cc3735a920a3ca505d382bbc5473ffffffffffffffffffffffffffffffffffffffff1690565b905090565b3660008037600080366000845af43d6000803e8080156100d8573d6000f35b3d6000fd5b60606000808573ffffffffffffffffffffffffffffffffffffffff16856040516101079190610277565b600060405180830381855af49150503d8060008114610142576040519150601f19603f3d011682016040523d82523d6000602084013e610147565b606091505b509150915061015886838387610162565b9695505050505050565b606083156101fd5782516000036101f65773ffffffffffffffffffffffffffffffffffffffff85163b6101f6576040517f08c379a000000000000000000000000000000000000000000000000000000000815260206004820152601d60248201527f416464726573733a2063616c6c20746f206e6f6e2d636f6e747261637400000060448201526064015b60405180910390fd5b5081610207565b610207838361020f565b949350505050565b81511561021f5781518083602001fd5b806040517f08c379a00000000000000000000000000000000000000000000000000000000081526004016101ed9190610293565b60005b8381101561026e578181015183820152602001610256565b50506000910152565b60008251610289818460208701610253565b9190910192915050565b60208152600082518060208401526102b2816040850160208701610253565b601f017fffffffffffffffffffffffffffffffffffffffffffffffffffffffffffffffe016919091016040019291505056fe416464726573733a206c6f772d6c6576656c2064656c65676174652063616c6c206661696c6564a26469706673582212209708f75454895ecdaa2b7bdfd35fade6adecf066ff3d031ef59fb2392916208664736f6c63430008120033416464726573733a206c6f772d6c6576656c2064656c65676174652063616c6c206661696c6564a264697066735822122052ad6d19a697e3f123fbbb03680e1f70666fb98a43c355e9d851d2228cea32cd64736f6c6343000812003360a06040523060805234801561001457600080fd5b5060805161489161004c60003960008181610c0c01528181610ca201528181610ed701528181610f6d015261124401526148916000f3fe6080604052600436106103085760003560e01c80637a04c8651161019a578063cc2a9a5b116100e1578063e6f352c91161008a578063f3d3f54911610064578063f3d3f549146108e0578063f5120d6214610900578063fb0c75491461091557600080fd5b8063e6f352c914610883578063e8e755b5146108a4578063ec33ddb7146108c057600080fd5b8063dada7ca2116100bb578063dada7ca21461082d578063e679530614610842578063e6e1247e1461086357600080fd5b8063cc2a9a5b146107a9578063cdb44775146107c9578063d3d72d2a146107e957600080fd5b80638e48234111610143578063b38103401161011d578063b381034014610764578063be193d2714610779578063c5a1d7f01461079357600080fd5b80638e4823411461070f5780639a8f18f31461072f578063a3c0f0b71461074f57600080fd5b80637d9e0141116101745780637d9e0141146106b857806383b1a8c1146106d857806387dee39f146106f957600080fd5b80637a04c865146105f95780637b49fa19146106785780637c64dd761461069857600080fd5b80633659cfe61161025e57806352d1902d1161020757806357a60326116101e157806357a603261461058c578063665caab7146105ac57806367a277a4146105cc57600080fd5b806352d1902d1461054c57806354fd4d50146105615780635695f2921461057657600080fd5b80634bc618d2116102385780634bc618d2146104e45780634f1ef2861461050457806351a2f17a1461051757600080fd5b80633659cfe61461048e578063403f69d2146104ae57806342cde4e8146104ce57600080fd5b80631788430b116102c057806323b260751161029a57806323b26075146104365780632cdfb6ae146104575780632e56f60d1461047757600080fd5b80631788430b146103d657806317f5705e146103f6578063186f03541461041657600080fd5b8063024e5d15116102f1578063024e5d151461036657806306fdde031461039e5780630ce03f2d146103c057600080fd5b8063010a623c1461030d57806301ffc9a714610336575b600080fd5b34801561031957600080fd5b5061032360075481565b6040519081526020015b60405180910390f35b34801561034257600080fd5b50610356610351366004613a7e565b61092c565b604051901515815260200161032d565b34801561037257600080fd5b50600c54610386906001600160a01b031681565b6040516001600160a01b03909116815260200161032d565b3480156103aa57600080fd5b506103b36109c5565b60405161032d9190613b10565b3480156103cc57600080fd5b5061032360065481565b3480156103e257600080fd5b506103236103f1366004613c88565b610a53565b34801561040257600080fd5b50601054610386906001600160a01b031681565b34801561042257600080fd5b50600554610386906001600160a01b031681565b34801561044257600080fd5b5060095461035690600160a01b900460ff1681565b34801561046357600080fd5b50610323610472366004613cff565b610b63565b34801561048357600080fd5b5061048c610b84565b005b34801561049a57600080fd5b5061048c6104a9366004613d2d565b610c02565b3480156104ba57600080fd5b506103236104c9366004613cff565b610d96565b3480156104da57600080fd5b5061032360125481565b3480156104f057600080fd5b5061048c6104ff366004613d4a565b610da6565b61048c610512366004613dcb565b610ecd565b34801561052357600080fd5b50610537610532366004613e7f565b611052565b6040805192835260208301919091520161032d565b34801561055857600080fd5b50610323611237565b34801561056d57600080fd5b506103b36112fc565b34801561058257600080fd5b5061032360115481565b34801561059857600080fd5b5061048c6105a7366004613f36565b611309565b3480156105b857600080fd5b5061048c6105c7366004613f36565b6113f9565b3480156105d857600080fd5b506105ec6105e7366004613cff565b6114d6565b60405161032d9190613f58565b34801561060557600080fd5b5061064a610614366004613cff565b6008602052600090815260409020805460038201546004830154600584015460069094015460ff93841694929391929091169085565b6040805160ff909616865260208601949094529284019190915215156060830152608082015260a00161032d565b34801561068457600080fd5b50600954610386906001600160a01b031681565b3480156106a457600080fd5b50600e54610386906001600160a01b031681565b3480156106c457600080fd5b5061048c6106d3366004613f8e565b611535565b3480156106e457600080fd5b50600c5461035690600160a01b900460ff1681565b34801561070557600080fd5b50610323600f5481565b34801561071b57600080fd5b50601354610386906001600160a01b031681565b34801561073b57600080fd5b5061048c61074a366004613cff565b611618565b34801561075b57600080fd5b506103b36116e6565b34801561077057600080fd5b5061048c6116f3565b34801561078557600080fd5b506003546103569060ff1681565b34801561079f57600080fd5b5061032360045481565b3480156107b557600080fd5b5061048c6107c4366004613fba565b6117d0565b3480156107d557600080fd5b506103566107e4366004613cff565b611a64565b3480156107f557600080fd5b5061081f604080513060208201526003916060910160405160208183030381529060405290509091565b60405161032d92919061403c565b34801561083957600080fd5b5061048c6121f7565b34801561084e57600080fd5b50600e5461035690600160a01b900460ff1681565b34801561086f57600080fd5b5061053761087e366004614055565b6122ca565b34801561088f57600080fd5b5060105461035690600160a01b900460ff1681565b3480156108b057600080fd5b506040516002815260200161032d565b3480156108cc57600080fd5b506105376108db3660046140ff565b6124a2565b3480156108ec57600080fd5b506105376108fb3660046141be565b61269d565b34801561090c57600080fd5b5061048c6128b5565b34801561092157600080fd5b5061032362278d0081565b60007fffffffff0000000000000000000000000000000000000000000000000000000082167f6930ebcc0000000000000000000000000000000000000000000000000000000014806109bf57507f01ffc9a7000000000000000000000000000000000000000000000000000000007fffffffff000000000000000000000000000000000000000000000000000000008316145b92915050565b600180546109d290614244565b80601f01602080910402602001604051908101604052809291908181526020018280546109fe90614244565b8015610a4b5780601f10610a2057610100808354040283529160200191610a4b565b820191906000526020600020905b815481529060010190602001808311610a2e57829003601f168201915b505050505081565b60408051602380825261048082019092526000918291906020820161046080368337019050509050610a8786828587612988565b6010546040517fea50d0e40000000000000000000000000000000000000000000000000000000081529192506001600160a01b03169063ea50d0e490610ad39088908590600401614297565b602060405180830381865afa158015610af0573d6000803e3d6000fd5b505050506040513d601f19601f82011682018060405250810190610b1491906142ee565b610b4a576040517fff3ee09d00000000000000000000000000000000000000000000000000000000815260040160405180910390fd5b6000610b568786612a5a565b925050505b949350505050565b600a8181548110610b7357600080fd5b600091825260209091200154905081565b600954600160a01b900460ff16610be25760405162461bcd60e51b815260206004820152600b60248201527f4e4f545f454e41424c454400000000000000000000000000000000000000000060448201526064015b60405180910390fd5b6009805474ff000000000000000000000000000000000000000019169055565b6001600160a01b037f0000000000000000000000000000000000000000000000000000000000000000163003610ca05760405162461bcd60e51b815260206004820152602c60248201527f46756e6374696f6e206d7573742062652063616c6c6564207468726f7567682060448201527f64656c656761746563616c6c00000000000000000000000000000000000000006064820152608401610bd9565b7f00000000000000000000000000000000000000000000000000000000000000006001600160a01b0316610cfb7f360894a13ba1a3210667c828492db98dca3e2076cc3735a920a3ca505d382bbc546001600160a01b031690565b6001600160a01b031614610d775760405162461bcd60e51b815260206004820152602c60248201527f46756e6374696f6e206d7573742062652063616c6c6564207468726f7567682060448201527f6163746976652070726f787900000000000000000000000000000000000000006064820152608401610bd9565b60408051600080825260208201909252610d9391839190612b0b565b50565b600d8181548110610b7357600080fd5b8151600003610df75760405162461bcd60e51b815260206004820152600e60248201527f494e56414c49445f5055424b45590000000000000000000000000000000000006044820152606401610bd9565b6040805160008152602081018083528151902091610e1791849101614310565b6040516020818303038152906040528051906020012003610e7a5760405162461bcd60e51b815260206004820152601560248201527f494e56414c49445f43524544454e5449414c5f494400000000000000000000006044820152606401610bd9565b8151610e8d90600a906020850190613992565b50600b610e9a828261437a565b50610ea483612cb0565b50506009805474ff00000000000000000000000000000000000000001916600160a01b17905550565b6001600160a01b037f0000000000000000000000000000000000000000000000000000000000000000163003610f6b5760405162461bcd60e51b815260206004820152602c60248201527f46756e6374696f6e206d7573742062652063616c6c6564207468726f7567682060448201527f64656c656761746563616c6c00000000000000000000000000000000000000006064820152608401610bd9565b7f00000000000000000000000000000000000000000000000000000000000000006001600160a01b0316610fc67f360894a13ba1a3210667c828492db98dca3e2076cc3735a920a3ca505d382bbc546001600160a01b031690565b6001600160a01b0316146110425760405162461bcd60e51b815260206004820152602c60248201527f46756e6374696f6e206d7573742062652063616c6c6564207468726f7567682060448201527f6163746976652070726f787900000000000000000000000000000000000000006064820152608401610bd9565b61104e82826001612b0b565b5050565b60055460009081906001600160a01b031633036110b15760405162461bcd60e51b815260206004820152600e60248201527f494e56414c49445f53454e4445520000000000000000000000000000000000006044820152606401610bd9565b600954600160a01b900460ff1661110a5760405162461bcd60e51b815260206004820152600b60248201527f4e4f545f454e41424c45440000000000000000000000000000000000000000006044820152606401610bd9565b6000611117888888612d08565b90506000611124856131d6565b604080516060808252610c2082019092529192506000919060208201610c00803683370190505090506111568261326a565b6009546040517fea50d0e40000000000000000000000000000000000000000000000000000000081529192506001600160a01b03169063ea50d0e4906111a2908a908590600401614297565b602060405180830381865afa1580156111bf573d6000803e3d6000fd5b505050506040513d601f19601f820116820180604052508101906111e391906142ee565b611219576040517fff3ee09d00000000000000000000000000000000000000000000000000000000815260040160405180910390fd5b61122660018b8b86613378565b945094505050509550959350505050565b6000306001600160a01b037f000000000000000000000000000000000000000000000000000000000000000016146112d75760405162461bcd60e51b815260206004820152603860248201527f555550535570677261646561626c653a206d757374206e6f742062652063616c60448201527f6c6564207468726f7567682064656c656761746563616c6c00000000000000006064820152608401610bd9565b507f360894a13ba1a3210667c828492db98dca3e2076cc3735a920a3ca505d382bbc90565b600280546109d290614244565b6005546001600160a01b031633146113635760405162461bcd60e51b815260206004820152600f60248201527f53454e4445525f4e4f545f5341464500000000000000000000000000000000006044820152606401610bd9565b806113b05760405162461bcd60e51b815260206004820152600c60248201527f494e56414c49445f4841534800000000000000000000000000000000000000006044820152606401610bd9565b6113b9816114d6565b6113c790600d906020613992565b506113d182612cb0565b5050600c805474ff00000000000000000000000000000000000000001916600160a01b179055565b6005546001600160a01b031633146114535760405162461bcd60e51b815260206004820152600f60248201527f53454e4445525f4e4f545f5341464500000000000000000000000000000000006044820152606401610bd9565b806114a05760405162461bcd60e51b815260206004820152600c60248201527f494e56414c49445f4841534800000000000000000000000000000000000000006044820152606401610bd9565b600f8190556114ae82612cb0565b5050600e805474ff00000000000000000000000000000000000000001916600160a01b179055565b6114de6139dd565b6114e66139dd565b60005b602081101561152e578381602081106115045761150461443a565b1a8282602081106115175761151761443a565b60200201528061152681614498565b9150506114e9565b5092915050565b6005546001600160a01b0316331461158f5760405162461bcd60e51b815260206004820152600f60248201527f53454e4445525f4e4f545f5341464500000000000000000000000000000000006044820152606401610bd9565b806115dc5760405162461bcd60e51b815260206004820152600c60248201527f494e56414c49445f4841534800000000000000000000000000000000000000006044820152606401610bd9565b601181905560128290556115ef83612cb0565b50506010805474ff00000000000000000000000000000000000000001916600160a01b17905550565b6005546001600160a01b031633146116725760405162461bcd60e51b815260206004820152600f60248201527f53454e4445525f4e4f545f5341464500000000000000000000000000000000006044820152606401610bd9565b6000818152600860205260409020600581015460ff16156116d55760405162461bcd60e51b815260206004820152601060248201527f414c52454144595f52454a4543544544000000000000000000000000000000006044820152606401610bd9565b600501805460ff1916600117905550565b600b80546109d290614244565b6005546001600160a01b0316331461174d5760405162461bcd60e51b815260206004820152600f60248201527f53454e4445525f4e4f545f5341464500000000000000000000000000000000006044820152606401610bd9565b601054600160a01b900460ff166117a65760405162461bcd60e51b815260206004820152600b60248201527f4e4f545f454e41424c45440000000000000000000000000000000000000000006044820152606401610bd9565b600060118190556012556010805474ff000000000000000000000000000000000000000019169055565b600054610100900460ff16158080156117f05750600054600160ff909116105b8061180a5750303b15801561180a575060005460ff166001145b61187c5760405162461bcd60e51b815260206004820152602e60248201527f496e697469616c697a61626c653a20636f6e747261637420697320616c72656160448201527f647920696e697469616c697a65640000000000000000000000000000000000006064820152608401610bd9565b6000805460ff1916600117905580156118bc57600080547fffffffffffffffffffffffffffffffffffffffffffffffffffffffffffff00ff166101001790555b61197e6040518060a001604052806040518060400160405280601481526020017f53616665205265636f7665727920506c7567696e00000000000000000000000081525081526020016040518060400160405280600581526020017f312e302e300000000000000000000000000000000000000000000000000000008152508152602001600115158152602001604051806020016040528060008152508152602001604051806060016040528060338152602001614829603391399052613403565b600580547fffffffffffffffffffffffff00000000000000000000000000000000000000009081166001600160a01b038a811691909117909255601380548216898416179055600e80548216888416179055600980548216878416179055600c80548216868416179055601080549091169184169190911790558015611a5b57600080547fffffffffffffffffffffffffffffffffffffffffffffffffffffffffffff00ff169055604051600181527f7f26b83ff96e1f2b6a682f133852f6798a09c465da95921460cefb38474024989060200160405180910390a15b50505050505050565b600081600003611ab65760405162461bcd60e51b815260206004820152601360248201527f494e56414c49445f5245434f564552595f4944000000000000000000000000006044820152606401610bd9565b6000828152600860205260409020600581015460ff1615611b195760405162461bcd60e51b815260206004820152601160248201527f50524f504f53414c5f52454a45435445440000000000000000000000000000006044820152606401610bd9565b8060040154421015611b6d5760405162461bcd60e51b815260206004820152601160248201527f44454c41595f4e4f545f455850495245440000000000000000000000000000006044820152606401610bd9565b805460ff166003148015611b8657506012548160060154105b15611bd35760405162461bcd60e51b815260206004820152601560248201527f494e53554646494349454e545f415050524f56414c00000000000000000000006044820152606401610bd9565b6003810154600554604080517fe75235b80000000000000000000000000000000000000000000000000000000081529051600093926001600160a01b03169163e75235b89160048083019260209291908290030181865afa158015611c3c573d6000803e3d6000fd5b505050506040513d601f19601f82011682018060405250810190611c6091906144b2565b60028401549114159150600082611c775781611c82565b611c828260016144cb565b905060008167ffffffffffffffff811115611c9f57611c9f613b23565b604051908082528060200260200182016040528015611cec57816020015b60408051606080820183526000808352602083015291810191909152815260200190600190039081611cbd5790505b509050606060005b84811015611f3e5763e318b52b60e01b611dec886002018381548110611d1c57611d1c61443a565b6000918252602091829020015460028b01805460408051828602810186019091528181526001600160a01b0390931693830182828015611d8557602002820191906000526020600020905b81546001600160a01b03168152600190910190602001808311611d67575b50505050508a600101805480602002602001604051908101604052809291908181526020018280548015611de257602002820191906000526020600020905b81546001600160a01b03168152600190910190602001808311611dc4575b505050505061344e565b886002018381548110611e0157611e0161443a565b60009182526020909120015460018a0180546001600160a01b039092169185908110611e2f57611e2f61443a565b6000918252602090912001546040516001600160a01b039384166024820152918316604483015291909116606482015260840160408051601f198184030181529190526020810180517bffffffffffffffffffffffffffffffffffffffffffffffffffffffff167fffffffff000000000000000000000000000000000000000000000000000000009093169290921790915260055484519193506001600160a01b031690849083908110611ee557611ee561443a565b6020026020010151600001906001600160a01b031690816001600160a01b03168152505081838281518110611f1c57611f1c61443a565b6020026020010151604001819052508080611f3690614498565b915050611cf4565b50841561204a576005546001600160a01b031682611f5d6001866144de565b81518110611f6d57611f6d61443a565b60209081029190910101516001600160a01b03909116905260038601546040517f694e80c30000000000000000000000000000000000000000000000000000000091611fbf9160240190815260200190565b60408051601f198184030181529190526020810180517bffffffffffffffffffffffffffffffffffffffffffffffffffffffff167fffffffff00000000000000000000000000000000000000000000000000000000909316929092179091528261202a6001866144de565b8151811061203a5761203a61443a565b6020026020010151604001819052505b6040805160608101825283815260055482517faffed0e000000000000000000000000000000000000000000000000000000000815292516000936020808501936001600160a01b03169263affed0e09260048082019392918290030181865afa1580156120bb573d6000803e3d6000fd5b505050506040513d601f19601f820116820180604052508101906120df91906144b2565b8152600480546020909201919091526013546005546040517f0f9919150000000000000000000000000000000000000000000000000000000081529394506001600160a01b0391821693630f9919159361213f93909216918691016144f1565b6000604051808303816000875af192505050801561217f57506040513d6000823e601f3d908101601f1916820160405261217c91908101906145c0565b60015b6121e7573d8080156121ad576040519150601f19603f3d011682016040523d82523d6000602084013e6121b2565b606091505b50806040517f2e268859000000000000000000000000000000000000000000000000000000008152600401610bd99190613b10565b5050600198975050505050505050565b6005546001600160a01b031633146122515760405162461bcd60e51b815260206004820152600f60248201527f53454e4445525f4e4f545f5341464500000000000000000000000000000000006044820152606401610bd9565b600e54600160a01b900460ff166122aa5760405162461bcd60e51b815260206004820152600b60248201527f4e4f545f454e41424c45440000000000000000000000000000000000000000006044820152606401610bd9565b600e805474ff000000000000000000000000000000000000000019169055565b60055460009081906001600160a01b031633036123295760405162461bcd60e51b815260206004820152600e60248201527f494e56414c49445f53454e4445520000000000000000000000000000000000006044820152606401610bd9565b600e54600160a01b900460ff166123825760405162461bcd60e51b815260206004820152600b60248201527f4e4f545f454e41424c45440000000000000000000000000000000000000000006044820152606401610bd9565b600061238f888888612d08565b60408051602180825261044082019092529192506000919060208201610420803683370190505090506123c281866135da565b600e546040517fea50d0e40000000000000000000000000000000000000000000000000000000081529192506001600160a01b03169063ea50d0e49061240e9089908590600401614297565b602060405180830381865afa15801561242b573d6000803e3d6000fd5b505050506040513d601f19601f8201168201806040525081019061244f91906142ee565b612485576040517fff3ee09d00000000000000000000000000000000000000000000000000000000815260040160405180910390fd5b61249260008a8a85613378565b9350935050509550959350505050565b60055460009081906001600160a01b031633036125015760405162461bcd60e51b815260206004820152600e60248201527f494e56414c49445f53454e4445520000000000000000000000000000000000006044820152606401610bd9565b601054600160a01b900460ff1661255a5760405162461bcd60e51b815260206004820152600b60248201527f4e4f545f454e41424c45440000000000000000000000000000000000000000006044820152606401610bd9565b6000612567898989612d08565b60408051602380825261048082019092529192506000919060208201610460803683370190505090506125aa60075460016125a291906144cb565b828789612988565b6010546040517fea50d0e40000000000000000000000000000000000000000000000000000000081529192506001600160a01b03169063ea50d0e4906125f6908a908590600401614297565b602060405180830381865afa158015612613573d6000803e3d6000fd5b505050506040513d601f19601f8201168201806040525081019061263791906142ee565b61266d576040517fff3ee09d00000000000000000000000000000000000000000000000000000000815260040160405180910390fd5b60008061267d60038d8d87613378565b9150915061268b8289612a5a565b50909b909a5098505050505050505050565b60055460009081906001600160a01b031633036126fc5760405162461bcd60e51b815260206004820152600e60248201527f494e56414c49445f53454e4445520000000000000000000000000000000000006044820152606401610bd9565b600c54600160a01b900460ff166127555760405162461bcd60e51b815260206004820152600b60248201527f4e4f545f454e41424c45440000000000000000000000000000000000000000006044820152606401610bd9565b6000612762878787612d08565b6040805160208082526104208201909252919250600091908082016104008036833701905050600d8054604080516020808402820181019092528281529394508301828280156127d157602002820191906000526020600020905b8154815260200190600101908083116127bd575b5050600c546040517fea50d0e40000000000000000000000000000000000000000000000000000000081529495506001600160a01b03169363ea50d0e4935061282292508991508590600401614297565b602060405180830381865afa15801561283f573d6000803e3d6000fd5b505050506040513d601f19601f8201168201806040525081019061286391906142ee565b612899576040517fff3ee09d00000000000000000000000000000000000000000000000000000000815260040160405180910390fd5b6128a66002898985613378565b93509350505094509492505050565b6005546001600160a01b0316331461290f5760405162461bcd60e51b815260206004820152600f60248201527f53454e4445525f4e4f545f5341464500000000000000000000000000000000006044820152606401610bd9565b600c54600160a01b900460ff166129685760405162461bcd60e51b815260206004820152600b60248201527f4e4f545f454e41424c45440000000000000000000000000000000000000000006044820152606401610bd9565b600c805474ff000000000000000000000000000000000000000019169055565b6060601154846000815181106129a0576129a061443a565b6020026020010181815250506000801b846001815181106129c3576129c361443a565b60200260200101818152505081846002815181106129e3576129e361443a565b60200260200101818152505060005b6020811015612a5057838181518110612a0d57612a0d61443a565b602002602001015185826003612a2391906144cb565b81518110612a3357612a3361443a565b602090810291909101015280612a4881614498565b9150506129f2565b5092949350505050565b60008281526008602090815260408083208484526007810190925282205460ff1615612ac85760405162461bcd60e51b815260206004820152601160248201527f494e56414c49445f4e554c4c49464945520000000000000000000000000000006044820152606401610bd9565b60008381526007820160205260408120805460ff1916600190811790915560068301805491929091612afb9084906144cb565b9091555050600601549392505050565b7f4910fdfa16fed3260ed0e7147f7cc6da11a60208b5b9406d12a635614ffd91435460ff1615612b4357612b3e83613667565b505050565b826001600160a01b03166352d1902d6040518163ffffffff1660e01b8152600401602060405180830381865afa925050508015612b9d575060408051601f3d908101601f19168201909252612b9a918101906144b2565b60015b612c0f5760405162461bcd60e51b815260206004820152602e60248201527f45524331393637557067726164653a206e657720696d706c656d656e7461746960448201527f6f6e206973206e6f7420555550530000000000000000000000000000000000006064820152608401610bd9565b7f360894a13ba1a3210667c828492db98dca3e2076cc3735a920a3ca505d382bbc8114612ca45760405162461bcd60e51b815260206004820152602960248201527f45524331393637557067726164653a20756e737570706f727465642070726f7860448201527f6961626c655555494400000000000000000000000000000000000000000000006064820152608401610bd9565b50612b3e83838361373d565b62278d00811015612d035760405162461bcd60e51b815260206004820152600f60248201527f44454c41595f544f4f5f53484f525400000000000000000000000000000000006044820152606401610bd9565b600655565b60008251845114612d5b5760405162461bcd60e51b815260206004820152600e60248201527f554e455155414c5f4c454e4754480000000000000000000000000000000000006044820152606401610bd9565b600554604080517fa0e67e2b00000000000000000000000000000000000000000000000000000000815290516000926001600160a01b03169163a0e67e2b91600480830192869291908290030181865afa158015612dbd573d6000803e3d6000fd5b505050506040513d6000823e601f3d908101601f19168201604052612de591908101906146ad565b9050805185511115612e395760405162461bcd60e51b815260206004820152600e60248201527f494e56414c49445f4c454e4754480000000000000000000000000000000000006044820152606401610bd9565b60005b85518110156130de5760055486516001600160a01b0390911690632f54bf6e90889084908110612e6e57612e6e61443a565b60200260200101516040518263ffffffff1660e01b8152600401612ea191906001600160a01b0391909116815260200190565b602060405180830381865afa158015612ebe573d6000803e3d6000fd5b505050506040513d601f19601f82011682018060405250810190612ee291906142ee565b612f2e5760405162461bcd60e51b815260206004820152600960248201527f4e4f545f4f574e455200000000000000000000000000000000000000000000006044820152606401610bd9565b60055485516001600160a01b0390911690632f54bf6e90879084908110612f5757612f5761443a565b60200260200101516040518263ffffffff1660e01b8152600401612f8a91906001600160a01b0391909116815260200190565b602060405180830381865afa158015612fa7573d6000803e3d6000fd5b505050506040513d601f19601f82011682018060405250810190612fcb91906142ee565b156130185760405162461bcd60e51b815260206004820152600d60248201527f414c44524544595f4f574e4552000000000000000000000000000000000000006044820152606401610bd9565b60006001600160a01b03168582815181106130355761303561443a565b60200260200101516001600160a01b031614158015613080575060016001600160a01b031685828151811061306c5761306c61443a565b60200260200101516001600160a01b031614155b6130cc5760405162461bcd60e51b815260206004820152600f60248201527f494e56414c49445f4144445245535300000000000000000000000000000000006044820152606401610bd9565b806130d681614498565b915050612e3c565b50600554604080517fe75235b800000000000000000000000000000000000000000000000000000000815290516000926001600160a01b03169163e75235b89160048083019260209291908290030181865afa158015613142573d6000803e3d6000fd5b505050506040513d601f19601f8201168201806040525081019061316691906144b2565b905060008185036131775781613179565b845b905080835110156131cc5760405162461bcd60e51b815260206004820152601160248201527f494e56414c49445f5448524553484f4c440000000000000000000000000000006044820152606401610bd9565b9695505050505050565b6040517ff8f5689c00000000000000000000000000000000000000000000000000000000815260009073__$6d399485da7ef05af8887e90c5d884cf80$__9063f8f5689c90613229908590600401613b10565b602060405180830381865af4158015613246573d6000803e3d6000fd5b505050506040513d601f19601f820116820180604052508101906109bf91906144b2565b604080516060808252610c2082019092526000908260208201610c008036833701905050905060005b602081101561152e57600a81815481106132af576132af61443a565b90600052602060002001548282815181106132cc576132cc61443a565b602002602001018181525050600a8160206132e791906144cb565b815481106132f7576132f761443a565b90600052602060002001548282602061331091906144cb565b815181106133205761332061443a565b60200260200101818152505083816020811061333e5761333e61443a565b1a8261334b8360406144cb565b8151811061335b5761335b61443a565b60209081029190910101528061337081614498565b915050613293565b6000806000600754600161338c91906144cb565b6000818152600860209081526040909120805460ff191660ff8b161781558851929350916133c2916002840191908a01906139fc565b5085516133d890600183019060208901906139fc565b50600381018590556006546133ed90426144cb565b6004909101819055909250905094509492505050565b6004547f522c683f99251eea7f3b027592e92a5398e7582983be1f7c0f33715ce025740f61343083613768565b60405161343d9190613b10565b60405180910390a2610d93816137cf565b600080600560009054906101000a90046001600160a01b03166001600160a01b031663a0e67e2b6040518163ffffffff1660e01b8152600401600060405180830381865afa1580156134a4573d6000803e3d6000fd5b505050506040513d6000823e601f3d908101601f191682016040526134cc91908101906146ad565b90506000805b825181101561352757866001600160a01b03168382815181106134f7576134f761443a565b60200260200101516001600160a01b03160361351557809150613527565b8061351f81614498565b9150506134d2565b5060008115613559578261353c6001846144de565b8151811061354c5761354c61443a565b602002602001015161355c565b60015b905060005b86518110156135cf57816001600160a01b03168782815181106135865761358661443a565b60200260200101516001600160a01b0316036135bd578581815181106135ae576135ae61443a565b602002602001015191506135cf565b806135c781614498565b915050613561565b509695505050505050565b6060600f54836000815181106135f2576135f261443a565b60200260200101818152505060005b602081101561365f5782818151811061361c5761361c61443a565b60200260200101518482600161363291906144cb565b815181106136425761364261443a565b60209081029190910101528061365781614498565b915050613601565b509192915050565b6001600160a01b0381163b6136e45760405162461bcd60e51b815260206004820152602d60248201527f455243313936373a206e657720696d706c656d656e746174696f6e206973206e60448201527f6f74206120636f6e7472616374000000000000000000000000000000000000006064820152608401610bd9565b7f360894a13ba1a3210667c828492db98dca3e2076cc3735a920a3ca505d382bbc80547fffffffffffffffffffffffff0000000000000000000000000000000000000000166001600160a01b0392909216919091179055565b6137468361381f565b6000825111806137535750805b15612b3e57613762838361385f565b50505050565b60606000808360000151846020015185604001518660600151876080015160405160200161379a959493929190614747565b60408051601f19818403018152908290526137b99392916020016147a8565b6040516020818303038152906040529050919050565b80516001906137de908261437a565b5060208101516002906137f1908261437a565b5060408101516003805460ff191691151591909117905561381181613768565b805160209091012060045550565b61382881613667565b6040516001600160a01b038216907fbc7cd75a20ee27fd9adebab32041f755214dbc6bffa90cc0225b39da2e5c2d3b90600090a250565b606061388483836040518060600160405280602781526020016148026027913961388b565b9392505050565b6060600080856001600160a01b0316856040516138a89190614310565b600060405180830381855af49150503d80600081146138e3576040519150601f19603f3d011682016040523d82523d6000602084013e6138e8565b606091505b50915091506131cc868383876060831561396357825160000361395c576001600160a01b0385163b61395c5760405162461bcd60e51b815260206004820152601d60248201527f416464726573733a2063616c6c20746f206e6f6e2d636f6e74726163740000006044820152606401610bd9565b5081610b5b565b610b5b83838151156139785781518083602001fd5b8060405162461bcd60e51b8152600401610bd99190613b10565b8280548282559060005260206000209081019282156139cd579160200282015b828111156139cd5782518255916020019190600101906139b2565b506139d9929150613a69565b5090565b6040518061040001604052806020906020820280368337509192915050565b8280548282559060005260206000209081019282156139cd579160200282015b828111156139cd57825182547fffffffffffffffffffffffff0000000000000000000000000000000000000000166001600160a01b03909116178255602090920191600190910190613a1c565b5b808211156139d95760008155600101613a6a565b600060208284031215613a9057600080fd5b81357fffffffff000000000000000000000000000000000000000000000000000000008116811461388457600080fd5b60005b83811015613adb578181015183820152602001613ac3565b50506000910152565b60008151808452613afc816020860160208601613ac0565b601f01601f19169290920160200192915050565b6020815260006138846020830184613ae4565b7f4e487b7100000000000000000000000000000000000000000000000000000000600052604160045260246000fd5b604051601f8201601f1916810167ffffffffffffffff81118282101715613b7b57613b7b613b23565b604052919050565b600067ffffffffffffffff821115613b9d57613b9d613b23565b50601f01601f191660200190565b6000613bbe613bb984613b83565b613b52565b9050828152838383011115613bd257600080fd5b828260208301376000602084830101529392505050565b600082601f830112613bfa57600080fd5b61388483833560208501613bab565b600067ffffffffffffffff821115613c2357613c23613b23565b5060051b60200190565b600082601f830112613c3e57600080fd5b81356020613c4e613bb983613c09565b82815260059290921b84018101918181019086841115613c6d57600080fd5b8286015b848110156135cf5780358352918301918301613c71565b60008060008060808587031215613c9e57600080fd5b84359350602085013567ffffffffffffffff80821115613cbd57600080fd5b613cc988838901613be9565b9450604087013593506060870135915080821115613ce657600080fd5b50613cf387828801613c2d565b91505092959194509250565b600060208284031215613d1157600080fd5b5035919050565b6001600160a01b0381168114610d9357600080fd5b600060208284031215613d3f57600080fd5b813561388481613d18565b600080600060608486031215613d5f57600080fd5b83359250602084013567ffffffffffffffff80821115613d7e57600080fd5b613d8a87838801613c2d565b93506040860135915080821115613da057600080fd5b508401601f81018613613db257600080fd5b613dc186823560208401613bab565b9150509250925092565b60008060408385031215613dde57600080fd5b8235613de981613d18565b9150602083013567ffffffffffffffff811115613e0557600080fd5b613e1185828601613be9565b9150509250929050565b600082601f830112613e2c57600080fd5b81356020613e3c613bb983613c09565b82815260059290921b84018101918181019086841115613e5b57600080fd5b8286015b848110156135cf578035613e7281613d18565b8352918301918301613e5f565b600080600080600060a08688031215613e9757600080fd5b853567ffffffffffffffff80821115613eaf57600080fd5b613ebb89838a01613e1b565b96506020880135915080821115613ed157600080fd5b613edd89838a01613e1b565b9550604088013594506060880135915080821115613efa57600080fd5b613f0689838a01613be9565b93506080880135915080821115613f1c57600080fd5b50613f2988828901613be9565b9150509295509295909350565b60008060408385031215613f4957600080fd5b50508035926020909101359150565b6104008101818360005b6020808210613f715750613f85565b825184529283019290910190600101613f62565b50505092915050565b600080600060608486031215613fa357600080fd5b505081359360208301359350604090920135919050565b60008060008060008060c08789031215613fd357600080fd5b8635613fde81613d18565b95506020870135613fee81613d18565b94506040870135613ffe81613d18565b9350606087013561400e81613d18565b9250608087013561401e81613d18565b915060a087013561402e81613d18565b809150509295509295509295565b828152604060208201526000610b5b6040830184613ae4565b600080600080600060a0868803121561406d57600080fd5b853567ffffffffffffffff8082111561408557600080fd5b61409189838a01613e1b565b965060208801359150808211156140a757600080fd5b6140b389838a01613e1b565b95506040880135945060608801359150808211156140d057600080fd5b6140dc89838a01613be9565b935060808801359150808211156140f257600080fd5b50613f2988828901613c2d565b60008060008060008060c0878903121561411857600080fd5b863567ffffffffffffffff8082111561413057600080fd5b61413c8a838b01613e1b565b9750602089013591508082111561415257600080fd5b61415e8a838b01613e1b565b965060408901359550606089013591508082111561417b57600080fd5b6141878a838b01613be9565b94506080890135935060a08901359150808211156141a457600080fd5b506141b189828a01613c2d565b9150509295509295509295565b600080600080608085870312156141d457600080fd5b843567ffffffffffffffff808211156141ec57600080fd5b6141f888838901613e1b565b9550602087013591508082111561420e57600080fd5b61421a88838901613e1b565b945060408701359350606087013591508082111561423757600080fd5b50613cf387828801613be9565b600181811c9082168061425857607f821691505b602082108103614291577f4e487b7100000000000000000000000000000000000000000000000000000000600052602260045260246000fd5b50919050565b6040815260006142aa6040830185613ae4565b82810360208481019190915284518083528582019282019060005b818110156142e1578451835293830193918301916001016142c5565b5090979650505050505050565b60006020828403121561430057600080fd5b8151801515811461388457600080fd5b60008251614322818460208701613ac0565b9190910192915050565b601f821115612b3e57600081815260208120601f850160051c810160208610156143535750805b601f850160051c820191505b818110156143725782815560010161435f565b505050505050565b815167ffffffffffffffff81111561439457614394613b23565b6143a8816143a28454614244565b8461432c565b602080601f8311600181146143dd57600084156143c55750858301515b600019600386901b1c1916600185901b178555614372565b600085815260208120601f198616915b8281101561440c578886015182559484019460019091019084016143ed565b508582101561442a5787850151600019600388901b60f8161c191681555b5050505050600190811b01905550565b7f4e487b7100000000000000000000000000000000000000000000000000000000600052603260045260246000fd5b7f4e487b7100000000000000000000000000000000000000000000000000000000600052601160045260246000fd5b600060001982036144ab576144ab614469565b5060010190565b6000602082840312156144c457600080fd5b5051919050565b808201808211156109bf576109bf614469565b818103818111156109bf576109bf614469565b600060406001600160a01b0380861684526020828186015260a0850186516060808689015282825180855260c08a01915060c08160051b8b01019450858401935060005b8181101561459c578a86037fffffffffffffffffffffffffffffffffffffffffffffffffffffffffffffff400183528451805189168752878101518888015289015189870185905261458985880182613ae4565b9650509386019391860191600101614535565b50505083890151818901525050838701516080870152809450505050509392505050565b600060208083850312156145d357600080fd5b825167ffffffffffffffff808211156145eb57600080fd5b818501915085601f8301126145ff57600080fd5b815161460d613bb982613c09565b81815260059190911b8301840190848101908883111561462c57600080fd5b8585015b838110156146a0578051858111156146485760008081fd5b8601603f81018b1361465a5760008081fd5b87810151604061466c613bb983613b83565b8281528d828486010111156146815760008081fd5b614690838c8301848701613ac0565b8652505050918601918601614630565b5098975050505050505050565b600060208083850312156146c057600080fd5b825167ffffffffffffffff8111156146d757600080fd5b8301601f810185136146e857600080fd5b80516146f6613bb982613c09565b81815260059190911b8201830190838101908783111561471557600080fd5b928401925b8284101561473c57835161472d81613d18565b8252928401929084019061471a565b979650505050505050565b60a08152600061475a60a0830188613ae4565b828103602084015261476c8188613ae4565b9050851515604084015282810360608401526147888186613ae4565b9050828103608084015261479c8185613ae4565b98975050505050505050565b60007fff00000000000000000000000000000000000000000000000000000000000000808660f81b168352808560f81b1660018401525082516147f2816002850160208701613ac0565b9190910160020194935050505056fe416464726573733a206c6f772d6c6576656c2064656c65676174652063616c6c206661696c656468747470733a2f2f6769746875622e636f6d2f706f72636f2d726f73736f2d6a2f736166652d7265636f766572792d6e6f6972a2646970667358221220186a71e2065e9008199148352e63b4cb7f3bc9f05ca5a0b6cce2994f94a9d19564736f6c63430008120033",
    "linkReferences": {
      "src/helper/WebAuthnHelper.sol": {
        "WebAuthnHelper": [
          {
            "start": 18133,
            "length": 20
          }
        ]
      }
    }
  },
  "methodIdentifiers": {
    "createRecoveryPluginNoir(address,uint256)": "9485afa6",
    "ecrecoverVerifier()": "7c64dd76",
    "getAddress(address,uint256)": "8cb84e18",
    "getPluginAddr(address)": "bbb76c1d",
    "owner()": "8da5cb5b",
    "recoveryPluginNoirImp()": "38a73591",
    "renounceOwnership()": "715018a6",
    "safeProtocolManager()": "8e482341",
    "safeToPlugins(address)": "84322223",
    "secretVerifier()": "024e5d15",
    "setSafeProtocolManagerAddr(address)": "a6d1fec5",
    "setVerifier(uint256,address)": "1957ba4e",
    "socialRecoverVerifier()": "17f5705e",
    "transferOwnership(address)": "f2fde38b",
    "webAuthnVerifier()": "7b49fa19"
  },
  "id": 82
}