{
  "abi": [
    {
      "inputs": [
        {
          "internalType": "address",
          "name": "initialOwner",
          "type": "address"
        }
      ],
      "stateMutability": "nonpayable",
      "type": "constructor"
    },
    {
      "inputs": [
        {
          "internalType": "address",
          "name": "module",
          "type": "address"
        },
        {
          "internalType": "uint8",
          "name": "moduleTypes",
          "type": "uint8"
        }
      ],
      "name": "CannotAddModule",
      "type": "error"
    },
    {
      "inputs": [
        {
          "internalType": "address",
          "name": "module",
          "type": "address"
        }
      ],
      "name": "CannotFlagModule",
      "type": "error"
    },
    {
      "inputs": [
        {
          "internalType": "address",
          "name": "module",
          "type": "address"
        },
        {
          "internalType": "bytes4",
          "name": "expectedInterfaceId",
          "type": "bytes4"
        }
      ],
      "name": "ModuleDoesNotSupportExpectedInterfaceId",
      "type": "error"
    },
    {
      "anonymous": false,
      "inputs": [
        {
          "indexed": true,
          "internalType": "address",
          "name": "module",
          "type": "address"
        }
      ],
      "name": "ModuleAdded",
      "type": "event"
    },
    {
      "anonymous": false,
      "inputs": [
        {
          "indexed": true,
          "internalType": "address",
          "name": "module",
          "type": "address"
        }
      ],
      "name": "ModuleFlagged",
      "type": "event"
    },
    {
      "anonymous": false,
      "inputs": [
        {
          "indexed": true,
          "internalType": "address",
          "name": "previousOwner",
          "type": "address"
        },
        {
          "indexed": true,
          "internalType": "address",
          "name": "newOwner",
          "type": "address"
        }
      ],
      "name": "OwnershipTransferStarted",
      "type": "event"
    },
    {
      "anonymous": false,
      "inputs": [
        {
          "indexed": true,
          "internalType": "address",
          "name": "previousOwner",
          "type": "address"
        },
        {
          "indexed": true,
          "internalType": "address",
          "name": "newOwner",
          "type": "address"
        }
      ],
      "name": "OwnershipTransferred",
      "type": "event"
    },
    {
      "inputs": [],
      "name": "acceptOwnership",
      "outputs": [],
      "stateMutability": "nonpayable",
      "type": "function"
    },
    {
      "inputs": [
        {
          "internalType": "address",
          "name": "module",
          "type": "address"
        },
        {
          "internalType": "uint8",
          "name": "moduleTypes",
          "type": "uint8"
        }
      ],
      "name": "addModule",
      "outputs": [],
      "stateMutability": "nonpayable",
      "type": "function"
    },
    {
      "inputs": [
        {
          "internalType": "address",
          "name": "module",
          "type": "address"
        },
        {
          "internalType": "bytes32",
          "name": "data",
          "type": "bytes32"
        }
      ],
      "name": "check",
      "outputs": [
        {
          "internalType": "uint64",
          "name": "listedAt",
          "type": "uint64"
        },
        {
          "internalType": "uint64",
          "name": "flaggedAt",
          "type": "uint64"
        }
      ],
      "stateMutability": "view",
      "type": "function"
    },
    {
      "inputs": [
        {
          "internalType": "address",
          "name": "module",
          "type": "address"
        }
      ],
      "name": "flagModule",
      "outputs": [],
      "stateMutability": "nonpayable",
      "type": "function"
    },
    {
      "inputs": [
        {
          "internalType": "address",
          "name": "",
          "type": "address"
        }
      ],
      "name": "listedModules",
      "outputs": [
        {
          "internalType": "uint64",
          "name": "listedAt",
          "type": "uint64"
        },
        {
          "internalType": "uint64",
          "name": "flaggedAt",
          "type": "uint64"
        },
        {
          "internalType": "uint8",
          "name": "moduleTypes",
          "type": "uint8"
        }
      ],
      "stateMutability": "view",
      "type": "function"
    },
    {
      "inputs": [],
      "name": "owner",
      "outputs": [
        {
          "internalType": "address",
          "name": "",
          "type": "address"
        }
      ],
      "stateMutability": "view",
      "type": "function"
    },
    {
      "inputs": [],
      "name": "pendingOwner",
      "outputs": [
        {
          "internalType": "address",
          "name": "",
          "type": "address"
        }
      ],
      "stateMutability": "view",
      "type": "function"
    },
    {
      "inputs": [],
      "name": "renounceOwnership",
      "outputs": [],
      "stateMutability": "nonpayable",
      "type": "function"
    },
    {
      "inputs": [
        {
          "internalType": "bytes4",
          "name": "interfaceId",
          "type": "bytes4"
        }
      ],
      "name": "supportsInterface",
      "outputs": [
        {
          "internalType": "bool",
          "name": "",
          "type": "bool"
        }
      ],
      "stateMutability": "view",
      "type": "function"
    },
    {
      "inputs": [
        {
          "internalType": "address",
          "name": "newOwner",
          "type": "address"
        }
      ],
      "name": "transferOwnership",
      "outputs": [],
      "stateMutability": "nonpayable",
      "type": "function"
    }
  ],
  "bytecode": {
    "object": "0x608060405234801561001057600080fd5b50604051610fda380380610fda83398101604081905261002f916100be565b61003833610047565b61004181610047565b506100ee565b600180546001600160a01b031916905561006b8161006e602090811b6106f717901c565b50565b600080546001600160a01b038381166001600160a01b0319831681178455604051919092169283917f8be0079c531659141344cd1fd0a4f28419497f9722a3daafe3b4186f6b6457e09190a35050565b6000602082840312156100d057600080fd5b81516001600160a01b03811681146100e757600080fd5b9392505050565b610edd806100fd6000396000f3fe608060405234801561001057600080fd5b50600436106100be5760003560e01c8063715018a6116100765780638da5cb5b1161005b5780638da5cb5b146101d5578063e30c397814610214578063f2fde38b1461023257600080fd5b8063715018a6146101c557806379ba5097146101cd57600080fd5b8063253bd7b7116100a7578063253bd7b71461010057806332b3d20e1461013457806340f182c5146101b257600080fd5b806301ffc9a7146100c357806308252d21146100eb575b600080fd5b6100d66100d1366004610d91565b610245565b60405190151581526020015b60405180910390f35b6100fe6100f9366004610e03565b6102de565b005b61011361010e366004610e1e565b6104d4565b6040805167ffffffffffffffff9384168152929091166020830152016100e2565b610188610142366004610e03565b60026020526000908152604090205467ffffffffffffffff8082169168010000000000000000810490911690700100000000000000000000000000000000900460ff1683565b6040805167ffffffffffffffff948516815293909216602084015260ff16908201526060016100e2565b6100fe6101c0366004610e48565b610568565b6100fe61057e565b6100fe610592565b60005473ffffffffffffffffffffffffffffffffffffffff165b60405173ffffffffffffffffffffffffffffffffffffffff90911681526020016100e2565b60015473ffffffffffffffffffffffffffffffffffffffff166101ef565b6100fe610240366004610e03565b610647565b60007fffffffff0000000000000000000000000000000000000000000000000000000082167f253bd7b70000000000000000000000000000000000000000000000000000000014806102d857507fffffffff0000000000000000000000000000000000000000000000000000000082167f01ffc9a700000000000000000000000000000000000000000000000000000000145b92915050565b6102e661076c565b73ffffffffffffffffffffffffffffffffffffffff81166000908152600260209081526040918290208251606081018452905467ffffffffffffffff80821680845268010000000000000000830490911693830193909352700100000000000000000000000000000000900460ff169281019290925215806103755750602081015167ffffffffffffffff1615155b156103c9576040517f71165a1f00000000000000000000000000000000000000000000000000000000815273ffffffffffffffffffffffffffffffffffffffff831660048201526024015b60405180910390fd5b60408051606081018252825167ffffffffffffffff908116825242811660208084019182528585015160ff90811685870190815273ffffffffffffffffffffffffffffffffffffffff8916600081815260029094528784209651875495519251909316700100000000000000000000000000000000027fffffffffffffffffffffffffffffff00ffffffffffffffffffffffffffffffff92871668010000000000000000027fffffffffffffffffffffffffffffffff000000000000000000000000000000009096169390961692909217939093179290921692909217909255915190917f19b35fede4ce74a5490b8148c89fd80803570d1a89cbe8fa93d8c354c926426b91a25050565b73ffffffffffffffffffffffffffffffffffffffff821660009081526002602090815260408083208151606081018352905467ffffffffffffffff80821680845268010000000000000000830490911694830185905260ff7001000000000000000000000000000000009092048281169484019490945294919286161690036105605760009250600091505b509250929050565b61057061076c565b61057a82826107ed565b5050565b61058661076c565b6105906000610d60565b565b600154339073ffffffffffffffffffffffffffffffffffffffff16811461063b576040517f08c379a000000000000000000000000000000000000000000000000000000000815260206004820152602960248201527f4f776e61626c6532537465703a2063616c6c6572206973206e6f74207468652060448201527f6e6577206f776e6572000000000000000000000000000000000000000000000060648201526084016103c0565b61064481610d60565b50565b61064f61076c565b6001805473ffffffffffffffffffffffffffffffffffffffff83167fffffffffffffffffffffffff000000000000000000000000000000000000000090911681179091556106b260005473ffffffffffffffffffffffffffffffffffffffff1690565b73ffffffffffffffffffffffffffffffffffffffff167f38d16b8cac22d99fc7c124b9cd0de2d3fa1faef420bfe791d8c362d765e2270060405160405180910390a350565b6000805473ffffffffffffffffffffffffffffffffffffffff8381167fffffffffffffffffffffffff0000000000000000000000000000000000000000831681178455604051919092169283917f8be0079c531659141344cd1fd0a4f28419497f9722a3daafe3b4186f6b6457e09190a35050565b60005473ffffffffffffffffffffffffffffffffffffffff163314610590576040517f08c379a000000000000000000000000000000000000000000000000000000000815260206004820181905260248201527f4f776e61626c653a2063616c6c6572206973206e6f7420746865206f776e657260448201526064016103c0565b73ffffffffffffffffffffffffffffffffffffffff82166000908152600260209081526040918290208251606081018452905467ffffffffffffffff80821680845268010000000000000000830490911693830193909352700100000000000000000000000000000000900460ff1692810192909252151580610873575060078260ff16115b156108cb576040517f4b2001fd00000000000000000000000000000000000000000000000000000000815273ffffffffffffffffffffffffffffffffffffffff8416600482015260ff831660248201526044016103c0565b600482811614801561098857506040517f01ffc9a70000000000000000000000000000000000000000000000000000000081527f907e1c5600000000000000000000000000000000000000000000000000000000600482015273ffffffffffffffffffffffffffffffffffffffff8416906301ffc9a790602401602060405180830381865afa158015610962573d6000803e3d6000fd5b505050506040513d601f19601f820116820180604052508101906109869190610e85565b155b156109fd576040517fd8bdb00100000000000000000000000000000000000000000000000000000000815273ffffffffffffffffffffffffffffffffffffffff841660048201527f907e1c560000000000000000000000000000000000000000000000000000000060248201526044016103c0565b6001828116148015610aba57506040517f01ffc9a70000000000000000000000000000000000000000000000000000000081527f6930ebcc00000000000000000000000000000000000000000000000000000000600482015273ffffffffffffffffffffffffffffffffffffffff8416906301ffc9a790602401602060405180830381865afa158015610a94573d6000803e3d6000fd5b505050506040513d601f19601f82011682018060405250810190610ab89190610e85565b155b15610b2f576040517fd8bdb00100000000000000000000000000000000000000000000000000000000815273ffffffffffffffffffffffffffffffffffffffff841660048201527f6930ebcc0000000000000000000000000000000000000000000000000000000060248201526044016103c0565b6002828116148015610bec57506040517f01ffc9a70000000000000000000000000000000000000000000000000000000081527ff601ad1500000000000000000000000000000000000000000000000000000000600482015273ffffffffffffffffffffffffffffffffffffffff8416906301ffc9a790602401602060405180830381865afa158015610bc6573d6000803e3d6000fd5b505050506040513d601f19601f82011682018060405250810190610bea9190610e85565b155b15610c61576040517fd8bdb00100000000000000000000000000000000000000000000000000000000815273ffffffffffffffffffffffffffffffffffffffff841660048201527ff601ad150000000000000000000000000000000000000000000000000000000060248201526044016103c0565b6040805160608101825267ffffffffffffffff42811682526000602080840182815260ff80891686880190815273ffffffffffffffffffffffffffffffffffffffff8b1680865260029094528785209651875493519151909216700100000000000000000000000000000000027fffffffffffffffffffffffffffffff00ffffffffffffffffffffffffffffffff91871668010000000000000000027fffffffffffffffffffffffffffffffff00000000000000000000000000000000909416929096169190911791909117169290921790925591517fead6a006345da1073a106d5f32372d2d2204f46cb0b4bca8f5ebafcbbed12b8a9190a2505050565b600180547fffffffffffffffffffffffff0000000000000000000000000000000000000000169055610644816106f7565b600060208284031215610da357600080fd5b81357fffffffff0000000000000000000000000000000000000000000000000000000081168114610dd357600080fd5b9392505050565b803573ffffffffffffffffffffffffffffffffffffffff81168114610dfe57600080fd5b919050565b600060208284031215610e1557600080fd5b610dd382610dda565b60008060408385031215610e3157600080fd5b610e3a83610dda565b946020939093013593505050565b60008060408385031215610e5b57600080fd5b610e6483610dda565b9150602083013560ff81168114610e7a57600080fd5b809150509250929050565b600060208284031215610e9757600080fd5b81518015158114610dd357600080fdfea2646970667358221220c6db15105fb575e474790a5a0cc300b73f9a32b8b019a60e3410e17f5f97ae8964736f6c63430008120033",
    "linkReferences": {}
  },
  "methodIdentifiers": {
    "acceptOwnership()": "79ba5097",
    "addModule(address,uint8)": "40f182c5",
    "check(address,bytes32)": "253bd7b7",
    "flagModule(address)": "08252d21",
    "listedModules(address)": "32b3d20e",
    "owner()": "8da5cb5b",
    "pendingOwner()": "e30c3978",
    "renounceOwnership()": "715018a6",
    "supportsInterface(bytes4)": "01ffc9a7",
    "transferOwnership(address)": "f2fde38b"
  },
  "id": 40
}